:020000040000FA
:0608000024EF33F01200AA
:020806001200DE
:06080800D0EF18F0120011
:02080E00C250D6
:08081000020B01E0010E1200D1
:0608180023EF2FF0120097
:02081E000700D1
:100820003D670000DC010000070000003B6700009E
:10083000F50100000200000037670000EC01000035
:100840000400000033670000E8010000040000001D
:1008500031670000F3010000020000002C67000077
:10086000E301000005000000EA660000000200004D
:040870004200000042
:0C087400D9CFE6FFE1CFD9FF0E0EE12640
:10088000FD0EDBCF2FF0FE0EDBCF30F0FB0EDB508A
:100890002F5C2B6EFC0EDB5030582C6E2D6A2E6AAE
:1008A0002CAE02D02D682E682BC0DFFF010E2CC0AD
:1008B000DBFF020E2DC0DBFF030E2EC0DBFF00C2EC
:1008C0002BF001C22CF02D6A2E6A2CAE02D02D68BE
:1008D0002E68D9CFE9FFDACFEAFFEB502E18E8AE49
:1008E00002D02E3408D02B50EE5C2C50EE582D50F8
:1008F000EE582E50EE582AE200C22FF001C230F01E
:100900002F6C301E000E3022316A326A30AE02D0B7
:1009100031683268D9CFE9FFDACFEAFF030EEBCFB7
:10092000F3FF3250F318E8AE02D0F33408D0EE50A3
:100930002F5CEE503058EE503158EE50325806E2EF
:10094000DE6ADE6ADE6ADD6ADD52DD52D950FD0FF5
:10095000E96EFF0EDA20EA6EEE50ED1025E1FB0E97
:10096000DBCF2BF0FC0EDBCF2CF0D8902C5004E624
:100970000A0E2B5C000E2C5817E2FB0EDBCF2DF07D
:10098000FC0EDBCF2EF02E3404E32D50F608FF0EC4
:100990002E540AE2F90EDBCFE9FFFA0EDBCFEAFFB5
:1009A000EE6AEE6AEE6AEE6AD9CFE9FFDACFEAFFC5
:1009B000EECFE6FFEECFE6FFEECFE6FFEFCFE6FFAE
:1009C000F90EDBCFE9FFFA0EDBCFEAFFEECFE6FF51
:1009D000EECFE6FFEECFE6FFEFCFE6FFFDEC0CF04B
:1009E000F56E080EE15EF5500A0E1BC0DBFF0B0E24
:1009F0001CC0DBFF0C0E1DC0DBFF0D0E1EC0DBFF9D
:100A000024C21BF025C21CF026C21DF027C21EF016
:100A1000DFCF20F0010EDBCF21F0020EDBCF22F082
:100A2000030EDBCF23F078EC31F017C033F018C0A1
:100A300034F019C035F01AC036F028C21BF029C2B4
:100A40001CF02AC21DF02BC21EF00A0EDBCF20F0D4
:100A50000B0EDBCF21F00C0EDBCF22F00D0EDBCF27
:100A600023F078EC31F0335017242F6E34501820D7
:100A7000306E35501920316E36501A20326ED9CF73
:100A8000E9FFDACFEAFFEECF3BF0EECF3CF0EECF5E
:100A90003DF0EFCF3EF0F90EDBCFE9FFFA0EDBCFF2
:100AA000EAFF040EE926000EEA22EE503B5C376EA8
:100AB000EE503C58386EEE503D58396EEE503E5870
:100AC0003A6E2CC21BF02DC21CF02EC21DF02FC29C
:100AD0001EF037C020F038C021F039C022F03AC0F3
:100AE00023F078EC31F02F5017242B6E3050182063
:100AF0002C6E315019202D6E32501A202E6E040E9D
:100B00002BC0DBFF050E2CC0DBFF060E2DC0DBFF6C
:100B1000070E2EC0DBFFF90EDBCFE9FFFA0EDBCFAD
:100B2000EAFF040EE926000EEA22DFCFEEFF010EF7
:100B3000DBCFEEFF020EDBCFEEFF030EDBCFEEFFCF
:100B4000040EDBCF1BF0050EDBCF1CF0060EDBCF57
:100B50001DF0070EDBCF1EF0B00E206E040E216ECE
:100B6000226A236AD2EC2FF0040E1BC0DBFF050EB5
:100B70001CC0DBFF060E1DC0DBFF070E1EC0DBFF27
:100B8000040EDBCF1CF0050EDBCF1DF0060EDBCF15
:100B90001EF0070EDBCF1FF0000E1F18E8AE02D0CC
:100BA0001F3409D07F0ED8801C54000E1D54000E37
:100BB0001E54000E1F5408E27F0EF36E080EF3CF92
:100BC000DBFF090EDB6A3BD0D950040FE96EDACFA8
:100BD000EAFF030EEB50FF0AE8AE02D0D88008D03F
:100BE000810EEE5CFF0EEE58FF0EEE58FF0EEE5833
:100BF00008E2810EF36E080EF3CFDBFF090EDB680F
:100C00001ED0040EDBCF1DF0050EDBCF1EF0080E4C
:100C10001DC0DBFF090E1EC0DBFFF90EDBCFE9FFB5
:100C2000FA0EDBCFEAFF0A0EDBCFEEFF0B0EDBCFB7
:100C3000EEFF0C0EDBCFEEFF0D0EDBCFEEFF080E4E
:100C4000DBCF2BF0090EDBCF2CF0D8902C5004E634
:100C5000010E2B5C000E2C580FE2FD0EDBCF2DF0A9
:100C6000FE0EDBCF2EF00001800E2E1405E1080EE3
:100C7000DB6A090EDB6A1ED0080EDBCF2BF0090EF3
:100C8000DBCF2CF02C3404E32B50FF08FF0E2C5448
:100C900011E2FD0EDBCF2DF0FE0EDBCF2EF02E3459
:100CA00004E22D500008000E2E5404E3080EDB6A07
:100CB000090EDB6A080EDBCF2BF0090EDBCF2CF020
:100CC0002BC0F3FF2CC0F4FF00D0D9CFE1FFE552D9
:100CD000E7CFD9FF1200D9CFE6FFE1CFD9FF1C0E35
:100CE000E126DE6ADD6A020EDB6A030EDB6A040EB1
:100CF000DB6A050EDB6A060EDB6A070EDB6A080E8E
:100D0000DB6A090EDB6A0A0EDB6A0B0EDB6A000E79
:100D1000E66E010EE66EA6EC14F0E552E5520C0EFE
:100D2000F3CFDBFF0D0EF4CFDBFF140EE66E010EEA
:100D3000E66EA6EC14F0E552E5520E0EF3CFDBFFA3
:100D40000F0EF4CFDBFF0C0EDBCF2DF00D0EDBCF43
:100D50002EF00E0EDB502D5C2B6E0F0EDB502E583E
:100D60002C6E100E2BC0DBFF110E2CC0DBFF04C25B
:100D70001BF005C21CF01D6A1E6A1CAE02D01D6865
:100D80001E68E80E206E030E216E226A236A78EC3C
:100D900031F0120E17C0DBFF130E18C0DBFF140E6C
:100DA00019C0DBFF150E1AC0DBFF120EDBCF1BF0E4
:100DB000130EDBCF1CF0140EDBCF1DF0150EDBCFB6
:100DC0001EF0210E206E010E216E226A236AD2ECE3
:100DD0002FF0160E1BC0DBFF170E1CC0DBFF180E1A
:100DE00002C2DBFF190E03C2DBFF1A0E02C2DBFFD9
:100DF0001B0E03C2DBFF160EDBCF2BF0170EDBCF73
:100E00002CF0020E226E236A2BC01DF02CC01EF0A7
:100E1000ACEC2FF01DC02BF01EC02CF0D950180FD9
:100E2000E96EDACFEAFF2B50EE5E2C50ED5A160E2B
:100E3000DBCF2BF0170EDBCF2CF0020E226E236AD5
:100E40002BC01DF02CC01EF0ACEC2FF01DC02BF001
:100E50001EC02CF0D9501A0FE96EDACFEAFF2B50E2
:100E6000EE262C50ED22180EDBCF2BF0190EDBCF27
:100E70002CF00001800E2C1410E01D681E680C0E72
:100E8000DBCF22F00D0EDBCF23F006EC30F00C0EA2
:100E90001BC0DBFF0D0E1CC0DBFF180EDBCF2BF0E1
:100EA000190EDBCF2CF02C3404E22B503208000E4C
:100EB0002C5419E2180EDBCF2DF0190EDBCF2EF0DB
:100EC000D8902E5004E6F40E2D5C010E2E580BE245
:100ED000F40EF36E180EF3CFDBFF010EF36E190E56
:100EE000F3CFDBFF45D0180EDBCF2BF0190EDBCF95
:100EF0002CF0D8802C5004E7CE0E2B5CFF0E2C5823
:100F000018E2180EDBCF2DF0190EDBCF2EF02E34A9
:100F100004E32D500C08FE0E2E540BE20C0EF36E63
:100F2000180EF3CFDBFFFE0EF36E190EF3CFDBFFCF
:100F30001FD0180EDBCF2BF0190EDBCF2CF0D88092
:100F40002C5004E7CE0E2B5CFF0E2C5811E3180E2C
:100F5000DBCF2DF0190EDBCF2EF02E3404E22D5016
:100F60003208000E2E5404E3180EDB6A190EDB6AF9
:100F7000060EE66E020EE66E0C0EDBCFE6FF0D0EE1
:100F8000DBCFE6FF180EDBCFE6FF190EDBCFE6FF67
:100F900071DCF56E060EE15EF550020EF3CFDBFF5D
:100FA000030EF4CFDBFF7F0EE76E020EDBCF2BF0DC
:100FB000030EDBCF2CF0E7502B26000E2C22060E62
:100FC0002BC0DBFF070E2CC0DBFF060EDBCF47F28A
:100FD0007F0E0201475D0DE2020EDBCF2BF0030E08
:100FE000DBCF2CF02C3404E22B500008000E2C54E4
:100FF0000DE347517F080DE2020EDBCF2DF0030E0B
:10100000DBCF2EF00001800E2E1403E002017F0ED4
:10101000476F1A0EDBCF2BF01B0EDBCF2CF000013D
:10102000800E2C1410E01D681E680E0EDBCF22F01F
:101030000F0EDBCF23F006EC30F00E0E1BC0DBFFF3
:101040000F0E1CC0DBFF1A0EDBCF2BF01B0EDBCF0D
:101050002CF02C3404E22B503208000E2C5419E2F0
:101060001A0EDBCF2DF01B0EDBCF2EF0D8902E50BA
:1010700004E6F40E2D5C010E2E580BE2F40EF36E16
:101080001A0EF3CFDBFF010EF36E1B0EF3CFDBFF67
:1010900045D01A0EDBCF2BF01B0EDBCF2CF0D88007
:1010A0002C5004E7CE0E2B5CFF0E2C5818E21A0EC3
:1010B000DBCF2DF01B0EDBCF2EF02E3404E32D50B2
:1010C0000C08FE0E2E540BE20C0EF36E1A0EF3CF2C
:1010D000DBFFFE0EF36E1B0EF3CFDBFF1FD01A0EED
:1010E000DBCF2BF01B0EDBCF2CF0D8802C5004E78D
:1010F000CE0E2B5CFF0E2C5811E31A0EDBCF2DF019
:101100001B0EDBCF2EF02E3404E22D503208000EE1
:101110002E5404E31A0EDB6A1B0EDB6A100EE66E19
:10112000020EE66E0E0EDBCFE6FF0F0EDBCFE6FF04
:101130001A0EDBCFE6FF1B0EDBCFE6FF3AEC04F026
:10114000F56E060EE15EF550040EF3CFDBFF050EE3
:10115000F4CFDBFF7F0EE76E040EDBCF2BF0050E26
:10116000DBCF2CF0E7502B26000E2C22060E2BC0D6
:10117000DBFF070E2CC0DBFF060EDBCF46F27F0E37
:101180000201465D0DE2040EDBCF2BF0050EDBCF36
:101190002CF02C3404E22B500008000E2C540DE3EC
:1011A00046517F080DE2040EDBCF2DF0050EDBCF9C
:1011B0002EF00001800E2E1403E002017F0E466F18
:1011C0000201302B000E3123320E301901E1315172
:1011D00002E1306B316B180EDBCF2BF0190EDBCF39
:1011E0002CF00001800E2C1404E0020147517F080E
:1011F00011E3180EDBCF2DF0190EDBCF2EF02E34BD
:1012000004E22D500008000E2E544FE27F0E020122
:10121000475D4BE24651E66EE66A040EDBCFE6FF21
:10122000050EDBCFE6FF0E0EDBCFE6FF0F0EDBCFAA
:10123000E6FF1A0EDBCFE6FF1B0EDBCFE6FF4751C2
:10124000E66EE66A020EDBCFE6FF030EDBCFE6FFBB
:101250000C0EDBCFE6FF0D0EDBCFE6FF180EDBCF6B
:10126000E6FF190EDBCFE6FF100EDBCFE6FF110E17
:10127000DBCFE6FF160EDBCFE6FF170EDBCFE6FF78
:1012800004C2E6FF05C2E6FFC70E2B6E560E2C6E9B
:101290002D6A2BC0E6FF2CC0E6FF2DC0E6FFECEC6C
:1012A00030F0F56E190EE15EF5501A0EDBCF2BF023
:1012B0001B0EDBCF2CF00001800E2C1404E0020189
:1012C00046517F0811E31A0EDBCF2DF01B0EDBCF4A
:1012D0002EF02E3404E22D500008000E2E544FE262
:1012E0007F0E0201465D4BE24651E66EE66A040E51
:1012F000DBCFE6FF050EDBCFE6FF0E0EDBCFE6FF12
:101300000F0EDBCFE6FF1A0EDBCFE6FF1B0EDBCFA7
:10131000E6FF4751E66EE66A020EDBCFE6FF030EFC
:10132000DBCFE6FF0C0EDBCFE6FF0D0EDBCFE6FFDB
:10133000180EDBCFE6FF190EDBCFE6FF100EDBCF7A
:10134000E6FF110EDBCFE6FF160EDBCFE6FF170E32
:10135000DBCFE6FF04C2E6FF05C2E6FF280E2B6ED8
:10136000560E2C6E2D6A2BC0E6FF2CC0E6FF2DC05A
:10137000E6FFECEC30F0F56E190EE15EF550D9CFDA
:10138000E1FFE552E7CFD9FF1200D9CFE6FFE1CF69
:10139000D9FF040EE126FD0EDBCF2BF0FE0EDBCFD6
:1013A0002CF02D6A2E6A2CAE02D02D682E682BC030
:1013B000DFFF010E2CC0DBFF020E2DC0DBFF030E92
:1013C0002EC0DBFFFD0EDBCF2BF0FE0EDBCF2CF0B3
:1013D000020102512B1802E103512C1801E1B1D096
:1013E000D9CFE9FFDACFEAFFEECF2BF0EECF2CF02A
:1013F000EECF2DF0EFCF2EF02BC01BF02CC01CF049
:101400002DC01DF02EC01EF0DFCF20F0010EDBCF6F
:1014100021F0020EDBCF22F0030EDBCF23F078ECBD
:1014200031F017C0DEFF18C0DEFF19C0DEFF1AC0A2
:10143000DDFFDD52DD52FD0EDBCF2BF0FE0EDBCFEC
:101440002CF00001800E2C1434E0FD0EDBCF2BF0CD
:10145000FE0EDBCF2CF02B6C2C1E000E2C22010E6E
:101460002B26000E2C222D6A2E6A2CAE02D02D685F
:101470002E682BC020F02CC021F02DC022F02EC0F1
:1014800023F0DFCF1BF0010EDBCF1CF0020EDBCF11
:101490001DF0030EDBCF1EF0D2EC2FF01BC0DEFFE1
:1014A0001CC0DEFF1DC0DEFF1EC0DDFFDD52DD52B1
:1014B00031D0010EE76EFD0EDBCF2BF0FE0EDBCF41
:1014C0002CF0E7502B26000E2C222D6A2E6A2CAE13
:1014D00002D02D682E682BC020F02CC021F02DC02A
:1014E00022F02EC023F0DFCF1BF0010EDBCF1CF06B
:1014F000020EDBCF1DF0030EDBCF1EF0D2EC2FF07F
:101500001BC0DEFF1CC0DEFF1DC0DEFF1EC0DDFFF6
:10151000DD52DD52D9CFE9FFDACFEAFFEECF1BF083
:10152000EECF1CF0EECF1DF0EFCF1EF01E0E206EA2
:10153000216A226A236AD2EC2FF01BC000F21CC081
:1015400001F2FD0EDBCF02F2FE0EDBCF03F2D9CFAC
:10155000E1FFE552E7CFD9FF1200D9CFE6FFE1CF97
:10156000D9FFFD0EDBCF04F2FE0EDBCF05F2E55214
:10157000E7CFD9FF1200D9CFE6FFE1CFD9FF080EA0
:10158000E126FE0EDB502B6E2C6A7F0E2B5E000ECA
:101590002C5A2BC0DEFF2CC0DDFFFD0EDB502B6E66
:1015A0002C6A7F0E2B5E000E2C5A020E2BC0DBFF26
:1015B000030E2CC0DBFFFC0EDB5013E0020EDBCF72
:1015C0001DF0030EDBCF1EF03CC222F03DC223F023
:1015D00006EC30F0040E1BC0DBFF050E1CC0DBFF69
:1015E00012D0020EDBCF1DF0030EDBCF1EF03AC28D
:1015F00022F03BC223F006EC30F0040E1BC0DBFFF0
:10160000050E1CC0DBFFDECF2BF0DDCF2CF0640E0F
:101610002C02F3CF2CF02B02F3CF2BF0F4502C261E
:101620001E0E226E236A2BC01DF02CC01EF0ACECE7
:101630002FF01DC02BF01EC02CF0060E2BC0DBFFC0
:10164000070E2CC0DBFF040EDBCF2BF0050EDBCF2B
:101650002CF0D8902C5004E6640E2B5C000E2C5815
:1016600011E2040EDBCF2DF0050EDBCF2EF02E3471
:1016700004E32D509C08FF0E2E5404E2040EDB6A96
:10168000050EDB6A060EDBCF2BF0070EDBCF2CF04E
:10169000D8902C5004E6140E2B5C000E2C5811E24E
:1016A000060EDBCF2DF0070EDBCF2EF02E3404E339
:1016B0002D50EC08FF0E2E5404E2060EDB6A070ED6
:1016C000DB6A0201320E381901E1395102E1386B4F
:1016D000396B040EDBCFE6FF050EDBCFE6FF55DEF0
:1016E000E552E552060EDBCF2BF0070EDBCF2CF0D8
:1016F000030E2C02F3CF2CF02B02F3CF2BF0F4507F
:101700002C262BC0E6FF2CC0E6FF27DFE552E55272
:101710000201382B000E3923D9CFE1FFE552E7CF84
:10172000D9FF1200D9CFE6FFE1CFD9FF040EE126A1
:10173000DE6ADD6A020EDB6A030EDB6AFD0EDB5039
:10174000810F2D6EFE0EDB50810F2D24E8407F0BA4
:101750002B6E2C6A2BBE2C68020E2BC0DBFF030EF7
:101760002CC0DBFFFE0EDB50810F2D6EFD0EDB501B
:10177000810F2D5C2B6E2C6A2BBE2C682BC0DEFFDC
:101780002CC0DDFFFC0EDB503CE0020EDBCF1DF079
:10179000030EDBCF1EF040C222F041C223F006EC64
:1017A00030F0020E1BC0DBFF030E1CC0DBFF40C28B
:1017B0001DF041C21EF0DECF22F0DDCF23F006EC9B
:1017C00030F01BC02BF01CC02CF00A0E2C02F3CF03
:1017D0002CF02B02F3CF2BF0F4502C265A0E226E55
:1017E000010E236E2BC01DF02CC01EF0ACEC2FF0B0
:1017F0001DC02BF01EC02CF02BC0DEFF2CC0DDFF67
:101800003BD0020EDBCF1DF0030EDBCF1EF03EC23D
:1018100022F03FC223F006EC30F0020E1BC0DBFFCB
:10182000030E1CC0DBFF3EC21DF03FC21EF0DECF28
:1018300022F0DDCF23F006EC30F01BC02BF01CC0F3
:101840002CF00A0E2C02F3CF2CF02B02F3CF2BF04E
:10185000F4502C265A0E226E010E236E2BC01DF062
:101860002CC01EF0ACEC2FF01DC02BF01EC02CF0D5
:101870002BC0DEFF2CC0DDFF020EDBCF2BF0030EF2
:10188000DBCF2CF0D8902C5004E6320E2B5C000EEF
:101890002C5811E2020EDBCF2DF0030EDBCF2EF021
:1018A0002E3404E32D50CE08FF0E2E5404E2020E17
:1018B000DB6A030EDB6A020EDBCFE6FF030EDBCF33
:1018C000E6FF63DDE552E552DECFE6FFDDCFE6FF62
:1018D00044DEE552E552D9CFE1FFE552E7CFD9FF2B
:1018E0001200D9CFE6FFE1CFD9FFD950FB0FE96E47
:1018F000FF0EDA20EA6E030EEB50FF0AE8AE02D0CC
:10190000D88008D0F00EEE5CFF0EEE58FF0EEE58B9
:10191000FF0EEE5807E2F00E1B6E1C681D681E6875
:1019200039D038D0FB0EDBCF1CF0FC0EDBCF1DF026
:10193000FD0EDBCF1EF0FE0EDBCF1FF0000E1F18DA
:10194000E8AE02D01F3409D0100ED8801C54000E0F
:101950001D54000E1E54000E1F5407E2100E1B6E85
:101960001C6A1D6A1E6A16D015D0FB0EDBCF2BF049
:10197000FC0EDBCF2CF0FD0EDBCF2DF0FE0EDBCF0F
:101980002EF02BC01BF02CC01CF02DC01DF02EC063
:101990001EF000D0E552E7CFD9FF1200D9CFE6FF05
:1019A000E1CFD9FFFE0EDBCF2BF07F0EE76E2B18B9
:1019B000E8AE02D02B3403D0E750D8802B5405E298
:1019C000010EF36EF46A15D014D0FE0EDBCF2BF0AF
:1019D0007F0EE76E2B18E8AE02D0E73402D0E75056
:1019E0002B5C04E2F368F46804D003D0F36AF46A71
:1019F00000D0E552E7CFD9FF1200D9CFE6FFE1CF03
:101A0000D9FF040EE126F70EDBCF2BF0F80EDBCF6B
:101A10002CF0F90EDBCF2DF0FA0EDBCF2EF0D950E3
:101A2000FB0FE96EFF0EDA20EA6EEE502B26EE5029
:101A30002C22EE502D22EE502E222BC0DFFF010E65
:101A40002CC0DBFF020E2DC0DBFF030E2EC0DBFF20
:101A5000F70EDBCF1CF0F80EDBCF1DF0F90EDBCF5D
:101A60001EF0FA0EDBCF1FF0000E1F18E8AE02D0FA
:101A70001F3409D0000ED8801C54000E1D54000ED7
:101A80001E54000E1F5427E2FB0EDBCF2BF0FC0E82
:101A9000DBCF2CF0FD0EDBCF2DF0FE0EDBCF2EF0DA
:101AA000D9CFE9FFDACFEAFF030EEB502E18E8AEEC
:101AB00002D02E3408D02B50EE5C2C50EE582D5016
:101AC000EE582E50EE5807E21B681C681D687F0E0A
:101AD0001E6E4BD04AD0D950F70FE96EFF0EDA20B8
:101AE000EA6E030EEB50000AE8AE02D0D89008D0A0
:101AF000000EEE5C000EEE58000EEE58000EEE5892
:101B000029E2FB0EDBCF2BF0FC0EDBCF2CF0FD0E21
:101B1000DBCF2DF0FE0EDBCF2EF0D9CFE9FFDACFF1
:101B2000EAFF030EEBCFF3FF2E50F318E8AE02D01E
:101B3000F33408D0EE502B5CEE502C58EE502D585C
:101B4000EE502E5807E21B6A1C6A1D6A800E1E6E3C
:101B50000CD00BD0DECF1BF0DECF1CF0DECF1DF0A3
:101B6000DDCF1EF0DD52DD5200D0D9CFE1FFE552CE
:101B7000E7CFD9FF1200D9CFE6FFE1CFD9FF020EA0
:101B8000E126FB0EDBCF2DF0FC0EDBCF2EF0FD0EA1
:101B9000DB502D242B6EFE0EDB502E202C6E2BC026
:101BA000DEFF2CC0DDFFFB0EDBCF2BF0FC0EDBCF0E
:101BB0002CF02C3404E22B500008000E2C541AE2B6
:101BC000DECF2DF0DDCF2EF0FD0EDBCF2FF0FE0EA1
:101BD000DBCF30F02E503018E8AE02D0303404D0D5
:101BE0002F502D5C30502E5805E2F3687F0EF46EB6
:101BF0002ED02DD0FB0EDBCF2BF0FC0EDBCF2CF04C
:101C00000001800E2C141AE0DECF2DF0DDCF2EF077
:101C1000FD0EDBCF2FF0FE0EDBCF30F030502E1854
:101C2000E8AE02D02E3404D02D502F5C2E50305808
:101C300005E2F36A800EF46E0AD009D0DECF2BF0F5
:101C4000DDCF2CF02BC0F3FF2CC0F4FF00D0D9CF98
:101C5000E1FFE552E7CFD9FF1200D9CFE6FFE1CF90
:101C6000D9FF040EE126F70EDBCF2BF0F80EDBCF09
:101C70002CF0F90EDBCF2DF0FA0EDBCF2EF0D95081
:101C8000FB0FE96EFF0EDA20EA6EEE502B26EE50C7
:101C90002C22EE502D22EE502E222BC0DFFF010E03
:101CA0002CC0DBFF020E2DC0DBFF030E2EC0DBFFBE
:101CB000D9CFE9FFDACFEAFFEB50000AE8AE02D055
:101CC000D89008D0000EEE5C000EEE58000EEE58D4
:101CD000000EEE5803E2000E21D020D0DECF1CF023
:101CE000DECF1DF0DECF1EF0DDCF1FF0DD52DD5266
:101CF000000E1F18E8AE02D01F3409D0FF0ED880A6
:101D00001C54000E1D54000E1E54000E1F5403E2FE
:101D1000FF0E04D003D0000EDB5000D0D9CFE1FF7E
:0A1D2000E552E7CFD9FF12001200D0
:061D2A00D1EC13F0FB0EEA
:101D3000DBCFF3FFDB06F35000090AE01FEC14F0E1
:101D4000FA0E8AEC14F0F3E12C1CF1E1010E01D043
:101D5000000E00EF14F0D1EC13F03B0EE12402E38F
:101D6000E168E652E16E010EDB6A020EDB6AF90EF3
:101D7000DBCFF6FFFA0EDBCFF7FFFB0EDBCFF8FF72
:101D80000800F550DF6EDF5002E126EF13F0250E5C
:101D9000DF5C02E019EF13F0030EDB6A040EDB6A6E
:101DA000050EDB6A060EDB6A070EDB6A39EC13F000
:101DB0002D0EDF5C0CE02B0EDF5C09E0200EDF5CFB
:101DC00006E0230EDF5C03E0300EDF5C1AE1DF503B
:101DD000300A14E0130A0FE0030A0AE00B0A05E0D8
:101DE000060AE4E1030EDB80E1D7030EDB82DED7D7
:101DF000030EDB84DBD7030EDB86D8D7030EDB882C
:101E0000D5D72A0EDF5C1BE135EC13F083EC13F021
:101E100010E0030EDB801D681E68130EDBCF22F07E
:101E2000140EDBCF23F006EC30F0040E1BC0DBFFFA
:101E300003D0130E6CEC13F039EC13F00BD0090E39
:101E4000DB6ADAEC13F003E04EEC14F0FAD7090E7B
:101E50006CEC13F0030EDBB0DB982E0EDF5C1BE1A5
:101E600039EC13F02A0EDF5C0BE135EC13F083EC58
:101E700013F003E1130EBEEC13F039EC13F00BD0AA
:101E8000090EDB6ADAEC13F003E04EEC14F0FAD73B
:101E9000090EBEEC13F0680EDF5C07E139EC13F0BD
:101EA000680EDF5C1DE1030E18D0740EDF5C17E0D6
:101EB0007A0EDF5C14E0480EDF5C06E0540EDF5C57
:101EC00003E05A0EDF5C02E1020E07D06C0EDF5C0D
:101ED00003E06A0EDF5C04E1010E11EC14F0C9DBD3
:101EE000DF506E0A01E181D31E0A01E192D1200A7E
:101EF00001E18FD13F0A01E149D11A0A01E146D13E
:101F00000D0A01E143D1200A01E140D13A0A01E181
:101F10003DD1200A01E13AD1260A01E135D10D0A6D
:101F200001E132D11A0A01E1D9D0200A4AE0300A8F
:101F30001FE0460A0EE0250A01E085D3D950F90FCB
:101F4000E96EFF0EDA20EA6E010EEE5E000EEE5A2A
:101F5000EE5A1FEC14F0250EE66E95DB03E12C1C07
:101F600001E16BD31BEC14F001E26DD3DB2A6BD3E0
:101F7000080EDB6A040EDB50010806E2040EDB04E7
:101F8000E3EC13F0DB508BDB080EDB5009E0030EB3
:101F9000DB50010B05E172DB01E04FD3080EDB6A79
:101FA00064DBEFCFDFFF93EC14F003E12C1C01E1C5
:101FB00044D31BEC14F001E3DB2A60DB01E143D3E3
:101FC0003CD3070EDB5002080FE15FEC14F0030E68
:101FD00026EC14F00E0EEECFDBFF0F0EEECFDBFF84
:101FE000100EEECFDBFF20D0F70EDBCF2EF0F80E79
:101FF000DBCF2FF0020E2E5E000E2F5AF70E2EC0F2
:10200000DBFFF80E2FC0DBFF2EC0E9FF2FC0EAFF79
:1020100016EC14F02D6A0E0E2BC0DBFF0F0E2CC039
:10202000DBFF100E2DC0DBFF0E0EDBCFE6FF0F0E29
:10203000DBCFE6FF100EDBCFE6FFC7EC30F0E5525A
:10204000E552E552130E1CC0DBFF140E1DC0DBFF72
:10205000060EDB5005E0130E5AEC14F001E26ADBC9
:102060007EEC14F002E2130E37DB41EC14F006E0D4
:10207000040E5AEC14F002E2050E2EDB030EDBB068
:1020800005D0FCDA01E0D9D2080EDB6A090EDB6A62
:102090000E0EDBCFF6FF0F0EDBCFF7FF100EDBCF00
:1020A000F8FF0800F550DF6EDF5014E084EC14F008
:1020B00011E293EC14F003E12C1C01E1BED2BBDB76
:1020C00001E3DB2A090EDB2AD9500E0FE96E000E60
:1020D000CBDBE7D7D3DA01E1B6D2AFD2C6DA110E45
:1020E000EECFDBFF120EEDCFDBFF110EDBCFE6FFF5
:1020F000120EDBCFE6FFB9EC30F0E552E552130EDD
:10210000F3CFDBFF140EF4CFDBFF060EDB5004E051
:10211000130ED0DB01E20EDB7EEC14F002E2130EB4
:10212000DBDAAFDB05E0040EC5DB02E2050ED4DA34
:10213000030EDBB005D0A2DA01E07FD2080EDB6A25
:10214000090EDB6A110EDBCFE9FF120EDBCFEAFFCF
:10215000EFCFDFFFDF5014E0D7DB12E2E4DB03E177
:102160002C1C01E16AD267DB01E3DB2A090EDB2AC2
:10217000110EDB2ADBCFE9FF120EE8E3DB2AE6D7FC
:102180007DDA01E160D259D2030EDB8E070EDB044B
:1021900010E195DB040E5ADB0A0EEECFDBFF0B0ECF
:1021A000EECFDBFF0C0EEECFDBFF0D0EEECFDBFF35
:1021B0006CD0070EDB5003082CE1030EDBAE0DD014
:1021C000B2DA020E76DAEFCF2BF02C6A2D6A2E6A85
:1021D0002BAE39D02C682D6835D0F70EDBCF2CF024
:1021E000F80EDBCF2DF0020E2C5E000E2D5AF70EEE
:1021F0002CC0DBFFF80E2DC0DBFF2CC0E9FF2DC08B
:10220000EAFFEFCF2BF00A0E2BC0DBFF0B0EDB6AD1
:1022100038D0070EDB50020809E1030EDBAE04D014
:1022200059DB2DAE10D00ED055DB0DD0030EDBAE3A
:1022300012D079DA020E3DDAF9DA2D6A2E6A2CAE66
:1022400002D02D682E68E2DA0C0E2DC0DBFF0D0ED9
:102250002EC0DBFF1AD0F70EDBCF2DF0F80EDBCF50
:102260002EF0020E2D5E000E2E5AF70E2DC0DBFF53
:10227000F80E2EC0DBFF2DC0E9FF2EC0EAFFD6DA34
:10228000C5DA0C0EDB6A0D0EDB6A060EDB5005E1CB
:10229000010EF36E050EF3CFDBFF150EDB6A160E93
:1022A000DB6AD950370F2B6E000EDA202C6E390EF8
:1022B0002BC0DBFF3A0E2CC0DBFF380EDB6A080EAA
:1022C000DB6A0A0EAEDADF50780A12E0200A10E06C
:1022D000280A0CE0200A0AE03F0A06E00D0A02E0A4
:1022E000200A08E1020E05D0080E03D0080EDF26F2
:1022F000100E97DA030EDBBE02D0DB92DB94DB50CC
:10230000800B26E08ADA030EEB50000AE8AE02D01A
:10231000D89008D0000EEE5C000EEE58000EEE587D
:10232000000EEE5815E211DA206821682268236851
:1023300078EC31F00A0E17C0DBFF0B0E18C0DBFF84
:102340000C0E19C0DBFF0D0E1AC0DBFF2D0E08D0DE
:10235000030EDBA202D02B0E03D0DBA408D0200E8C
:10236000F36E170EF3CFDBFF150EDB2A02D0170E2C
:10237000DB6A050EDB5003E1B5D901E189D0CE0E51
:102380002B6E660E2C6E000E2D6E070EDBCF2EF020
:102390002F6A306A316A2EC020F02FC021F030C081
:1023A00022F031C023F0D1D978EC32F02B50172431
:1023B000F36E2C501820F46E2D501920F86EF4CFC7
:1023C000F7FFF3CFF6FF0800090EF5CFDBFF580E3D
:1023D000DF5C0FE1610EF36E090E79D90AE3200E7E
:1023E0002B6E090EDBCFE7FF2B50E75E090EE7CF20
:1023F000DBFF070EDBCF2BF02C6A2D6A2E6A0DDA7D
:102400002BC020F02CC021F02DC022F02EC023F0D4
:10241000EECF1BF0EECF1CF0EECF1DF0EFCF1EF095
:1024200078EC32F01EC0EDFF1DC0EDFF1CC0EDFFCB
:102430001BC0EFFF390EDBCFE9FFDB063A0EDBCF27
:10244000EAFF01E2DB06090EDBCFEFFF150EDB2A08
:1024500049D995E1030EDBA61DD06F0EDF5C06E1C6
:10246000BFD918E3150EDB2859DA14D0780EDF5CDB
:1024700009E0580EDF5C06E0620EDF5C03E0420E0E
:10248000DF5C08E1020EF36E160EF3CFDBFF02D025
:10249000150EDB6A030EDB50100B0EE0040EDBCFD3
:1024A0002BF0050EDB50D8802B5406E2060EDB50D5
:1024B00003E1040EDB5032DA93D90AE2050EDBCFDA
:1024C000E7FF150EDB50E75E050EE7CFDBFF02D01E
:1024D000050EDB6A040EDBCF2BF0160E43D9D88035
:1024E0002B5414E2160EDBCFE6FF150EDBCFE6FF12
:1024F000040EDBCFE6FF050EDB50E552E75CE5524C
:10250000D880E754E552D880E7545DD9030EDB50FC
:10251000010B0BE1080EDB5008E0B0D801E08DD0D4
:10252000080EDB50BCD8080EDB6A170EDB5007E044
:1025300086D9170EEFD903E12C1C01E17ED0160ECF
:10254000DB5016E07CD9300EE66E9DD802E12C1CE3
:1025500074E075D9DFCFE6FF36EC31F0E552E55295
:10256000E552F4CF2CF00001F31C02E12C1C65E0D5
:10257000050EDBCF2BF0160EDB50D8802B5409E272
:10258000050EDBCFE7FF160EDB50E75E050EE7CF4B
:10259000DBFF300EE66E050EC9D94FE1390EDB2A9E
:1025A000DBCFE9FF3A0E01E3DB2ADBCFEAFF090EBE
:1025B000EFCFDBFFDB500EE042D9090EABD902E1D1
:1025C0002C1C3BE0390EDB2ADBCFE9FF3A0EEDE3B2
:1025D000DB2AEBD753D831E1160EDBCFE6FF080E2E
:1025E000C1D8E552E7245BD82ED0070EDB50030A92
:1025F0001CE0010A14E0030A07E079D9DBCFEEFF03
:10260000020EDBCFEDFF1FD0F3D8306A2EAE02D022
:102610002F6830682AD8BAD830C0EEFF14D0E8D876
:102620002EBE2F6822D8B2D80ED061D9DBCFEFFFF3
:102630000AD079D905E12C1C03E1F368F46810D0C5
:10264000FAD801E3DB2A77D9C0EF0EF0010EDBCF19
:102650002BF0020EDBCF2CF02BC0F3FF2CC0F4FFCD
:10266000D9CFE1FFDACFE2FFCBD029D9020E26EF96
:1026700014F061D90800F550DF6E1200200EE66EEE
:10268000080E96EF14F036EC31F0E552E552E552C3
:10269000F3CF2BF0F4CF2CF00001F31C12002B6EC3
:1026A0002C6AD950010F4DD92B50EE262C50ED221B
:1026B00012002F5E000E305AF70E2FC0DBFFF80E0F
:1026C00030C0DBFF2FC0E9FF30C0EAFF1200DBCFD4
:1026D000F4FFF350F45C1200DB50E76E040EE7CF1A
:1026E000DBFF12000A0EDBCF2BF00B0EDBCF2CF042
:1026F0000C0EDBCF2DF00D0EDBCF2EF02B502C105F
:102700002D102E101200130EEECFDBFF140EEDCFA6
:10271000DBFF130EDBCF2BF0140EDBCF2CF0000110
:10272000800E2C141200F70EDBCF2FF0F80EDBCF4B
:1027300030F01200050EDB50E66ED950130F01D9B0
:10274000E552E750EE6EED6A12000A0EDBCF1BF089
:102750000B0EDBCF1CF00C0EDBCF1DF00D0EDBCF14
:102760001EF01200DBCFE6FF150EDBCFE6FF050EF5
:10277000DB50E552E724E552E7241200DB50CED8C7
:10278000010EF36E060EF3CFDBFF1200EE50EFCF1B
:10279000EAFFE96E2DC0EEFF2EC0EEFF2FC0EEFF68
:1027A0001200D9CFE6FFDACFE6FFE1CFD9FFE2CFC3
:1027B000DAFF1200DFCFE6FFE66A01EC33F0E55204
:1027C000E552F3501200E76E080EE7CFDBFF120070
:1027D000EECF2BF0EECF2CF0EFCF2DF02E6A1200C3
:1027E000050EDBCF2BF0150EDB50D8802B541200DA
:1027F000010EDBCF2DF0020EDBCF2EF02F6A120080
:10280000E552E5CFDAFFE7CFD9FF12000A0E2BC061
:10281000DBFF0B0E2CC0DBFF1200D9500A0FA1EF1B
:1028200014F0F36E070EF3CFDBFF1200EECF2BF0A8
:10283000EFCF2CF01200010EDB2A020E1200FC0E6C
:10284000DBCFE6FFFD0EDBCFE6FF12002B5E000EB6
:102850002C5AF70E2BC0DBFFF80E2CC0DBFF2BC071
:10286000E9FF2CC0EAFF1200DA20EA6EEF2AEECF71
:10287000F6FF000EEF22EECFF7FFEF22EECFF8FFCC
:102880001200040EDBCFE6FF130EDB50E552E75CCF
:102890009ADFDB5004DF060EDB501200090EDB501E
:1028A0000A0DF350DF24D00FE76E090EE7CFDBFFF0
:1028B00039EF13F0DB50F36E050E67EF13F0F70EF0
:1028C000DBCF2BF0F80EDBCF2CF01200DFCFE6FFD2
:1028D00043EF13F028DF030EECDEE8EF13F095EC86
:1028E0000EF0E552E552E552E55200091200BDDE58
:1028F000EE50EFCFEAFFE96E010E1200130EDB502F
:10290000F36E040E67EF13F0040EDB50F36E090E46
:1029100067EF13F0DBCFE6FF43EF13F0E76E050E32
:10292000E7CFDBFF12008BDF66EF14F0DBCFE6FFB3
:1029300086DF6FEF14F0D950F90FE96EFF0E34EF18
:0C29400014F0E96E000EDA20EA6E1200BE
:04294C00D9CFE6FFFA
:10295000E1CFD9FF080EE1261AEC33F01BC0DEFFF1
:102960001CC0DEFF1DC0DEFF1EC0DDFFDD52DD52DC
:10297000D9CFE9FFDACFEAFFEECF2FF0EECF30F07C
:10298000EECF31F0EFCF32F0FD0EDBCFE9FFFE0EE0
:10299000DBCFEAFF060EE926000EEA22EE502F5C9E
:1029A0002B6EEE5030582C6EEE5031582D6EEE508E
:1029B00032582E6E040E2BC0DBFF050E2CC0DBFF41
:1029C000060E2DC0DBFF070E2EC0DBFFD9CFE9FFBF
:1029D000DACFEAFFD00ED880EE54070EEE54000E88
:1029E000EE54000EEE541CE2040EDBCF1CF0050E7C
:1029F000DBCF1DF0060EDBCF1EF0070EDBCF1FF086
:102A0000000E1F18E8AE02D01F3409D0D00ED880B7
:102A10001C54070E1D54000E1E54000E1F5408E2D5
:102A2000FD0EDBCFE9FFFE0EDBCFEAFFEE6AED6ABB
:102A3000FD0EDBCFE9FFFE0EDBCFEAFFEECF2BF082
:102A4000EFCF2CF02BC0F3FF2CC0F4FF00D0D9CF78
:102A5000E1FFE552E7CFD9FF1200D9CFE6FFE1CF82
:102A6000D9FF040EE1261AEC33F01BC0DEFF1CC0B8
:102A7000DEFF1DC0DEFF1EC0DDFFDD52DD52D9CFFF
:102A8000E9FFDACFEAFFEECF2FF0EECF30F0EECF56
:102A900031F0EFCF32F0FD0EDBCFE9FFFE0EDBCFE2
:102AA000EAFF060EE926000EEA22EE502F5C2B6E9E
:102AB000EE5030582C6EEE5031582D6EEE5032588C
:102AC0002E6EFD0EDBCFE9FFFE0EDBCFEAFF0A0E16
:102AD000E926000EEA222BC0EEFF2CC0EEFF2DC02F
:102AE000EEFF2EC0EEFFFD0EDBCFE9FFFE0EDBCFCB
:102AF000EAFF0A0EE926000EEA22EECF31F0EECF11
:102B000032F0EECF33F0EFCF34F0FD0EDBCFE9FF44
:102B1000FE0EDBCFEAFF0E0EE926000EEA22EECF14
:102B20002DF0EECF2EF0EECF2FF0EFCF30F02DC006
:102B30001BF02EC01CF02FC01DF030C01EF031C0A5
:102B400020F032C021F033C022F034C023F078EC02
:102B500032F01BC02BF01CC02CF0FD0EDBCFE9FFC8
:102B6000FE0EDBCFEAFF2BC0EEFF2CC0EDFFFD0E0B
:102B7000DBCFE9FFFE0EDBCFEAFF120EE926000EE7
:102B8000EA22EECF2BF0EFCF2CF02D6A2E6AFD0E4D
:102B9000DBCFE9FFFE0EDBCFEAFF020EE926000ED7
:102BA000EA222B50EE262C50EE222D50EE222E50F3
:102BB000EE22FD0EDBCFE9FFFE0EDBCFEAFF060EB5
:102BC000E926000EEA22DFCFEEFF010EDBCFEEFF9B
:102BD000020EDBCFEEFF030EDBCFEEFFD9CFE1FF1E
:102BE000E552E7CFD9FF12000101006B016B026BC8
:102BF000036B046B056B066B076B086B096B0A6B49
:102C00000B6B0C6B0D6BDC0E0E6F4A0E0F6F010E13
:102C1000106F116B4F0E126F030E136F146B156B49
:102C2000166B176B186B196B1A6B1B6B1C6B1D6B80
:102C30001E6B1F6B206B216BDC0E226F4A0E236F05
:102C4000010E246F256B4F0E266F030E276F1200A7
:102C5000D9CFE6FFE1CFD9FFFD0EDBCFE9FFFE0EB6
:102C6000DBCFEAFF020EE926000EEA22EECF1BF0D0
:102C7000EECF1CF0EECF1DF0EFCF1EF0640E206EF5
:102C8000216A226A236A78EC32F000D0E552E7CF5D
:102C9000D9FF12000101446B3C6B3D6B3E6B3F6BF7
:102CA000406B416B426B436BDC0E456F4A0E466FC7
:102CB000010E476F486B5D6B5E6B5F6B606B616BAA
:102CC000626B636B646BDC0E666F4A0E676F010E9E
:102CD000686F696B1200D9CFE6FFE1CFD9FF020E12
:102CE000E126F90EDBCFE9FFFA0EDBCFEAFF1C0E7F
:102CF000E926000EEA22EF5022E0F90EDBCFE9FFD1
:102D0000FA0EDBCFEAFF140EEB6A150EEB6AF90E32
:102D1000DBCFE9FFFA0EDBCFEAFF160EEB6A170EE8
:102D2000EB6AF90EDBCFE9FFFA0EDBCFEAFF1C0EF0
:102D3000E926000EEA22EF6ADE6ADD6A1DD0F90E8E
:102D4000DBCFE9FFFA0EDBCFEAFF160EE926000E15
:102D5000EA22EECFDEFFEDCFDDFFDF2A010E01E339
:102D6000DB2AD9CFE9FFDACFEAFF050EEE1801E141
:102D7000ED5002E1DE6ADD6AF90EDBCFE9FFFA0E03
:102D8000DBCFEAFFE9CF2BF0EACF2CF0040E1D6E6B
:102D90001E6ADECF22F0DDCF23F033EC30F02B5073
:102DA0001B24E96E2C501C20EA6EFB0EDBCFEEFFDD
:102DB000FC0EDBCFEEFFFD0EDBCFEEFFFE0EDBCF1A
:102DC000EEFFF90EDBCFE9FFFA0EDBCFEAFF140EC0
:102DD000E926000EEA22EECF2BF0EFCF2CF0050E05
:102DE0002B5C000E2C580CE2F90EDBCFE9FFFA0E3B
:102DF000DBCFEAFF140EE926000EEA22EE2AEF22CC
:102E0000F90EDBCFE9FFFA0EDBCFEAFF160EE9265B
:102E1000000EEA22DECFEEFFDDCFEDFFD9CFE1FFDE
:102E2000E552E7CFD9FF1200D9CFE6FFE1CFD9FFB6
:102E3000080EE126FD0EDBCFE9FFFE0EDBCFEAFF39
:102E4000140EE926000EEA22EECFDEFFEDCFDDFF05
:102E5000020EDB6A030EDB6A040EDB6A050EDB6A18
:102E6000060EDB6A070EDB6A060EDB6A070EDB6AFC
:102E7000060EDBCF2BF0070EDBCF2CF0DECF2DF0D4
:102E8000DDCF2EF02D502B5C2E502C5836E2FD0E4F
:102E9000DBCFE9FFFE0EDBCFEAFFE9CF2FF0EACF71
:102EA00030F0040E1D6E1E6A060EDBCF22F0070EF8
:102EB000DBCF23F033EC30F02F501B24E96E305081
:102EC0001C20EA6EEECF2BF0EECF2CF0EECF2DF0E3
:102ED000EFCF2EF0D950020FE96EDACFEAFF2B5078
:102EE000EE262C50EE222D50EE222E50EE22060E13
:102EF000DB2A070E01E3DB2ABBD7DECF2BF0DDCFC9
:102F00002CF02D6A2E6A2BC020F02CC021F02DC091
:102F100022F02EC023F0020EDBCF1BF0030EDBCF1E
:102F20001CF0040EDBCF1DF0050EDBCF1EF078EC9D
:102F300032F000D0D9CFE1FFE552E7CFD9FF120040
:102F4000D9CFE6FFE1CFD9FF080EE1261AEC33F026
:102F50001BC0DEFF1CC0DEFF1DC0DEFF1EC0DDFF8C
:102F6000DD52DD52D9CFE9FFDACFEAFFEECF2FF005
:102F7000EECF30F0EECF31F0EFCF32F0FD0EDBCF01
:102F8000E9FFFE0EDBCFEAFF180EE926000EEA226B
:102F9000EE502F5C2B6EEE5030582C6EEE503158A8
:102FA0002D6EEE5032582E6E040E2BC0DBFF050E38
:102FB0002CC0DBFF060E2DC0DBFF070E2EC0DBFF93
:102FC000FD0EDBCFE6FFFE0EDBCFE6FFD950040F90
:102FD000E96EDACFEAFFEECFE6FFEECFE6FFEECF07
:102FE000E6FFEFCFE6FF77DEF56E060EE15EF55009
:102FF000FD0EDBCFE9FFFE0EDBCFEAFF180EE92660
:10300000000EEA22DFCFEEFF010EDBCFEEFF020E55
:10301000DBCFEEFF030EDBCFEEFFD9CFE1FFE552B2
:10302000E7CFD9FF1200D9CFE6FFE1CFD9FF080ED5
:10303000E1261AEC33F01BC0DEFF1CC0DEFF1DC012
:10304000DEFF1EC0DDFFDD52DD52D9CFE9FFDACF52
:10305000EAFFEECF2FF0EECF30F0EECF31F0EFCF32
:1030600032F0FD0EDBCFE9FFFE0EDBCFEAFF180EDC
:10307000E926000EEA22EE502F5C2B6EEE503058FF
:103080002C6EEE5031582D6EEE5032582E6E040ECE
:103090002BC0DBFF050E2CC0DBFF060E2DC0DBFFB7
:1030A000070E2EC0DBFF040EDBCF1CF0050EDBCFBE
:1030B0001DF0060EDBCF1EF0070EDBCF1FF0000E5B
:1030C0001F18E8AE02D01F3409D0D00ED8801C548F
:1030D000070E1D54000E1E54000E1F540DE3D9CFD1
:1030E000E9FFDACFEAFFD00EEE5C070EEE58000ED5
:1030F000EE58000EEE5810E2FD0EDBCFE9FFFE0E9B
:10310000DBCFEAFF1C0EE926000EEA22010EEF6E6D
:10311000F36AF46A3FD03ED0FD0EDBCFE6FFFE0E31
:10312000DBCFE6FF81DEE552E5521BC031F01CC06B
:1031300032F01DC033F01EC034F0FD0EDBCFE9FFCE
:10314000FE0EDBCFEAFF1D0EE926000EEA22EECFCF
:103150002DF0EECF2EF0EECF2FF0EFCF30F02DC0D0
:103160001BF02EC01CF02FC01DF030C01EF031C06F
:1031700020F032C021F033C022F034C023F078ECCC
:1031800032F01BC02BF01CC02CF02BC0F3FF2CC066
:10319000F4FF00D0D9CFE1FFE552E7CFD9FF12000D
:1031A000DACFE4FFE2CFDAFFE9CFE4FFEACFE4FFD2
:1031B000E652F2A202D0A8D802D09EB6D8D8E552E4
:1031C000E5CFEAFFE5CFE9FFE5CFDAFF1100E66AD8
:1031D000010EE66E050EE66EB0EC31F0E552E552FA
:1031E000E5521200070EB46E000E886E876E866E72
:1031F000856E846E836E826E816E806E000E916E1F
:10320000906E8F6E8E6E8D6E8C6E8B6E8A6E896EEA
:103210002F0E926E93689C0E946E956A966A9768CC
:10322000040E986E0E0E9A6E9968C16AF19EB0985F
:103230009C8EA26A9F6AA06A9D6AA36AA56AC7DF7C
:103240009F86D08E9E969D869382F06AF288F09E2D
:10325000F098F192F09AF16AF28CF28E1200D9CFC6
:10326000E6FFE1CFD9FFE652BDDF020182970201FE
:1032700082990701460EE96F020EEA6FDF6A100EAF
:10328000DF5C0BE2DF500701EA6AE925E96EEA51EB
:10329000EA227F0EEF6EDF2AF2D702015F6B020196
:1032A000010E606F0201C20E616F02018285020190
:1032B000646B0201656B0201426B0201446B020107
:1032C000456B010ED56E320ED76ECF0ED66ED59EE3
:1032D000420EE66E020EE66E95D8E552E552020108
:1032E0008293420EE66E020EE66E8CD8E552E552EF
:1032F00002018293E552E552E7CFD9FF12008282A4
:103300008088949292981200F2920701200EE56F45
:103310009F86020182A906D00701E00EE26F000E2F
:10332000E36F05D00701C00EE26F000EE36F0201EC
:1033300082B102D002018279020182A706D0070180
:10334000800EE06F000EE16F05D00701A00EE06F68
:10335000000EE16FC9CFE6F70701E0C7E9FFE1C75B
:10336000EAFFE02B000EE123EF50C96E12009E969B
:10337000C9CFE6F70701E551000829E20701E2C7D6
:10338000E9FFE3C7EAFFE22B000EE323E6C7EFFF06
:103390000701E0C7E9FFE1C7EAFFE02B000EE123E8
:1033A000EFCFE6F7E6C7C9FF0701E5070701E551DB
:1033B0000DE10201020E606F02018293020182811F
:1033C000320ED76ECF0ED66EF294D58E01D0C96A6A
:1033D0001200D9CFE6FFE1CFD9FF020182A10ED0C2
:1033E000FD0EDBCFE6FFFE0EDBCFE6FF43EC29F060
:1033F000E552E5529D96020182919D86E552E7CF06
:10340000D9FF1200D9CFE6FFE1CFD9FF020182B385
:1034100033D0FD0EDBCFE9FFFE0EDBCFEAFF1E0E41
:10342000E926000EEA22EF50020809E1FD0EDBCF8B
:10343000E6FFFE0EDBCFE6FF6ED8E552E552FD0E4D
:10344000DBCFE9FFFE0EDBCFEAFF150EE926000E0B
:10345000EA22EF9EFD0EDBCFE6FFFE0EDBCFE6FF9E
:10346000B1EC28F0E552E5529D9602018277020107
:1034700082839D8602015F2BE552E7CFD9FF1200C0
:103480009D96020182919D861200D9CFE6FFE1CF81
:10349000D9FF0001166BD950FD0FE96EFF0EDA203F
:1034A000EA6E010EEE1801E1ED5003E10001168114
:1034B00001D0BA6AD950FB0FE96EFF0EDA20EA6E2E
:1034C000010EEE1801E1ED5003E10001168301D079
:1034D000B76AD950F90FE96EFF0EDA20EA6E010ED5
:1034E000EE1801E1ED5003E10001168501D0736A89
:1034F000D950F70FE96EFF0EDA20EA6E010EEE18D2
:1035000001E1ED5003E10001168701D0706AE55238
:10351000E7CFD9FF1200D9CFE6FFE1CFD9FFFD0EEB
:10352000DBCFE9FFFE0EDBCFEAFF1C0EE926000E23
:10353000EA22EF6AFD0EDBCFE9FFFE0EDBCFEAFFEA
:10354000170EE926000EEA22EF6AC6AE0ED0C69E1E
:10355000FD0EDBCFE9FFFE0EDBCFEAFF170EE926FB
:10356000000EEA22010EEF6E22D0F150800B10E027
:10357000F250080B0DE0FD0EDBCFE9FFFE0EDBCFB6
:10358000EAFF170EE926000EEA22020EEF6E0FD0B8
:10359000F0A60DD0909EFD0EDBCFE9FFFE0EDBCF37
:1035A000EAFF170EE926000EEA22030EEF6E250E43
:1035B000C614250819E0FD0EDBCFE9FFFE0EDBCFB8
:1035C000EAFF1C0EE926000EEA22010EEF6EFD0E48
:1035D000DBCFE9FFFE0EDBCFEAFF170EE926000E78
:1035E000EA22C6CFEFFF80D1C55019E0FD0EDBCF38
:1035F000E9FFFE0EDBCFEAFF1C0EE926000EEA22F1
:10360000020EEF6EFD0EDBCFE9FFFE0EDBCFEAFF11
:10361000170EE926000EEA22C5CFEFFF65D1D0BE16
:1036200019D0FD0EDBCFE9FFFE0EDBCFEAFF1C0E4B
:10363000E926000EEA22030EEF6EFD0EDBCFE9FF56
:10364000FE0EDBCFEAFF170EE926000EEA22D0CFEE
:10365000EFFF4AD19DB619D0FD0EDBCFE9FFFE0E7C
:10366000DBCFEAFF1C0EE926000EEA22040EEF6E05
:10367000FD0EDBCFE9FFFE0EDBCFEAFF170EE926DA
:10368000000EEA229DCFEFFF2FD19C5019E0FD0ED6
:10369000DBCFE9FFFE0EDBCFEAFF1C0EE926000EB2
:1036A000EA22050EEF6EFD0EDBCFE9FFFE0EDBCF4B
:1036B000EAFF170EE926000EEA229CCFEFFF14D195
:1036C000080E9F5C19E0FD0EDBCFE9FFFE0EDBCF9D
:1036D000EAFF1C0EE926000EEA22060EEF6EFD0E32
:1036E000DBCFE9FFFE0EDBCFEAFF170EE926000E67
:1036F000EA229FCFEFFFF8D0A25019E0FD0EDBCFFA
:10370000E9FFFE0EDBCFEAFF1C0EE926000EEA22DF
:10371000070EEF6EFD0EDBCFE9FFFE0EDBCFEAFFFB
:10372000170EE926000EEA22A2CFEFFFDDD0A5504A
:1037300019E0FD0EDBCFE9FFFE0EDBCFEAFF1C0E2A
:10374000E926000EEA22080EEF6EFD0EDBCFE9FF40
:10375000FE0EDBCFEAFF170EE926000EEA22A5CF08
:10376000EFFFC2D0100EF214100819E0FD0EDBCFEF
:10377000E9FFFE0EDBCFEAFF1C0EE926000EEA226F
:10378000090EEF6EFD0EDBCFE9FFFE0EDBCFEAFF89
:10379000170EE926000EEA22F2CFEFFFA5D0470E62
:1037A000F11419E0FD0EDBCFE9FFFE0EDBCFEAFFDF
:1037B0001C0EE926000EEA220A0EEF6EFD0EDBCF8C
:1037C000E9FFFE0EDBCFEAFF170EE926000EEA2224
:1037D000F1CFEFFF89D0C00EF01419E0FD0EDBCF62
:1037E000E9FFFE0EDBCFEAFF1C0EE926000EEA22FF
:1037F0000B0EEF6EFD0EDBCFE9FFFE0EDBCFEAFF17
:10380000170EE926000EEA22F0CFEFFF6DD092A846
:1038100019D0FD0EDBCFE9FFFE0EDBCFEAFF1C0E59
:10382000E926000EEA220C0EEF6EFD0EDBCFE9FF5B
:10383000FE0EDBCFEAFF170EE926000EEA2292CF3A
:10384000EFFF52D093B019D0FD0EDBCFE9FFFE0E93
:10385000DBCFEAFF1C0EE926000EEA220D0EEF6E0A
:10386000FD0EDBCFE9FFFE0EDBCFEAFF170EE926E8
:10387000000EEA2293CFEFFF37D03E0E94141C08BF
:1038800019E0FD0EDBCFE9FFFE0EDBCFEAFF1C0ED9
:10389000E926000EEA220E0EEF6EFD0EDBCFE9FFE9
:1038A000FE0EDBCFEAFF170EE926000EEA2294CFC8
:1038B000EFFF1AD097BE18D0FD0EDBCFE9FFFE0E4A
:1038C000DBCFEAFF1C0EE926000EEA220F0EEF6E98
:1038D000FD0EDBCFE9FFFE0EDBCFEAFF170EE92678
:1038E000000EEA2297CFEFFFE552E7CFD9FF120093
:1038F000D9CFE6FFE1CFD9FFFD0EDBCF2BF0FE0ED7
:10390000DBCF2CF00001800E2C1414E01D681E6823
:10391000FD0EDBCF22F0FE0EDBCF23F006EC30F005
:103920001BC02BF01CC02CF02BC0F3FF2CC0F4FFED
:103930000CD00BD0FD0EDBCF2BF0FE0EDBCF2CF02E
:103940002BC0F3FF2CC0F4FF00D0E552E7CFD9FF26
:103950001200D9CFE6FFE1CFD9FFFD0EDBCFD4F1C6
:10396000FE0EDBCFD5F1E552E7CFD9FF1200D4C16F
:103970002DF0D5C12EF0B70ED8802D56020E2E5642
:10398000040E1D6E1E6A2DC022F02EC023F006EC20
:1039900030F01BC02BF01CC02CF02BC0F3FF2CC050
:1039A000F4FF00D01200D9CFE6FFE1CFD9FF040E1B
:1039B000E126DE6ADD6A020EDB6A030EDB6AFD0EBB
:1039C000DBCF2DF0FE0EDBCF2EF02DC0E6FF2EC09C
:1039D000E6FFCDDFE552E7CF2EF0E552E7CF2DF041
:1039E000F3502D5C2B6EF4502E582C6E2BC0DEFF46
:1039F0002CC0DDFFDECFE6FFDDCFE6FF79DFE5524D
:103A0000E552020EF3CFDBFF030EF4CFDBFF010123
:103A1000E151E21123E1E0C12BF02C6A2BBE2C68AE
:103A20002BC0E6FF2CC0E6FFDECFE6FFDDCFE6FFD2
:103A3000020E2D6E580E2E6E2F6A2DC0E6FF2EC080
:103A4000E6FF2FC0E6FFECEC30F0F56E070EE15E0E
:103A5000F5500101E12B000EE2230BD0640EE119B9
:103A600001E1E25103E1E16BE26B03D0E12B000ED7
:103A7000E223E051010A27E0010A09E0DECF2BF042
:103A8000DDCF2CF02BC0F3FF2CC0F4FF38D0020E9A
:103A9000DBCF2BF0030EDBCF2CF02C3404E22B50C9
:103AA0002D08000E2C540BE2010EE06FDECF2BF040
:103AB000DDCF2CF02BC0F3FF2CC0F4FF20D0F36A35
:103AC000F46A1DD01CD0020EDBCF2BF0030EDBCF2F
:103AD0002CF0D8902C5004E6140E2B5C000E2C58C1
:103AE00004E2E06BF36AF46A0AD0DECF2BF0DDCF9C
:103AF0002CF02BC0F3FF2CC0F4FF01D000D0D9CFA5
:103B0000E1FFE552E7CFD9FF1200D9CFE6FFE1CFC1
:103B1000D9FF020EE126FD0EDBCFE6FFFE0EDBCF66
:103B2000E6FF41DFE552E552F3CFDEFFF4CFDDFFE4
:103B3000DECF2BF0DDCF2CF02C3404E22B5000082C
:103B4000000E2C5403E21DEC2CF00DD0DECF2BF038
:103B5000DDCF2CF00001800E2C1403E021EC2CF0C2
:103B600002D031EC2CF0DECF2BF0DDCF2CF02BC0CF
:103B7000F3FF2CC0F4FF00D0D9CFE1FFE552E7CF2F
:103B8000D9FF1200D9CFE6FFE1CFD9FF030EE1261E
:103B9000D950F90FE96EFF0EDA20EA6EEE50ED1003
:103BA0001DE1D950F70FE96EFF0EDA20EA6EEE50F4
:103BB000ED1014E1D950F50FE96EFF0EDA20EA6E30
:103BC000EE50ED100BE1D950F30FE96EFF0EDA2045
:103BD000EA6EEE50ED1002E1000E01D0010EDF6E34
:103BE000010EDB6A020EDB6A060E0101DC1901E13F
:103BF000DD5101E198D1050EDC1901E1DD5101E152
:103C000048D1040EDC1901E1DD5101E1F9D0030EC8
:103C1000DC1901E1DD5101E1AAD0020EDC1901E15C
:103C2000DD5101E195D0010EDC1901E1DD5101E129
:103C300080D0DC5101E1DD5101E0BFD1DF5033E143
:103C4000D950FD0FE96EFF0EDA20EA6EEE50ED104E
:103C500010E0D950FB0FE96EFF0EDA20EA6EEE504D
:103C6000ED1007E11DEC2CF0010E0101DC6FDD6BA6
:103C700018D0D950FD0FE96EFF0EDA20EA6EEE5033
:103C8000ED100FE1D950FB0FE96EFF0EDA20EA6E5E
:103C9000EE50ED1006E021EC2CF0020E0101DC6F7D
:103CA000DD6B8DD146D0D950FD0FE96EFF0EDA20C5
:103CB000EA6EEE50ED103CE1D950FB0FE96EFF0EBD
:103CC000DA20EA6EEE50ED1033E1D950F90FE96ECB
:103CD000FF0EDA20EA6EEE50ED1004E0030EDC6F0A
:103CE000DD6B26D0D950F70FE96EFF0EDA20EA6EB1
:103CF000EE50ED1004E0040EDC6FDD6B19D0D950EE
:103D0000F50FE96EFF0EDA20EA6EEE50ED1004E0DA
:103D1000050EDC6FDD6B0CD0D950F30FE96EFF0E92
:103D2000DA20EA6EEE50ED1003E0060EDC6FDD6B7C
:103D300046D1D950FD0FE96EFF0EDA20EA6EEE5043
:103D4000ED1005E131EC2CF00101DC6BDD6B37D1BE
:103D5000D950FB0FE96EFF0EDA20EA6EEE50ED103F
:103D600005E131EC2CF00101DC6BDD6B28D1D95081
:103D7000F70FE96EFF0EDA20EA6EEE50ED1024E147
:103D8000D950F50FE96EFF0EDA20EA6EEE50ED1015
:103D90001BE1D950F30FE96EFF0EDA20EA6EEE5008
:103DA000ED1012E1D950FD0FE96EFF0EDA20EA6E38
:103DB000EE50ED1009E1D950FB0FE96EFF0EDA204D
:103DC000EA6EEE50ED1004E0DC6BDD6B22D917D00B
:103DD000040EE66EE66A99DEE552E552DE52F3CF56
:103DE000DEFFF4CFDDFFDD52D950010FE96EDACFEF
:103DF000EAFFEE50ED1003E10101DC6BDD6BDFD07B
:103E0000D950F90FE96EFF0EDA20EA6EEE50ED1090
:103E100024E1D950F50FE96EFF0EDA20EA6EEE507C
:103E2000ED101BE1D950F30FE96EFF0EDA20EA6EB8
:103E3000EE50ED1012E1D950FD0FE96EFF0EDA20C1
:103E4000EA6EEE50ED1009E1D950FB0FE96EFF0E5E
:103E5000DA20EA6EEE50ED1004E0DC6BDD6BD9D8B1
:103E600017D0B40EE66EE66A50DEE552E552DE5239
:103E7000F3CFDEFFF4CFDDFFDD52D950010FE96E45
:103E8000DACFEAFFEE50ED1003E10101DC6BDD6BF0
:103E900096D0D950F90FE96EFF0EDA20EA6EEE5097
:103EA000ED1024E1D950F70FE96EFF0EDA20EA6E2B
:103EB000EE50ED101BE1D950F30FE96EFF0EDA2042
:103EC000EA6EEE50ED1012E1D950FD0FE96EFF0ED3
:103ED000DA20EA6EEE50ED1009E1D950FB0FE96EE1
:103EE000FF0EDA20EA6EEE50ED1004E0DC6BDD6BC5
:103EF00090D818D0A40EE66E020EE66E06DEE552ED
:103F0000E552DE52F3CFDEFFF4CFDDFFDD52D950B4
:103F1000010FE96EDACFEAFFEE50ED1003E1010187
:103F2000DC6BDD6B4CD0D950F90FE96EFF0EDA2057
:103F3000EA6EEE50ED1024E1D950F70FE96EFF0E56
:103F4000DA20EA6EEE50ED101BE1D950F50FE96E64
:103F5000FF0EDA20EA6EEE50ED1012E1D950FD0F9F
:103F6000E96EFF0EDA20EA6EEE50ED1009E1D9504D
:103F7000FB0FE96EFF0EDA20EA6EEE50ED1004E062
:103F8000DC6BDD6B46D818D0740EE66E040EE66E60
:103F9000BCDDE552E552DE52F3CFDEFFF4CFDDFFAC
:103FA000DD52D950010FE96EDACFEAFFEE50ED1085
:103FB00003E10101DC6BDD6B02D0DC6BDD6BD9CF83
:103FC000E1FFE552E7CFD9FF1200D9CFE6FFE1CFFD
:103FD000D9FFD950FD0FE96EFF0EDA20EA6EEE50E0
:103FE000ED1003E029EC2CF00ED0D950FB0FE96E58
:103FF000FF0EDA20EA6EEE50ED1003E025EC2CF017
:1040000002D02DEC2CF0E552E7CFD9FF120009EFDA
:1040100020F031EC2CF02DEC2CF00101DC6BDD6B91
:0240200012008C
:0E402200F00EE66E5FEC2EF0E552938A938866
:104030009386938499829980938E938C9A849A82A2
:10404000998699849A8A9A8894809A869A8E9A9C5C
:10405000919C02017F0E4D6F4DC24CF24DC24BF24E
:104060004DC24AF24DC249F24DC248F24DC247F22A
:104070004DC246F2556F55C254F255C253F255C265
:1040800052F255C251F255C250F255C24FF255C2CA
:104090004EF2000EE66EE66AE66EE66AE66EE66AE6
:1040A000E66EE66A45EC1AF0F56E080EE15EF55034
:1040B0001200080E2B6E560E2C6E2D6A2BC0E6FFDA
:1040C0002CC0E6FF2DC0E6FFECEC30F0E552E552E7
:1040D000E55282EC2FF0EB0E2B6E550E2C6E2D6AF6
:1040E0002BC0E6FF2CC0E6FF2DC0E6FFECEC30F065
:1040F000E552E552E5521200CB0E2B6E550E2C6E9A
:104100002D6A2BC0E6FF2CC0E6FF2DC0E6FFECECCD
:1041100030F0E552E552E552F4EC15F094EC0EF077
:1041200007EC20F045EC2CF0AE0E2B6E550E2C6EED
:104130002D6A2BC0E6FF2CC0E6FF2DC0E6FFECEC9D
:1041400030F0E552E552E55212008C0E2B6E550E02
:104150002C6E2D6A2BC0E6FF2CC0E6FF2DC0E6FFBB
:10416000ECEC30F0E552E552E5526B0E2B6E550E3D
:104170002C6E2D6A2BC0E6FF2CC0E6FF2DC0E6FF9B
:10418000ECEC30F0E552E552E5521200570E2B6E82
:10419000550E2C6E2D6A2BC0E6FF2CC0E6FF2DC0FD
:1041A000E6FFECEC30F0E552E552E552A6EC2FF0DC
:1041B000460E2B6E550E2C6E2D6A2BC0E6FF2CC0C2
:1041C000E6FF2DC0E6FFECEC30F0E552E552E5529B
:1041D000120027DF6EDF90DFB8DFD8DF8D908D8291
:1041E0008C908C920101F091F093F085580EF16F54
:1041F000F26B420EE66E020EE66E02EC1AF0E5522B
:10420000E552F8EC24F01A0E2B6E550E2C6E2D6A2A
:104210002BC0E6FF2CC0E6FF2DC0E6FFECEC30F033
:10422000E552E552E5527FEF19F0D9CFE6FFE1CF35
:10423000D9FF060EE126620EE66E020EE66EE9EC8E
:1042400019F0E552E552870EE66E6AEC2EF0E55263
:10425000F3CF2BF0F4CF2CF02BC0E6FF2CC0E6FF01
:10426000A9EC1CF0E552E5520101E751020A01E117
:10427000EED0030A20E0010A01E06ED109EC20F043
:1042800035EC2CF0000EE66EE66AC5EC09F0E5525E
:10429000E552000EE66EE66AADEC0AF0E552E55234
:1042A000020163AD04D00101010EE76F03D00101EB
:1042B000020EE76F52D1020163ADC6D00101F15188
:1042C000F2110AE00101E55106E00101F107000EDB
:1042D000F25B25EC2CF0B7D02DEC2CF00101E6516F
:1042E00001E09ED08F0EE66E6AEC2EF0E552F3CF21
:1042F000DEFFF4CFDDFFDECF2BF0DDCF2CF02C3452
:1043000004E22B506608000E2C5404E30101010E58
:10431000E66F6BD0DECF2BF0DDCF2CF02C3404E237
:104320002B506608000E2C540FE2DECF2DF0DDCFAF
:104330002EF02E3404E22D503408010E2E5404E3E6
:104340000101020EE66F51D0DECF2BF0DDCF2CF055
:104350002C3404E22B503408010E2C540FE2DECF33
:104360002DF0DDCF2EF02E3404E22D500008020E89
:104370002E5404E30101030EE66F37D0DECF2BF09D
:10438000DDCF2CF02C3404E22B500008020E2C540C
:104390000FE2DECF2DF0DDCF2EF02E3404E22D50D3
:1043A000CC08020E2E5404E30101040EE66F1DD06A
:1043B000DECF2BF0DDCF2CF02C3404E22B50CC08D8
:1043C000020E2C540FE2DECF2DF0DDCF2EF02E3476
:1043D00004E22D509B08030E2E5404E30101050E48
:1043E000E66F03D00101060EE66FE6C12BF02C6AE2
:1043F0002BBE2C682BC0E6FF2CC0E6FF040E2D6EF2
:10440000550E2E6E2F6A2DC0E6FF2EC0E6FF2FC080
:10441000E6FFECEC30F0F56E050EE15EF55013D0E2
:10442000E651050A0FE0010A0CE0070A09E0010A5B
:1044300006E0030A01E007D032EC28F004D003D0F4
:1044400002D001D000D002D00101E76B86D002017A
:1044500063BD7FD00101E66B010EE66E68C2E6FF28
:104460006CC2E6FFBBEC0AF0E552E552E5520201F0
:104470006551080B01E0010EE66EE66A6551040B1A
:1044800001E0010EE66EE66A6551020B01E0010EE5
:10449000E66EE66A6551010BE66EE66A640E695DDA
:1044A00002E3000E01D0010E2B6E2C6A2BBE2C688D
:1044B0002BC0E6FF2CC0E6FF69512F6E306A303406
:1044C00004E22F508C08000E305402E3000E01D09D
:1044D000010E2D6E2E6A2DBE2E682DC0E6FF2EC059
:1044E000E6FFC2EC1DF0F56E0C0EE15EF550020128
:1044F00075512D6E2E6A2E3404E22D508C08000E5C
:104500002E5402E3000E01D0010E2B6E2C6A2BBE3E
:104510002C682BC0E6FF2CC0E6FF7151316E326A69
:10452000323404E231508C08000E325402E3000EA3
:1045300001D0010E2F6E306A2FBE30682FC0E6FF0B
:1045400030C0E6FFE5EC1FF0E552E552E552E552DA
:1045500002D00101E76B01D0E76B47EC2CF0F4ECE3
:104560002CF06BEC06F081B803D08D848C9405D0D0
:104570000101010EE56F8D948C940101E351E4116A
:1045800001E086D00101D53504E2D451A708010E1F
:10459000D55502E2000E01D0010E2B6E2C6A2BBE07
:1045A0002C68020E2BC0DBFF030E2CC0DBFFD89063
:1045B000D55104E6A30ED45D020ED55902E2000ED9
:1045C00001D0010E2B6E2C6A2BBE2C68040E2BC062
:1045D000DBFF050E2CC0DBFF040EDBCFE6FF050E74
:1045E000DBCFE6FF020EDBCFE6FF030EDBCFE6FFFD
:1045F0008D50100B01E0010EE66EE66A8D50080B3F
:1046000001E0010EE66EE66AD4C1E6FFD5C1E6FF21
:10461000B7EC1CF0F3CF2BF0F4CF2CF02BC0E6FF5F
:104620002CC0E6FF02014851E66EE66AC30E2D6E0D
:10463000540E2E6E2F6A2DC0E6FF2EC0E6FF2FC04F
:10464000E6FFECEC30F0F56E110EE15EF5508D50AA
:10465000400B01E0010EE66EE66A8D50200B01E092
:10466000010EE66EE66A02014951E66EE66AA60EA2
:104670002B6E540E2C6E2D6A2BC0E6FF2CC0E6FF6D
:104680002DC0E6FFECEC30F0F56E090EE15EF55062
:104690000101E351E41104E1320EE36FE46B03D056
:1046A000E307000EE45B420EE66E020EE66E02ECDD
:1046B0001AF0E552E552D9CFE1FFE552E7CFD9FF35
:0246C0001200E6
:0E46C200D9CFE6FFE1CFD9FFF29CFD0EDBCF92
:1046D000E9FFFE0EDBCFEAFFEE52EF6AFD0EDBCF05
:1046E000E9FFFE0EDBCFEAFF540EE926000EEA22B8
:1046F000EF6AF28CE552E7CFD9FF1200D9CFE6FF7F
:10470000E1CFD9FFE6520701AE0E7C6F0F0E7D6F31
:10471000AD0E7E6F0F0E7F6F010E276F270EE66EB8
:10472000070EE66ECEDFE552E55207016E0ED56F3D
:104730000F0ED66F6D0ED76F0F0ED86F020E806FF3
:10474000800EE66E070EE66EBCDFE552E552150EF2
:10475000E66EFC0EE66E15EC32F0E552E5529F98DF
:104760009F9A949C948EAE50DF6EAE50DF6E9E9AF0
:10477000150EE66E7C0EE66EE3EC31F0E552E55286
:10478000A59AA598989298846E50DF6E6E50DF6E51
:10479000A49A0701D96BE552E552E7CFD9FF120081
:1047A000D9CFE6FFE1CFD9FFFD0EDBCFE9FFFE0E4B
:1047B000DBCFEAFFEF0402E19D8801D0A388E55238
:1047C000E7CFD9FF1200D9CFE6FFE1CFD9FFD9500B
:1047D000FD0FE96EFF0EDA20EA6EEE50ED100AE1F1
:1047E0009EA807D0270EE66E070EE66ED9DFE552CB
:1047F000E55209D0A4A807D0800EE66E070EE66E3B
:10480000CFDFE552E552E552E7CFD9FF1200D9CF0D
:10481000E6FFE1CFD9FFD950FD0FE96EFF0EDA2098
:10482000EA6EEE50ED1005E1ABB2AB98AB889D8A15
:1048300004D06BB26B986B88A38AE552E7CFD9FF9F
:104840001200D9CFE6FFE1CFD9FFFD0EDBCFE9FFA4
:10485000FE0EDBCFEAFFEF0403E19E989D9802D0A5
:10486000A498A398E552E7CFD9FF1200D9CFE6FF6D
:10487000E1CFD9FFFD0EDBCFE9FFFE0EDBCFEAFF74
:10488000EE52EF500AE1FD0EDBCFE6FFFE0EDBCF6E
:10489000E6FFD7DFE552E5522FD0FD0EDBCFE9FF73
:1048A000FE0EDBCFEAFF020EE926000EEA22EECF73
:1048B000F3FFEDCFF4FFEE2AEF22F3CFE9FFF4CFC1
:1048C000EAFFEF50E66EFD0EDBCFE9FFFE0EDBCF19
:1048D000EAFF570EE926000EEA22EE50EFCFEAFF7C
:1048E000E96EE552E750EF6EFD0EDBCFE9FFFE0EFD
:1048F000DBCFEAFFEE52EF06E552E7CFD9FF120019
:10490000D9CFE6FFE1CFD9FF07012651050A39E0EB
:10491000010A2FE0070A25E0010A16E0030A0CE06D
:10492000010A02E0266B34D0266BFE0EDB50C9086C
:1049300002E1010E266F2CD0266BFE0EDB5017080D
:1049400002E1020E266F24D0FE0EDBCF22F7DBCF72
:104950005AF22251800B01E0010ED96F030E266F2F
:1049600017D0FE0EDBCF23F7DBCF5BF2040E266FF2
:104970000FD0FE0EDBCF24F7DBCF5CF2050E266FE7
:1049800007D0FE0EDBCF25F7DBCF5DF2266B00D024
:10499000E552E7CFD9FF12009EAA0AD09E9A7CC7A3
:1049A000E9FF7DC7EAFFEF50E66EAADFE5521FD0B0
:1049B0009EA807D0270EE66E070EE66E57DFE5527B
:1049C000E552A4AA0BD0A49AD5C7E9FFD6C7EAFF3F
:1049D000EF50E66E5FEC33F0E55209D0A4A807D0A3
:1049E000800EE66E070EE66E41DFE552E5521200DC
:1049F0007EEF23F0D9CFE6FFE1CFD9FF590E1D6E30
:104A00001E6AFD0EDBCF22F0FE0EDBCF23F006EC9C
:104A100030F01BC0DAF71CC0DBF7270E0701DA27DE
:104A2000070EDB23F29CDAC7E9FFDBC7EAFF020EC1
:104A3000E926000EEA22FB0EDBCFEEFFFC0EDBCFF9
:104A4000EDFFDAC7E9FFDBC7EAFFEE52F90EDBCF75
:104A5000EFFFF28CFD0EDBCFE6FFFE0EDBCFE6FFB5
:104A6000B2DEE552E552E552E7CFD9FF1200D9CFC9
:104A7000E6FFE1CFD9FFFD0EDBCFE9FFFE0EDBCF76
:104A8000EAFF590EEA02F3CFEAFFE902F3CFE9FFAA
:104A9000F450EA26270EE926070EEA22EE52EF50DE
:104AA000000801E2E8D7F90EDBCF2BF0FA0EDBCFDE
:104AB0002CF02C3404E22B505008000E2C5407E24A
:104AC000500EF36EF90EF3CFDBFFFA0EDB6AFB0E2E
:104AD000DBCF2BF0FC0EDBCF2CF02D6A2BC0E6FFDA
:104AE0002CC0E6FF2DC0E6FF000EE66E070EE66E58
:104AF000A0EC30F0F56E050EE15EF550F90EDBCF5F
:104B0000E6FFFA0EDBCFE6FF000EE66E070EE66E5E
:104B1000FD0EDBCFE6FFFE0EDBCFE6FF6BDFF56EB3
:104B2000060EE15EF550000E00D0E552E7CFD9FF4A
:104B30001200D9CFE6FFE1CFD9FF590E1D6E1E6AD4
:104B4000FD0EDBCF22F0FE0EDBCF23F006EC30F0C3
:104B50001BC0DCF71CC0DDF7270E0701DC27070EA2
:104B6000DD23DCC7E9FFDDC7EAFF570EE926000EAB
:104B7000EA22EE50EFCFEAFFE96EFB0EDBCFEFFF4C
:104B8000D950FD0FE96EFF0EDA20EA6EEE50ED10FF
:104B900003E19EA8FED702D0A4A8FED7E552E7CF36
:104BA000D9FF1200D9CFE6FFE1CFD9FF0701285185
:104BB000000801E2FBD77B517B2BEA6A2B0FE96EE1
:104BC000070EEA22FE0EDBCFEFFFDB500D0803E0FD
:104BD000500E7B5D0FE3F29C2B0E296F070E2A6FA0
:104BE0007BC728F7F28C7B6B000EE66EE66AEBDD86
:104BF000E552E552E552E7CFD9FF1200D9CFE6FFE3
:104C0000E1CFD9FF020EE126010EDB6A090EF36E39
:104C1000FE0EDBCFF4FFF350F45C13E2FE0EDB0478
:104C20002B6E010E2B5204E0E846FE0B2B06FCE136
:104C3000DF6EDF5007012515E76E010EE7CFDBFFC2
:104C40004BD0110EF36EFE0EDBCFF4FFF350F45C8D
:104C500014E2FE0EDB50F70F2B6E010E2B5204E018
:104C6000E846FE0B2B06FCE1DF6EDF500701241542
:104C7000E76E010EE7CFDBFF2FD0190EF36EFE0EAD
:104C8000DBCFF4FFF350F45C14E2FE0EDB50EF0FC9
:104C90002B6E010E2B5204E0E846FE0B2B06FCE1C6
:104CA000DF6EDF5007012315E76E010EE7CFDBFF54
:104CB00013D0FE0EDB50E70F2B6E010E2B5204E0DB
:104CC000E846FE0B2B06FCE1DF6EDF5007012215E4
:104CD000E76E010EE7CFDBFFDB5000D0D9CFE1FF5D
:084CE000E552E7CFD9FF1200F5
:084CE800D9CFE6FFE1CFD9FFAF
:104CF000140EE66E010EE66E28EC16F0E552E55253
:104D00001BC02FF01CC030F01DC031F01EC032F0AF
:104D10002FC0E6FF30C0E6FF31C0E6FF32C0E6FF3D
:104D2000000EE66E010EE66E28EC16F0E552E55236
:104D3000E552E7CF32F0E552E7CF31F0E552E7CF69
:104D400030F0E552E7CF2FF01B502F5C2B6E1C503C
:104D500030582C6E1D5031582D6E1E5032582E6E0C
:104D60002BC0EBF72CC0ECF7FD0EDB500701EB2559
:104D7000ED6FFE0EDB50EC21EE6FE552E7CFD9FF71
:104D80001200D9CFE6FFE1CFD9FF020EE126140EC3
:104D9000E66E010EE66E28EC16F0E552E5521BC0F9
:104DA0002FF01CC030F01DC031F01EC032F02FC0FB
:104DB000E6FF30C0E6FF31C0E6FF32C0E6FF000E7E
:104DC000E66E010EE66E28EC16F0E552E552E5526D
:104DD000E7CF32F0E552E7CF31F0E552E7CF30F0E0
:104DE000E552E7CF2FF01B502F5C2B6E1C50305834
:104DF0002C6E1D5031582D6E1E5032582E6E2BC009
:104E0000DEFF2CC0DDFF0701EE3504E2ED510008A6
:104E1000000EEE5514E2DECF2BF0DDCF2CF02C503F
:104E2000EE19E8AE02D0EE3504D0ED512B5CEE5118
:104E30002C5802E2000E01D0010E23D022D0800EA9
:104E4000EE1514E0DECF2BF0DDCF2CF0EE512C1858
:104E5000E8AE02D02C3404D02B50ED5D2C50EE592E
:104E600002E2000E01D0010E0CD00BD0D9CFE9FF29
:104E7000DACFEAFFEE50ED1002E0000E01D0010E95
:104E800000D0D9CFE1FFE552E7CFD9FF1200D9CF4B
:104E9000E6FFE1CFD9FF140EE66E010EE66E28ECB8
:104EA00016F0E552E5521BC02BF01CC02CF01DC0C3
:104EB0002DF01EC02EF02BC0E6FF2CC0E6FF2DC04B
:104EC000E6FF2EC0E6FF000EE66E010EE66E28EC51
:104ED00016F0E552E552E552E7CF2EF0E552E7CF66
:104EE0002DF0E552E7CF2CF0E552E7CF2BF02B5019
:104EF0001B241B6E2C501C201C6E2D501D201D6E63
:104F00002E501E201E6E020E206E216A226A236A17
:104F100078EC32F01BC0EFF71CC0F0F7FD0EDB5051
:104F20000701EF25F16FFE0EDB50F021F26FE55225
:104F3000E7CFD9FF1200D9CFE6FFE1CFD9FF020EAC
:104F4000E126140EE66E010EE66E28EC16F0E55230
:104F5000E5521BC02BF01CC02CF01DC02DF01EC054
:104F60002EF02BC0E6FF2CC0E6FF2DC0E6FF2EC0C2
:104F7000E6FF000EE66E010EE66E28EC16F0E55236
:104F8000E552E552E7CF2EF0E552E7CF2DF0E5529E
:104F9000E7CF2CF0E552E7CF2BF02B501B241B6EF4
:104FA0002C501C201C6E2D501D201D6E2E501E20BE
:104FB0001E6E020E206E216A226A236A78EC32F09D
:104FC0001BC0DEFF1CC0DDFF0701F23504E2F1511A
:104FD0000008000EF25514E2DECF2BF0DDCF2CF0EE
:104FE0002C50F219E8AE02D0F23504D0F1512B5C0E
:104FF000F2512C5802E2000E01D0010E23D022D033
:10500000800EEE1514E0DECF2BF0DDCF2CF0F25148
:105010002C18E8AE02D02C3404D02B50F15D2C506B
:10502000F25902E2000E01D0010E0CD00BD0D9CF04
:10503000E9FFDACFEAFFEE50ED1002E0000E01D0FA
:10504000010E00D0D9CFE1FFE552E7CFD9FF120022
:105050000701F36B12000701EB6BEC6BED6BEE6B72
:1050600028EF28F00101F0A502D0F095F1DF07014B
:10507000F351070A39E0010A24E0070A14E0010AA3
:1050800001E045D0000EE66EE66A2EDEE552E552FE
:10509000000EE66EE66AADEC0AF0E552E552070155
:1050A000010EF36F34D06DDE00090AE0000EE66EEB
:1050B000E66AADEC0AF0E552E5520701060EF36F21
:1050C00026D0E80EE66E030EE66E85EC1DF0E55286
:1050D000E552F3CF2BF0F4CF2CF02B502C1003E142
:1050E0000701070EF36F13D0840EE66E030EE66E13
:1050F00085EC1DF0E552E552F3CF2BF0F4CF2CF008
:105100002B502C1003E10701060EF36F00D01200A4
:10511000000EE96EEA6E040095EC28F0EA2A080E0B
:10512000EA5CD8A48BEF28F01200EF6AE93E95EF15
:1051300028F01200FF0EE3CF09F009380F0B060F1D
:10514000D8B2070F2A0FAD6E6DEC2DF009500F0B82
:10515000060FD8B2070F2A0FAD6E6DEC2DF0000CC4
:105160001200EACF04F0E9CF05F0FF0EE3CFEAFF2B
:10517000FE0EE3CFE9FF82A741D0EECFA0F0EECF45
:10518000A1F0EECFA2F0EECFA3F0EECFA4F0EECFE1
:10519000A5F0EECFA6F0EECFA7F0EECFA8F0EECFC1
:1051A000A9F0EECFAAF0EECFABF0EECFACF0EECFA1
:1051B000ADF0EECFAEF0EECFAFF0EECFB0F0EECF81
:1051C000B1F0EECFB2F0EECFB3F0EECFB4F0EECF61
:1051D000B5F0EECFB6F0EECFB7F0EECFB8F0EECF41
:1051E000B9F0EECFBAF0EECFBBF0EECFBCF0EECF21
:1051F000BDF0EECFBEF0EECFBFF040D0EECF80F0EE
:10520000EECF81F0EECF82F0EECF83F0EECF84F0E0
:10521000EECF85F0EECF86F0EECF87F0EECF88F0C0
:10522000EECF89F0EECF8AF0EECF8BF0EECF8CF0A0
:10523000EECF8DF0EECF8EF0EECF8FF0EECF90F080
:10524000EECF91F0EECF92F0EECF93F0EECF94F060
:10525000EECF95F0EECF96F0EECF97F0EECF98F040
:10526000EECF99F0EECF9AF0EECF9BF0EECF9CF020
:10527000EECF9DF0EECF9EF0EECF9FF004C0EAFFA0
:1052800005C0E9FF120082A11200EACF04F0E9CFC5
:1052900005F0FF0EE3CFEAFFFE0EE3CFE9FF82A9A0
:1052A00041D0C0C0EEFFC1C0EEFFC2C0EEFFC3C020
:1052B000EEFFC4C0EEFFC5C0EEFFC6C0EEFFC7C024
:1052C000EEFFC8C0EEFFC9C0EEFFCAC0EEFFCBC004
:1052D000EEFFCCC0EEFFCDC0EEFFCEC0EEFFCFC0E4
:1052E000EEFFD0C0EEFFD1C0EEFFD2C0EEFFD3C0C4
:1052F000EEFFD4C0EEFFD5C0EEFFD6C0EEFFD7C0A4
:10530000EEFFD8C0EEFFD9C0EEFFDAC0EEFFDBC083
:10531000EEFFDCC0EEFFDDC0EEFFDEC0EEFFDFC063
:10532000EEFF40D0E0C0EEFFE1C0EEFFE2C0EEFFD6
:10533000E3C0EEFFE4C0EEFFE5C0EEFFE6C0EEFF27
:10534000E7C0EEFFE8C0EEFFE9C0EEFFEAC0EEFF07
:10535000EBC0EEFFECC0EEFFEDC0EEFFEEC0EEFFE7
:10536000EFC0EEFFF0C0EEFFF1C0EEFFF2C0EEFFC7
:10537000F3C0EEFFF4C0EEFFF5C0EEFFF6C0EEFFA7
:10538000F7C0EEFFF8C0EEFFF9C0EEFFFAC0EEFF87
:10539000FBC0EEFFFCC0EEFFFDC0EEFFFEC0EEFF67
:1053A000FFC0EEFF04C0EAFF05C0E9FF1200F2B43F
:1053B000120016500F0AD8B41200FF0EE3CF0AF005
:1053C000FE0EE3CF0BF0FD0EE3CF0CF0FC0EE3CFAF
:1053D0000DF00A2A16A08D8E0B2A16A28F800C2A99
:1053E00016A48F860D2A16A68F880E6A0F6A106A79
:1053F000116A2AEC2AF00A2E00EF2AF016A08D9EE0
:105400000B2E05EF2AF016A28F900C2E0AEF2AF031
:1054100016A48F9600000D2E10EF2AF016A68F9876
:1054200000000E2E15EF2AF0129000000F2E1AEF3A
:105430002AF012920000102E1FEF2AF012940000A2
:10544000112E24EF2AF012964CEC2AF0133EFBEFBB
:1054500029F01200D70E136E0000000000000000BB
:1054600042EC2AF0132E2CEF2AF0D70E136E000018
:1054700000000000000042EC2AF0132E37EF2AF063
:1054800000001200000045EF2AF0000000000000BC
:105490000000000000001200030E146E0000142E25
:0654A0004EEF2AF012009D
:0A54A600463A2050574D205B6C2F52
:1054B000755D3A0D2020202564205B25642F25642E
:1054C0005D0D00533A2050574D2C506F735B536560
:1054D0006E735D2C5B6C2F755D2C205B4C2B2C4C04
:1054E0002D5D3A200D20202025642C2025645B258D
:1054F000645D205B25642F25645D205B25642C257D
:10550000645D0D0073656C6563746564206175741A
:10551000206D6F64653A202564000D0D49464920D1
:105520003230303520557365722050726F63657369
:10553000736F7220496E697469616C697A65642061
:105540002E2E2E0D0D0073797374656D20656E61BE
:10555000626C65642E0D00656E61626C696E672019
:1055600073797374656D2E2E2E0D00636F6E7472D9
:105570006F6C6C6572206D6F64756C657320696EFD
:10558000697469616C697A65642E0D007365747461
:10559000696E6720757020636F6E74726F6C6C65D6
:1055A00072206D6F64756C65732E2E2E0D00647203
:1055B00069766572206D6F64756C657320696E69BC
:1055C0007469616C697A65642E0D00696E6974692D
:1055D000616C697A696E6720647269766572206DA4
:1055E0006F64756C65732E2E2E0D00737973746560
:1055F0006D206D6F64756C657320696E6974696187
:105600006C697A65642E0D00696E697469616C69F4
:105610007A696E672073797374656D206D6F647538
:105620006C65732E2E2E0D00524947485420736925
:10563000676E2D696E7665727365212056547261AE
:10564000642C2056547461726765742C2056546122
:10565000637475616C3A2025642C2025642C202508
:1056600064200D204C28567461726765742C205696
:1056700061637475616C2C20506F75742C20707789
:105680006D293A2025642C2025642C2025642C20AB
:105690002564200D205228567461726765742C2091
:1056A0005661637475616C2C20506F75742C20707A
:1056B000776D293A2025642C2025642C2025642C24
:1056C000202564200D0D004C454654207369676EFB
:1056D0002D696E7665727365212056547261642C53
:1056E0002056547461726765742C2056546163743B
:1056F00075616C3A2025642C2025642C20256420BB
:105700000D204C28567461726765742C20566163B5
:105710007475616C2C20506F75742C2070776D2916
:105720003A2025642C2025642C2025642C20256417
:10573000200D205228567461726765742C205661C2
:10574000637475616C2C20506F75742C2070776DAC
:10575000293A2025642C2025642C2025642C202522
:1057600064200D0D00696E74657272757074735FDC
:105770006D6F64756C65496E697469616C697A6591
:1057800028292E2E2E646F6E650D00696E74657269
:1057900072757074735F6D6F64756C65496E697452
:1057A00069616C697A6528290D002E2E2E696E7448
:1057B000657272757074203220696E697469616CEB
:1057C000697A652E2E2E002E2E2E696E74657272E9
:1057D000757074203120696E697469616C697A65CD
:1057E0002E2E2E00646F6E652E0D00696E69746931
:1057F000616C697A696E672074696D6572312E2EED
:105800002E0073686F756C6465724552524F52205A
:105810005B73746174655D3A202564205B25645D6B
:025820000D0079
:0E5822008D888D9612008D868D9812008D8CCB
:105830008D9A12008D8A8D9C12000101BE0EF56FAB
:1058400012000101750EF56F120001016E0EF66F68
:1058500012000101BE0EF66F120001017F0EF66FFD
:10586000120001017F0EF56F12000101D06BD16BA8
:10587000D26BD36BCC6BCD6BCE6BCF6BD5DFDADF5E
:1058800002017F0E486F496F120035EF2CF0D9CF1F
:10589000E6FFE1CFD9FFE6527F0E0101F55D02E0A0
:1058A000000E01D0010EDF6E030E0101CC1901E1E3
:1058B000CD515AE0020ECC1901E1CD5139E0010E73
:1058C000CC1901E1CD5116E0CC5101E1CD5101E0FF
:1058D00084D0DF500BE1A5DF02017F0E486F010E7F
:1058E0000101D06FD16BCC6FCD6B03D002017F0E65
:1058F000486F75D0D051D11110E00101D53504E2C7
:10590000D451A708010ED55508E202017F0E486F59
:105910000101D007000ED15B0AD002017F0E486F53
:10592000010E0101D06FD16B020ECC6FCD6B57D041
:10593000D051D11111E00101D890D55104E6A30E48
:10594000D45D020ED55908E202017F0E486F0101B5
:10595000D007000ED15B07D002017F0E486F030E07
:105960000101CC6FCD6B3BD0DF5008E002017F0E10
:10597000486F5ADF0101CC6BCD6B2ED00101F55180
:105980007F0815E20101D53504E2D451A708010EC4
:10599000D5550AE301017F0EF56F0201486F44DF20
:1059A0000101CC6BCD6B02D0F5C148F215D00101DD
:1059B000D890D55104E6A30ED45D020ED5590AE362
:1059C00001017F0EF56F0201486F2EDF0101CC6BE4
:1059D000CD6B02D0F5C148F202D0CC6BCD6BE55255
:1059E000E552E7CFD9FF1200D9CFE6FFE1CFD9FFCB
:1059F000E6527F0E0101F65D02E0000E01D0010EBD
:105A0000DF6E030E0101CE1901E1CF514AE0020E13
:105A1000CE1901E1CF5132E0010ECE1901E1CF5193
:105A200017E0CE5101E1CF5101E050D0DF500CE141
:105A3000FEDE02017F0E496F030E0101D26FD36BB0
:105A4000010ECE6FCF6B03D002017F0E496F40D0A5
:105A5000D251D31108E00201AA0E496F0101D20709
:105A6000000ED35B0AD002017F0E496F030E0101C5
:105A7000D26FD36B020ECE6FCF6B2AD0D251D3111F
:105A800008E00201730E496F0101D207000ED35BDB
:105A900007D002017F0E496F030E0101CE6FCF6B5D
:105AA00017D0DF5008E002017F0E496FC3DE01010D
:105AB000CE6BCF6B0AD007D001017F0EF66FBADE36
:105AC0000101CE6BCF6BF6C149F202D0CE6BCF6B2A
:0A5AD000E552E552E7CFD9FF1200BE
:065ADA009EB802D0FDD7CA
:105AE000FCD71200D9CFE6FFE1CFD9FFFE0EDBCF06
:105AF000E6FF9AEC28F0E5520D0EAD6EEEDFE552B2
:105B0000E7CFD9FF1200D9CFE6FFE1CFD9FF0101DE
:105B1000D950FD0FBA6FFF0EDA20BB6F010EEA6A93
:105B2000BA25E96EBB51EA22EF50E66E9AEC28F0F6
:105B3000E552BAC1E9FFBBC1EAFFEF50E66E9AEC4D
:105B400028F0E5520D0EAD6EC8DFE552E7CFD9FF64
:105B50001200D9CFE6FFE1CFD9FFFD0EDBCF2BF04E
:105B6000FE0EDBCF2CF02D6A2BC0E6FF2CC0E6FF2B
:105B70002DC0E6FF6A0EE66E010EE66EA0EC30F078
:105B8000F56E050EE15EF5506A0EE66E010EE66EEC
:105B9000B9EC30F0E552E552F3CFBEF1F4CFBFF1EE
:105BA0000101BF3504E2BE515008000EBF5503E2AB
:105BB000500EBE6FBF6BC06BC16BC151BF19E8AE59
:105BC00002D0BF3504D0BE51C05DBF51C1590EE2F5
:105BD0006A0EC025E96E010EC121EA6EEF50AD6E6E
:105BE0007CDF0101C02B000EC123E7D7E552E7CFD0
:105BF000D9FF1200D9CFE6FFE1CFD9FF0101BC6B7D
:105C00001A0EBC5D11E2FD0EDBCFE9FFDB2AFE0EB2
:105C1000DBCFEAFF01E3DB2AEF50E66E9AEC28F0D7
:105C2000E5520101BC2BECD70D0EAD6E56DFE552EF
:105C3000E7CFD9FF12000101620EBA6F020EBB6FEF
:105C4000020162510101E86FE96BEA51E81902E1D2
:105C5000EB51E91918E0020182A502D082950FD01C
:105C6000EAC1E6FF9AEC28F0E552E8C1E6FF9AECBB
:105C700028F0E5520D0EAD6E30DF02018295E8C1CD
:105C8000EAF1E9C1EBF10101EA2B000EEB23EB3560
:105C900004E2EA51FF08000EEB5502E2EA6BEB6BFF
:105CA0001200150EE66E3C0EE66E15EC32F0E55273
:105CB000E552320EE66E34EC33F0E5521200D9CFE5
:105CC000E6FFE1CFD9FFFE0EDBCFBDF1E552E7CF16
:105CD000D9FF1200D9CFE6FFE1CFD9FF020EE126AE
:105CE000FE0EDB507F0BFE0BFD0BE66EBDC1E6FF2B
:105CF00047EC32F0E552E5520A0EE66E52EC33F014
:105D0000E55273EC33F007EC04F0000901E0FBD737
:105D10009CEC32F070EC33F0C4502D6E2DC02EF0A0
:105D20002D6AC35000012D102B6E2EC02CF02BC0FD
:105D3000DEFF2CC0DDFFDECF2BF0DDCF2CF02BC043
:105D4000F3FF2CC0F4FF00D0D9CFE1FFE552E7CF3D
:045D5000D9FF120065
:0C5D5400EB0E2B6E570E2C6E2D6A2BC030
:105D6000E6FF2CC0E6FF2DC0E6FFECEC30F0E5527C
:105D7000E552E552820ECE6ECF68CD88CD8ACD96A3
:105D8000CD92CD8E9F909E909D80CD80E40E2B6E07
:105D9000570E2C6E2D6A2BC0E6FF2CC0E6FF2DC0DF
:105DA000E6FFECEC30F0E552E552E5521200C70E8A
:105DB0002B6E570E2C6E2D6A2BC0E6FF2CC0E6FF13
:105DC0002DC0E6FFECEC30F0E552E552E55293844D
:105DD000F09EF198F092F098E40E2B6E570E2C6E18
:105DE0002D6A2BC0E6FF2CC0E6FF2DC0E6FFECECD1
:105DF00030F0E552E552E5521200AA0E2B6E570E16
:105E00002C6E2D6A2BC0E6FF2CC0E6FF2DC0E6FFEE
:105E1000ECEC30F0E552E552E5529386F192F196C2
:105E2000F094F09AE40E2B6E570E2C6E2D6A2BC058
:105E3000E6FF2CC0E6FF2DC0E6FFECEC30F0E552AB
:105E4000E552E5521200D8CFE4FFE0CFE4FFE46E64
:105E5000DACFE4FFE2CFDAFFE9CFE4FFEACFE4FFF5
:105E6000F3CFE4FFF4CFE4FFE652D9CFE6FFE1CF72
:105E7000D9FFE6529E50010B0EE09D50010B0BE046
:105E8000820EE66EE668BBEC32F0E552E55213ECAA
:105E900033F09E9022D0F050020B0DE0F050100B2A
:105EA0000AE0000EE66E010EE66E2DEC15F0E552EE
:105EB000E552F09212D0F050040B0DE0F050200BA0
:105EC0000AE0140EE66E010EE66E2DEC15F0E552BA
:105ED000E552F09402D0CCEC24F0E552E552E7CF45
:105EE000D9FFE552E5CFF4FFE5CFF3FFE5CFEAFFB9
:105EF000E5CFE9FFE5CFDAFFE550E5CFE0FFE5CFFD
:105F0000D8FF10008B0E2B6E570E2C6E2D6A2BC0F7
:105F1000E6FF2CC0E6FF2DC0E6FFECEC30F0E552CA
:105F2000E552E55217DF43DF68DF650E2B6E570E33
:105F30002C6E2D6A2BC0E6FF2CC0E6FF2DC0E6FFBD
:105F4000ECEC30F0E552E552E5521200F088F08AB0
:085F50001200F098F09A120013
:085F5800256A23AEB5EF2FF01E
:105F6000226C231EE86A2322251E1EAEBDEF2FF0F1
:105F70001D6C1E1EE86A1E22251ED7EC32F01EBEC6
:105F8000CDEF2FF025AE000C1D6C1E1EE86A1E2200
:105F9000196C1A1EE86A1A22000C25BEC4EF2FF0F5
:105FA0002688FF0C256AE86A23AEDFEF2FF0206C0D
:105FB000211E221E231E212222222322251E1EAE46
:105FC000EAEF2FF01B6C1C1E1D1E1E1E1C221D2224
:105FD0001E22251E78EC32F01EBE01EF30F025AEF9
:105FE000000C1B6C1C1E1D1E1E1EE86A1C221D229E
:105FF0001E22176C181E191E1A1E182219221A2288
:10600000000C25BEF1EF2FF02688FF0C1EC02AF0F1
:106010001DC029F01D502202F4CF1CF0F3CF1BF05D
:106020001E502302F4CF1EF0F3CF1DF02202F350D6
:106030001C26F4501D22E86A1E2229502302F35028
:106040001C26F4501D22E86A1E2223AE2CEF30F0ED
:1060500029501D5E2A501E5A2AAE000C22501D5E89
:1060600023501E5A000C1DC029F01D502202F4CFEF
:106070001CF0F3CF1BF01E502302F4CF1EF0F3CF21
:106080001DF02202F3501C26F4501D22E86A1E2245
:1060900029502302F3501C26F4501D22E86A1E22C8
:0260A000000CF2
:0E60A2001E0EF66E080EF76E000EF86E01016F
:1060B0000900F550C76F0900F550C86F03E1C767C5
:1060C00001D03DD00900F550C26F0900F550C36FF3
:1060D0000900F550C46F09000900F550E96E090088
:1060E000F550EA6E090009000900F550C56F090076
:1060F000F550C66F09000900F6CFC9F1F7CFCAF114
:10610000F8CFCBF1C2C1F6FFC3C1F7FFC4C1F8FF9E
:106110000101C55302E1C65307E00900F550EE6ED8
:10612000C507F8E2C607F9D7C9C1F6FFCAC1F7FF2C
:10613000CBC1F8FF0101C707000EC85BBFD7120033
:10614000FB0EE3CFF6FFFC0EE3CFF7FFFD0EE3CF30
:10615000F8FFFE0EE3CFE9FFFF0EE3CFEAFFE9CF42
:10616000F3FFEACFF4FF0900F5CFEFFFEE66FBD7B0
:106170001200FE0EE3CFE9FFFF0EE3CFEAFFF36A62
:10618000F46AEE5203E0F34AF42AFBD71200FF0E42
:10619000E3CFF8FFE552FF0EE3CFF7FFE552FF0E26
:1061A000E3CFF6FFE552E66AE66AE66A0900F552D1
:1061B00009E0FD0EE32A05E1FE0EE32A02E1FF0EEF
:1061C000E32AF4D7FD0EE3CF1CF0FE0EE3CF1DF063
:0861D000FF0EE3CF1EF01200E8
:0861D800D9CFE6FFDACFE6FFA4
:1061E000E1CFD9FFE2CFDAFFE652E652E652E652BD
:1061F000D950FB0F2B6EFF0EDA202C6E2BC0DEFF6A
:10620000DD6EDECFE6FFDDCFE6FFFB0EDBCFE6FF88
:10621000FC0EDBCFE6FFFD0EDBCFE6FFF3C1E6FFB2
:10622000F4C1E6FFABEC0EF0F56E070EE15C02E2A6
:10623000E16AE552E16EF550020EF3CFDBFF030E8B
:10624000F4CFDBFF020EDBCF2BF0030EDBCF2CF005
:106250002BC0F3FF2CC0F4FFD9CFE1FFDACFE2FF70
:0C626000E552E5CFDAFFE7CFD9FF1200CE
:04626C00D9CFE6FFA1
:10627000DACFE6FFE1CFD9FFE2CFDAFFFB0EDBCFCB
:106280002BF0FC0EDBCF2CF00001800E2C141AE159
