:020000040000FA
:0608000013EF29F01200C5
:01080600FFF2
:0608080066EF22F0120071
:02080E00C250D6
:08081000020B01E0010E1200D1
:060818008CEF1FF012003E
:02081E000500D3
:10082000D0520000EC07000004000000CE5200008F
:10083000F007000002000000C4520000D8010000D0
:100840000A000000A2520000CA07000022000000B7
:0C08500006080000F20700000100000094
:0C090400D9CFE6FFE1CFD9FFFD0EDBCF1D
:100910002BF0FE0EDBCF2CF02C50070AE8AE02D0F5
:10092000D89004D0D00E2B5C070E2C5806E20101A3
:10093000D00EBF6F070EC06F1ED0FD0EDBCF2BF0A9
:10094000FE0EDBCF2CF02C50080AE8AE02D02C347F
:1009500005D0CE0ED8802B54080E2C5406E201018F
:10096000CE0EBF6F080EC06F06D0FD0EDBCFBFF1FD
:10097000FE0EDBCFC0F1BFC12BF0C0C12CF0D00EFA
:100980002B5E070E2C5A2B5000D0E552E7CFD9FF33
:100990001200D9CFE6FFE1CFD9FF100EE126FD0E00
:1009A000DBCFE9FFFE0EDBCFEAFFEF50DE6EDD6A44
:1009B000FB0EDBCFE9FFFC0EDBCFEAFFEF50E66E6C
:1009C000D950020FE96EDACFEAFFE552E750EE6E3A
:1009D000ED6A640EF36E040EF3CFDBFF050EDB6AE7
:1009E000DECF2BF0DDCF2CF07F0E2B5E000E2C5ACD
:1009F000060E2BC0DBFF070E2CC0DBFF020EDBCF89
:100A00002BF0030EDBCF2CF07F0E2B5E000E2C5A4A
:100A1000080E2BC0DBFF090E2CC0DBFFDECF2BF056
:100A2000DDCF2CF07F0E2B5C000E2C583AE2DECF8F
:100A30002BF0DDCF2CF0FF0ED8802B56000E2C565D
:100A40007F0E2B5E000E2C5A060E2BC0DBFF070E0E
:100A50002CC0DBFFDAC71DF0DBC71EF0060EDBCFB4
:100A600022F0070EDBCF23F06EEC1EF01BC02BF044
:100A70001CC02CF0640E226E236A2BC01DF02CC00B
:100A80001EF0E9EC28F01DC02BF01EC02CF07F0EEC
:100A9000D8802B56000E2C562BC0DEFF2CC0DDFF5D
:100AA00077D0DAC71DF0DBC71EF0060EDBCF22F0D1
:100AB000070EDBCF23F06EEC1EF00A0E1BC0DBFF2F
:100AC0000B0E1CC0DBFF640E2B6E2C6A0A0EDBCFF4
:100AD0001DF00B0EDBCF1EF02BC022F02CC023F03C
:100AE000E9EC28F00C0E1DC0DBFF0D0E1EC0DBFF75
:100AF0007F0EE76E0C0EDBCF2BF00D0EDBCF2CF054
:100B0000E7502B26000E2C220E0E2BC0DBFF0F0E03
:100B10002CC0DBFF0701D95110E00A0EDBCFE6FF46
:100B20000B0EDBCFE6FF270EE66E4E0EE66E6AEC8E
:100B300016F0E552E552E552E5520701D95110E0B1
:100B40000C0EDBCFE6FF0D0EDBCFE6FF1D0EE66ED3
:100B50004E0EE66E6AEC16F0E552E552E552E552AD
:100B60000701D95110E00E0EDBCFE6FF0F0EDBCFF1
:100B7000E6FF130EE66E4E0EE66E6AEC16F0E552D8
:100B8000E552E552E5520E0EDBCFDEFFDBCFDDFF97
:100B9000DECFE6FFDDCFE6FFCCD9E552E552F3CF5D
:100BA000DEFFF4CFDDFF020EDBCF2BF0030EDBCF39
:100BB0002CF07F0E2B5C000E2C583EE2020EDBCF99
:100BC0002BF0030EDBCF2CF0FF0ED8802B56000E3F
:100BD0002C567F0E2B5E000E2C5A080E2BC0DBFF0E
:100BE000090E2CC0DBFFDCC71DF0DDC71EF0080EB0
:100BF000DBCF22F0090EDBCF23F06EEC1EF01BC022
:100C00002BF01CC02CF0640E226E236A2BC01DF04A
:100C10002CC01EF0E9EC28F01DC02BF01EC02CF0FB
:100C20007F0ED8802B56000E2C56020E2BC0DBFFF9
:100C3000030E2CC0DBFF7ED0DCC71DF0DDC71EF02D
:100C4000080EDBCF22F0090EDBCF23F06EEC1EF096
:100C50000A0E1BC0DBFF0B0E1CC0DBFF640E2B6EED
:100C60002C6A0A0EDBCF1DF00B0EDBCF1EF02BC063
:100C700022F02CC023F0E9EC28F00C0E1DC0DBFFA5
:100C80000D0E1EC0DBFF7F0EE76E0C0EDBCF2BF0D0
:100C90000D0EDBCF2CF0E7502B26000E2C220E0E73
:100CA0002BC0DBFF0F0E2CC0DBFF0701D95110E07A
:100CB0000A0EDBCFE6FF0B0EDBCFE6FF270EE66E5C
:100CC0004E0EE66E6AEC16F0E552E552E552E5523C
:100CD0000701D95110E00C0EDBCFE6FF0D0EDBCF84
:100CE000E6FF1D0EE66E4E0EE66E6AEC16F0E5525D
:100CF000E552E552E5520701D95110E00E0EDBCF67
:100D0000E6FF0F0EDBCFE6FF130EE66E4E0EE66E2D
:100D10006AEC16F0E552E552E552E5520E0EDBCFD5
:100D20001DF00F0EDBCF1EF0020E1DC0DBFF030E09
:100D30001EC0DBFF020EDBCF33F0030EDBCF34F03F
:100D4000D00E3326070E34220701CB51356E366A9A
:100D50003550335C316E36503458326E050E1D6E90
:100D60001E6A31C022F032C023F06EEC1EF01BC0B0
:100D70002FF01CC030F0640E226E236A2FC01DF0CD
:100D800030C01EF0E9EC28F01DC02FF01EC030F07E
:100D90000701CB5100012E6B2F242D6F30502E23D5
:100DA000040EDB502D5C2B6E050EDB502E582C6E86
:100DB000020E2BC0DBFF030E2CC0DBFFDECF33F0B7
:100DC000DDCF34F0D00E3326070E34220701CA518E
:100DD000356E366A3550335C316E36503458326E6B
:100DE000050E1D6E1E6A31C022F032C023F06EEC7B
:100DF0001EF01BC02FF01CC030F0640E226E236A60
:100E00002FC01DF030C01EF0E9EC28F01DC02FF0FF
:100E10001EC030F00701CA5100012E6B2F242D6F28
:100E200030502E23040EDB502D5C2B6E050EDB5054
:100E30002E582C6E2BC0DEFF2CC0DDFF020EDBCF48
:100E4000CBF7DFCFCAF7D9CFE6FFDACFE6FF21D85D
:100E5000E552E552D950020FE66EDACFE6FF19D817
:100E6000E552E552FD0EDBCFE9FFFE0EDBCFEAFFD8
:100E7000DFCFEFFFFB0EDBCFE9FFFC0EDBCFEAFF9E
:100E8000020EDBCFEFFFD9CFE1FFE552E7CFD9FF6D
:100E90001200D9CFE6FFE1CFD9FF020EE126FD0E09
:100EA000DBCFE9FFFE0EDBCFEAFFEECFDEFFEDCFBB
:100EB000DDFFDECF2BF0DDCF2CF0770E2B5C000EAC
:100EC0002C580DE2DECF2BF0DDCF2CF0080E2B26B8
:100ED000000E2C222BC0DEFF2CC0DDFF1AD0D9CF94
:100EE000E9FFDACFEAFF870ED880EE54000EED540A
:100EF0000DE2DECF2BF0DDCF2CF0080E2B5E000EC6
:100F00002C5A2BC0DEFF2CC0DDFF03D07F0EDE6E1F
:100F1000DD6AFD0EDBCFE9FFFE0EDBCFEAFFDECFA1
:100F2000EEFFDDCFEDFFD9CFE1FFE552E7CFD9FFEF
:100F30001200D9CFE6FFE1CFD9FF0E0EE126FD0E5C
:100F4000DBCF2BF0FE0EDBCF2CF02D6A2E6A7F0E4E
:100F50002B5E000E2C5A2D5A2E5A2BC0DFFF010E8D
:100F60002CC0DBFF020E2DC0DBFF030E2EC0DBFF0B
:100F7000D9CFE9FFDACFEAFFEECF2BF0EECF2CF09E
:100F8000EECF2DF0EFCF2EF02BC01BF02CC01CF0BD
:100F90002DC01DF02EC01EF0DFCF20F0010EDBCFE4
:100FA00021F0020EDBCF22F0030EDBCF23F0C9ECE1
:100FB00027F0040E17C0DBFF050E18C0DBFF060E7E
:100FC00019C0DBFF070E1AC0DBFF040EDBCF1BF0DE
:100FD000050EDBCF1CF0060EDBCF1DF0070EDBCFBE
:100FE0001EF07F0E206E216A226A236A0DEC1EF02D
:100FF000080E1BC0DBFF090E1CC0DBFF0A0E1DC064
:10100000DBFF0B0E1EC0DBFF7F0E2D6E2E6A2F6ADC
:10101000306AD950080FE96EDACFEAFFEE502D267C
:10102000EE502E22EE502F22EE5030222DC02BF00B
:101030002EC02CF0FF0ED8802B56000E2C560C0E16
:101040002BC0DBFF0D0E2CC0DBFFFD0EDBCF2BF02A
:10105000FE0EDBCF2CF07F0E2B5C000E2C5811E225
:101060000C0EDBCF2BF00D0EDBCF2CF0FF0ED8805B
:101070002B56000E2C560C0E2BC0DBFF0D0E2CC079
:10108000DBFF0C0EDBCF2BF00D0EDBCF2CF02BC0DB
:10109000F3FF2CC0F4FF00D0D9CFE1FFE552E7CF3A
:1010A000D9FF1200D9CFE6FFE1CFD9FFFE0EDB500A
:1010B00000D0E552E7CFD9FF120081B403D08C8A6B
:1010C0008D9A02D08C9A8D9A01017AA110D0020ECD
:1010D0000701CD5D0BE2CD5105E18C868D96030EA7
:1010E000CD6F04D08C968D86020ECD6F07D0070190
:1010F000CD51010803E2020ECD5DCD6F01017AA34F
:1011000007D04E0E0701DA6FDB6B500EDC6FDD6B24
:1011100001017AA507D0640E0701DC6FDD6B4E0E6E
:10112000DA6FDB6B01017AA707D03C0E0701DA6F9B
:10113000DB6B320EDC6FDD6B01018651280805E2A6
:10114000320E865D02E20701CC6B010186512B6EE7
:101150002C6A2C50000AE8AE02D02C3405D0FA0ECE
:10116000D8802B54000E2C5417E286512D6E2E6A17
:101170002E50010AE8AE02D0D89004D0040E2D5CA7
:10118000010E2E5809E20701CC0504E08C828D92F5
:101190008C848D94010ECC6F010186515A0810E2A7
:1011A000640E865D0DE2060E0701CC5D07E08CB291
:1011B00003D08C828D9202D08C928D82060ECC6FE1
:1011C000010186512B6E2C6A2C50000AE8AE02D029
:1011D0002C3405D0BE0ED8802B54000E2C541BE2AC
:1011E00086512D6E2E6A2E50000AE8AE02D0D8909D
:1011F00004D0D10E2D5C000E2E580DE2020E070118
:10120000CC5D07E08CB403D08C848D9402D08C9498
:101210008D94020ECC6F010186512B6E2C6A2C50DE
:10122000000AE8AE02D02C3405D08C0ED8802B54A6
:10123000000E2C5418E286512D6E2E6A2E50000A94
:10124000E8AE02D0D89004D0A00E2D5C000E2E582F
:101250000AE2040E0701CC5D04E08C928D828C942E
:101260008D94040ECC6F010186512B6E2C6A2C508C
:10127000000AE8AE02D02C3405D0A00ED8802B5442
:10128000000E2C5414E286512D6E2E6A2E50000A48
:10129000E8AE02D0D89004D0AA0E2D5C000E2E58D5
:1012A00006E2050E0701CC5D00E0050ECC6F0101E2
:1012B00086512B6E2C6A2C50000AE8AE02D02C34DA
:1012C00005D0D20ED8802B54000E2C5414E2865137
:1012D0002D6E2E6A2E50000AE8AE02D0D89004D0AF
:1012E000D70E2D5C000E2E5806E2030E0701CC5DD2
:1012F00000E0030ECC6F010183512B6E2C6A2C5041
:10130000000AE8AE02D02C3405D08C0ED8802B54C5
:10131000000E2C540DE20701D25107E18CA003D03E
:101320008C908D9002D08C808D90010ED26F02D067
:101330000701D26B01017F512B6E2C6A2C50000AE1
:10134000E8AE02D02C3405D08C0ED8802B54000E81
:101350002C5400E287512B6E2C6A2C50000AE8AE08
:1013600002D02C3405D08C0ED8802B54000E2C5477
:1013700003E28C888D9802D08C988D988B512B6EBF
:101380002C6A2C50000AE8AE02D02C3405D08C0E0A
:10139000D8802B54000E2C5410E2020E0701D15DB0
:1013A0000BE2D15105E18C948D84030ED16F04D0F2
:1013B0008C848D94020ED16F07D00701D1510108A2
:1013C00003E2020ED15DD16F01017BA103D00101C7
:1013D0005C6B06D00701CE5103E101017F0E5C6F0B
:1013E00001017BA315D07BB70ED00701D0510AE1D4
:1013F0007F0E01015C5D04E10701020ECE6F02D099
:101400000701CE6B02D00701CE6B010ED06F02D068
:101410000701D06B01017BA500D07BA71CD00A0E71
:10142000E66E4E0EE66E6AEC16F0E552E5520101EC
:101430007BB30DD00701CF510AE17F0E01015C5D46
:1014400004E10701010ECE6F02D00701CE6B070148
:10145000010ECF6F02D00701CF6BCE5136E0CE0523
:1014600020E1D3512B6E2C6A2C50000AE8AE02D03A
:10147000D89004D09E0E2B5C000E2C580CE201017B
:10148000FE0E5C6F8150800B01E0010E0701D45D00
:1014900001E0D32B05D001017F0E5C6F0701CE6BFD
:1014A00013D0D35100080BE201015C6B8150800B1B
:1014B00001E0010E0701D45D01E0D30705D0010171
:1014C0007F0E5C6F0701CE6B03D001017F0E5C6F56
:1014D00001017BA50DD001015C6B8150800B01E007
:1014E000010E0701D45D03E0D35101E0D30706D01C
:1014F0000701CE5103E101017F0E5C6F0701D95155
:101500000DE0D351E66EE66A000EE66E4E0EE66E14
:101510006AEC16F0E552E552E552E5528150800B37
:1015200001E0010E0701D46F12008C808D908C9227
:101530008D828C948D948C968D868C988D988C9AB7
:101540008D9A8150800B01E0010E0701D46F1200CB
:10155000D9CFE6FFE1CFD9FF070EE126DF6A010E02
:10156000DB6A7F0EF36E060EF3CFDBFFDF50EA6A15
:10157000B10FE96E010EEA22EFCF2BF0FD0EDBCFAB
:101580002CF0FE0EDBCF2DF02B502C5C000E2D58D6
:1015900005E20D0EDF5C02E2DF2AE8D7DF04EA6A2B
:1015A000B10FE96E010EEA22EFCF2CF0DF50EA6AAC
:1015B000B10FE96E010EEA22EF502C5C2B6E0A0E81
:1015C0002D6E2DC023F02BC01EF033EC29F01E50E1
:1015D000E66ED950020FE96EDACFEAFFE552E75026
:1015E000EE6EED6ADF04EA6AB10FE96E010EEA22DF
:1015F000EF50E66ED950040FE96EDACFEAFFE552FC
:10160000E750EE6EED6ADF04E76E010EE7CFDBFF19
:10161000DF6A040EDBCF2DF0050EDBCF2EF0DF509E
:101620002F6E306A2FC01DF030C01EF0020EDBCFCF
:1016300022F0030EDBCF23F06EEC1EF02D501B24A6
:101640002B6E2E501C202C6EFD0EDBCF31F0FE0ECB
:10165000DBCF32F02B50315C2C50325802E2DF2AC3
:10166000D8D7FC0EDB040BE1010EDB500A0DF35062
:101670007F0FDF24E76E060EE7CFDBFF0DD07F0E76
:101680002B6E010EDB500A0DF3502B5CD880DF541B
:10169000E76E060EE7CFDBFFDB5000D0D9CFE1FFCE
:1016A000E552E7CFD9FF1200D9CFE6FFE1CFD9FF4E
:1016B0001D0EE126DAC1DEFFDBC1DDFF01016A514B
:1016C000E66ED950040FE96EDACFEAFFE552E75033
:1016D000EE6EED6A6851E66ED950060FE96EDACF0C
:1016E000EAFFE552E750EE6EED6A010EF36E080E6A
:1016F000F3CFDBFF090EDB6A0A0EDB6A0B0EDB6A37
:101700007F0EF36E0C0EF3CFDBFF0D0EDB6A0E0EB9
:10171000DB6A0F0EDB6A7F0EF36E100EF3CFDBFF7A
:10172000DEC122F0DFC123F0DECF1DF0DDCF1EF0E1
:10173000E9EC28F01DC02BF01EC02CF02BC0E6FFFA
:101740002CC0E6FFEF0EE66E4D0EE66E6AEC16F06C
:10175000E552E552E552E552E0C122F0E1C123F045
:10176000DECF1DF0DDCF1EF0E9EC28F01DC02BF020
:101770001EC02CF02BC0E6FF2CC0E6FFDD0EE66E8F
:101780004D0EE66E6AEC16F0E552E552E552E55272
:101790000101000ED880DE55000EDF5529E27F0ED4
:1017A00001016A5D02E2080EDB6A080EDBCFE6FF8C
:1017B000DEC122F0DFC123F0DECF1DF0DDCF1EF051
:1017C000E9EC28F01DC02BF01EC02CF02BC0E6FF6A
:1017D0002CC0E6FFBDDEE552E552E552E76E020E93
:1017E000E7CFDBFF010EF36E080EF3CFDBFF0DD06A
:1017F000010EE66EE66A020EE66EAADEE552E552DC
:10180000E552E76E020EE7CFDBFF0101000ED88044
:10181000E055000EE15529E27F0E0101685D02E20C
:10182000080EDB6A080EDBCFE6FFE0C122F0E1C163
:1018300023F0DECF1DF0DDCF1EF0E9EC28F01DC057
:101840002BF01EC02CF02BC0E6FF2CC0E6FF80DE84
:10185000E552E552E552E76E030EE7CFDBFF010EDE
:10186000F36E080EF3CFDBFF0DD0010EE66EE66AD5
:10187000020EE66E6DDEE552E552E552E76E030EAE
:10188000E7CFDBFF020EDB502D6E2E6A040EDBCF9E
:101890001DF0050EDBCF1EF02D501D5C2B6E2E5063
:1018A0001E582C6E110E2BC0DBFF120E2CC0DBFF5E
:1018B0000D0EDBCF2BF00E0EDBCF2CF00F0EDBCF9F
:1018C0002DF0100EDBCF2EF0110EDBCF1DF0120E1F
:1018D000DBCF1EF00701E6511D5C336EE7511E5849
:1018E000346E33C01DF034C01EF014EC19F01CC06F
:1018F0002FF01DC030F01EC031F01FC032F02FC0DD
:1019000021F030C022F031C023F032C024F02BC0CF
:101910001CF02CC01DF02DC01EF02EC01FF089EC55
:101920001DF0EEEC1EF0130E1DC0DBFF140E1EC0EA
:10193000DBFF110EDBCFE6F7120EDBCFE7F7090E68
:10194000DBCF2FF00A0EDBCF30F00B0EDBCF31F008
:101950000C0EDBCF32F0DAC11BF0DBC11CF0DCC1B6
:101960001DF0DDC11EF0BBEC19F01CC033F01DC032
:1019700034F01EC035F01FC036F033C021F034C043
:1019800022F035C023F036C024F02FC01CF030C048
:101990001DF031C01EF032C01FF089EC1DF01CC0DC
:1019A0002BF01DC02CF01EC02DF01FC02EF0110E0C
:1019B000DBCF1DF0120EDBCF1EF014EC19F01CC0B3
:1019C00037F01DC038F01EC039F01FC03AF037C0E4
:1019D00021F038C022F039C023F03AC024F02BC0E7
:1019E0001CF02CC01DF02DC01EF02EC01FF089EC85
:1019F0001DF0EEEC1EF0150E1DC0DBFF160E1EC016
:101A0000DBFF0701EA512F6E306A130EDB502F24E3
:101A10002D6E140EDB5030202E6E150EDB502D2453
:101A20002B6E160EDB502E202C6E2BC06BF12BC0B4
:101A30006AF1030EDB502D6E2E6A060EDBCF1DF011
:101A4000070EDBCF1EF02D501D5C2B6E2E501E5846
:101A50002C6E170E2BC0DBFF180E2CC0DBFF0D0EFB
:101A6000DBCF2BF00E0EDBCF2CF00F0EDBCF2DF0EB
:101A7000100EDBCF2EF0170EDBCF1DF0180EDBCFD4
:101A80001EF0E8511D5C336EE9511E58346E33C0B0
:101A90001DF034C01EF014EC19F01CC02FF01DC056
:101AA00030F01EC031F01FC032F02FC021F030C026
:101AB00022F031C023F032C024F02BC01CF02CC027
:101AC0001DF02DC01EF02EC01FF089EC1DF0EEECB5
:101AD0001EF0190E1DC0DBFF1A0E1EC0DBFF170E15
:101AE000DBCFE8F7180EDBCFE9F7090EDBCF2FF0DD
:101AF0000A0EDBCF30F00B0EDBCF31F00C0EDBCF5C
:101B000032F0DAC11BF0DBC11CF0DCC11DF0DDC11D
:101B10001EF0BBEC19F01CC033F01DC034F01EC029
:101B200035F01FC036F033C021F034C022F035C08C
:101B300023F036C024F02FC01CF030C01DF031C09F
:101B40001EF032C01FF089EC1DF01CC02BF01DC030
:101B50002CF01EC02DF01FC02EF0170EDBCF1DF095
:101B6000180EDBCF1EF014EC19F01CC037F01DC0AE
:101B700038F01EC039F01FC03AF037C021F038C02D
:101B800022F039C023F03AC024F02BC01CF02CC046
:101B90001DF02DC01EF02EC01FF089EC1DF0EEECE4
:101BA0001EF01B0E1DC0DBFF1C0E1EC0DBFF07015D
:101BB000EB512F6E306A190EDB502F242D6E1A0E4A
:101BC000DB5030202E6E1B0EDB502D242B6E1C0E96
:101BD000DB502E202C6E2BC069F12BC068F1010167
:101BE000DA6BDB6BDC6BDD6B000E0101E06FE16B30
:101BF0000101DE6FDF6BD9CFE1FFE552E7CFD9FFFF
:101C000012000101B16BB26B880EB36FCA0EB46FD4
:101C1000660EB56F600EB66F5C0EB76F580EB86F7C
:101C2000500EB96F4C0EBA6F480EBB6F410EBC6FB1
:101C30003D0EBD6FBE6F1200D9CFE6FFE1CFD9FFD9
:101C4000020EE126BA0EDE6E4D0EDD6EF00EE66E71
:101C5000ADEC25F0E552938A93889386938499821C
:101C60009980938E938C9A849A82998699849A8A81
:101C70009A8894809A869A8E9A9C919C01017F0EF4
:101C8000636F63C162F163C161F163C160F163C1FC
:101C90005FF163C15EF163C15DF163C15CF16B6FC4
:101CA0006BC16AF16BC169F16BC168F16BC167F11E
:101CB0006BC166F16BC165F16BC164F1000EE66E3C
:101CC000E66AE66EE66AE66EE66AE66EE66AE6EC06
:101CD00023F0F56E080EE15EF55027DC92DF9FECF5
:101CE00025F0580EE66E010EE66E9CEC23F0E552F0
:101CF000E552DECFE6FFDDCFE6FFB60EE66E4D0E17
:101D0000E66E6AEC16F0E552E552E552E55201EC5A
:101D100023F0D9CFE1FFE552E7CFD9FF1200780ECB
:101D2000E66E010EE66E62EC23F0E552E55201012B
:101D300079BD02D038EC27F00701D52B000ED62351
:101D4000D723D823D5C72BF0D6C72CF0D7C72DF073
:101D5000D8C72EF00F0E2B162C6A2D6A2E6A2B5028
:101D60002C102D102E100BE1010ED96FA80EE66E6F
:101D70004D0EE66E6AEC16F0E552E55201D0D96BD5
:101D80000701D95117E0870EE66EB8EC25F0E55251
:101D9000F3CF2BF0F4CF2CF02BC0E6FF2CC0E6FFE6
:101DA000930EE66E4D0EE66E6AEC16F0E552E552C5
:101DB000E552E55243D85DEC08F0D5C72BF0D6C705
:101DC0002CF0D7C72DF0D8C72EF0030E206E216A55
:101DD000226A236A2BC01BF02CC01CF02DC01DF002
:101DE0002EC01EF0ACEC28F017C02BF018C02CF061
:101DF00019C02DF01AC02EF02B502C102D102E10C3
:101E000006E10701D551D611D711D81100E06BC1F9
:101E1000E6FF6AC1E6FF69C1E6FF68C1E6FF21ECA3
:101E200026F0E552E552E552E552580EE66E010EF7
:101E3000E66E9CEC23F0E552E55212000701D95101
:101E400011E001017E51E66EE66A8251E66EE66AB5
:101E5000800EE66E4D0EE66E6AEC16F0F56E060E1E
:101E6000E15EF5507E0EE66E010EE66E820EE66EC7
:101E7000010EE66EC9EC04F0E552E552E552E5527A
:101E80000701D95111E001017E51E66EE66A8251E7
:101E9000E66EE66A710EE66E4D0EE66E6AEC16F0C0
:101EA000F56E060EE15EF550010182512E6AD00FEB
:101EB0002D6E070E2E227E5100012D242B6F000E59
:101EC0002E202C6F7F0E2B5E000E2C5A2BC0E6FFAF
:101ED0002CC0E6FF82EC04F0E552E552E66E52ECCF
:101EE00008F0E55201016A6F6B6F010182512E6AA1
:101EF000D00F2D6E070E2E227E512F6E306A2F507E
:101F00002D5C2B6E30502E582C6E7F0E2B26000E23
:101F10002C222BC0E6FF2CC0E6FF82EC04F0E55239
:101F2000E552E66E52EC08F0E5520101686F696F08
:101F300069512B6E2C6AFF0ED8802B56000E2C5642
:101F40002BC069F12BC068F1010179BBBED07E5D69
:101F500007E37E51380804E30101589158833AD0D1
:101F60007D0E7E5D13E37E512B6E2C6A2C50000A91
:101F7000E8AE02D02C3405D0810ED8802B54000E50
:101F80002C5404E301015881588324D07E512B6ED8
:101F90002C6A2C50000AE8AE02D0D89004D0D80E9B
:101FA0002B5C000E2C5813E37E512D6E2E6A2E50A2
:101FB000000AE8AE02D02E3405D0FF0ED8802D5492
:101FC000000E2E5404E301015881589303D00101FF
:101FD00058915893000E01017F5D07E37F51380847
:101FE00004E30101589558873AD07D0E7F5D13E3D5
:101FF0007F512B6E2C6A2C50000AE8AE02D02C3494
:1020000005D0810ED8802B54000E2C5404E301011E
:102010005885588724D07F512B6E2C6A2C50000A8B
:10202000E8AE02D0D89004D0D80E2B5C000E2C580D
:1020300013E37F512D6E2E6A2E50000AE8AE02D0B7
:102040002E3405D0FF0ED8802D54000E2E5404E3FC
:1020500001015885589703D0010158955897589B0E
:102060008C50010B01E0588B58998D50010B01E009
:102070005889589F8C50020B01E0588F589D8D5005
:10208000020B01E0588D8C50080B01E0010E010B92
:10209000F36EFE0E5915F310596F8C50080B01E0CA
:1020A000010E010BF36EF346FD0E5915F310596F37
:1020B0008C50080B01E0010E010BF36EF346F34662
:1020C000FB0E5915F310596F51D08FC11EF0D8EC8B
:1020D00018F01CC033F01DC034F01EC035F01FC016
:1020E00036F0710E216E3D0E226E7A0E236E820E38
:1020F000246E33C01CF034C01DF035C01EF036C055
:102100001FF089EC1DF01CC02FF01DC030F01EC068
:1021100031F01FC032F0216A226A236A870E246ED2
:102120002FC01CF030C01DF031C01EF032C01FF0B7
:1021300002EC1BF01CC02BF01DC02CF01EC02DF0BB
:102140001FC02EF0216A226A200E236E820E246E9A
:102150002BC01CF02CC01DF02DC01EF02EC01FF097
:0E21600089EC1DF08CEC1EF01EC058F1120030
:02216E00D9CFC7
:10217000E6FFE1CFD9FFFD0EDB50AD6EB1EC24F0F0
:10218000E552E7CFD9FF1200D9CFE6FFE1CFD9FF63
:10219000080EE126DE6ADD6A200EF36E020EF3CF32
:1021A000DBFF030EDB6AFB0EDBCF2BF0FC0EDBCF7D
:1021B0002CF02C50000AE8AE02D02C3405D0000ED2
:1021C000D8802B54000E2C545AE2040EDB6A050E04
:1021D000DB6AFD0EDBCF1DF0FE0EDBCF1EF0060E20
:1021E0001DC0DBFF070E1EC0DBFF060EDBCFE9FFC5
:1021F000070EDBCFEAFFEF500BE0040EDB2A050EE3
:1022000001E3DB2A060EDB2A070E01E3DB2AEDD70A
:10221000040EDBCF2BF0050EDBCF2CF0FB0EDBCF5B
:102220002DF0FC0EDBCF2EF02C502E18E8AE02D095
:102230002E3404D02D502B5C2E502C5805E3FB0E71
:10224000DB6AFC0EDB6A10D0040EDBCF2BF0050E30
:10225000DBCF2CF0D950FB0FE96EFF0EDA20EA6ECF
:102260002B50EE5E2C50ED5AF90EDB50020B07E0BE
:10227000300EF36E020EF3CFDBFF030EDB6AF90EB6
:10228000DB50010B25E1FB0EDBCF2BF0FC0EDBCF8F
:102290002CF02C50000AE8AE02D02C3405D0000EF1
:1022A000D8802B54000E2C5413E2020EDBCFE6FF35
:1022B000030EDBCFE6FF5BDFE552E552DF2A010EBE
:1022C00001E3DB2AFB0EDB06FC0E01E2DB06DBD7BB
:1022D000FD0EDBCFE9FFFE0EDBCFEAFFEF501CE087
:1022E000FD0EDBCFE9FFFE0EDBCFEAFFEFCF2BF0D9
:1022F0002C6A2BBE2C682BC0E6FF2CC0E6FF37DF14
:10230000E552E552DF2A010E01E3DB2AFD0EDB2A4E
:10231000FE0E01E3DB2ADCD7FB0EDBCF2BF0FC0E3D
:10232000DBCF2CF02C50000AE8AE02D02C3405D0C4
:10233000000ED8802B54000E2C5413E2020EDBCF7B
:10234000E6FF030EDBCFE6FF12DFE552E552DF2AA0
:10235000010E01E3DB2AFB0EDB06FC0E01E2DB06CD
:10236000DBD7DECF2BF0DDCF2CF02BC0F3FF2CC062
:10237000F4FF00D0D9CFE1FFE552E7CFD9FF12003B
:10238000D9CFE6FFE1CFD9FF0A0EE126040EDB6AC2
:10239000050EDB6A060EDB6A070EDB6AFD0EDBCF7D
:1023A0001DF0FE0EDBCF1EF0080E1DC0DBFF090E78
:1023B0001EC0DBFF0101BE0E996FEF0EAD6FD9504D
:1023C000FD0FE96EFF0EDA20EA6EEE50ED1019E116
:1023D000300E996F9A6BF50EDBCFE6FFF60EDBCF72
:1023E000E6FFF70EDBCFE6FFF80EDBCFE6FF990E38
:1023F000E66E010EE66EC8DEF56E060EE15EF55085
:1024000026D1D950F90FE96EFF0EDA20EA6EEE50B0
:10241000ED102CE0D950FB0FE96EFF0EDA20EA6ECA
:102420000A0EEE1801E1ED5021E1FD0EDBCF2BF09D
:10243000FE0EDBCF2CF00001800E2C1517E0010EF4
:10244000F36E040EF3CFDBFF050EDB6A1D681E681A
:10245000FD0EDBCF22F0FE0EDBCF23F041EC1EF0B1
:10246000080E1BC0DBFF090E1CC0DBFFAD0E2B6E80
:10247000010E2C6E2B06000E2C5A2BC0DEFF2CC03A
:10248000DDFFDECFE9FFDDCFEAFFEF6AD950080FAD
:10249000E96EDACFEAFFEE50ED1072E0080EDBCF06
:1024A0001DF0090EDBCF1EF0FB0EDBCF22F0FC0E81
:1024B000DBCF23F0E9EC28F0020E19C0DBFF030E9E
:1024C0001AC0DBFF020EDBCF2BF0030EDBCF2CF0AC
:1024D0002C50000AE8AE02D0D89004D00A0E2B5C33
:1024E000000E2C5817E3F30EDBCF2BF0F40EDBCFEE
:1024F0002CF0300E2B5E000E2C5A0A0E2B5E000EB6
:102500002C5AD950020FE96EDACFEAFF2B50EE2693
:102510002C50ED22300EE76E020EDBCF2BF0030EB7
:10252000DBCF2CF0E7502B26000E2C22D9CFE9FF71
:10253000DACFEAFFEE06ED5AEECFF3FFEDCFF4FF70
:10254000F3CFE9FFF4CFEAFF2BC0EFFFFB0EDBCFA9
:102550002BF0FC0EDBCF2CF0D950080FE96EDACF50
:10256000EAFF2BC022F02CC023F0EECF1DF0EDCF00
:102570001EF0E9EC28F01DC0EEFF1EC0EDFF86D76F
:10258000D950040FE96EDACFEAFFEE50ED102FE0DC
:10259000D950F70FE96EFF0EDA20EA6EEE50ED101B
:1025A00015E0F50EDB50020B11E02D0EE66EE66A2B
:1025B000DEDDE552E552060EDB2A070E01E3DB2ADB
:1025C000F70EDB06F80E01E2DB0611D0D9CFE9FFEA
:1025D000DACFEAFFEE06000EED5AEECFF3FFEDCFB5
:1025E000F4FFF3CFE9FFF4CFEAFF2D0EEF6E060EF6
:1025F000DBCF2DF0070EDBCF2EF02DC0E6FF2EC077
:10260000E6FFF50EDBCFE6FFF60EDBCFE6FFF70EBB
:10261000DBCFE6FFF80EDBCFE6FFDECFE6FFDDCF58
:10262000E6FFB2DDF56E060EE15EF550E552E7CF4E
:102630002EF0E552E7CF2DF02D50F3242B6E2E50C7
:10264000F4202C6E2BC0F3FF2CC0F4FF00D0D9CFA8
:10265000E1FFE552E7CFD9FF1200D9CFE6FFE1CF86
:10266000D9FF2E0EE1262C0EDB6A2D0EDB6AFD0E45
:10267000DBCFE9FFFE0EDBCFEAFFEF5001E119D31C
:10268000FD0EDBCFE9FFFE0EDBCFEAFFEF502508A2
:1026900001E0E0D2FD0EDB2AFE0E01E3DB2A2A0E6A
:1026A000DB6A2B0EDB6AD950280FE96EDACFEAFF1E
:1026B000EE6AED6AFD0EDBCFE9FFFE0EDBCFEAFF2F
:1026C000EF5001E1F6D2FD0EDBCFE9FFFE0EDBCFCE
:1026D000EAFFEF50250801E1BDD2FD0EDBCFE9FF97
:1026E000FE0EDBCFEAFFEF502D080CE1FD0EDB2ADA
:1026F000FE0E01E3DB2A010EF36E2A0EF3CFDBFFA1
:102700002B0EDB6AFD0EDBCFE9FFFE0EDBCFEAFF0F
:10271000EF5030080DE1FD0EDB2AFE0E01E3DB2A4F
:10272000D9502A0FE96EDACFEAFFEE82ED52EAD7EE
:10273000FD0EDBCFE9FFFE0EDBCFEAFFEFCF2BF084
:10274000300E2B5C30E3FD0EDBCFE9FFFE0EDBCF5E
:10275000EAFFEF50390827E3D950280FE96EDACFA6
:10276000EAFF0A0EEC02F3CFEDFFEF02F3CFEEFF2C
:10277000F450ED26FD0EDBCFE9FFFE0EDBCFEAFFC6
:10278000EF50D00F2B6E2C6AD950280FE96EDACF9C
:10279000EAFF2B50EE262C50ED22FD0EDB2AFE0E1A
:1027A00001E3DB2AC5D7FD0EDBCFE9FFFE0EDBCF51
:1027B000EAFFEF50730861E1D950FB0FE96EFF0E9D
:1027C000DA20EA6EEECFF3FFEDCFF4FF020EEE5EFD
:1027D000000EEF5AF3CFE9FFF4CFEAFFEECF2BF074
:1027E000EFCF2CF02D6A2BC0E6FF2CC0E6FF2DC0EA
:1027F000E6FFD9CFE6FFDACFE6FF85EC28F0F56EED
:10280000050EE15EF550DF5015E1F0C72BF0F1C782
:102810002CF02D6A2BC0E6FF2CC0E6FF2DC0E6FF92
:10282000D9CFE6FFDACFE6FF85EC28F0F56E050E8E
:10283000E15EF5502A0EDBCFE6FF2B0EDBCFE6FF85
:10284000280EDBCFE6FF290EDBCFE6FFD9CFE6FF70
:10285000DACFE6FF99DCF56E060EE15EF550F3CFB8
:102860002BF0F4CF2CF0D9502C0FE96EDACFEAFF21
:102870002B50EE262C50ED2216D2FD0EDBCFE9FFB9
:10288000FE0EDBCFEAFFEF5064083EE1610EE66E1C
:10289000E66A2A0EDBCFE6FF2B0EDBCFE6FF280E23
:1028A000DBCFE6FF290EDBCFE6FF010EE66EE66A20
:1028B0000A0EE66EE66AD950FB0FE96EFF0EDA20CB
:1028C000EA6EEECFF3FFEDCFF4FF020EEE5E000EE8
:1028D000EF5AF3CFE9FFF4CFEAFFEECFE6FFEFCFF9
:1028E000E6FF4EDDF56E0C0EE15EF550F3CF2BF0FA
:1028F000F4CF2CF0D9502C0FE96EDACFEAFF2B5031
:10290000EE262C50ED22CFD1FD0EDBCFE9FFFE0EDF
:10291000DBCFEAFFEF5078083EE1610EE66EE66A33
:102920002A0EDBCFE6FF2B0EDBCFE6FF280EDBCF38
:10293000E6FF290EDBCFE6FF000EE66EE66A100E1C
:10294000E66EE66AD950FB0FE96EFF0EDA20EA6EFA
:10295000EECFF3FFEDCFF4FF020EEE5E000EEF5A66
:10296000F3CFE9FFF4CFEAFFEECFE6FFEFCFE6FFCC
:1029700007DDF56E0C0EE15EF550F3CF2BF0F4CFD2
:102980002CF0D9502C0FE96EDACFEAFF2B50EE264F
:102990002C50ED2288D1FD0EDBCFE9FFFE0EDBCF00
:1029A000EAFFEF5058083EE1410EE66EE66A2A0E55
:1029B000DBCFE6FF2B0EDBCFE6FF280EDBCFE6FFFB
:1029C000290EDBCFE6FF000EE66EE66A100EE66E1D
:1029D000E66AD950FB0FE96EFF0EDA20EA6EEECF01
:1029E000F3FFEDCFF4FF020EEE5E000EEF5AF3CFD1
:1029F000E9FFF4CFEAFFEECFE6FFEFCFE6FFC0DC62
:102A0000F56E0C0EE15EF550F3CF2BF0F4CF2CF009
:102A1000D9502C0FE96EDACFEAFF2B50EE262C505E
:102A2000ED2241D1FD0EDBCFE9FFFE0EDBCFEAFF49
:102A3000EF5075083EE1610EE66EE66A2A0EDBCFC6
:102A4000E6FF2B0EDBCFE6FF280EDBCFE6FF290EDD
:102A5000DBCFE6FF000EE66EE66A0A0EE66EE66A79
:102A6000D950FB0FE96EFF0EDA20EA6EEECFF3FFCE
:102A7000EDCFF4FF020EEE5E000EEF5AF3CFE9FF4A
:102A8000F4CFEAFFEECFE6FFEFCFE6FF79DCF56E9D
:102A90000C0EE15EF550F3CF2BF0F4CF2CF0D950B3
:102AA0002C0FE96EDACFEAFF2B50EE262C50ED22E8
:102AB000FAD0FD0EDBCFE9FFFE0EDBCFEAFFEF50D1
:102AC0006C0801E081D0610EE66EE66A2A0EDBCF6B
:102AD000E6FF2B0EDBCFE6FF280EDBCFE6FF290E4D
:102AE000DBCFE6FF000EE66EE66A100EE66EE66AE3
:102AF000D950FB0FE96EFF0EDA20EA6EEECFF3FF3E
:102B0000EDCFF4FF020EEE5E000EEF5AF3CFE9FFB9
:102B1000F4CFEAFFEECFE6FFEFCFE6FF31DCF56E54
:102B20000C0EE15EF550F3CF2BF0F4CF2CF0D95022
:102B30002C0FE96EDACFEAFF2B50EE262C50ED2257
:102B4000610EE66EE66A2A0EDBCFE6FF2B0EDBCFC8
:102B5000E6FF280EDBCFE6FF290EDBCFE6FF000EF7
:102B6000E66EE66A100EE66EE66AD950FB0FE96E75
:102B7000FF0EDA20EA6EEECFF3FFEDCFF4FF020E88
:102B8000EE5E000EEF5AF3CFE9FFF4CFEAFFEECF8F
:102B9000E6FFEFCFE6FFC0EC11F0F56E0C0EE15E44
:102BA000F550F3CF2BF0F4CF2CF0D9502C0FE96E69
:102BB000DACFEAFF2B50EE262C50ED22FD0EDB2A59
:102BC000FE0E01E3DB2A6FD0FD0EDBCFE9FFFE0E28
:102BD000DBCFEAFFEF5062083CE1610EE66EE66A89
:102BE000020EE66EE66A280EDBCFE6FF290EDBCF8B
:102BF000E6FF000EE66EE66A020EE66EE66AD95061
:102C0000FB0FE96EFF0EDA20EA6EEECFF3FFEDCF99
:102C1000F4FF020EEE5E000EEF5AF3CFE9FFF4CFA1
:102C2000EAFFEECFE6FFEFCFE6FFC0EC11F0F56E66
:102C30000C0EE15EF550F3CF2BF0F4CF2CF0D95011
:102C40002C0FE96EDACFEAFF2B50EE262C50ED2246
:102C50002AD029D0FD0EDBCFE9FFFE0EDBCFEAFF45
:102C6000EF500A0808E1FD0EDBCFE9FFFE0EDBCFD7
:102C7000EAFF0D0EEF6EFD0EDBCFE9FFFE0EDBCFA0
:102C8000EAFFEFCF2BF02C6A2BBE2C682BC0E6FF9F
:102C90002CC0E6FFB7EC10F0E552E5522C0EDB2A13
:102CA0002D0E01E3DB2AFD0EDB2AFE0E01E3DB2AFB
:102CB000DED42C0EDBCF2BF02D0EDBCF2CF02BC077
:102CC000F3FF2CC0F4FF00D0D9CFE1FFE552E7CFEE
:102CD000D9FF1200D9CFE6FFE1CFD9FF020EE126DE
:102CE000D950FD0F2B6EFF0EDA202C6E2BC0DEFFAD
:102CF0002CC0DDFFFD0EDBCF2BF0FE0EDBCF2CF06A
:102D00002D6A2BC0E6FF2CC0E6FF2DC0E6FF000EAB
:102D1000E66E010EE66E85EC28F0F56E050EE15EBE
:102D2000F550D9CFE9FFDACFEAFF020EEE5E000ED2
:102D3000EF5ADECFE6FFDDCFE6FF000EE66E010EB6
:102D4000E66E8BDCE552E552E552E55200D0D9CF74
:102D5000E1FFE552E7CFD9FF1200D9CFE6FFE1CF7F
:102D6000D9FF610EE66EE66A020EE66EE66A040EB2
:102D7000E66EE66A010EE66EE66A0A0EE66EE66A40
:102D8000FD0EDBCFE6FFFE0EDBCFE6FFC0EC11F061
:102D9000F56E0C0EE15EF550D950FB0FE96EFF0E9B
:102DA000DA20EA6EEE50ED1007E00D0EE66EE66AF0
:102DB000B7EC10F0E552E552E552E7CFD9FF12002B
:102DC000D9CFE6FFE1CFD9FF610EE66EE66A020ECB
:102DD000E66EE66A030EE66EE66A010EE66EE66AE7
:102DE0000A0EE66EE66AFE0EDBCFE6FFE66AC0EC90
:102DF00011F0F56E0C0EE15EF550D950FC0FE96E46
:102E0000FF0EDA20EA6EEE50ED1007E00D0EE66ED2
:102E1000E66AB7EC10F0E552E552E552E7CFD9FF8C
:102E20001200D9CFE6FFE1CFD9FF610EE66EE66A68
:102E3000020EE66EE66A100EE66EE66A000EE66EBA
:102E4000E66A020EE66EE66AFD0EDBCFE6FFFE0ED8
:102E5000DBCFE6FFC0EC11F0F56E0C0EE15EF55035
:102E6000D950FB0FE96EFF0EDA20EA6EEE50ED103E
:102E700007E00D0EE66EE66AB7EC10F0E552E5529B
:102E8000E552E7CFD9FF1200D9CFE6FFE1CFD9FF56
:102E9000610EE66EE66A020EE66EE66A080EE66E01
:102EA000E66A000EE66EE66A020EE66EE66AFE0E60
:102EB000DBCFE6FFE66AC0EC11F0F56E0C0EE15ECA
:102EC000F550D950FC0FE96EFF0EDA20EA6EEE5095
:102ED000ED1007E00D0EE66EE66AB7EC10F0E55275
:102EE000E552E552E7CFD9FF1200D9CFE6FFE1CF97
:102EF000D9FF610EE66EE66A000EE66EE66A020E25
:102F0000E66EE66A000EE66EE66A100EE66EE66AA9
:102F1000FD0EDBCFE6FFFE0EDBCFE6FFC0EC11F0CF
:102F2000F56E0C0EE15EF550D950FB0FE96EFF0E09
:102F3000DA20EA6EEE50ED1007E00D0EE66EE66A5E
:102F4000B7EC10F0E552E552E552E7CFD9FF120099
:102F5000D9CFE6FFE1CFD9FF610EE66EE66A020E39
:102F6000E66EE66AE66EE66A000EE66EE66A100E49
:102F7000E66EE66AFE0EDBCFE6FFE66AC0EC11F015
:102F8000F56E0C0EE15EF550D950FC0FE96EFF0EA8
:102F9000DA20EA6EEE50ED1007E00D0EE66EE66AFE
:102FA000B7EC10F0E552E552E552E7CFD9FF120039
:102FB000D9CFE6FFE1CFD9FFFD0EDBCF2BF0FE0E20
:102FC000DBCF2CF02D6A2BC0E6FF2CC0E6FF2DC016
:102FD000E6FF000EE66E010EE66E85EC28F0F56E5B
:102FE000050EE15EF5500101AF6BB06B000EE66EB1
:102FF000010EE66E9EEC28F0E552E552F3CF2BF081
:10300000F4CF2CF001012B50AF5D2C50B05918E2D9
:10301000000EAF25E96E010EB021EA6EEFCF2BF066
:103020002C6A2BBE2C682BC0E6FF2CC0E6FFB7EC49
:1030300010F0E552E5520101AF2B000EB023D6D7B8
:10304000010EE66EE66AFB0EDBCFE6FFFC0EDBCF81
:10305000E6FF4BDFE552E552E552E552E552E7CF98
:10306000D9FF1200D9CFE6FFE1CFD9FFFD0EDBCFAC
:103070002BF0FE0EDBCF2CF02D6A2BC0E6FF2CC010
:10308000E6FF2DC0E6FF000EE66E010EE66E85EC53
:1030900028F0F56E050EE15EF5500101AF6BB06BE7
:1030A000000EE66E010EE66E9EEC28F0E552E5524B
:1030B000F3CF2BF0F4CF2CF001012B50AF5D2C504F
:1030C000B05918E2000EAF25E96E010EB021EA6E8C
:1030D000EFCF2BF02C6A2BBE2C682BC0E6FF2CC048
:1030E000E6FFB7EC10F0E552E5520101AF2B000E00
:1030F000B023D6D7010EE66EE66AFB0EDBCFE6FF05
:10310000FC0EDBCFE6FF8DDEE552E552E552E552DF
:10311000E552E7CFD9FF1200D9CFE6FFE1CFD9FFC3
:10312000FD0EDBCF2BF0FE0EDBCF2CF02D6A2BC07B
:10313000E6FF2CC0E6FF2DC0E6FF000EE66E010E96
:10314000E66E85EC28F0F56E050EE15EF5500101A6
:10315000AF6BB06B000EE66E010EE66E9EEC28F0D3
:10316000E552E552F3CF2BF0F4CF2CF001012B50B8
:10317000AF5D2C50B05918E2000EAF25E96E010E7C
:10318000B021EA6EEFCF2BF02C6A2BBE2C682BC03F
:10319000E6FF2CC0E6FFB7EC10F0E552E552010166
:1031A000AF2B000EB023D6D7E552E7CFD9FF1200E0
:1031B000860E1F6E256A1D6A1C6A1B6AECEF18F0EA
:1031C000860E1F6E1EC025F01D6A1C6A1B6AE86A07
:1031D0001EAEECEF18F01E6C2A6AE86A1E64B2EFAD
:1031E00019F0F00E1E14E866F8EF18F01E3A2A8463
:1031F000D8901EBE08EF19F01E362A2A1EBE08EF10
:1032000019F01E362A2A1EBE08EF19F01E362A2A89
:103210002A501F5E25AE1E9E000C8E0E1F6E256A64
:103220001C6A1B6A21EF19F08E0E1F6E1EC025F05E
:103230001C6A1B6A1EAE21EF19F01D6C1E1EE86A87
:103240001E222A6AE86A1E644AEF19F0F00E1E1464
:10325000E86633EF19F01E3A1D380F0B1E261D3895
:10326000F00B1D6E2A84D8901EBE46EF19F01D3655
:103270001E362A2A1EBE46EF19F01D361E362A2A91
:103280001EBE46EF19F01D361E362A2A2A501F5E32
:10329000B8EF19F01DC01EF01D6AE86A2A861E6488
:1032A000B2EF19F0F00E1E14E86659EF19F01E3A4D
:1032B0002A84D8901EBE46EF19F01E362A2A1EBE5A
:1032C00046EF19F01E362A2A1EBE46EF19F01E36AA
:1032D0002A2A46EF19F0268026AEFF0C1E6A25AE7C
:1032E0001E681EC01DF01EC01CF01EC01BF025363F
:1032F0001E32FF0C268026AEFF0C1E6A25AE1E680D
:103300001EC01DF01EC01CF025361E32FF0C26808C
:1033100026AEFF0C1E6A25AE1E681EC01DF02536A7
:103320001E32FF0C268026AEFF0C1E6A25AE1E68DC
:1033300025361E32FF0C268226AEFF0C1F681E6843
:103340001D681C6825361E32FF0C268426AEFF0C35
:10335000010E1F6E1E6A1D6A1C6A25361E32FF0C86
:103360002686FF0C1E6A1D6A1C6A1B6A1F6A000CF7
:1033700025AE1E9E000C9E0E1F6E256ACFEF19F023
:103380009E0E1F6E1EC025F01EAECFEF19F0E86A2C
:103390001B6C1C1E1D1E1E1E1C221D221E221E50CA
:1033A000FF0BD8B434EF1AF0F00BD8B40DEF1AF0CD
:1033B000E86A1EBEF6EF19F0D8901B361C361D3693
:1033C0001E36E82A1EBEF2EF19F01B361C361D36DB
:1033D0001E36E82A1EBEF2EF19F01B361C361D36CB
:1033E0001E36E82A1F64A5EF19F01F5E26BC1BAE2F
:1033F000B8EF19F0D880800E1B641C30E86A1C22DC
:103400001D221E22D8A0B8EF19F01E321D321C3228
:103410001F4A9BEF19F0B8EF19F01CC021F01EC035
:1034200023F0D8901E34E50FF66E350EF76AF722BA
:10343000000EF86AF8220A00F5501B02F3CF1BF0C9
:10344000F4CF1CF01D02F3CF1DF0F4CF1EF02102CB
:10345000F3501C26F4501D26F5502302F3501E266F
:103460000800F550F2EF19F01D501E6EFF0BD8B496
:103470007DEF1AF01CC01DF01BC01CF01B6A1E5013
:10348000F00BD8B45DEF1AF0080E1EBEF2EF19F083
:10349000D8901C361D361E36E82A1EBEF2EF19F0F3
:1034A0001C361D361E36E82A1EBEF2EF19F01C36F9
:1034B0001D361E36E82AF2EF19F01DC022F0D89012
:1034C0001E34E50FF66E350EF76AF722000EF86A25
:1034D000F8220A00F5501C02F3CF1CF0F4CF1DF0C7
:1034E0001E02F3CF1EF02202F3501D26F4501E26BA
:1034F0000800F550080FF2EF19F01C501E6EFF0B7C
:10350000D8B4BDEF1AF01BC01DF01C6A1B6A1E5018
:10351000F00BD8B4A2EF1AF0100E1EBEF2EF19F0A5
:10352000D8901D361E36E82A1EBEF2EF19F01D3661
:103530001E36E82A1EBEF2EF19F01D361E36E82AA6
:10354000F2EF19F01EC023F0D8901E34E50FF66E8E
:10355000350EF76AF722000EF86AF8220A00F550D5
:103560001D02F3CF1DF0F4CF1EF02302F3501E26F0
:103570000800F550100FF2EF19F01B501E6EFF0BF4
:10358000D8B4B2EF19F01D6A1C6A1B6A1E50F00B0A
:10359000D8B4DEEF1AF0180E1EBEF2EF19F0D89074
:1035A0001E36E82A1EBEF2EF19F01E36E82A1EBEAD
:1035B000F2EF19F01E36E82AF2EF19F0D8901E3417
:1035C000E50FF66E350EF76AF722000EF86AF8225C
:1035D0000A00F5501E02F3CF1EF00800F550180F38
:1035E000F2EF19F000000780064006400520052094
:1035F0000520052004100410041004100410041009
:1036000004100410276AE86A2464B0EF19F01F64FC
:10361000B2EF19F01E502318256E1E8E238E223411
:1036200023342A36D890E8362A36120FF66E390E31
:10363000F76E2A50010BF722F86A000EF8220A00F2
:10364000F5CF19F00A00F5CF2AF00800F5CF29F0E0
:103650001950295C196ED89021341902F4CFF7FF64
:1036600022341902F3CFE8FFF726D8B0F42A286AEB
:10367000F750285EF450295AE86A2A5A1EC019F0F9
:103680001DC0F7FF1CC0F6FF1C502802F4CF1AF033
:103690001D502902F4CF1CF0F3CF1BF02802F35089
:1036A0001A26F4501B22E86A1C22F6502902F35015
:1036B0001A26F4501B22E86A1C221E502802F350DE
:1036C0001B26F4501C221E5029021D6AE86A1D2286
:1036D000F3501C26F4501D22F6502A02F3501B26EC
:1036E000F4501C221E6AE86A1D221E22F7502A028C
:1036F000F3501C26F4501D22E86A1E2219502A029B
:10370000F3501D26F4501E221EBE8CEF1BF01B36FC
:103710001C361D361E36270623C019F022C0F7FFBF
:1037200021C0F6FF21502802F4CF1AF022502902BE
:10373000F4CF21F0F3CF20F02802F3501A26F450F2
:103740002022E86A2122F6502902F3501A26F4506A
:103750002022E86A212223502802F3502026F45028
:10376000212223502902226AE86A2222F3502126CC
:10377000F4502222F6502A02F3502026F45021223F
:10378000236AE86A22222322F7502A02F3502126D4
:10379000F4502222E86A232219502A02F3502226EA
:1037A000F450232223AE23BCDCEF1BF01A36203664
:1037B000213622362336272A206C211E221E231E64
:1037C000E86A2122222223221EC02AF01DC029F0ED
:1037D0001CC028F01BC0F6FF1C502102F4CF1AF0C9
:1037E0001D502002F4501A261D5021021B6AE86A5F
:1037F0001B22F3501A26F4501B22F6502202F450DA
:103800001A261C6AE86A1B221C2228502202F35046
:103810001A26F4501B22E86A1C2229502202F35077
:103820001B26F4501C221E502102F3501B26F4507C
:103830001C221E5022021D6AE86A1D22F3501C261B
:10384000F4501D222A502002F3501A26F4501B2255
:10385000E86A1C221D222A502302F4CF1EF0F350E6
:103860001D26E86A1E22F6502302F3501A26F45051
:103870001B22E86A1C221D221E2228502302F3501C
:103880001B26F4501C22E86A1D221E222950230206
:10389000F3501C26F4501D22E86A1E221EBE5EEF65
:1038A0001CF01B361C361D361E3627061EBE5EEF6C
:1038B0001CF01B361C361D361E36270624501F5E94
:1038C000800ED8A06BEF1CF027241F26D8B09BEFEA
:1038D00019F070EF1CF027241F26D8A0A5EF19F0CF
:1038E00026BC1BAE85EF1CF0D880800E1B641C30FC
:1038F000E86A1C221D221E22D8A085EF1CF01E3271
:103900001D321C321F4A9BEF19F025AE1E9E000C83
:10391000FFFF01FF04FE09FD10FC19FB23FA30F93B
:103920003EF84EF760F674F58AF4A1F3BAF2D5F1D9
:10393000F1F00FF02FEF50EE73ED98ECBEEBE5EAEF
:103940000FEA39E966E893E7C3E6F3E526E559E4CB
:103950008EE3C5E2FCE136E170E0ACDFE9DE28DEB3
:1039600068DDA9DCEBDB2FDB74DABAD902D94AD8DF
:1039700094D7DFD62CD679D5C7D417D468D3BAD28A
:103980000DD261D1B7D00DD064CFBDCE17CE71CDE1
:10399000CDCC29CC87CBE6CA46CAA6C908C96AC815
:1039A000CEC733C798C6FEC566C5CEC437C4A1C34B
:1039B0000CC378C2E5C152C1C1C030C0A0BF11BFA5
:1039C00083BEF6BD69BDDDBC52BCC8BB3FBBB6BA49
:1039D0002FBAA8B921B99CB817B893B710B78DB64C
:1039E0000BB68AB50AB58AB40BB48DB30FB392B2D5
:1039F00016B29BB120B1A6B02CB0B3AF3BAFC3AEF3
:103A00004CAED6AD60ADEBAC77AC03AC8FAB1DABC1
:103A1000ABAA39AAC8A958A9E8A879A80BA89CA755
:103A20002FA7C2A656A6EAA57FA514A5AAA440A4BE
:103A3000D7A36EA306A39FA238A2D1A16BA106A112
:103A4000A1A03CA0D89F749F119FAF9E4D9EEB9D5F
:103A50008A9D299DC99C699C0A9CAB9B4C9BEE9AB4
:103A6000919A349AD7997B991F99C49869980E981E
:103A7000B4975A970197A8965096F895A0954995AE
:103A8000F2949C944694F0939B934693F1929D926A
:103A90004992F691A3915091FE90AC905A90099062
:103AA000B88F688F178FC88E788E298EDA8D8C8D9F
:103AB0003E8DF08CA38C568C098CBC8B708B248B28
:103AC000D98A8E8A438AF889AE8964891B89D2880B
:103AD00089884088F887AF8768872087D98692864B
:103AE0004C860586BF8579853485EF84AA846584F4
:103AF0002184DD83998356831283CF828D824A820B
:103B00000882C681858143810281C1808180408095
:103B100001801B6AE86A24621F64B2EF19F01E502C
:103B20002318256E24501F267E0ED8A09EEF1DF070
:103B30001F5ED8B09BEF19F0A2EF1DF01F5ED8A05A
:103B4000A5EF19F01E8E238E1EC02AF01DC029F08D
:103B50001CC028F01C502102F4CF1AF01D50220284
:103B6000F4CF1CF0F3CF1BF02102F3501A26F450CF
:103B70001B22E86A1C2228502202F3501A26F45015
:103B80001B22E86A1C221E502102F3501B26F4500F
:103B90001C221E5022021D6AE86A1D22F3501C26B8
:103BA000F4501D2228502302F3501B26F4501C22EF
:103BB0001E6AE86A1D221E2229502302F3501C2689
:103BC000F4501D22E86A1E222A502302F3501D26BB
:103BD000F4501E221EBEF5EF1DF01B361C361D369E
:103BE0001E361F06D8B4A5EF19F026BC1BAE0AEF8F
:103BF0001EF0D880800E1B641C30E86A1C221D2237
:103C00001E22D8A00AEF1EF01E321D321C321F4A9F
:103C10009BEF19F025AE1E9E000C256AE86A23AEC4
:103C20001AEF1EF0206C211E221E231E21222222AA
:103C30002322251E1EAE25EF1EF01B6C1C1E1D1E12
:103C40001E1E1C221D221E22251EACEC28F01EBEAC
:103C50003CEF1EF025AE000C1B6C1C1E1D1E1E1E14
:103C6000E86A1C221D221E22176C181E191E1A1E1D
:103C7000182219221A22000C25BE2CEF1EF02688CD
:103C8000FF0C1EC02AF01DC029F01D502202F4CFE7
:103C90001CF0F3CF1BF01E502302F4CF1EF0F3CF25
:103CA0001DF02202F3501C26F4501D22E86A1E2249
:103CB00029502302F3501C26F4501D22E86A1E22CC
:103CC00023AE67EF1EF029501D5E2A501E5A2AAE01
:103CD000000C22501D5E23501E5A000C1DC029F0FE
:103CE0001D502202F4CF1CF0F3CF1BF01E50230214
:103CF000F4CF1EF0F3CF1DF02202F3501C26F45037
:103D00001D22E86A1E2229502302F3501C26F4507B
:103D10001D22E86A1E22000CE86A1F64000C1EC007
:103D200025F01E8E860E1F5CE8AE92EF19F0E86C4F
:103D30001F6E070E1F64BDEF1EF01F5E1EC01DF03C
:103D40001E6A1F4EDDEF1EF0030E1F64AFEF1EF064
:103D50001F5E1D380F0B1D6E1F4EDDEF1EF0D8903D
:103D60001D321F4EDDEF1EF0D8901D321F4EDDEFCD
:103D70001EF0D8901D32DDEF1EF0030E1F64CEEF53
:103D80001EF01F5E1D380F0B1D6E1E38F00B1D261A
:103D90001E380F0B1E6E1F4EDDEF1EF0D8901E3228
:103DA0001D321F4EDDEF1EF0D8901E321D321F4E09
:103DB000DDEF1EF0D8901E321D3226BC1DAEEAEF9C
:103DC0001EF0D880800E1D641E30E86A1E221EBEC2
:103DD00092EF19F025AE000C1E6C000CE86A1F640F
:103DE000000C1EC025F01E8E8E0E1F5CE8AE87EF05
:103DF00019F0E86C1F6E070E1F644EEF1FF01F5E78
:103E00001DC01CF01EC01DF01E6A1F4E77EF1FF074
:103E1000070E1F642CEF1FF01F5E1DC01CF01D6AF3
:103E20001F4E77EF1FF0030E1F641EEF1FF01F5E83
:103E30001C380F0B1C6E1F4E77EF1FF0D8901C32F2
:103E40001F4E77EF1FF0D8901C321F4E77EF1FF0F8
:103E5000D8901C3277EF1FF0030E1F643DEF1FF068
:103E60001F5E1C380F0B1C6E1D38F00B1C261D38F6
:103E70000F0B1D6E1F4E77EF1FF0D8901D321C32B6
:103E80001F4E77EF1FF0D8901D321C321F4E77EF78
:103E90001FF0D8901D321C3277EF1FF0030E1F6405
:103EA00065EF1FF01F5E1C380F0B1C6E1D38F00BEA
:103EB0001C261D380F0B1D6E1E38F00B1D261E38DC
:103EC0000F0B1E6E1F4E77EF1FF0D8901E321D3263
:103ED0001C321F4E77EF1FF0D8901E321D321C325D
:103EE0001F4E77EF1FF0D8901E321D321C3226BCB9
:103EF0001CAE85EF1FF0D880800E1C641D30E86A70
:103F00001D221E221EBE87EF19F025AE000C1D6C6F
:083F10001E1EE86A1E22000CCF
:083F1800D8CFE4FFE0CFE4FF85
:103F2000E46EDACFE4FFE2CFDAFFE9CFE4FFEACFD5
:103F3000E4FFE652D9CFE6FFE1CFD9FF020EE1263A
:103F4000F2A402D0F29455D09EA004D09E9049ECE9
:103F500027F04FD09EA204D09E9242EC27F049D089
:103F6000F0A202D0F09245D0F0A402D0F09441D05B
:103F7000F2A03FD08150DF6EF290DF500701F219BE
:103F8000E76E010EE7CFDBFFDFCFF2F7DBA80AD049
:103F9000100EDF1402E0010E01D0000EE66E4EECB2
:103FA00027F0E552010EDBAA0AD0200EDF1402E052
:103FB000010E01D0000EE66E5AEC27F0E552010E1C
:103FC000DBAC0AD0400EDF1402E0010E01D0000E7F
:103FD000E66E66EC27F0E552010EDBAE0AD0800EED
:103FE000DF1402E0010E01D0000EE66E72EC27F045
:103FF000E552D9CFE1FFE552E7CFD9FFE552E5CF52
:10400000EAFFE5CFE9FFE5CFDAFFE550E5CFE0FFD6
:10401000E5CFD8FF1000D9CFE6FFE1CFD9FF160ECC
:10402000E126DF6A0F0EDB6A100EDB6A110EDB6A17
:10403000120EDB6A7F0EF36E130EF3CFDBFF7F0EE3
:10404000F36E140EF3CFDBFF150EDB6A070EDF5C99
:1040500011E2D950010F2B6EDACF2CF0DF50020D98
:104060002B50F324E96E2C50F420EA6EEE6AED6AD0
:10407000DF2AECD7DF6A010179AD21D2010198A1D5
:104080001DD2780EE66E010EE66E62EC23F0E5526C
:10409000E5528150100B10E0D950110FE96EDACFC4
:1040A000EAFF5F0ED880EE54000EED5405E2010EDB
:1040B000F36E150EF3CFDBFF150EDB5059E0D95030
:1040C0000F0FE96EDACFEAFFEE50ED1010E1510E5E
:1040D000E66E4D0EE66E6AEC16F0E552E552020E03
:1040E000DF6E0F0EDB2A100E01E3DB2A40D00F0E2D
:1040F000DBCF2BF0100EDBCF2CF0140E2B5C000E60
:104100002C5808E2030EDF6E0F0EDB2A100E01E3BF
:10411000DB2A2DD00F0EDBCF2BF0100EDBCF2CF0D7
:10412000640E2B5C000E2C5808E2040EDF6E0F0E9E
:10413000DB2A100E01E3DB2A1AD00F0EDBCF2BF0A7
:10414000100EDBCF2CF04A0E2B5C010E2C5808E22F
:10415000050EDF6E0F0EDB2A100E01E3DB2A07D0FF
:10416000060EDF6E0F0EDB2A100E01E3DB2A01D0F4
:10417000DF6A0F0EDBCF2BF0100EDBCF2CF0060E1C
:10418000226E236A2BC01DF02CC01EF0E9EC28F033
:1041900019C02BF01AC02CF02B502C1015E1D9505F
:1041A0000F0FE96EDACFEAFFEE50ED100DE0DFCF32
:1041B000E6FFE66A460EE66E4D0EE66E6AEC16F017
:1041C000E552E552E552E5520F0EDBCF2BF0100E13
:1041D000DBCF2CF0060E226E236A2BC01DF02CC004
:1041E0001EF0E9EC28F019C02BF01AC02CF02B506F
:1041F0002C1018E1D9500F0FE96EDACFEAFFEE501C
:10420000ED1010E00F0EDBCFE6FF100EDBCFE6FF68
:104210003A0EE66E4D0EE66E6AEC16F0E552E55289
:10422000E552E552DF50070A59E0010A4EE0030A61
:1042300041E0010A34E0070A27E0010A18E0030A16
:104240000DE0010A01E052D00101A20E6B6F6BC1BB
:104250006AF1A00E696F69C168F148D00101640E6E
:104260006B6F6BC16AF1696F69C168F13FD038EC5F
:1042700027F001017F0E6B6F6BC16AF1696F69C135
:1042800068F18C888D9832D001017F0E6B6F6BC105
:104290006AF1696F69C168F18C888D9827D0010136
:1042A0007F0E6B6F6BC16AF1696F69C168F18C98A1
:1042B0008D981CD08C988D980101C80E6B6F6BC1C6
:1042C0006AF1696F69C168F111D001017F0E6B6FEE
:1042D0006BC16AF1696F69C168F108D00101640EB0
:1042E0006B6F6BC16AF1696F69C168F101016A5155
:1042F000326AD00F316E070E3222130EDB50336E4E
:10430000346A3350315C2F6E34503258306E190E8F
:104310001D6E1E6A2FC022F030C023F06EEC1EF01E
:104320001BC02DF01CC02EF0640E226E236A2DC01F
:104330001DF02EC01EF0E9EC28F01DC02DF01EC0AF
:104340002EF0130EDB5000012C6B2D242B6F2E5002
:104350002C23F40E2B5E010E2C5A2BC06BF12BC0BC
:104360006AF101016851326AD00F316E070E3222B4
:10437000140EDB50336E346A3350315C2F6E345080
:104380003258306E190E1D6E1E6A2FC022F030C0DA
:1043900023F06EEC1EF01BC02DF01CC02EF0640E3E
:1043A000226E236A2DC01DF02EC01EF0E9EC28F00D
:1043B0001DC02DF01EC02EF0140EDB5000012C6B22
:1043C0002D242B6F2E502C23F40E2B5E010E2C5A15
:1043D0002BC069F12BC068F1130E6AC1DBFF140E0C
:1043E00068C1DBFFDF5023E0D950010F2B6EDACF1D
:1043F0002CF0DF50020D2B50F324E96E2C50F420EA
:10440000EA6EEE50ED1013E1D950010F2B6EDACFAA
:104410002CF0DF50020D2B50F324E96E2C50F420C9
:10442000EA6E0F0EDBCFEEFF100EDBCFEDFF81B497
:1044300003D08C8A8D9A02D08C9A8D9A7F0E0101BE
:10444000685D320DF3CF2BF0640E2C6E2CC023F080
:104450002BC01EF033EC29F01E5001016825696F56
:10446000686F7F0E6A5D320DF3CF2BF0640E2C6EF9
:104470002CC023F02BC01EF033EC29F01E5001019C
:104480006A256B6F6A6F6BC1E6FF6AC1E6FF69C19F
:10449000E6FF68C1E6FF21EC26F0E552E552E55261
:1044A000E552110EDB2A120E01E3DB2A580EE66EEE
:1044B000010EE66E9CEC23F0E552E552DCD5D9CF37
:0C44C000E1FFE552E7CFD9FF1200120027
:0444CC00DACFE4FF60
:1044D000E2CFDAFFE9CFE4FFEACFE4FFE652F2A24F
:1044E00002D094D802D09EB6C0D8E552E5CFEAFFFC
:1044F000E5CFE9FFE5CFDAFF1100E66A010EE66ECF
:10450000050EE66E01EC28F0E552E552E552120088
:10451000070EB46E000E886E876E866E856E846E92
:10452000836E826E816E806E916E906E8F6E8E6ED7
:104530008D6E8C6E8B6E8A6E896E2F0E926E936866
:104540009C0E946E956A966A9768986A0E0E9A6E9B
:104550009968C16AF19EB0989C8EA26A9F6AA06A0F
:104560009D6AA36AA56AC9DF9F86D08E9E969D86A6
:104570009382F06AF288F09EF098F192F09AF16AD4
:10458000F28CF28E1200D9CFE6FFE1CFD9FFE652CE
:10459000BFDF01019897989901015C0ECC6F010E65
:1045A000CD6FDF6A100EDF5C0AE2DF50EA6ACC25CD
:1045B000E96ECD51EA227F0EEF6EDF2AF3D70101BB
:1045C000756B010E766FC20E776F01019885010140
:1045D0007A6B7B6B0101586B5A6B5B6B010ED56E6E
:1045E000320ED76ECF0ED66ED59E580EE66E010EE9
:1045F000E66EA2D8E552E552E552E552E7CFD9FF83
:10460000120082828088949292981200F2920101A4
:10461000200EC86F9F86010198A906D00101E00E07
:10462000C56F000EC66F05D00101C00EC56F000E2C
:10463000C66F010198A1987998A706D00101800E54
:10464000C36F000EC46F05D00101A00EC36F000E32
:10465000C46FC9CFC9F1C3C1E9FFC4C1EAFFC32B0D
:10466000000EC423EF50C96E12009E96C9CFC9F147
:104670000101C851000824E2C5C1E9FFC6C1EAFF33
:10468000C52B000EC623C9C1EFFFC3C1E9FFC4C1DA
:10469000EAFFC32BC423EFCFC9F1C9C1C9FFC807C3
:1046A000C8510DE1010198810101020E766F0101EF
:1046B0009893320ED76ECF0ED66EF294D58E01D06F
:1046C000C96A1200D9CFE6FFE1CFD9FF010198A155
:1046D0002FD098A906D00101C00EC16F000EC26F85
:1046E00005D00101E00EC16F000EC26FFD0EDBCFE1
:1046F000CAF1FE0EDBCFCBF1C76B200EC75D14E213
:10470000C751EA6AC125E96EC251EA22EF50E66E4E
:10471000CAC1E9FFCBC1EAFFCA2B000ECB23E55289
:10472000E750EF6EC72BE9D79D96010198919D86C2
:10473000E552E7CFD9FF1200D9CFE6FFE1CFD9FF8D
:10474000010198B33AD0020E0101765D01E180D8F3
:1047500001016D9F010198A706D00101A00EC16F54
:10476000000EC26F05D00101800EC16F000EC26F36
:10477000FD0EDBCFCCF1FE0EDBCFCDF1C76B200EF3
:10478000C75D14E2CCC1E9FFCDC1EAFFCC2B000E1E
:10479000CD23EF50E66EC751EA6AC125E96EC251DA
:1047A000EA22E552E750EF6EC72BE9D79D9601014B
:1047B000987798839D860101752BE552E7CFD9FF45
:1047C00012009D96010198919D861200D9CFE6FFB7
:1047D000E1CFD9FF0001166BD950FD0FE96EFF0E36
:1047E000DA20EA6E010EEE1801E1ED5002E11681C9
:1047F00001D0BA6AD950FB0FE96EFF0EDA20EA6EDB
:10480000010EEE1801E1ED5002E1168301D0B76A06
:10481000D950F90FE96EFF0EDA20EA6E010EEE189C
:1048200001E1ED5002E1168501D0736AD950F70F0E
:10483000E96EFF0EDA20EA6E010EEE1801E1ED508E
:1048400002E1168701D0706AE552E7CFD9FF120066
:104850000101746B6F6BC6AE04D0C69E010E6F6F04
:104860000ED0F150800B06E0F250080B03E0020E70
:104870006F6F05D0F0A603D0909E030E6F6F250ECC
:10488000C614250805E0010E746FC6CF6FF168D01D
:10489000C55005E0020E746FC5CF6FF161D0D0BE78
:1048A00005D0030E746FD0CF6FF15AD09DB605D0EE
:1048B000040E746F9DCF6FF153D09C5005E0050E30
:1048C000746F9CCF6FF14CD0080E9F5C05E0060E14
:1048D000746F9FCF6FF144D0A25005E0070E746F44
:1048E000A2CF6FF13DD0A55005E0080E746FA5CFA3
:1048F0006FF136D0500EF214500805E0090E746FB7
:10490000F2CF6FF12DD0470EF11405E00A0E746F4F
:10491000F1CF6FF125D0C00EF01405E00B0E746FCF
:10492000F0CF6FF11DD092A805D00C0E746F92CF0E
:104930006FF116D093B005D00D0E746F93CF6FF159
:104940000FD03E0E94141C0805E00E0E746F94CF29
:104950006FF106D097BE04D00F0E746F97CF6FF132
:02496000120043
:0E4962009EB802D0FDD7FCD71200D9CFE6FFD9
:10497000E1CFD9FFFE0EDBCFE6FF0AEC26F0E552D1
:104980000D0EAD6EEEDFE552E7CFD9FF1200D9CFA5
:10499000E6FFE1CFD9FF0101D950FD0F506FFF0EA7
:1049A000DA20516F010EEA6A5025E96E5151EA2270
:1049B000EF50E66E0AEC26F0E55250C1E9FF51C116
:1049C000EAFFEF50E66E0AEC26F0E5520D0EAD6EF2
:1049D000C8DFE552E7CFD9FF1200D9CFE6FFE1CF1C
:1049E000D9FFFD0EDBCF2BF0FE0EDBCF2CF02D6AB6
:1049F0002BC0E6FF2CC0E6FF2DC0E6FF000EE66EE2
:104A0000010EE66E85EC28F0F56E050EE15EF550C0
:104A1000000EE66E010EE66E9EEC28F0E552E552C1
:104A2000F3CF54F1F4CF55F101015551000AE8AE2E
:104A300002D0553505D0500ED8805455000E55552E
:104A400003E2500E546F556B566B576B5751551907
:104A5000E8AE02D0553504D05451565D55515759E2
:104A60000EE2000E5625E96E010E5721EA6EEF5058
:104A7000AD6E77DF0101562B000E5723E7D7E552C5
:104A8000E7CFD9FF1200D9CFE6FFE1CFD9FF01016F
:104A9000526B1A0E525D11E2FD0EDBCFE9FFDB2AED
:104AA000FE0EDBCFEAFF01E3DB2AEF50E66E0AECF5
:104AB00026F0E5520101522BECD70D0EAD6E51DF01
:104AC000E552E7CFD9FF12000101780E506F010EB9
:104AD000516F010178510701EC6FED6BEE51EC194C
:104AE00002E1EF51ED1918E0010198A502D0989567
:104AF0000FD0EEC7E6FF0AEC26F0E552ECC7E6FF62
:104B00000AEC26F0E5520D0EAD6E2BDF01019895F3
:104B1000ECC7EEF7EDC7EFF70701EE2B000EEF2322
:104B2000EF51000AE8AE02D0EF3505D0FF0ED88075
:104B3000EE55000EEF5502E2EE6BEF6B1200150E14
:104B4000E66E3C0EE66E2EEC28F0E552E552320E93
:104B5000E66E23EC29F0E5521200D9CFE6FFE1CF53
:104B6000D9FFFE0EDBCF53F1E552E7CFD9FF12009C
:104B7000D9CFE6FFE1CFD9FF020EE126FE0EDB50D2
:104B80007F0BFE0BFD0BE66E53C1E6FF5AEC28F0DF
:104B9000E552E5520A0EE66E41EC29F0E5524FEC83
:104BA00029F007EC04F0000901E0FBD7D0EC28F075
:104BB0004CEC29F0C4502D6E2DC02EF02D6AC35040
:104BC00000012D102B6F2EC02CF02BC0DEFF2CC04F
:104BD000DDFFDECF2BF0DDCF2CF02BC0F3FF2CC0A0
:104BE000F4FF00D0D9CFE1FFE552E7CFD9FF1200A3
:104BF000000EE96EEA6E040005EC26F0EA2A080EC3
:104C0000EA5CD8A4FBEF25F01200EF6AE93E05EF5D
:104C100026F01200FF0EE3CF09F009380F0B060F44
:104C2000D8B2070F2A0FAD6EB1EC24F009500F0B6C
:104C3000060FD8B2070F2A0FAD6EB1EC24F0000CAE
:104C40001200F2B4120016500F0AD8B41200FF0E70
:104C5000E3CF0AF0FE0EE3CF0BF0FD0EE3CF0CF036
:104C6000FC0EE3CF0DF00A2A16A08D8E0B2A16A299
:104C70008F800C2A16A48F860D2A16A68F880E6A9E
:104C80000F6A106A116A74EC26F00A2E4AEF26F0B9
:104C900016A08D9E0B2E4FEF26F016A28F900C2E95
:104CA00054EF26F016A48F9600000D2E5AEF26F032
:104CB00016A68F9800000E2E5FEF26F012900000CF
:104CC0000F2E64EF26F012920000102E69EF26F0EE
:104CD00012940000112E6EEF26F0129696EC26F03C
:104CE000133E45EF26F01200D70E136E00000000B1
:104CF000000000008CEC26F0132E76EF26F0D70E85
:104D0000136E00000000000000008CEC26F0132E53
:104D100081EF26F00000120000008FEF26F0000067
:104D2000000000000000000000001200030E146EDE
:0A4D30000000142E98EF26F0120088
:064D3A00436C6F636B2067
:104D40003D2025640A005461736B203D2025640AD0
:104D500000492073617720746865206C6967687406
:104D60002C20697420776173207075757274790ACC
:104D700000586F3A20256409596F3A2025640A00CB
:104D8000587261773A20256409597261773A202573
:104D9000640A00446973742066726F6D2066726FD6
:104DA0006E743A2025640A000A2D2D2D2D2D2D2DEF
:104DB0002D2D2D2D0A0025730A00494649205573D3
:104DC00065722050726F636573736F7220496E69EC
:104DD0007469616C697A6564202E2E2E00526967B1
:104DE000687420506572696F643A2025640A004C2B
:104DF00065667420506572696F643A2025640A0004
:104E000077696E63683A20256400503220417578D6
:104E1000320A00696E74333A2025640A00696E74A0
:104E2000323A2025640A00696E74313A2025640AFA
:084E300000286E756C6C29006E
:084E38009F909D80CD8ECD9866
:104E4000CD8ACD96CD92CD809388938A938C938E84
:104E5000F190F2862CEF27F0CC6ACB68CA96CA98FC
:104E6000CA9ACA9CCA80CA829D829F92CA84120032
:104E7000CD901200CD90CA94F2961200CD80CA84D3
:104E8000F28612000101DA2B000EDB23DC23DD2386
:104E900012000101D82B000ED9231200D9CFE6FF52
:104EA000E1CFD9FF070EE126D9CFE1FFE552E7CFE9
:104EB000D9FF1200D9CFE6FFE1CFD9FF0101E02BE6
:104EC000000EE123E552E7CFD9FF1200D9CFE6FF6C
:104ED000E1CFD9FF0101DE2B000EDF23E552E7CF42
:104EE000D9FF1200D9CFE6FFE1CFD9FFE552E7CFD6
:044EF000D9FF1200D4
:0C4EF4001E0EF66E080EF76E000EF86E33
:104F000001010900F550D36F0900F550D46F03E19A
:104F1000D36701D03DD00900F550CE6F0900F550A0
:104F2000CF6F0900F550D06F09000900F550E96E08
:104F30000900F550EA6E090009000900F550D16F2B
:104F40000900F550D26F09000900F6CFD5F1F7CF6F
:104F5000D6F1F8CFD7F1CEC1F6FFCFC1F7FFD0C160
:104F6000F8FF0101D15302E1D25307E00900F550E7
:104F7000EE6ED107F8E2D207F9D7D5C1F6FFD6C158
:104F8000F7FFD7C1F8FF0101D307000ED45BBFD7ED
:024F900012000D
:0E4F92001B502002F3CF17F0F4CF18F02102CD
:104FA000F3501826000EF420196E1B502202F35005
:104FB0001926000EF4201A6E1B502302F3501A26F5
:104FC0001C502002F3501826F4501922000E1A2209
:104FD0001C502102F3501926F4501A221C502202B0
:104FE000F3501A261D502002F3501926F4501A22AD
:104FF0001D502102F3501A261E502002F3501A268B
:0250000012009C
:0E500200D9CFE6FFE1CFD9FF3F0EC716C66A31
:10501000FE0EDB50C612FC0EDB50C712FD0EDB503D
:10502000030A09E0010A04E0020A06E1C78C04D081
:10503000C78CC68801D0C688FE0EDB50050A03E087
:10504000010A04E1928A9486C79E01D09496949AAC
:0C5050009488C68AE552E7CFD9FF120011
:04505C00D9CFE6FFC3
:10506000E1CFD9FFAC6AAB6AFE0EDBB0AC88DBA245
:1050700002D0AC8CAB8CDBB4AC8EDBA602D0AB88A0
:1050800001D0AB8ADBA802D0AC8401D0AC94DBACFD
:1050900002D09D8A01D09D9ADBAE02D09D8801D0BE
:1050A0009D98FD0EDB50AF6EAC8AAB8EE552E7CF1C
:0450B000D9FF120012
:0C50B400D9CFE6FFE1CFD9FFC26AC16A84
:1050C000C06AFD0EDB407F0B3C0BC26EFE0EDB5058
:1050D0000F0B2B6EFD0EDB38F00B300B2B10C16E5F
:1050E000FE0EDB380F0B070B2B6EFE0EDB50800B1A
:1050F0002B10C06EFD0EDBAE03D09E9C9D8CF28CFF
:0A510000C280E552E7CFD9FF12008C
:06510A00FB0EE3CFF6FFEF
:10511000FC0EE3CFF7FFFD0EE3CFF8FFFE0EE3CF6B
:10512000E9FFFF0EE3CFEAFFE9CFF3FFEACFF4FF99
:105130000900F5CFEFFFEE66FBD71200FE0EE3CFBE
:10514000E9FFFF0EE3CFEAFFF36AF46AEE5203E0F1
:08515000F34AF42AFBD7120018
:085158001A6A196A186A176A45
:10516000200EE76ED8901B361C361D361E361736BD
:10517000183619361A362050175C2150185822500C
:10518000195823501A5809E32050175E2150185A15
:105190002250195A23501A5A1B2AE72EE4D712001C
:1051A000D9CFE6FFE1CFD9FF020EE126C350DF6E73
:1051B000010EC4CFDBFFDECF2BF0DDCF2CF02BC0F8
:1051C000F3FF2CC0F4FFD9CFE1FFE552E7CFD9FFC1
:0251D0001200CB
:0E51D2001A6A196A100EE76ED8901D361E3646
:1051E00019361A362250195C23501A5805E32250FA
:0E51F000195E23501A5A1D2AE72EF0D712001E
:0251FE00C3EC00
:1052000022F01CEC0EF001019891010198A107D049
:105210008FEC0EF0010179AD02D00BEC20F065ECC3
:0652200022F0F3D712009A
:0A52260016EE00F026EE00F0F86A24
:10523000269CA68EA69CF8EC25F07AEC27F0FFECD5
:0652400028F0F9D712006E
:0A524600FF0EE3503B6E480E01D04E
:105250004C0EE76EE72EFED7E76AE72EFED73B2E11
:06526000F7D70000120068
:0A5266001A6A080EE76ED8901E3693
:105270001A3623501A5C02E31A6E1E2AE72EF7D75D
:0252800012001A
:0E528200FF0EE350E84E1200000000D000D0F6
:0852900000D0E82EFAD712004D
:06529800C2909D9C120073
:02529E00C282CA
:0252A0001200FA
:0E52A2007F7F00000000000000000000000000
:1052B00000004E0050000000000000000000000050
:0452C00000007F7FEC
:0A52C40000000000000000000000E0
:0252CE00314E5F
:0452D00000000000DA
:020000040030CA
:0E000000FFFEFEFCFFFEFBFFFFFFFFFFFFFF0A
:00000001FF
