:020000040000FA
:060800008AEF1AF012005D
:020806000000F0
:060808008DEF14F0120058
:02080E00C250D6
:08081000020B01E0010E1200D1
:06081800C4EF18F012000D
:02081E000300D5
:1008200076350000C80700000400000074350000A1
:10083000D00700000200000006080000CE070000FC
:0408400002000000B2
:0C08D400D9CFE6FFE1CFD9FFFD0EDB50CD
:1008E000AD6ED8EC16F0E552E7CFD9FF1200D9CFA4
:1008F000E6FFE1CFD9FF080EE126DE6ADD6A200EB1
:10090000F36E020EF3CFDBFF030EDB6AFB0EDBCFD1
:100910002BF0FC0EDBCF2CF02C50000AE8AE02D0FE
:100920002C3405D0000ED8802B54000E2C545AE2E3
:10093000040EDB6A050EDB6AFD0EDBCF1DF0FE0E3A
:10094000DBCF1EF0060E1DC0DBFF070E1EC0DBFF57
:10095000060EDBCFE9FF070EDBCFEAFFEF500BE01F
:10096000040EDB2A050E01E3DB2A060EDB2A070E46
:1009700001E3DB2AEDD7040EDBCF2BF0050EDBCF36
:100980002CF0FB0EDBCF2DF0FC0EDBCF2EF02C502D
:100990002E18E8AE02D02E3404D02D502B5C2E50F1
:1009A0002C5805E3FB0EDB6AFC0EDB6A10D0040E4C
:1009B000DBCF2BF0050EDBCF2CF0D950FB0FE96E0F
:1009C000FF0EDA20EA6E2B50EE5E2C50ED5AF90E37
:1009D000DB50020B07E0300EF36E020EF3CFDBFFAD
:1009E000030EDB6AF90EDB50010B25E1FB0EDBCFBA
:1009F0002BF0FC0EDBCF2CF02C50000AE8AE02D01E
:100A00002C3405D0000ED8802B54000E2C5413E249
:100A1000020EDBCFE6FF030EDBCFE6FF5BDFE55226
:100A2000E552DF2A010E01E3DB2AFB0EDB06FC0E9A
:100A300001E2DB06DBD7FD0EDBCFE9FFFE0EDBCFED
:100A4000EAFFEF501CE0FD0EDBCFE9FFFE0EDBCF2F
:100A5000EAFFEFCF2BF02C6A2BBE2C682BC0E6FFF1
:100A60002CC0E6FF37DFE552E552DF2A010E01E335
:100A7000DB2AFD0EDB2AFE0E01E3DB2ADCD7FB0EB0
:100A8000DBCF2BF0FC0EDBCF2CF02C50000AE8AEB5
:100A900002D02C3405D0000ED8802B54000E2C54DC
:100AA00013E2020EDBCFE6FF030EDBCFE6FF12DF21
:100AB000E552E552DF2A010E01E3DB2AFB0EDB06DD
:100AC000FC0E01E2DB06DBD7DECF2BF0DDCF2CF016
:100AD0002BC0F3FF2CC0F4FF00D0D9CFE1FFE552CB
:100AE000E7CFD9FF1200D9CFE6FFE1CFD9FF0A0E39
:100AF000E126040EDB6A050EDB6A060EDB6A070ED2
:100B0000DB6AFD0EDBCF1DF0FE0EDBCF1EF0080E04
:100B10001DC0DBFF090E1EC0DBFF0701BE0E996F73
:100B2000EF0EAD6FD950FD0FE96EFF0EDA20EA6EC1
:100B3000EE50ED1019E1300E996F9A6BF50EDBCF88
:100B4000E6FFF60EDBCFE6FFF70EDBCFE6FFF80E93
:100B5000DBCFE6FF990EE66E070EE66EC8DEF56E99
:100B6000060EE15EF55026D1D950F90FE96EFF0E61
:100B7000DA20EA6EEE50ED102CE0D950FB0FE96E52
:100B8000FF0EDA20EA6E0A0EEE1801E1ED5021E1C7
:100B9000FD0EDBCF2BF0FE0EDBCF2CF00001800E24
:100BA0002C1517E0010EF36E040EF3CFDBFF050EDC
:100BB000DB6A1D681E68FD0EDBCF22F0FE0EDBCF68
:100BC00023F0CBEC0FF0080E1BC0DBFF090E1CC09E
:100BD000DBFFAD0E2B6E070E2C6E2B06000E2C5A73
:100BE0002BC0DEFF2CC0DDFFDECFE9FFDDCFEAFF4B
:100BF000EF6AD950080FE96EDACFEAFFEE50ED1038
:100C000072E0080EDBCF1DF0090EDBCF1EF0FB0EED
:100C1000DBCF22F0FC0EDBCF23F060EC1AF0020EEB
:100C200019C0DBFF030E1AC0DBFF020EDBCF2BF077
:100C3000030EDBCF2CF02C50000AE8AE02D0D89087
:100C400004D00A0E2B5C000E2C5817E3F30EDBCFFA
:100C50002BF0F40EDBCF2CF0300E2B5E000E2C5A56
:100C60000A0E2B5E000E2C5AD950020FE96EDACF15
:100C7000EAFF2B50EE262C50ED22300EE76E020ECE
:100C8000DBCF2BF0030EDBCF2CF0E7502B26000E32
:100C90002C22D9CFE9FFDACFEAFFEE06ED5AEECFEC
:100CA000F3FFEDCFF4FFF3CFE9FFF4CFEAFF2BC062
:100CB000EFFFFB0EDBCF2BF0FC0EDBCF2CF0D9507F
:100CC000080FE96EDACFEAFF2BC022F02CC023F028
:100CD000EECF1DF0EDCF1EF060EC1AF01DC0EEFF60
:100CE0001EC0EDFF86D7D950040FE96EDACFEAFFB8
:100CF000EE50ED102FE0D950F70FE96EFF0EDA201D
:100D0000EA6EEE50ED1015E0F50EDB50020B11E02F
:100D10002D0EE66EE66ADEDDE552E552060EDB2AB2
:100D2000070E01E3DB2AF70EDB06F80E01E2DB0615
:100D300011D0D9CFE9FFDACFEAFFEE06000EED5A67
:100D4000EECFF3FFEDCFF4FFF3CFE9FFF4CFEAFFEF
:100D50002D0EEF6E060EDBCF2DF0070EDBCF2EF043
:100D60002DC0E6FF2EC0E6FFF50EDBCFE6FFF60E48
:100D7000DBCFE6FFF70EDBCFE6FFF80EDBCFE6FFBB
:100D8000DECFE6FFDDCFE6FFB2DDF56E060EE15EFB
:100D9000F550E552E7CF2EF0E552E7CF2DF02D507C
:100DA000F3242B6E2E50F4202C6E2BC0F3FF2CC09E
:100DB000F4FF00D0D9CFE1FFE552E7CFD9FF120011
:100DC000D9CFE6FFE1CFD9FF2E0EE1262C0EDB6A4C
:100DD0002D0EDB6AFD0EDBCFE9FFFE0EDBCFEAFF57
:100DE000EF5001E119D3FD0EDBCFE9FFFE0EDBCFA3
:100DF000EAFFEF50250801E0E0D2FD0EDB2AFE0EEF
:100E000001E3DB2A2A0EDB6A2B0EDB6AD950280F9E
:100E1000E96EDACFEAFFEE6AED6AFD0EDBCFE9FF9D
:100E2000FE0EDBCFEAFFEF5001E1F6D2FD0EDBCF85
:100E3000E9FFFE0EDBCFEAFFEF50250801E1BDD24E
:100E4000FD0EDBCFE9FFFE0EDBCFEAFFEF502D08F2
:100E50000CE1FD0EDB2AFE0E01E3DB2A010EF36E30
:100E60002A0EF3CFDBFF2B0EDB6AFD0EDBCFE9FF93
:100E7000FE0EDBCFEAFFEF5030080DE1FD0EDB2A5E
:100E8000FE0E01E3DB2AD9502A0FE96EDACFEAFF22
:100E9000EE82ED52EAD7FD0EDBCFE9FFFE0EDBCF8F
:100EA000EAFFEFCF2BF0300E2B5C30E3FD0EDBCFF3
:100EB000E9FFFE0EDBCFEAFFEF50390827E3D950F8
:100EC000280FE96EDACFEAFF0A0EEC02F3CFEDFF4E
:100ED000EF02F3CFEEFFF450ED26FD0EDBCFE9FF7E
:100EE000FE0EDBCFEAFFEF50D00F2B6E2C6AD950ED
:100EF000280FE96EDACFEAFF2B50EE262C50ED22B8
:100F0000FD0EDB2AFE0E01E3DB2AC5D7FD0EDBCF8B
:100F1000E9FFFE0EDBCFEAFFEF50730861E1D95025
:100F2000FB0FE96EFF0EDA20EA6EEECFF3FFEDCF96
:100F3000F4FF020EEE5E000EEF5AF3CFE9FFF4CF9E
:100F4000EAFFEECF2BF0EFCF2CF02D6A2BC0E6FF9F
:100F50002CC0E6FF2DC0E6FFD9CFE6FFDACFE6FFD3
:100F600020EC1AF0F56E050EE15EF550DF5015E14C
:100F7000D0C72BF0D1C72CF02D6A2BC0E6FF2CC0B8
:100F8000E6FF2DC0E6FFD9CFE6FFDACFE6FF20EC83
:100F90001AF0F56E050EE15EF5502A0EDBCFE6FF86
:100FA0002B0EDBCFE6FF280EDBCFE6FF290EDBCFD3
:100FB000E6FFD9CFE6FFDACFE6FF99DCF56E060E45
:100FC000E15EF550F3CF2BF0F4CF2CF0D9502C0F7D
:100FD000E96EDACFEAFF2B50EE262C50ED2216D226
:100FE000FD0EDBCFE9FFFE0EDBCFEAFFEF5064081A
:100FF0003EE1610EE66EE66A2A0EDBCFE6FF2B0EBF
:10100000DBCFE6FF280EDBCFE6FF290EDBCFE6FFC6
:10101000010EE66EE66A0A0EE66EE66AD950FB0F2E
:10102000E96EFF0EDA20EA6EEECFF3FFEDCFF4FFAC
:10103000020EEE5E000EEF5AF3CFE9FFF4CFEAFFA7
:10104000EECFE6FFEFCFE6FF4EDDF56E0C0EE15E74
:10105000F550F3CF2BF0F4CF2CF0D9502C0FE96ED4
:10106000DACFEAFF2B50EE262C50ED22CFD1FD0E29
:10107000DBCFE9FFFE0EDBCFEAFFEF5078083EE161
:10108000610EE66EE66A2A0EDBCFE6FF2B0EDBCFA3
:10109000E6FF280EDBCFE6FF290EDBCFE6FF000ED2
:1010A000E66EE66A100EE66EE66AD950FB0FE96E50
:1010B000FF0EDA20EA6EEECFF3FFEDCFF4FF020E63
:1010C000EE5E000EEF5AF3CFE9FFF4CFEAFFEECF6A
:1010D000E6FFEFCFE6FF07DDF56E0C0EE15EF550A3
:1010E000F3CF2BF0F4CF2CF0D9502C0FE96EDACFE0
:1010F000EAFF2B50EE262C50ED2288D1FD0EDBCFDF
:10110000E9FFFE0EDBCFEAFFEF5058083EE1410E4B
:10111000E66EE66A2A0EDBCFE6FF2B0EDBCFE6FF9C
:10112000280EDBCFE6FF290EDBCFE6FF000EE66ED2
:10113000E66A100EE66EE66AD950FB0FE96EFF0E06
:10114000DA20EA6EEECFF3FFEDCFF4FF020EEE5E93
:10115000000EEF5AF3CFE9FFF4CFEAFFEECFE6FF40
:10116000EFCFE6FFC0DCF56E0C0EE15EF550F3CF7D
:101170002BF0F4CF2CF0D9502C0FE96EDACFEAFF28
:101180002B50EE262C50ED2241D1FD0EDBCFE9FF96
:10119000FE0EDBCFEAFFEF5075083EE1610EE66E12
:1011A000E66A2A0EDBCFE6FF2B0EDBCFE6FF280E2A
:1011B000DBCFE6FF290EDBCFE6FF000EE66EE66A28
:1011C0000A0EE66EE66AD950FB0FE96EFF0EDA20D2
:1011D000EA6EEECFF3FFEDCFF4FF020EEE5E000EEF
:1011E000EF5AF3CFE9FFF4CFEAFFEECFE6FFEFCF00
:1011F000E6FF79DCF56E0C0EE15EF550F3CF2BF0D7
:10120000F4CF2CF0D9502C0FE96EDACFEAFF2B5037
:10121000EE262C50ED22FAD0FD0EDBCFE9FFFE0EBC
:10122000DBCFEAFFEF506C0801E081D0610EE66E83
:10123000E66A2A0EDBCFE6FF2B0EDBCFE6FF280E99
:10124000DBCFE6FF290EDBCFE6FF000EE66EE66A97
:10125000100EE66EE66AD950FB0FE96EFF0EDA203B
:10126000EA6EEECFF3FFEDCFF4FF020EEE5E000E5E
:10127000EF5AF3CFE9FFF4CFEAFFEECFE6FFEFCF6F
:10128000E6FF31DCF56E0C0EE15EF550F3CF2BF08E
:10129000F4CF2CF0D9502C0FE96EDACFEAFF2B50A7
:1012A000EE262C50ED22610EE66EE66A2A0EDBCFAA
:1012B000E6FF2B0EDBCFE6FF280EDBCFE6FF290E85
:1012C000DBCFE6FF000EE66EE66A100EE66EE66A1B
:1012D000D950FB0FE96EFF0EDA20EA6EEECFF3FF76
:1012E000EDCFF4FF020EEE5E000EEF5AF3CFE9FFF2
:1012F000F4CFEAFFEECFE6FFEFCFE6FF73EC05F0A9
:10130000F56E0C0EE15EF550F3CF2BF0F4CF2CF020
:10131000D9502C0FE96EDACFEAFF2B50EE262C5075
:10132000ED22FD0EDB2AFE0E01E3DB2A6FD0FD0E5F
:10133000DBCFE9FFFE0EDBCFEAFFEF5062083CE1B6
:10134000610EE66EE66A020EE66EE66A280EDBCFF6
:10135000E6FF290EDBCFE6FF000EE66EE66A020E20
:10136000E66EE66AD950FB0FE96EFF0EDA20EA6EF0
:10137000EECFF3FFEDCFF4FF020EEE5E000EEF5A5C
:10138000F3CFE9FFF4CFEAFFEECFE6FFEFCFE6FFC2
:1013900073EC05F0F56E0C0EE15EF550F3CF2BF01B
:1013A000F4CF2CF0D9502C0FE96EDACFEAFF2B5096
:1013B000EE262C50ED222AD029D0FD0EDBCFE9FFFE
:1013C000FE0EDBCFEAFFEF500A0808E1FD0EDBCF8F
:1013D000E9FFFE0EDBCFEAFF0D0EEF6EFD0EDBCF59
:1013E000E9FFFE0EDBCFEAFFEFCF2BF02C6A2BBE1E
:1013F0002C682BC0E6FF2CC0E6FF6AEC04F0E55237
:10140000E5522C0EDB2A2D0E01E3DB2AFD0EDB2A32
:10141000FE0E01E3DB2ADED42C0EDBCF2BF02D0EEB
:10142000DBCF2CF02BC0F3FF2CC0F4FF00D0D9CFC2
:10143000E1FFE552E7CFD9FF1200D9CFE6FFE1CFB8
:10144000D9FF020EE126D950FD0F2B6EFF0EDA20D8
:101450002C6E2BC0DEFF2CC0DDFFFD0EDBCF2BF092
:10146000FE0EDBCF2CF02D6A2BC0E6FF2CC0E6FF72
:101470002DC0E6FF000EE66E070EE66E20EC1AF0B9
:10148000F56E050EE15EF550D9CFE9FFDACFEAFF40
:10149000020EEE5E000EEF5ADECFE6FFDDCFE6FF76
:1014A000000EE66E070EE66E8BDCE552E552E55265
:1014B000E55200D0D9CFE1FFE552E7CFD9FF1200C6
:1014C000D9CFE6FFE1CFD9FF610EE66EE66A020EE4
:1014D000E66EE66A040EE66EE66A010EE66EE66AFF
:1014E0000A0EE66EE66AFD0EDBCFE6FFFE0EDBCFF0
:1014F000E6FF73EC05F0F56E0C0EE15EF550D95089
:10150000FB0FE96EFF0EDA20EA6EEE50ED1007E0F9
:101510000D0EE66EE66A6AEC04F0E552E552E5521D
:10152000E7CFD9FF1200D9CFE6FFE1CFD9FF610E97
:10153000E66EE66A020EE66EE66A030EE66EE66A9E
:10154000010EE66EE66A0A0EE66EE66AFE0EDBCF76
:10155000E6FFE66A73EC05F0F56E0C0EE15EF55001
:10156000D950FC0FE96EFF0EDA20EA6EEE50ED1056
:1015700007E00D0EE66EE66A6AEC04F0E552E5520D
:10158000E552E7CFD9FF1200D9CFE6FFE1CFD9FF6F
:10159000610EE66EE66A020EE66EE66A100EE66E12
:1015A000E66A000EE66EE66A020EE66EE66AFD0E7A
:1015B000DBCFE6FFFE0EDBCFE6FF73EC05F0F56E4A
:1015C0000C0EE15EF550D950FB0FE96EFF0EDA20EC
:1015D000EA6EEE50ED1007E00D0EE66EE66A6AEC7C
:1015E00004F0E552E552E552E7CFD9FF1200D9CF1A
:1015F000E6FFE1CFD9FF610EE66EE66A020EE66E07
:10160000E66A080EE66EE66A000EE66EE66A020E0E
:10161000E66EE66AFE0EDBCFE6FFE66A73EC05F0E7
:10162000F56E0C0EE15EF550D950FC0FE96EFF0E21
:10163000DA20EA6EEE50ED1007E00D0EE66EE66A77
:101640006AEC04F0E552E552E552E7CFD9FF12000B
:10165000D9CFE6FFE1CFD9FF610EE66EE66A000E54
:10166000E66EE66A020EE66EE66A000EE66EE66A70
:10167000100EE66EE66AFD0EDBCFE6FFFE0EDBCF58
:10168000E6FF73EC05F0F56E0C0EE15EF550D950F7
:10169000FB0FE96EFF0EDA20EA6EEE50ED1007E068
:1016A0000D0EE66EE66A6AEC04F0E552E552E5528C
:1016B000E7CFD9FF1200D9CFE6FFE1CFD9FF610E06
:1016C000E66EE66A020EE66EE66AE66EE66A000E10
:1016D000E66EE66A100EE66EE66AFE0EDBCFE6FF09
:1016E000E66A73EC05F0F56E0C0EE15EF550D9502C
:1016F000FC0FE96EFF0EDA20EA6EEE50ED1007E007
:101700000D0EE66EE66A6AEC04F0E552E552E5522B
:10171000E7CFD9FF1200D9CFE6FFE1CFD9FFFD0E09
:10172000DBCF2BF0FE0EDBCF2CF02D6A2BC0E6FFBB
:101730002CC0E6FF2DC0E6FF000EE66E070EE66E3B
:1017400020EC1AF0F56E050EE15EF5500701AF6B67
:10175000B06B000EE66E070EE66E39EC1AF0E5523D
:10176000E552F3CF2BF0F4CF2CF007012B50AF5DF7
:101770002C50B05918E2000EAF25E96E070EB021CB
:10178000EA6EEFCF2BF02C6A2BBE2C682BC0E6FF45
:101790002CC0E6FF6AEC04F0E552E5520701AF2BDE
:1017A000000EB023D6D7010EE66EE66AFB0EDBCF45
:1017B000E6FFFC0EDBCFE6FF4BDFE552E552E552DC
:1017C000E552E552E7CFD9FF1200D9CFE6FFE1CFCE
:1017D000D9FFFD0EDBCF2BF0FE0EDBCF2CF02D6AF8
:1017E0002BC0E6FF2CC0E6FF2DC0E6FF000EE66E24
:1017F000070EE66E20EC1AF0F56E050EE15EF55070
:101800000701AF6BB06B000EE66E070EE66E39ECAB
:101810001AF0E552E552F3CF2BF0F4CF2CF007018C
:101820002B50AF5D2C50B05918E2000EAF25E96E79
:10183000070EB021EA6EEFCF2BF02C6A2BBE2C687E
:101840002BC0E6FF2CC0E6FF6AEC04F0E552E5523F
:101850000701AF2B000EB023D6D7010EE66EE66A65
:10186000FB0EDBCFE6FFFC0EDBCFE6FF8DDEE552A5
:10187000E552E552E552E552E7CFD9FF1200D9CF44
:10188000E6FFE1CFD9FFFD0EDBCF2BF0FE0EDBCF65
:101890002CF02D6A2BC0E6FF2CC0E6FF2DC0E6FF22
:1018A000000EE66E070EE66E20EC1AF0F56E050EE1
:1018B000E15EF5500701AF6BB06B000EE66E070EF0
:1018C000E66E39EC1AF0E552E552F3CF2BF0F4CF87
:1018D0002CF007012B50AF5D2C50B05918E2000ED0
:1018E000AF25E96E070EB021EA6EEFCF2BF02C6A20
:1018F0002BBE2C682BC0E6FF2CC0E6FF6AEC04F080
:10190000E552E5520701AF2B000EB023D6D7E552C2
:06191000E7CFD9FF120031
:0A191600860E1F6E256A1D6A1C6A0A
:101920001B6A9FEF0CF0860E1F6E1EC025F01D6A0D
:101930001C6A1B6AE86A1EAE9FEF0CF01E6C2A6AD6
:10194000E86A1E64A1EF10F0F00E1E14E866ABEF1B
:101950000CF01E3A2A84D8901EBEBBEF0CF01E3647
:101960002A2A1EBEBBEF0CF01E362A2A1EBEBBEF73
:101970000CF01E362A2A2A501F5E25AE1E9E000C31
:10198000276AE86A24649FEF10F01F64A1EF10F04B
:101990001E502318256E1E8E238E223423342A36A1
:1019A000D890E8362A368E0FF66E1C0EF76E2A5047
:1019B000010BF722F86A000EF8220A00F5CF19F0A1
:1019C0000A00F5CF2AF00800F5CF29F01950295C5C
:1019D000196ED89021341902F4CFF7FF223419027E
:1019E000F3CFE8FFF726D8B0F42A286AF750285E2C
:1019F000F450295AE86A2A5A1EC019F01DC0F7FF90
:101A00001CC0F6FF1C502802F4CF1AF01D5029020A
:101A1000F4CF1CF0F3CF1BF02802F3501A26F45039
:101A20001B22E86A1C22F6502902F3501A26F450B1
:101A30001B22E86A1C221E502802F3501B26F45079
:101A40001C221E5029021D6AE86A1D22F3501C2622
:101A5000F4501D22F6502A02F3501B26F4501C228B
:101A60001E6AE86A1D221E22F7502A02F3501C2625
:101A7000F4501D22E86A1E2219502A02F3501D2636
:101A8000F4501E221EBE4AEF0DF01B361C361D36CA
:101A90001E36270623C019F022C0F7FF21C0F6FF2B
:101AA00021502802F4CF1AF022502902F4CF21F05D
:101AB000F3CF20F02802F3501A26F4502022E86ACF
:101AC0002122F6502902F3501A26F4502022E86A07
:101AD000212223502802F3502026F45021222350A3
:101AE0002902226AE86A2222F3502126F450222297
:101AF000F6502A02F3502026F4502122236AE86A85
:101B000022222322F7502A02F3502126F4502222C7
:101B1000E86A232219502A02F3502226F450232285
:101B200023AE23BC9AEF0DF01A362036213622362A
:101B30002336272A206C211E221E231EE86A21221A
:101B4000222223221EC02AF01DC029F01CC028F02A
:101B50001BC0F6FF1C502102F4CF1AF01D502002CA
:101B6000F4501A261D5021021B6AE86A1B22F3500A
:101B70001A26F4501B22F6502202F4501A261C6A30
:101B8000E86A1B221C2228502202F3501A26F45025
:101B90001B22E86A1C2229502202F3501B26F45013
:101BA0001C221E502102F3501B26F4501C221E50F2
:101BB00022021D6AE86A1D22F3501C26F4501D22E1
:101BC0002A502002F3501A26F4501B22E86A1C22E5
:101BD0001D222A502302F4CF1EF0F3501D26E86A7E
:101BE0001E22F6502302F3501A26F4501B22E86AF4
:101BF0001C221D221E2228502302F3501B26F450C3
:101C00001C22E86A1D221E2229502302F3501C26A2
:101C1000F4501D22E86A1E221EBE1CEF0EF01B3679
:101C20001C361D361E3627061EBE1CEF0EF01B3658
:101C30001C361D361E36270624501F5E800ED8A087
:101C400029EF0EF027241F26D8B08AEF10F02EEFD0
:101C50000EF027241F26D8A094EF10F026BC1BAE50
:101C600043EF0EF0D880800E1B641C30E86A1C2203
:101C70001D221E22D8A043EF0EF01E321D321C3250
:101C80001F4A8AEF10F025AE1E9E000CFFFF01FFD9
:101C900004FE09FD10FC19FB23FA30F93EF84EF75B
:101CA00060F674F58AF4A1F3BAF2D5F1F1F00FF011
:101CB0002FEF50EE73ED98ECBEEBE5EA0FEA39E951
:101CC00066E893E7C3E6F3E526E559E48EE3C5E26B
:101CD000FCE136E170E0ACDFE9DE28DE68DDA9DC9E
:101CE000EBDB2FDB74DABAD902D94AD894D7DFD626
:101CF0002CD679D5C7D417D468D3BAD20DD261D136
:101D0000B7D00DD064CFBDCE17CE71CDCDCC29CC00
:101D100087CBE6CA46CAA6C908C96AC8CEC733C7B0
:101D200098C6FEC566C5CEC437C4A1C30CC378C26D
:101D3000E5C152C1C1C030C0A0BF11BF83BEF6BD56
:101D400069BDDDBC52BCC8BB3FBBB6BA2FBAA8B98F
:101D500021B99CB817B893B710B78DB60BB68AB532
:101D60000AB58AB40BB48DB30FB392B216B29BB15D
:101D700020B1A6B02CB0B3AF3BAFC3AE4CAED6AD26
:101D800060ADEBAC77AC03AC8FAB1DABABAA39AAA3
:101D9000C8A958A9E8A879A80BA89CA72FA7C2A6EC
:101DA00056A6EAA57FA514A5AAA440A4D7A36EA30E
:101DB00006A39FA238A2D1A16BA106A1A1A03CA01D
:101DC000D89F749F119FAF9E4D9EEB9D8A9D299D2C
:101DD000C99C699C0A9CAB9B4C9BEE9A919A349A45
:101DE000D7997B991F99C49869980E98B4975A9778
:101DF0000197A8965096F895A0954995F2949C94D1
:101E00004694F0939B934693F1929D924992F6915A
:101E1000A3915091FE90AC905A900990B88F688F22
:101E2000178FC88E788E298EDA8D8C8D3E8DF08C32
:101E3000A38C568C098CBC8B708B248BD98A8E8A90
:101E4000438AF889AE8964891B89D2888988408849
:101E5000F887AF8768872087D98692864C86058663
:101E6000BF8579853485EF84AA8465842184DD83E8
:101E7000998356831283CF828D824A820882C681DB
:101E8000858143810281C1808180408001801B6AFD
:101E9000E86A24621F64A1EF10F01E502318256E1B
:101EA00024501F267E0ED8A05CEF0FF01F5ED8B026
:101EB0008AEF10F060EF0FF01F5ED8A094EF10F0E3
:101EC0001E8E238E1EC02AF01DC029F01CC028F0D3
:101ED0001C502102F4CF1AF01D502202F4CF1CF046
:101EE000F3CF1BF02102F3501A26F4501B22E86AAC
:101EF0001C2228502202F3501A26F4501B22E86AB2
:101F00001C221E502102F3501B26F4501C221E508E
:101F100022021D6AE86A1D22F3501C26F4501D227D
:101F200028502302F3501B26F4501C221E6AE86A34
:101F30001D221E2229502302F3501C26F4501D227C
:101F4000E86A1E222A502302F3501D26F4501E2256
:101F50001EBEB3EF0FF01B361C361D361E361F0695
:101F6000D8B494EF10F026BC1BAEC8EF0FF0D880A9
:101F7000800E1B641C30E86A1C221D221E22D8A081
:101F8000C8EF0FF01E321D321C321F4A8AEF10F0CC
:101F900025AE1E9E000C1EC02AF01DC029F01D504B
:101FA0002202F4CF1CF0F3CF1BF01E502302F4CF1B
:101FB0001EF0F3CF1DF02202F3501C26F4501D2218
:101FC000E86A1E2229502302F3501C26F4501D22D9
:101FD000E86A1E2223AEF1EF0FF029501D5E2A5051
:101FE0001E5A2AAE000C22501D5E23501E5A000CB1
:101FF000E86A1F64000C1EC025F01E8E860E1F5C52
:10200000E8AE81EF10F0E86C1F6E070E1F6429EF39
:1020100010F01F5E1EC01DF01E6A1F4E49EF10F02B
:10202000030E1F641BEF10F01F5E1D380F0B1D6E9B
:102030001F4E49EF10F0D8901D321F4E49EF10F09F
:10204000D8901D321F4E49EF10F0D8901D3249EF45
:1020500010F0030E1F643AEF10F01F5E1D380F0BD7
:102060001D6E1E38F00B1D261E380F0B1E6E1F4EE8
:1020700049EF10F0D8901E321D321F4E49EF10F07C
:10208000D8901E321D321F4E49EF10F0D8901E32EC
:102090001D3226BC1DAE56EF10F0D880800E1D6498
:1020A0001E30E86A1E221EBE81EF10F025AE000C25
:1020B0001E6C000C268026AEFF0C1E6A25AE1E6824
:1020C0001EC01DF01EC01CF01EC01BF025361E32A7
:1020D000FF0C268026AEFF0C1E6A25AE1E681EC0B1
:1020E0001DF01EC01CF025361E32FF0C268026AEC9
:1020F000FF0C1E6A25AE1E681EC01DF025361E325E
:10210000FF0C268026AEFF0C1E6A25AE1E68253603
:102110001E32FF0C268226AEFF0C1F681E681D684B
:102120001C6825361E32FF0C268426AEFF0C010EDD
:102130001F6E1E6A1D6A1C6A25361E32FF0C26861B
:10214000FF0C1E6A1D6A1C6A1B6A1F6A000C25AE02
:042150001E9E000CC3
:0C215400D9CFE6FFE1CFD9FFFE0EDB5033
:1021600011E1FC0EDBCFE9FFFD0EDBCFEAFFEF5004
:102170007F0808E2FC0EDBCFE9FFFD0EDBCFEAFFB4
:102180007F0EEF6EE552E7CFD9FF1200D9CFE6FF01
:10219000E1CFD9FFFE0EDB5013E1FC0EDBCFE9FFF0
:1021A000FD0EDBCFEAFFEFCF2BF07F0E2B5C08E2BA
:1021B000FC0EDBCFE9FFFD0EDBCFEAFF7F0EEF6EFB
:1021C000E552E7CFD9FF1200D9CFE6FFE1CFD9FF23
:1021D000FD0EDBCF2BF0FE0EDBCF2CF02C50070AD0
:1021E000E8AE02D0D89004D0D00E2B5C070E2C584D
:1021F00006E20701D00ECC6F070ECD6F1ED0FD0E8C
:10220000DBCF2BF0FE0EDBCF2CF02C50080AE8AE13
:1022100002D02C3405D0CE0ED8802B54080E2C546E
:1022200006E20701CE0ECC6F080ECD6F06D0FD0E74
:10223000DBCFCCF7FE0EDBCFCDF7CCC72BF0CDC775
:102240002CF0D00E2B5E070E2C5A2B5000D0E552EE
:10225000E7CFD9FF1200D9CFE6FFE1CFD9FF020EB9
:10226000E126C00EDE6E330EDD6EF00EE66ED4ECAF
:1022700017F0E552938A9388938693849982998084
:10228000938E938C9A849A82998699849A8A9A8852
:1022900094809A869A8E9A9C919C07017F0E636F18
:1022A00063C762F763C761F763C760F763C75FF728
:1022B00063C75EF763C75DF763C75CF76B6F6BC798
:1022C0006AF76BC769F76BC768F76BC767F76BC7C8
:1022D00066F76BC765F76BC764F7000EE66EE66AD4
:1022E000E66EE66AE66EE66AE66EE66A0DEC16F003
:1022F000F56E080EE15EF550C6EC17F0580EE66E6E
:10230000070EE66EC3EC15F0E552E552DECFE6FFB0
:10231000DDCFE6FFBC0EE66E330EE66E1DEC0AF076
:10232000E552E552E552E55228EC15F0D9CFE1FF30
:10233000E552E7CFD9FF1200780EE66E070EE66E83
:1023400089EC15F0E552E55240D807017A51020BAD
:1023500001E0010EE66EE66A7A51010BE66EE66A6E
:102360008251E66EE66A7F51E66EE66A970EE66E89
:10237000330EE66E1DEC0AF0F56E0A0EE15EF550C6
:1023800007018151E66EE66A940EE66E330EE66E44
:102390001DEC0AF0E552E552E552E5526BC7E6FF47
:1023A0006AC7E6FF69C7E6FF68C7E6FF48EC18F0B2
:1023B000E552E552E552E552580EE66E070EE66E1E
:1023C000C3EC15F0E552E55212007EC75CF77FC7FB
:1023D0005DF780C75EF781C75FF782C760F783C785
:1023E00061F784C762F785C763F786C764F787C755
:1023F00065F788C766F789C767F707017E512E6AB8
:10240000D00F2D6E070E2E22825100012D242B6F2E
:10241000000E2E202C6F7F0E2B5E000E2C5A2BC030
:10242000E6FF2CC0E6FFD0DEE552E5520701696FFA
:10243000686F07017E512E6AD00F2D6E070E2E2277
:1024400082512F6E306A2F502D5C2B6E30502E58DB
:102450002C6E7F0E2B26000E2C222BC0E6FF2CC0EC
:10246000E6FFB2DEE552E55207016B6F6A6F8150FD
:10247000040B01E0010E2B6E07017A51010B2B14A6
:10248000010BF36EFE0E8C14F3108C6E8150080B52
:1024900001E0010E2B6E7A51020B01E0010E2B14AC
:1024A000010BF36EFE0E8D14F3108D6E8150100B28
:1024B00001E0010E2B6E7B51010B2B14010BF36E0F
:1024C000F346FD0E8C14F3108C6E8150200B01E04E
:1024D000010E2B6E7B51020B01E0010E2B14010B40
:1024E000F36EF346FD0E8D14F3108D6E7A51100BC2
:1024F00002E08C8401D08C947A51200B02E08D8410
:1025000001D08D947B51100B02E08C8601D08C960B
:102510007B51200B02E08D8601D08D967A51040B01
:1025200002E08C8801D08C987A51080B02E08D88EB
:1025300001D08D987A51400B02E08C8A01D08C9AA0
:102540007A51800B02E08D8A01D08D9A7B51400B2D
:1025500002E08C8C01D08C9C7B51800B02E08D8C36
:1025600001D08D9C8850800B02E08C9E01D08C8E17
:1025700091905E0EE66E070EE66E8150400B400AAB
:1025800001E0010EE66EE6DDE552E552E5525E0E33
:10259000E66E070EE66E8150800B800A01E0010EA8
:1025A000E66EF4DDE552E552E5525F0EE66E070E8B
:1025B000E66E8750010B010AE66ECCDDE552E5526E
:1025C000E5525F0EE66E070EE66E8750020B020ABA
:1025D00001E0010EE66EDADDE552E552E552640EE9
:1025E000E66E070EE66E8750040B040A01E0010E4A
:1025F000E66EB0DDE552E552E552640EE66E070E7A
:10260000E66E8750080B080A01E0010EE66EBEDD9B
:10261000E552E552E552650EE66E070EE66E88500D
:10262000020B020A01E0010EE66E94DDE552E5526E
:10263000E552650EE66E070EE66E8850040B040A3E
:1026400001E0010EE66EA2DDE552E552E552660EAE
:10265000E66E070EE66E8850080B080A01E0010ED0
:10266000E66E78DDE552E552E552660EE66E070E3F
:10267000E66E8250010B010AE66E88DDE552E552F6
:10268000E552670EE66E070EE66E8850100B100AD4
:1026900001E0010EE66E5EDDE552E552E552670EA1
:1026A000E66E070EE66E8850200B200A01E0010E50
:1026B000E66E6CDDE552E552E552070179BBD7D0F5
:1026C000000E7E5D07E37E51380804E30701589150
:1026D00058833AD07D0E7E5D13E37E512B6E2C6ABB
:1026E0002C50000AE8AE02D02C3405D0810ED880E0
:1026F0002B54000E2C5404E307015881588324D036
:102700007E512B6E2C6A2C50000AE8AE02D0D89075
:1027100004D0D80E2B5C000E2C5813E37E512D6E86
:102720002E6A2E50000AE8AE02D02E3405D0FF0EDD
:10273000D8802D54000E2E5404E30701588158937D
:1027400003D0070158915893000E07017F5D07E3FE
:102750007F51380804E30701589558873AD07D0E19
:102760007F5D13E37F512B6E2C6A2C50000AE8AE7C
:1027700002D02C3405D0810ED8802B54000E2C545E
:1027800004E307015885588724D07F512B6E2C6AAB
:102790002C50000AE8AE02D0D89004D0D80E2B5CA2
:1027A000000E2C5813E37F512D6E2E6A2E50000A16
:1027B000E8AE02D02E3405D0FF0ED8802D54000E86
:1027C0002E5404E307015885589703D00701589504
:1027D0005897589B8C50010B01E0588B58998D509D
:1027E000010B01E05889589F8C50020B01E0588F73
:1027F000589D8D50020B01E0588D8150040B01E073
:10280000010E2B6E2C6A2B502C1002E0000E01D012
:10281000010E010BF36EFE0E5915F310596F815026
:10282000080B01E0010E2B6E2C6A2B502C1002E0DD
:10283000000E01D0010E010BF36EF346FD0E59158B
:10284000F310596F8150100B01E0010E2B6E2C6AB2
:102850002B502C1002E0000E01D0010E010BF36E84
:10286000F346F346FB0E5915F310596F51D08FC73D
:102870001EF08BEC0CF01CC033F01DC034F01EC0F9
:1028800035F01FC036F0710E216E3D0E226E7A0EAD
:10289000236E820E246E33C01CF034C01DF035C090
:1028A0001EF036C01FF047EC0FF01CC02FF01DC00B
:1028B00030F01EC031F01FC032F0216A226A236A54
:1028C000870E246E2FC01CF030C01DF031C01EF0EA
:1028D00032C01FF0C0EC0CF01CC02BF01DC02CF05F
:1028E0001EC02DF01FC02EF0216A226A200E236E1A
:1028F000820E246E2BC01CF02CC01DF02DC01EF0CB
:102900002EC01FF047EC0FF0F8EC0FF01EC058F788
:0A2910007FC75DF781C75FF7120073
:06291A00DACFE4FFE2CF7A
:10292000DAFFE9CFE4FFEACFE4FFE652F2A202D0F9
:1029300094D802D09EB6C0D8E552E5CFEAFFE5CFE5
:10294000E9FFE5CFDAFF1100E66A010EE66E050E3B
:10295000E66E71EC19F0E552E552E5521200070EF1
:10296000B46E000E886E876E866E856E846E836E82
:10297000826E816E806E916E906E8F6E8E6E8D6E99
:102980008C6E8B6E8A6E896E2F0E926E93689C0E83
:10299000946E956A966A9768986A0E0E9A6E996810
:1029A000C16AF19EB0989C8EA26A9F6AA06A9D6AD5
:1029B000A36AA56AC9DF9F86D08E9E969D86938264
:1029C000F06AF288F09EF098F192F09AF16AF28C37
:1029D000F28E1200D9CFE6FFE1CFD9FFE652BFDF7A
:1029E00007019897989907015C0EBC6F070EBD6FA1
:1029F000DF6A100EDF5C0AE2DF50EA6ABC25E96E8E
:102A0000BD51EA227F0EEF6EDF2AF3D70701756B07
:102A1000010E766FC20E776F0701988507017A6BFA
:102A20007B6B0701586B5A6B5B6B010ED56E320ED8
:102A3000D76ECF0ED66ED59E580EE66E070EE66E9A
:102A4000A2D8E552E552E552E552E7CFD9FF120090
:102A500082828088949292981200F2920701200E4E
:102A6000B86F9F86070198A906D00701E00EB56FE1
:102A7000000EB66F05D00701C00EB56F000EB66F21
:102A8000070198A1987998A706D00701800EB36F27
:102A9000000EB46F05D00701A00EB36F000EB46F27
:102AA000C9CFB9F7B3C7E9FFB4C7EAFFB32B000E2C
:102AB000B423EF50C96E12009E96C9CFB9F7070133
:102AC000B851000824E2B5C7E9FFB6C7EAFFB52B45
:102AD000000EB623B9C7EFFFB3C7E9FFB4C7EAFFDB
:102AE000B32BB423EFCFB9F7B9C7C9FFB807B851B3
:102AF0000DE1070198810701020E766F0701989397
:102B0000320ED76ECF0ED66EF294D58E01D0C96A32
:102B10001200D9CFE6FFE1CFD9FF070198A12FD04E
:102B200098A906D00701C00EB16F000EB26F05D094
:102B30000701E00EB16F000EB26FFD0EDBCFBAF7EA
:102B4000FE0EDBCFBBF7B76B200EB75D14E2B751BB
:102B5000EA6AB125E96EB251EA22EF50E66EBAC7D1
:102B6000E9FFBBC7EAFFBA2B000EBB23E552E750D3
:102B7000EF6EB72BE9D79D96070198919D86E55298
:102B8000E7CFD9FF1200D9CFE6FFE1CFD9FF070188
:102B900098B33AD0020E0701765D01E180D80701B3
:102BA0006D9F070198A706D00701A00EB16F000E18
:102BB000B26F05D00701800EB16F000EB26FFD0E2F
:102BC000DBCFBCF7FE0EDBCFBDF7B76B200EB75DDA
:102BD00014E2BCC7E9FFBDC7EAFFBC2B000EBD2352
:102BE000EF50E66EB751EA6AB125E96EB251EA22BA
:102BF000E552E750EF6EB72BE9D79D96070198771E
:102C000098839D860701752BE552E7CFD9FF120007
:102C10009D96070198919D861200D9CFE6FFE1CFDE
:102C2000D9FF0001166BD950FD0FE96EFF0EDA20B7
:102C3000EA6E010EEE1801E1ED5002E1168101D0BD
:102C4000BA6AD950FB0FE96EFF0EDA20EA6E010E68
:102C5000EE1801E1ED5002E1168301D0B76AD950B8
:102C6000F90FE96EFF0EDA20EA6E010EEE1801E1AF
:102C7000ED5002E1168501D0736AD950F70FE96E65
:102C8000FF0EDA20EA6E010EEE1801E1ED5002E1CE
:102C9000168701D0706AE552E7CFD9FF120007010D
:102CA000746B6F6BC6AE04D0C69E010E6F6F0ED0F4
:102CB000F150800B06E0F250080B03E0020E6F6F3C
:102CC00005D0F0A603D0909E030E6F6F250EC6149C
:102CD000250805E0010E746FC6CF6FF768D0C550A8
:102CE00005E0020E746FC5CF6FF761D0D0BE05D07E
:102CF000030E746FD0CF6FF75AD09DB605D0040E77
:102D0000746F9DCF6FF753D09C5005E0050E746F24
:102D10009CCF6FF74CD0080E9F5C05E0060E746FD9
:102D20009FCF6FF744D0A25005E0070E746FA2CF7B
:102D30006FF73DD0A55005E0080E746FA5CF6FF773
:102D400036D0500EF214500805E0090E746FF2CF21
:102D50006FF72DD0470EF11405E00A0E746FF1CF16
:102D60006FF725D0C00EF01405E00B0E746FF0CF96
:102D70006FF71DD092A805D00C0E746F92CF6FF72D
:102D800016D093B005D00D0E746F93CF6FF70FD0A0
:102D90003E0E94141C0805E00E0E746F94CF6FF76E
:102DA00006D097BE04D00F0E746F97CF6FF7120046
:102DB0009EB802D0FDD7FCD71200D9CFE6FFE1CFF5
:102DC000D9FFFE0EDBCFE6FF31EC18F0E5520D0E19
:102DD000AD6EEEDFE552E7CFD9FF1200D9CFE6FFA7
:102DE000E1CFD9FF0701D950FD0F506FFF0EDA2058
:102DF000516F010EEA6A5025E96E5151EA22EF50F7
:102E0000E66E31EC18F0E55250C7E9FF51C7EAFF12
:102E1000EF50E66E31EC18F0E5520D0EAD6EC8DFE6
:102E2000E552E7CFD9FF1200D9CFE6FFE1CFD9FFB6
:102E3000FD0EDBCF2BF0FE0EDBCF2CF02D6A2BC06E
:102E4000E6FF2CC0E6FF2DC0E6FF000EE66E070E83
:102E5000E66E20EC1AF0F56E050EE15EF550000E00
:102E6000E66E070EE66E39EC1AF0E552E552F3CF46
:102E700054F7F4CF55F707015551000AE8AE02D0D8
:102E8000553505D0500ED8805455000E555503E2E7
:102E9000500E546F556B566B576B57515519E8AE22
:102EA00002D0553504D05451565D555157590EE254
:102EB000000E5625E96E070E5721EA6EEF50AD6EF3
:102EC00077DF0701562B000E5723E7D7E552E7CFF0
:102ED000D9FF1200D9CFE6FFE1CFD9FF0701526B2E
:102EE0001A0E525D11E2FD0EDBCFE9FFDB2AFE0E6A
:102EF000DBCFEAFF01E3DB2AEF50E66E31EC18F09E
:102F0000E5520701522BECD70D0EAD6E51DFE552A5
:102F1000E7CFD9FF12000701780E506F070E516FEF
:102F2000070178510701C86FC96BCA51C81902E17E
:102F3000CB51C91918E0070198A502D098950FD078
:102F4000CAC7E6FF31EC18F0E552C8C7E6FF31EC1E
:102F500018F0E5520D0EAD6E2BDF07019895C8C72E
:102F6000CAF7C9C7CBF70701CA2B000ECB23CB5139
:102F7000000AE8AE02D0CB3505D0FF0ED880CA5586
:102F8000000ECB5502E2CA6BCB6B1200150EE66E3B
:102F90003C0EE66E9EEC19F0E552E552320EE66EFE
:102FA0009AEC1AF0E5521200D9CFE6FFE1CFD9FF33
:102FB000FE0EDBCF53F7E552E7CFD9FF1200D9CF92
:102FC000E6FFE1CFD9FF020EE126FE0EDB507F0BBC
:102FD000FE0BFD0BE66E53C7E6FFF5EC19F0E5526C
:102FE000E5520A0EE66EAAEC1AF0E552B8EC1AF0B9
:102FF00007EC04F0000901E0FBD747EC1AF0B5EC50
:103000001AF0C4502D6E2DC02EF02D6AC350000151
:103010002D102B6F2EC02CF02BC0DEFF2CC0DDFF3F
:10302000DECF2BF0DDCF2CF02BC0F3FF2CC0F4FF54
:0E30300000D0D9CFE1FFE552E7CFD9FF120063
:02303E00000E82
:10304000E96EEA6E04002CEC18F0EA2A080EEA5C3D
:10305000D8A422EF18F01200EF6AE93E2CEF18F026
:103060001200FF0EE3CF09F009380F0B060FD8B29C
:10307000070F2A0FAD6ED8EC16F009500F0B060F94
:10308000D8B2070F2A0FAD6ED8EC16F0000C120064
:10309000F2B4120016500F0AD8B41200FF0EE3CF9C
:1030A0000AF0FE0EE3CF0BF0FD0EE3CF0CF0FC0EAA
:1030B000E3CF0DF00A2A16A08D8E0B2A16A28F8060
:1030C0000C2A16A48F860D2A16A68F880E6A0F6A00
:1030D000106A116A9BEC18F00A2E71EF18F016A016
:1030E0008D9E0B2E76EF18F016A28F900C2E7BEF94
:1030F00018F016A48F9600000D2E81EF18F016A67A
:103100008F9800000E2E86EF18F0129000000F2E00
:103110008BEF18F012920000102E90EF18F012941E
:103120000000112E95EF18F01296BDEC18F0133E2A
:103130006CEF18F01200D70E136E000000000000B4
:103140000000B3EC18F0132E9DEF18F0D70E136E9D
:103150000000000000000000B3EC18F0132EA8EFF0
:1031600018F0000012000000B6EF18F00000000098
:1031700000000000000000001200030E146E0000AA
:08318000142EBFEF18F012003D
:08318800D8CFE4FFE0CFE4FF23
:10319000E46EDACFE4FFE2CFDAFFF3CFE4FFF4CF5F
:1031A000E4FFE652D9CFE6FFE1CFD9FFE652F0A225
:1031B00002D0F09209D0F0A402D0F09405D0F2A091
:1031C00003D08150DF6EF290E552E552E7CFD9FF90
:1031D000E552E5CFF4FFE5CFF3FFE5CFDAFFE550A9
:1031E000E5CFE0FFE5CFD8FF1000070179AD28D08B
:1031F000070198A124D0780EE66E070EE66E89ECE2
:1032000015F0E552E5520701900ECE5D010ECF5943
:103210000AE20701BE0E5D6FB40E5F6F0701CE2B91
:10322000000ECF2304D007017F0E5D6F5F6F580E35
:10323000E66E070EE66EC3EC15F0E552E552D5D703
:043240001200120066
:0C3244001E0EF66E080EF76E000EF86EFF
:1032500007010900F550C36F0900F550C46F03E181
:10326000C36701D03DD00900F550BE6F0900F5508D
:10327000BF6F0900F550C06F09000900F550E96EF5
:103280000900F550EA6E090009000900F550C16F08
:103290000900F550C26F09000900F6CFC5F7F7CF56
:1032A000C6F7F8CFC7F7BEC7F6FFBFC7F7FFC0C75F
:1032B000F8FF0701C15302E1C25307E00900F550CE
:1032C000EE6EC107F8E2C207F9D7C5C7F6FFC6C759
:1032D000F7FFC7C7F8FF0701C307000EC45BBFD7DE
:0232E0001200DA
:0E32E200D9CFE6FFE1CFD9FF3F0EC716C66A6F
:1032F000FE0EDB50C612FC0EDB50C712FD0EDB507B
:10330000030A09E0010A04E0020A06E1C78C04D0BE
:10331000C78CC68801D0C688FE0EDB50050A03E0C4
:10332000010A04E1928A9486C79E01D09496949AE9
:0C3330009488C68AE552E7CFD9FF12004E
:04333C00D9CFE6FF00
:10334000E1CFD9FFAC6AAB6AFE0EDBB0AC88DBA282
:1033500002D0AC8CAB8CDBB4AC8EDBA602D0AB88DD
:1033600001D0AB8ADBA802D0AC8401D0AC94DBAC3A
:1033700002D09D8A01D09D9ADBAE02D09D8801D0FB
:103380009D98FD0EDB50AF6EAC8AAB8EE552E7CF59
:04339000D9FF12004F
:0C339400256400506F7274312059202510
:1033A00033642C2058202533642C20466972652014
:1033B00025642C20546F702025640A0025730A00B0
:1033C00049464920557365722050726F6365737367
:1033D0006F7220496E697469616C697A6564202E28
:0A33E0002E2E00286E756C6C29007B
:0633EA00D9CFE6FFE1CFA0
:1033F000D9FFC26AC16AC06AFD0EDB407F0B3C0B7D
:10340000C26EFE0EDB500F0B2B6EFD0EDB38F00B89
:10341000300B2B10C16EFE0EDB380F0B070B2B6E23
:10342000FE0EDB50800B2B10C06EFD0EDBAE03D00A
:103430009E9C9D8CF28CC280E552E7CFD9FF120092
:10344000FB0EE3CFF6FFFC0EE3CFF7FFFD0EE3CF5D
:10345000F8FFFE0EE3CFE9FFFF0EE3CFEAFFE9CF6F
:10346000F3FFEACFF4FF0900F5CFEFFFEE66FBD7DD
:103470001200FE0EE3CFE9FFFF0EE3CFEAFFF36A8F
:0E348000F46AEE5203E0F34AF42AFBD712007E
:02348E00D9CF94
:10349000E6FFE1CFD9FF020EE126C350DF6E010E39
:1034A000C4CFDBFFDECF2BF0DDCF2CF02BC0F3FF42
:1034B0002CC0F4FFD9CFE1FFE552E7CFD9FF1200CE
:1034C0001A6A196A100EE76ED8901D361E36193624
:1034D0001A362250195C23501A5805E32250195EFF
:0C34E00023501A5A1D2AE72EF0D71200C4
:0434EC00EAEC14F002
:1034F0002BEC11F007019891070198A107D09CECE3
:1035000011F0070179AD02D0F5EC18F021EC19F0BB
:04351000F3D71200DB
:0C35140016EE00F026EE00F0F86A269C8F
:10352000A68EA69C1FEC18F022EC19F076EC1AF08F
:04353000F9D71200B5
:0C353400FF0EE350376E480E01D04C0E25
:10354000E76EE72EFED7E76AE72EFED7372EF7D7CE
:043550000000120065
:0C355400FF0EE350E84E1200000000D013
:0A35600000D000D0E82EFAD71200C8
:06356A00C2909D9C1200BE
:04357000C282120001
:02357400E3333F
:043576000000000051
:020000040030CA
:0E000000FFFEFEFCFFFEFBFFFFFFFFFFFFFF0A
:00000001FF
