:020000040000FA
:060800000EEF22F01200D1
:0208060000FFF1
:060808005AEF1BF0120084
:02080E00C250D6
:08081000020B01E0010E1200D1
:06081800B3EF18F012001E
:02081E000500D3
:10082000AD4400000901000004000000AB440000DA
:100830000D01000002000000A1440000E4070000D8
:100840000A000000984400000001000009000000B8
:0C08500006080000F20700000200000093
:0C090400D9CFE6FFE1CFD9FFFD0EDB509C
:10091000AD6EA5EC1DF0E552E7CFD9FF1200D9CF9F
:10092000E6FFE1CFD9FF080EE126DE6ADD6A200E80
:10093000F36E020EF3CFDBFF030EDB6AFB0EDBCFA1
:100940002BF0FC0EDBCF2CF02C50000AE8AE02D0CE
:100950002C3405D0000ED8802B54000E2C545AE2B3
:10096000040EDB6A050EDB6AFD0EDBCF1DF0FE0E0A
:10097000DBCF1EF0060E1DC0DBFF070E1EC0DBFF27
:10098000060EDBCFE9FF070EDBCFEAFFEF500BE0EF
:10099000040EDB2A050E01E3DB2A060EDB2A070E16
:1009A00001E3DB2AEDD7040EDBCF2BF0050EDBCF06
:1009B0002CF0FB0EDBCF2DF0FC0EDBCF2EF02C50FD
:1009C0002E18E8AE02D02E3404D02D502B5C2E50C1
:1009D0002C5805E3FB0EDB6AFC0EDB6A10D0040E1C
:1009E000DBCF2BF0050EDBCF2CF0D950FB0FE96EDF
:1009F000FF0EDA20EA6E2B50EE5E2C50ED5AF90E07
:100A0000DB50020B07E0300EF36E020EF3CFDBFF7C
:100A1000030EDB6AF90EDB50010B25E1FB0EDBCF89
:100A20002BF0FC0EDBCF2CF02C50000AE8AE02D0ED
:100A30002C3405D0000ED8802B54000E2C5413E219
:100A4000020EDBCFE6FF030EDBCFE6FF5BDFE552F6
:100A5000E552DF2A010E01E3DB2AFB0EDB06FC0E6A
:100A600001E2DB06DBD7FD0EDBCFE9FFFE0EDBCFBD
:100A7000EAFFEF501CE0FD0EDBCFE9FFFE0EDBCFFF
:100A8000EAFFEFCF2BF02C6A2BBE2C682BC0E6FFC1
:100A90002CC0E6FF37DFE552E552DF2A010E01E305
:100AA000DB2AFD0EDB2AFE0E01E3DB2ADCD7FB0E80
:100AB000DBCF2BF0FC0EDBCF2CF02C50000AE8AE85
:100AC00002D02C3405D0000ED8802B54000E2C54AC
:100AD00013E2020EDBCFE6FF030EDBCFE6FF12DFF1
:100AE000E552E552DF2A010E01E3DB2AFB0EDB06AD
:100AF000FC0E01E2DB06DBD7DECF2BF0DDCF2CF0E6
:100B00002BC0F3FF2CC0F4FF00D0D9CFE1FFE5529A
:100B1000E7CFD9FF1200D9CFE6FFE1CFD9FF0A0E08
:100B2000E126040EDB6A050EDB6A060EDB6A070EA1
:100B3000DB6AFD0EDBCF1DF0FE0EDBCF1EF0080ED4
:100B40001DC0DBFF090E1EC0DBFF0701BE0EB56F27
:100B5000EF0EC96FD950FD0FE96EFF0EDA20EA6E75
:100B6000EE50ED1019E1300EB56FB66BF50EDBCF20
:100B7000E6FFF60EDBCFE6FFF70EDBCFE6FFF80E63
:100B8000DBCFE6FFB50EE66E070EE66EC8DEF56E4D
:100B9000060EE15EF55026D1D950F90FE96EFF0E31
:100BA000DA20EA6EEE50ED102CE0D950FB0FE96E22
:100BB000FF0EDA20EA6E0A0EEE1801E1ED5021E197
:100BC000FD0EDBCF2BF0FE0EDBCF2CF00001800EF4
:100BD0002C1517E0010EF36E040EF3CFDBFF050EAC
:100BE000DB6A1D681E68FD0EDBCF22F0FE0EDBCF38
:100BF00023F0B6EC17F0080E1BC0DBFF090E1CC07B
:100C0000DBFFC90E2B6E070E2C6E2B06000E2C5A26
:100C10002BC0DEFF2CC0DDFFDECFE9FFDDCFEAFF1A
:100C2000EF6AD950080FE96EDACFEAFFEE50ED1007
:100C300072E0080EDBCF1DF0090EDBCF1EF0FB0EBD
:100C4000DBCF22F0FC0EDBCF23F0E4EC21F0020E30
:100C500019C0DBFF030E1AC0DBFF020EDBCF2BF047
:100C6000030EDBCF2CF02C50000AE8AE02D0D89057
:100C700004D00A0E2B5C000E2C5817E3F30EDBCFCA
:100C80002BF0F40EDBCF2CF0300E2B5E000E2C5A26
:100C90000A0E2B5E000E2C5AD950020FE96EDACFE5
:100CA000EAFF2B50EE262C50ED22300EE76E020E9E
:100CB000DBCF2BF0030EDBCF2CF0E7502B26000E02
:100CC0002C22D9CFE9FFDACFEAFFEE06ED5AEECFBC
:100CD000F3FFEDCFF4FFF3CFE9FFF4CFEAFF2BC032
:100CE000EFFFFB0EDBCF2BF0FC0EDBCF2CF0D9504F
:100CF000080FE96EDACFEAFF2BC022F02CC023F0F8
:100D0000EECF1DF0EDCF1EF0E4EC21F01DC0EEFFA4
:100D10001EC0EDFF86D7D950040FE96EDACFEAFF87
:100D2000EE50ED102FE0D950F70FE96EFF0EDA20EC
:100D3000EA6EEE50ED1015E0F50EDB50020B11E0FF
:100D40002D0EE66EE66ADEDDE552E552060EDB2A82
:100D5000070E01E3DB2AF70EDB06F80E01E2DB06E5
:100D600011D0D9CFE9FFDACFEAFFEE06000EED5A37
:100D7000EECFF3FFEDCFF4FFF3CFE9FFF4CFEAFFBF
:100D80002D0EEF6E060EDBCF2DF0070EDBCF2EF013
:100D90002DC0E6FF2EC0E6FFF50EDBCFE6FFF60E18
:100DA000DBCFE6FFF70EDBCFE6FFF80EDBCFE6FF8B
:100DB000DECFE6FFDDCFE6FFB2DDF56E060EE15ECB
:100DC000F550E552E7CF2EF0E552E7CF2DF02D504C
:100DD000F3242B6E2E50F4202C6E2BC0F3FF2CC06E
:100DE000F4FF00D0D9CFE1FFE552E7CFD9FF1200E1
:100DF000D9CFE6FFE1CFD9FF2E0EE1262C0EDB6A1C
:100E00002D0EDB6AFD0EDBCFE9FFFE0EDBCFEAFF26
:100E1000EF5001E119D3FD0EDBCFE9FFFE0EDBCF72
:100E2000EAFFEF50250801E0E0D2FD0EDB2AFE0EBE
:100E300001E3DB2A2A0EDB6A2B0EDB6AD950280F6E
:100E4000E96EDACFEAFFEE6AED6AFD0EDBCFE9FF6D
:100E5000FE0EDBCFEAFFEF5001E1F6D2FD0EDBCF55
:100E6000E9FFFE0EDBCFEAFFEF50250801E1BDD21E
:100E7000FD0EDBCFE9FFFE0EDBCFEAFFEF502D08C2
:100E80000CE1FD0EDB2AFE0E01E3DB2A010EF36E00
:100E90002A0EF3CFDBFF2B0EDB6AFD0EDBCFE9FF63
:100EA000FE0EDBCFEAFFEF5030080DE1FD0EDB2A2E
:100EB000FE0E01E3DB2AD9502A0FE96EDACFEAFFF2
:100EC000EE82ED52EAD7FD0EDBCFE9FFFE0EDBCF5F
:100ED000EAFFEFCF2BF0300E2B5C30E3FD0EDBCFC3
:100EE000E9FFFE0EDBCFEAFFEF50390827E3D950C8
:100EF000280FE96EDACFEAFF0A0EEC02F3CFEDFF1E
:100F0000EF02F3CFEEFFF450ED26FD0EDBCFE9FF4D
:100F1000FE0EDBCFEAFFEF50D00F2B6E2C6AD950BC
:100F2000280FE96EDACFEAFF2B50EE262C50ED2287
:100F3000FD0EDB2AFE0E01E3DB2AC5D7FD0EDBCF5B
:100F4000E9FFFE0EDBCFEAFFEF50730861E1D950F5
:100F5000FB0FE96EFF0EDA20EA6EEECFF3FFEDCF66
:100F6000F4FF020EEE5E000EEF5AF3CFE9FFF4CF6E
:100F7000EAFFEECF2BF0EFCF2CF02D6A2BC0E6FF6F
:100F80002CC0E6FF2DC0E6FFD9CFE6FFDACFE6FFA3
:100F900080EC21F0F56E050EE15EF550DF5015E1B5
:100FA0000DC12BF00EC12CF02D6A2BC0E6FF2CC01A
:100FB000E6FF2DC0E6FFD9CFE6FFDACFE6FF80ECF3
:100FC00021F0F56E050EE15EF5502A0EDBCFE6FF4F
:100FD0002B0EDBCFE6FF280EDBCFE6FF290EDBCFA3
:100FE000E6FFD9CFE6FFDACFE6FF99DCF56E060E15
:100FF000E15EF550F3CF2BF0F4CF2CF0D9502C0F4D
:10100000E96EDACFEAFF2B50EE262C50ED2216D2F5
:10101000FD0EDBCFE9FFFE0EDBCFEAFFEF506408E9
:101020003EE1610EE66EE66A2A0EDBCFE6FF2B0E8E
:10103000DBCFE6FF280EDBCFE6FF290EDBCFE6FF96
:10104000010EE66EE66A0A0EE66EE66AD950FB0FFE
:10105000E96EFF0EDA20EA6EEECFF3FFEDCFF4FF7C
:10106000020EEE5E000EEF5AF3CFE9FFF4CFEAFF77
:10107000EECFE6FFEFCFE6FF4EDDF56E0C0EE15E44
:10108000F550F3CF2BF0F4CF2CF0D9502C0FE96EA4
:10109000DACFEAFF2B50EE262C50ED22CFD1FD0EF9
:1010A000DBCFE9FFFE0EDBCFEAFFEF5078083EE131
:1010B000610EE66EE66A2A0EDBCFE6FF2B0EDBCF73
:1010C000E6FF280EDBCFE6FF290EDBCFE6FF000EA2
:1010D000E66EE66A100EE66EE66AD950FB0FE96E20
:1010E000FF0EDA20EA6EEECFF3FFEDCFF4FF020E33
:1010F000EE5E000EEF5AF3CFE9FFF4CFEAFFEECF3A
:10110000E6FFEFCFE6FF07DDF56E0C0EE15EF55072
:10111000F3CF2BF0F4CF2CF0D9502C0FE96EDACFAF
:10112000EAFF2B50EE262C50ED2288D1FD0EDBCFAE
:10113000E9FFFE0EDBCFEAFFEF5058083EE1410E1B
:10114000E66EE66A2A0EDBCFE6FF2B0EDBCFE6FF6C
:10115000280EDBCFE6FF290EDBCFE6FF000EE66EA2
:10116000E66A100EE66EE66AD950FB0FE96EFF0ED6
:10117000DA20EA6EEECFF3FFEDCFF4FF020EEE5E63
:10118000000EEF5AF3CFE9FFF4CFEAFFEECFE6FF10
:10119000EFCFE6FFC0DCF56E0C0EE15EF550F3CF4D
:1011A0002BF0F4CF2CF0D9502C0FE96EDACFEAFFF8
:1011B0002B50EE262C50ED2241D1FD0EDBCFE9FF66
:1011C000FE0EDBCFEAFFEF5075083EE1610EE66EE2
:1011D000E66A2A0EDBCFE6FF2B0EDBCFE6FF280EFA
:1011E000DBCFE6FF290EDBCFE6FF000EE66EE66AF8
:1011F0000A0EE66EE66AD950FB0FE96EFF0EDA20A2
:10120000EA6EEECFF3FFEDCFF4FF020EEE5E000EBE
:10121000EF5AF3CFE9FFF4CFEAFFEECFE6FFEFCFCF
:10122000E6FF79DCF56E0C0EE15EF550F3CF2BF0A6
:10123000F4CF2CF0D9502C0FE96EDACFEAFF2B5007
:10124000EE262C50ED22FAD0FD0EDBCFE9FFFE0E8C
:10125000DBCFEAFFEF506C0801E081D0610EE66E53
:10126000E66A2A0EDBCFE6FF2B0EDBCFE6FF280E69
:10127000DBCFE6FF290EDBCFE6FF000EE66EE66A67
:10128000100EE66EE66AD950FB0FE96EFF0EDA200B
:10129000EA6EEECFF3FFEDCFF4FF020EEE5E000E2E
:1012A000EF5AF3CFE9FFF4CFEAFFEECFE6FFEFCF3F
:1012B000E6FF31DCF56E0C0EE15EF550F3CF2BF05E
:1012C000F4CF2CF0D9502C0FE96EDACFEAFF2B5077
:1012D000EE262C50ED22610EE66EE66A2A0EDBCF7A
:1012E000E6FF2B0EDBCFE6FF280EDBCFE6FF290E55
:1012F000DBCFE6FF000EE66EE66A100EE66EE66AEB
:10130000D950FB0FE96EFF0EDA20EA6EEECFF3FF45
:10131000EDCFF4FF020EEE5E000EEF5AF3CFE9FFC1
:10132000F4CFEAFFEECFE6FFEFCFE6FF8BEC05F060
:10133000F56E0C0EE15EF550F3CF2BF0F4CF2CF0F0
:10134000D9502C0FE96EDACFEAFF2B50EE262C5045
:10135000ED22FD0EDB2AFE0E01E3DB2A6FD0FD0E2F
:10136000DBCFE9FFFE0EDBCFEAFFEF5062083CE186
:10137000610EE66EE66A020EE66EE66A280EDBCFC6
:10138000E6FF290EDBCFE6FF000EE66EE66A020EF0
:10139000E66EE66AD950FB0FE96EFF0EDA20EA6EC0
:1013A000EECFF3FFEDCFF4FF020EEE5E000EEF5A2C
:1013B000F3CFE9FFF4CFEAFFEECFE6FFEFCFE6FF92
:1013C0008BEC05F0F56E0C0EE15EF550F3CF2BF0D3
:1013D000F4CF2CF0D9502C0FE96EDACFEAFF2B5066
:1013E000EE262C50ED222AD029D0FD0EDBCFE9FFCE
:1013F000FE0EDBCFEAFFEF500A0808E1FD0EDBCF5F
:10140000E9FFFE0EDBCFEAFF0D0EEF6EFD0EDBCF28
:10141000E9FFFE0EDBCFEAFFEFCF2BF02C6A2BBEED
:101420002C682BC0E6FF2CC0E6FF82EC04F0E552EE
:10143000E5522C0EDB2A2D0E01E3DB2AFD0EDB2A02
:10144000FE0E01E3DB2ADED42C0EDBCF2BF02D0EBB
:10145000DBCF2CF02BC0F3FF2CC0F4FF00D0D9CF92
:10146000E1FFE552E7CFD9FF1200D9CFE6FFE1CF88
:10147000D9FF020EE126D950FD0F2B6EFF0EDA20A8
:101480002C6E2BC0DEFF2CC0DDFFFD0EDBCF2BF062
:10149000FE0EDBCF2CF02D6A2BC0E6FF2CC0E6FF42
:1014A0002DC0E6FF000EE66E070EE66E80EC21F022
:1014B000F56E050EE15EF550D9CFE9FFDACFEAFF10
:1014C000020EEE5E000EEF5ADECFE6FFDDCFE6FF46
:1014D000000EE66E070EE66E8BDCE552E552E55235
:1014E000E55200D0D9CFE1FFE552E7CFD9FF120096
:1014F000D9CFE6FFE1CFD9FF610EE66EE66A020EB4
:10150000E66EE66A040EE66EE66A010EE66EE66ACE
:101510000A0EE66EE66AFD0EDBCFE6FFFE0EDBCFBF
:10152000E6FF8BEC05F0F56E0C0EE15EF550D95040
:10153000FB0FE96EFF0EDA20EA6EEE50ED1007E0C9
:101540000D0EE66EE66A82EC04F0E552E552E552D5
:10155000E7CFD9FF1200D9CFE6FFE1CFD9FF610E67
:10156000E66EE66A020EE66EE66A030EE66EE66A6E
:10157000010EE66EE66A0A0EE66EE66AFE0EDBCF46
:10158000E6FFE66A8BEC05F0F56E0C0EE15EF550B9
:10159000D950FC0FE96EFF0EDA20EA6EEE50ED1026
:1015A00007E00D0EE66EE66A82EC04F0E552E552C5
:1015B000E552E7CFD9FF1200D9CFE6FFE1CFD9FF3F
:1015C000610EE66EE66A020EE66EE66A100EE66EE2
:1015D000E66A000EE66EE66A020EE66EE66AFD0E4A
:1015E000DBCFE6FFFE0EDBCFE6FF8BEC05F0F56E02
:1015F0000C0EE15EF550D950FB0FE96EFF0EDA20BC
:10160000EA6EEE50ED1007E00D0EE66EE66A82EC33
:1016100004F0E552E552E552E7CFD9FF1200D9CFE9
:10162000E6FFE1CFD9FF610EE66EE66A020EE66ED6
:10163000E66A080EE66EE66A000EE66EE66A020EDE
:10164000E66EE66AFE0EDBCFE6FFE66A8BEC05F09F
:10165000F56E0C0EE15EF550D950FC0FE96EFF0EF1
:10166000DA20EA6EEE50ED1007E00D0EE66EE66A47
:1016700082EC04F0E552E552E552E7CFD9FF1200C3
:10168000D9CFE6FFE1CFD9FF610EE66EE66A000E24
:10169000E66EE66A020EE66EE66A000EE66EE66A40
:1016A000100EE66EE66AFD0EDBCFE6FFFE0EDBCF28
:1016B000E6FF8BEC05F0F56E0C0EE15EF550D950AF
:1016C000FB0FE96EFF0EDA20EA6EEE50ED1007E038
:1016D0000D0EE66EE66A82EC04F0E552E552E55244
:1016E000E7CFD9FF1200D9CFE6FFE1CFD9FF610ED6
:1016F000E66EE66A020EE66EE66AE66EE66A000EE0
:10170000E66EE66A100EE66EE66AFE0EDBCFE6FFD8
:10171000E66A8BEC05F0F56E0C0EE15EF550D950E3
:10172000FC0FE96EFF0EDA20EA6EEE50ED1007E0D6
:101730000D0EE66EE66A82EC04F0E552E552E552E3
:10174000E7CFD9FF1200D9CFE6FFE1CFD9FFFD0ED9
:10175000DBCF2BF0FE0EDBCF2CF02D6A2BC0E6FF8B
:101760002CC0E6FF2DC0E6FF000EE66E070EE66E0B
:1017700080EC21F0F56E050EE15EF5500701CB6BB4
:10178000CC6B000EE66E070EE66E99EC21F0E5528A
:10179000E552F3CF2BF0F4CF2CF007012B50CB5DAB
:1017A0002C50CC5918E2000ECB25E96E070ECC2147
:1017B000EA6EEFCF2BF02C6A2BBE2C682BC0E6FF15
:1017C0002CC0E6FF82EC04F0E552E5520701CB2B7A
:1017D000000ECC23D6D7010EE66EE66AFB0EDBCFF9
:1017E000E6FFFC0EDBCFE6FF4BDFE552E552E552AC
:1017F000E552E552E7CFD9FF1200D9CFE6FFE1CF9E
:10180000D9FFFD0EDBCF2BF0FE0EDBCF2CF02D6AC7
:101810002BC0E6FF2CC0E6FF2DC0E6FF000EE66EF3
:10182000070EE66E80EC21F0F56E050EE15EF550D8
:101830000701CB6BCC6B000EE66E070EE66E99ECE3
:1018400021F0E552E552F3CF2BF0F4CF2CF0070155
:101850002B50CB5D2C50CC5918E2000ECB25E96EF5
:10186000070ECC21EA6EEFCF2BF02C6A2BBE2C6832
:101870002BC0E6FF2CC0E6FF82EC04F0E552E552F7
:101880000701CB2B000ECC23D6D7010EE66EE66AFD
:10189000FB0EDBCFE6FFFC0EDBCFE6FF8DDEE55275
:1018A000E552E552E552E552E7CFD9FF1200D9CF14
:1018B000E6FFE1CFD9FFFD0EDBCF2BF0FE0EDBCF35
:1018C0002CF02D6A2BC0E6FF2CC0E6FF2DC0E6FFF2
:1018D000000EE66E070EE66E80EC21F0F56E050E4A
:1018E000E15EF5500701CB6BCC6B000EE66E070E88
:1018F000E66E99EC21F0E552E552F3CF2BF0F4CFF0
:101900002CF007012B50CB5D2C50CC5918E2000E67
:10191000CB25E96E070ECC21EA6EEFCF2BF02C6AB7
:101920002BBE2C682BC0E6FF2CC0E6FF82EC04F037
:10193000E552E5520701CB2B000ECC23D6D7E5525A
:06194000E7CFD9FF120001
:0A194600D9CFE6FFE1CFD9FFFD0E77
:10195000DBCF2BF0FE0EDBCF2CF02C50070AE8AECD
:1019600002D0D89004D0D00E2B5C070E2C5806E283
:101970000701D00EB36F070EB46F1ED0FD0EDBCF84
:101980002BF0FE0EDBCF2CF02C50080AE8AE02D074
:101990002C3405D0CE0ED8802B54080E2C5406E2E1
:1019A0000701CE0EB36F080EB46F06D0FD0EDBCF6D
:1019B000B3F7FE0EDBCFB4F7B3C72BF0B4C72CF0F0
:1019C000D00E2B5E070E2C5A2B5000D0E552E7CFDD
:1019D000D9FF1200D9CFE6FFE1CFD9FF0E0EE126E5
:1019E000FD0EDBCFE9FFFE0EDBCFEAFFEF502B6EE3
:1019F0002C6AFF0ED8802B56000E2C562BC0DEFF13
:101A00002CC0DDFFFB0EDBCFE9FFFC0EDBCFEAFFD6
:101A1000EF502B6E2C6AFF0ED8802B56000E2C56E2
:101A2000020E2BC0DBFF030E2CC0DBFFF40EF36EA7
:101A3000040EF3CFDBFF010EF36E050EF3CFDBFFD9
:101A4000DECF2BF0DDCF2CF07F0E2B5E000E2C5A5C
:101A5000060E2BC0DBFF070E2CC0DBFFDECF2BF00A
:101A6000DDCF2CF07F0E2B5C000E2C5839E2DECF40
:101A70002BF0DDCF2CF0FF0ED8802B56000E2C560D
:101A80007F0E2B5E000E2C5A060E2BC0DBFF070EBE
:101A90002CC0DBFF500E1D6E1E6A060EDBCF22F03F
:101AA000070EDBCF23F0E3EC17F01BC02BF01CC0BC
:101AB0002CF0640E226E236A2BC01DF02CC01EF089
:101AC000E4EC21F01DC02BF01EC02CF07F0ED8805E
:101AD0002B56000E2C562BC0DEFF2CC0DDFF76D01F
:101AE000500E1D6E1E6A060EDBCF22F0070EDBCFF6
:101AF00023F0E3EC17F0080E1BC0DBFF090E1CC03F
:101B0000DBFF640E2B6E2C6A080EDBCF1DF0090E76
:101B1000DBCF1EF02BC022F02CC023F0E4EC21F030
:101B20000A0E1DC0DBFF0B0E1EC0DBFF7F0EE76E33
:101B30000A0EDBCF2BF00B0EDBCF2CF0E7502B2661
:101B4000000E2C220C0E2BC0DBFF0D0E2CC0DBFF79
:101B50000101085110E0080EDBCFE6FF090EDBCFD4
:101B6000E6FFBE0EE66E400EE66E35EC0AF0E5527C
:101B7000E552E552E5520101085110E00A0EDBCFB3
:101B8000E6FF0B0EDBCFE6FFB40EE66E400EE66E10
:101B900035EC0AF0E552E552E552E55201010851F3
:101BA00010E00C0EDBCFE6FF0D0EDBCFE6FFAA0E3A
:101BB000E66E400EE66E35EC0AF0E552E552E5526F
:101BC000E5520C0EDBCFDEFFDBCFDDFFDECFE6FF25
:101BD000DDCFE6FF05D9E552E552F3CFDEFFF4CFC6
:101BE000DDFF020EDBCF33F0030EDBCF34F0D00E7F
:101BF0003326070E342201010151356E366A355005
:101C0000335C316E36503458326E190E1D6E1E6ABA
:101C100031C022F032C023F0E3EC17F01BC02FF0EC
:101C20001CC030F0640E226E236A2FC01DF030C03D
:101C30001EF0E4EC21F01DC02FF01EC030F00101B9
:101C4000015100012E6B2F242D6F30502E23040ED6
:101C5000DB502D5C2B6E050EDB502E582C6E020EC9
:101C60002BC0DBFF030E2CC0DBFFDECF33F0DDCF5C
:101C700034F0D00E3326070E342201010051356EA8
:101C8000366A3550335C316E36503458326E190E28
:101C90001D6E1E6A31C022F032C023F0E3EC17F053
:101CA0001BC02FF01CC030F0640E226E236A2FC0C0
:101CB0001DF030C01EF0E4EC21F01DC02FF01EC05E
:101CC00030F00101005100012E6B2F242D6F305098
:101CD0002E23040EDB502D5C2B6E050EDB502E5890
:101CE0002C6E2BC0DEFF2CC0DDFF020EDBCF01F11E
:101CF000DFCF00F1D9CFE6FFDACFE6FF21D8E552FA
:101D0000E552D950020FE66EDACFE6FF19D8E55258
:101D1000E552FD0EDBCFE9FFFE0EDBCFEAFFDFCFA2
:101D2000EFFFFB0EDBCFE9FFFC0EDBCFEAFF020E7D
:101D3000DBCFEFFFD9CFE1FFE552E7CFD9FF1200AC
:101D4000D9CFE6FFE1CFD9FF020EE126FD0EDBCFB2
:101D5000E9FFFE0EDBCFEAFFEECFDEFFEDCFDDFFCA
:101D6000DECF2BF0DDCF2CF0770E2B5C000E2C5845
:101D70000DE2DECF2BF0DDCF2CF0080E2B26000E6F
:101D80002C222BC0DEFF2CC0DDFF1AD0D9CFE9FFFB
:101D9000DACFEAFF870ED880EE54000EED540DE244
:101DA000DECF2BF0DDCF2CF0080E2B5E000E2C5A70
:101DB0002BC0DEFF2CC0DDFF03D07F0EDE6EDD6AA0
:101DC000FD0EDBCFE9FFFE0EDBCFEAFFDECFEEFF3D
:101DD000DDCFEDFFD9CFE1FFE552E7CFD9FF12000C
:101DE000D9CFE6FFE1CFD9FF0E0EE126FD0EDBCF06
:101DF0002BF0FE0EDBCF2CF02D6A2E6A7F0E2B5EB1
:101E0000000E2C5A2D5A2E5A2BC0DFFF010E2CC06B
:101E1000DBFF020E2DC0DBFF030E2EC0DBFFD9CF90
:101E2000E9FFDACFEAFFEECF2BF0EECF2CF0EECFCA
:101E30002DF0EFCF2EF02BC01BF02CC01CF02DC0CE
:101E40001DF02EC01EF0DFCF20F0010EDBCF21F001
:101E5000020EDBCF22F0030EDBCF23F0C4EC20F028
:101E6000040E17C0DBFF050E18C0DBFF060E19C0FD
:101E7000DBFF070E1AC0DBFF040EDBCF1BF0050EE5
:101E8000DBCF1CF0060EDBCF1DF0070EDBCF1EF004
:101E90007F0E206E216A226A236A82EC17F0080EF8
:101EA0001BC0DBFF090E1CC0DBFF0A0E1DC0DBFFE1
:101EB0000B0E1EC0DBFF7F0E2D6E2E6A2F6A306A5E
:101EC000D950080FE96EDACFEAFFEE502D26EE501A
:101ED0002E22EE502F22EE5030222DC02BF02EC09D
:101EE0002CF0FF0ED8802B56000E2C560C0E2BC05B
:101EF000DBFF0D0E2CC0DBFFFD0EDBCF2BF0FE0E4B
:101F0000DBCF2CF07F0E2B5C000E2C5811E20C0E58
:101F1000DBCF2BF00D0EDBCF2CF0FF0ED8802B5635
:101F2000000E2C560C0E2BC0DBFF0D0E2CC0DBFF61
:101F30000C0EDBCF2BF00D0EDBCF2CF02BC0F3FF04
:101F40002CC0F4FF00D0D9CFE1FFE552E7CFD9FF95
:101F50001200D9CFE6FFE1CFD9FFFE0EDB5000D053
:101F6000E552E7CFD9FF120081B403D08C8A8D9A55
:101F700002D08C9A8D9A0101085110E08150040B17
:101F800001E0010EE66EE66AA10EE66E400EE66E18
:101F900035EC0AF0E552E552E552E55207017AA127
:101FA00010D0020E0101035D0BE2035105E18C86A6
:101FB0008D96030E036F04D08C968D86020E036FF0
:101FC00007D001010351010803E2020E035D036F14
:101FD00007017AA300D07AA500D07AA700D0865155
:101FE000280805E2320E865D02E20101026B07015C
:101FF00086512B6E2C6A2C50000AE8AE02D02C348D
:1020000005D0FA0ED8802B54000E2C5417E28651BE
:102010002D6E2E6A2E50010AE8AE02D0D89004D060
:10202000040E2D5C010E2E5809E20101020504E0A8
:102030008C828D928C848D94010E026F07018651E3
:102040005A0810E2640E865D0DE2060E0101025D83
:1020500007E08CB203D08C828D9202D08C928D825C
:10206000060E026F070186512B6E2C6A2C50000A57
:10207000E8AE02D02C3405D0BE0ED8802B54000E12
:102080002C541BE286512D6E2E6A2E50000AE8AEAB
:1020900002D0D89004D0D10E2D5C000E2E580DE247
:1020A000020E0101025D07E08CB403D08C848D9494
:1020B00002D08C948D94020E026F070186512B6E14
:1020C0002C6A2C50000AE8AE02D02C3405D08C0EBD
:1020D000D8802B54000E2C5418E286512D6E2E6A97
:1020E0002E50000AE8AE02D0D89004D0A00E2D5C8D
:1020F000000E2E580AE2040E0101025D04E08C92EB
:102100008D828C948D94040E026F070186512B6E84
:102110002C6A2C50000AE8AE02D02C3405D0A00E58
:10212000D8802B54000E2C5414E286512D6E2E6A4A
:102130002E50000AE8AE02D0D89004D0AA0E2D5C32
:10214000000E2E5806E2050E0101025D00E0050EAC
:10215000026F070186512B6E2C6A2C50000AE8AEE4
:1021600002D02C3405D0D20ED8802B54000E2C5423
:1021700014E286512D6E2E6A2E50000AE8AE02D06F
:10218000D89004D0D70E2D5C000E2E5806E2030E18
:102190000101025D00E0030E026F070183512B6E07
:1021A0002C6A2C50000AE8AE02D02C3405D08C0EDC
:1021B000D8802B54000E2C5403E28C908D9002D0CA
:1021C0008C808D907F512B6E2C6A2C50000AE8AECB
:1021D00002D02C3405D08C0ED8802B54000E2C54F9
:1021E00000E287512B6E2C6A2C50000AE8AE02D018
:1021F0002C3405D08C0ED8802B54000E2C5403E2C6
:102200008C888D9802D08C988D988B512B6E2C6A6F
:102210002C50000AE8AE02D02C3405D08C0ED880A9
:102220002B54000E2C5400E27BA100D07BA325D0C0
:102230007BB71FD08C808D9007015C6B010108512A
:1022400017E08F0EE66EACEC1EF0E552F3CF2BF0EC
:10225000F4CF2CF02BC0E6FF2CC0E6FF950EE66E07
:10226000400EE66E35EC0AF0E552E552E552E552D5
:1022700003D007017F0E5C6F05D07BB703D0070149
:102280007F0E5C6F07017BA500D07BA726D07BB3B8
:1022900020D08C808D900701FE0E5C6F01010851EB
:1022A00017E08F0EE66EACEC1EF0E552F3CF2BF08C
:1022B000F4CF2CF02BC0E6FF2CC0E6FF950EE66EA7
:1022C000400EE66E35EC0AF0E552E552E552E55275
:1022D00003D007017F0E5C6F05D07BB303D00701ED
:1022E0007F0E5C6F12008C808D908C928D828C940E
:1022F0008D948C968D868C988D988C9A8D9A1200E0
:10230000D9CFE6FFE1CFD9FF060EE126E6C7DEFF13
:10231000E7C7DDFFECC722F0EDC723F0DECF1DF0ED
:10232000DDCF1EF0E4EC21F0020E1DC0DBFF030E3A
:102330001EC0DBFFEAC722F0EBC723F0DECF1DF0A3
:10234000DDCF1EF0E4EC21F0040E1DC0DBFF050E16
:102350001EC0DBFF0701E66BE76BE86BE96B000E65
:102360000701EA6FEB6B0701EC6FED6BD9CFE1FF73
:10237000E552E7CFD9FF1200D9CFE6FFE1CFD9FF71
:10238000020EE126720EDE6E400EDD6EF00EE66E7F
:10239000A1EC1EF0E552938A9388938693849982E8
:1023A0009980938E938C9A849A82998699849A8A3A
:1023B0009A8894809A869A8E9A9C919C07017F0EA7
:1023C000636F63C762F763C761F763C760F763C78B
:1023D0005FF763C75EF763C75DF763C75CF76B6F53
:1023E0006BC76AF76BC769F76BC768F76BC767F7A7
:1023F0006BC766F76BC765F76BC764F7000EE66ED1
:10240000E66AE66EE66AE66EE66AE66EE66ADAECCA
:102410001CF0F56E080EE15EF55065DF93EC1EF0E2
:1024200091EC1FF0580EE66E070EE66E90EC1CF075
:10243000E552E552DECFE6FFDDCFE6FF6E0EE66E3B
:10244000400EE66E35EC0AF0E552E552E552E552F3
:10245000F5EC1BF0D9CFE1FFE552E7CFD9FF120031
:10246000780EE66E070EE66E56EC1CF0E552E5526D
:10247000070179BD02D0ADEC1FF00101042B000E65
:1024800005230623072304C12BF005C12CF006C148
:102490002DF007C12EF00F0E2B162C6A2D6A2E6A16
:1024A0002B502C102D102E100BE1010E086F600E1A
:1024B000E66E400EE66E35EC0AF0E552E55201D0CC
:1024C000086B0101085117E0870EE66EACEC1EF0B8
:1024D000E552F3CF2BF0F4CF2CF02BC0E6FF2CC04D
:1024E000E6FF4B0EE66E400EE66E35EC0AF0E55266
:1024F000E552E552E55243D837DD04C12BF005C162
:102500002CF006C12DF007C12EF0030E206E216ABB
:10251000226A236A2BC01BF02CC01CF02DC01DF0BA
:102520002EC01EF0A7EC21F017C02BF018C02CF025
:1025300019C02DF01AC02EF02B502C102D102E107B
:1025400007E10101045105110611071101E1D8DE6F
:102550006BC7E6FF6AC7E6FF69C7E6FF68C7E6FF25
:1025600015EC1FF0E552E552E552E552580EE66EC5
:10257000070EE66E90EC1CF0E552E55212007E0E5E
:10258000E66E070EE66E820EE66E070EE66EEAEC6B
:102590000CF0E552E552E552E5520101085111E017
:1025A00007017E51E66EE66A8251E66EE66A3C0EEF
:1025B000E66E400EE66E35EC0AF0F56E060EE15E54
:1025C000F550070182512E6AD00F2D6E070E2E2274
:1025D0007E5100012D242B6F000E2E202C6F7F0EBC
:1025E0002B5E000E2C5A2BC0E6FF2CC0E6FFA3EC9E
:1025F0000CF0E552E552E66EACDCE55207016A6F7D
:102600006B6F070182512E6AD00F2D6E070E2E229E
:102610007E512F6E306A2F502D5C2B6E30502E580D
:102620002C6E7F0E2B26000E2C222BC0E6FF2CC01A
:10263000E6FFA3EC0CF0E552E552E66E8ADCE552CB
:102640000701686F696F69512B6E2C6AFF0ED88085
:102650002B56000E2C562BC069F72BC068F70701CC
:1026600079BBBED07E5D07E37E51380804E30701E5
:10267000589158833AD07D0E7E5D13E37E512B6EC8
:102680002C6A2C50000AE8AE02D02C3405D0810E02
:10269000D8802B54000E2C5404E307015881588332
:1026A00024D07E512B6E2C6A2C50000AE8AE02D04A
:1026B000D89004D0D80E2B5C000E2C5813E37E511A
:1026C0002D6E2E6A2E50000AE8AE02D02E3405D0B0
:1026D000FF0ED8802D54000E2E5404E307015881BC
:1026E000589303D0070158915893000E07017F5D5E
:1026F00007E37F51380804E30701589558873AD01B
:102700007D0E7F5D13E37F512B6E2C6A2C50000AE7
:10271000E8AE02D02C3405D0810ED8802B54000EA8
:102720002C5404E307015885588724D07F512B6E21
:102730002C6A2C50000AE8AE02D0D89004D0D80EF3
:102740002B5C000E2C5813E37F512D6E2E6A2E50F9
:10275000000AE8AE02D02E3405D0FF0ED8802D54EA
:10276000000E2E5404E307015885589703D0070143
:1027700058955897589B8C50010B01E0588B5899ED
:102780008D50010B01E05889589F8C50020B01E0DD
:10279000588F589D8D50020B01E0588D8C50080BBE
:1027A00001E0010E010BF36EFE0E5915F310596F87
:1027B0008C50080B01E0010E010BF36EF346FD0E89
:1027C0005915F310596F8C50080B01E0010E010BE5
:1027D000F36EF346F346FB0E5915F310596F51D0C3
:1027E0008FC71EF042EC14F01CC033F01DC034F053
:1027F0001EC035F01FC036F0710E216E3D0E226EE8
:102800007A0E236E820E246E33C01CF034C01DF08D
:1028100035C01EF036C01FF0FEEC16F01CC02FF0C5
:102820001DC030F01EC031F01FC032F0216A226A94
:10283000236A870E246E2FC01CF030C01DF031C0FB
:102840001EF032C01FF077EC14F01CC02BF01DC03E
:102850002CF01EC02DF01FC02EF0216A226A200E1F
:10286000236E820E246E2BC01CF02CC01DF02DC0D8
:102870001EF02EC01FF0FEEC16F001EC18F01EC08A
:0428800058F71200F3
:0C288400860E1F6E256A1D6A1C6A1B6A06
:1028900056EF14F0860E1F6E1EC025F01D6A1C6ACE
:1028A0001B6AE86A1EAE56EF14F01E6C2A6AE86ACC
:1028B0001E64AAEF18F0F00E1E14E86662EF14F022
:1028C0001E3A2A84D8901EBE72EF14F01E362A2AB1
:1028D0001EBE72EF14F01E362A2A1EBE72EF14F0CE
:1028E0001E362A2A2A501F5E25AE1E9E000C276A1D
:1028F000E86A2464A8EF18F01F64AAEF18F01E50CD
:102900002318256E1E8E238E223423342A36D89027
:10291000E8362A36FC0FF66E2B0EF76E2A50010BA6
:10292000F722F86A000EF8220A00F5CF19F00A0023
:10293000F5CF2AF00800F5CF29F01950295C196E5F
:10294000D89021341902F4CFF7FF22341902F3CFC3
:10295000E8FFF726D8B0F42A286AF750285EF4502A
:10296000295AE86A2A5A1EC019F01DC0F7FF1CC078
:10297000F6FF1C502802F4CF1AF01D502902F4CFA4
:102980001CF0F3CF1BF02802F3501A26F4501B2240
:10299000E86A1C22F6502902F3501A26F4501B2232
:1029A000E86A1C221E502802F3501B26F4501C22F9
:1029B0001E5029021D6AE86A1D22F3501C26F4509D
:1029C0001D22F6502A02F3501B26F4501C221E6AC8
:1029D000E86A1D221E22F7502A02F3501C26F450EA
:1029E0001D22E86A1E2219502A02F3501D26F450B7
:1029F0001E221EBE01EF15F01B361C361D361E367C
:102A0000270623C019F022C0F7FF21C0F6FF21508E
:102A10002802F4CF1AF022502902F4CF21F0F3CF8C
:102A200020F02802F3501A26F4502022E86A2122CE
:102A3000F6502902F3501A26F4502022E86A212287
:102A400023502802F3502026F4502122235029023B
:102A5000226AE86A2222F3502126F4502222F650FC
:102A60002A02F3502026F4502122236AE86A222207
:102A70002322F7502A02F3502126F4502222E86A3A
:102A8000232219502A02F3502226F450232223AE87
:102A900023BC51EF15F01A36203621362236233664
:102AA000272A206C211E221E231EE86A21222222B0
:102AB00023221EC02AF01DC029F01CC028F01BC014
:102AC000F6FF1C502102F4CF1AF01D502002F450E2
:102AD0001A261D5021021B6AE86A1B22F3501A268F
:102AE000F4501B22F6502202F4501A261C6AE86A9F
:102AF0001B221C2228502202F3501A26F4501B22BB
:102B0000E86A1C2229502202F3501B26F4501C2292
:102B10001E502102F3501B26F4501C221E5022028C
:102B20001D6AE86A1D22F3501C26F4501D222A500B
:102B30002002F3501A26F4501B22E86A1C221D22A0
:102B40002A502302F4CF1EF0F3501D26E86A1E22FD
:102B5000F6502302F3501A26F4501B22E86A1C2276
:102B60001D221E2228502302F3501B26F4501C2243
:102B7000E86A1D221E2229502302F3501C26F4501D
:102B80001D22E86A1E221EBED3EF15F01B361C362E
:102B90001D361E3627061EBED3EF15F01B361C361B
:102BA0001D361E36270624501F5E800ED8A0E0EF8B
:102BB00015F027241F26D8B093EF18F0E5EF15F095
:102BC00027241F26D8A09DEF18F026BC1BAEFAEFD5
:102BD00015F0D880800E1B641C30E86A1C221D2270
:102BE0001E22D8A0FAEF15F01E321D321C321F4AE9
:102BF00093EF18F025AE1E9E000CFFFF01FF04FEB0
:102C000009FD10FC19FB23FA30F93EF84EF760F687
:102C100074F58AF4A1F3BAF2D5F1F1F00FF02FEFC9
:102C200050EE73ED98ECBEEBE5EA0FEA39E966E8A1
:102C300093E7C3E6F3E526E559E48EE3C5E2FCE15C
:102C400036E170E0ACDFE9DE28DE68DDA9DCEBDB35
:102C50002FDB74DABAD902D94AD894D7DFD62CD66A
:102C600079D5C7D417D468D3BAD20DD261D1B7D031
:102C70000DD064CFBDCE17CE71CDCDCC29CC87CBB6
:102C8000E6CA46CAA6C908C96AC8CEC733C798C625
:102C9000FEC566C5CEC437C4A1C30CC378C2E5C1A6
:102CA00052C1C1C030C0A0BF11BF83BEF6BD69BD57
:102CB000DDBC52BCC8BB3FBBB6BA2FBAA8B921B95C
:102CC0009CB817B893B710B78DB60BB68AB50AB5CE
:102CD0008AB40BB48DB30FB392B216B29BB120B1CC
:102CE000A6B02CB0B3AF3BAFC3AE4CAED6AD60AD6B
:102CF000EBAC77AC03AC8FAB1DABABAA39AAC8A9C0
:102D000058A9E8A879A80BA89CA72FA7C2A656A6E1
:102D1000EAA57FA514A5AAA440A4D7A36EA306A3E1
:102D20009FA238A2D1A16BA106A1A1A03CA0D89FCF
:102D3000749F119FAF9E4D9EEB9D8A9D299DC99CBE
:102D4000699C0A9CAB9B4C9BEE9A919A349AD799BA
:102D50007B991F99C49869980E98B4975A970197D0
:102D6000A8965096F895A0954995F2949C9446940F
:102D7000F0939B934693F1929D924992F691A39181
:102D80005091FE90AC905A900990B88F688F178F31
:102D9000C88E788E298EDA8D8C8D3E8DF08CA38C2A
:102DA000568C098CBC8B708B248BD98A8E8A438A73
:102DB000F889AE8964891B89D28889884088F88718
:102DC000AF8768872087D98692864C860586BF851F
:102DD00079853485EF84AA8465842184DD83998391
:102DE00056831283CF828D824A820882C681858172
:102DF00043810281C1808180408001801B6AE86A32
:102E000024621F64AAEF18F01E502318256E245068
:102E10001F267E0ED8A013EF17F01F5ED8B093EFD9
:102E200018F017EF17F01F5ED8A09DEF18F01E8E58
:102E3000238E1EC02AF01DC029F01CC028F01C5093
:102E40002102F4CF1AF01D502202F4CF1CF0F3CF70
:102E50001BF02102F3501A26F4501B22E86A1C22B0
:102E600028502202F3501A26F4501B22E86A1C2232
:102E70001E502102F3501B26F4501C221E50220229
:102E80001D6AE86A1D22F3501C26F4501D222850AA
:102E90002302F3501B26F4501C221E6AE86A1D22EE
:102EA0001E2229502302F3501C26F4501D22E86AEA
:102EB0001E222A502302F3501D26F4501E221EBE4D
:102EC0006AEF17F01B361C361D361E361F06D8B4A7
:102ED0009DEF18F026BC1BAE7FEF17F0D880800E58
:102EE0001B641C30E86A1C221D221E22D8A07FEF22
:102EF00017F01E321D321C321F4A93EF18F025AE18
:102F00001E9E000C256AE86A23AE8FEF17F0206C36
:102F1000211E221E231E212222222322251E1EAE16
:102F20009AEF17F01B6C1C1E1D1E1E1E1C221D225C
:102F30001E22251EA7EC21F01EBEB1EF17F025AE14
:102F4000000C1B6C1C1E1D1E1E1EE86A1C221D226E
:102F50001E22176C181E191E1A1E182219221A2258
:102F6000000C25BEA1EF17F02688FF0C1EC02AF02A
:102F70001DC029F01D502202F4CF1CF0F3CF1BF02E
:102F80001E502302F4CF1EF0F3CF1DF02202F350A7
:102F90001C26F4501D22E86A1E2229502302F350F9
:102FA0001C26F4501D22E86A1E2223AEDCEF17F027
:102FB00029501D5E2A501E5A2AAE000C22501D5E5A
:102FC00023501E5A000C1DC029F01D502202F4CFC0
:102FD0001CF0F3CF1BF01E502302F4CF1EF0F3CFF2
:102FE0001DF02202F3501C26F4501D22E86A1E2216
:102FF00029502302F3501C26F4501D22E86A1E2299
:10300000000CE86A1F64000C1EC025F01E8E860EA0
:103010001F5CE8AE8AEF18F0E86C1F6E070E1F64A5
:1030200032EF18F01F5E1EC01DF01E6A1F4E52EFD9
:1030300018F0030E1F6424EF18F01F5E1D380F0BED
:103040001D6E1F4E52EF18F0D8901D321F4E52EFDA
:1030500018F0D8901D321F4E52EF18F0D8901D3244
:1030600052EF18F0030E1F6443EF18F01F5E1D3877
:103070000F0B1D6E1E38F00B1D261E380F0B1E6E1B
:103080001F4E52EF18F0D8901E321D321F4E52EFD5
:1030900018F0D8901E321D321F4E52EF18F0D89003
:1030A0001E321D3226BC1DAE5FEF18F0D880800E98
:1030B0001D641E30E86A1E221EBE8AEF18F025AE7F
:1030C000000C1E6C000C268026AEFF0C1E6A25AE7E
:1030D0001E681EC01DF01EC01CF01EC01BF0253651
:1030E0001E32FF0C268026AEFF0C1E6A25AE1E681F
:1030F0001EC01DF01EC01CF025361E32FF0C26809F
:1031000026AEFF0C1E6A25AE1E681EC01DF02536B9
:103110001E32FF0C268026AEFF0C1E6A25AE1E68EE
:1031200025361E32FF0C268226AEFF0C1F681E6855
:103130001D681C6825361E32FF0C268426AEFF0C47
:10314000010E1F6E1E6A1D6A1C6A25361E32FF0C98
:103150002686FF0C1E6A1D6A1C6A1B6A1F6A000C09
:0631600025AE1E9E000CCE
:0A316600D8CFE4FFE0CFE4FFE46EF1
:10317000DACFE4FFE2CFDAFFE9CFE4FFEACFE4FF02
:10318000E652D9CFE6FFE1CFD9FF020EE126F2A445
:1031900002D0F2945BD09EA004D09E90BEEC1FF0B3
:1031A00055D09EA204D09E92B7EC1FF04FD0F0A253
:1031B00002D0F0924BD0F0A402D0F09447D0F2A00D
:1031C00045D08150DF6EF290DF500701F319E76EB2
:1031D000010EE7CFDBFFDFCFF3F7DBA810D0F20E55
:1031E000E66E070EE66E100EDF1402E0010E01D04F
:1031F000000EE66EC3EC1FF0E552E552E552010EFB
:10320000DBAA0AD0200EDF1402E0010E01D0000E6E
:10321000E66EE9EC1FF0E552010EDBAC0AD0400E81
:10322000DF1402E0010E01D0000EE66EF7EC1FF095
:10323000E552010EDBAE0AD0800EDF1402E0010E73
:1032400001D0000EE66E05EC20F0E552D9CFE1FF8B
:10325000E552E7CFD9FFE552E5CFEAFFE5CFE9FF39
:10326000E5CFDAFFE550E5CFE0FFE5CFD8FF10006E
:10327000D9CFE6FFE1CFD9FF130EE126DF6A0F0EAB
:10328000DB6A100EDB6A7F0EF36E110EF3CFDBFFED
:103290007F0EF36E120EF3CFDBFF070EDF5C11E241
:1032A000D950010F2B6EDACF2CF0DF50020D2B50CE
:1032B000F324E96E2C50F420EA6EEE6AED6ADF2A00
:1032C000ECD7DF6A070179ADEED1070198A1EAD109
:1032D000780EE66E070EE66E56EC1CF0E552E552EF
:1032E0000701F25151E0D9500F0FE96EDACFEAFF32
:1032F000EE50ED1008E1020EDF6E0F0EDB2A100E0D
:1033000001E3DB2A40D00F0EDBCF2BF0100EDBCF1A
:103310002CF0140E2B5C000E2C5808E2030EDF6E0E
:103320000F0EDB2A100E01E3DB2A2DD00F0EDBCFB0
:103330002BF0100EDBCF2CF0640E2B5C000E2C5803
:1033400008E2040EDF6E0F0EDB2A100E01E3DB2A0B
:103350001AD00F0EDBCF2BF0100EDBCF2CF04A0E65
:103360002B5C010E2C5808E2050EDF6E0F0EDB2AD7
:10337000100E01E3DB2A07D0060EDF6E0F0EDB2AEC
:10338000100E01E3DB2A12D0870EE66EACEC1EF0C5
:10339000E552F3CF2BF0F4CF2CF0C80E2B5C000ECF
:1033A0002C5802E2DF6A02D0010EDF6E0F0EDB50F6
:1033B0000F0B0DE1DFCFE6FFE66A310EE66E400E41
:1033C000E66E35EC0AF0E552E552E552E5520F0E95
:1033D000DB500F0B10E10F0EDBCFE6FF100EDBCF43
:1033E000E6FF250EE66E400EE66E35EC0AF0E5527D
:1033F000E552E552E552DF50060A68E0030A5BE059
:10340000010A4EE0070A41E0010A32E0030A27E020
:10341000010A01E064D00F0EDB500F0B17E1870E9D
:10342000E66EACEC1EF0E552F3CF2BF0F4CF2CF0AF
:103430002BC0E6FF2CC0E6FF1A0EE66E400EE66ECD
:1034400035EC0AF0E552E552E552E5520701AA0EC5
:103450006B6F6BC76AF7696969C768F740D0070186
:10346000C80E6B6F6BC76AF7696F69C768F737D0AB
:10347000ADEC1FF007017F0E6B6F6BC76AF7696FCA
:1034800069C768F78C888D982AD007017F0E6B6F0B
:103490006BC76AF7696F69C768F78C888D981FD00A
:1034A00007017F0E6B6F6BC76AF7696F69C768F7B3
:1034B0008C988D9814D08C988D980701C80E6B6FDE
:1034C0006BC76AF7696F69C768F709D007017F0E94
:1034D0006B6F6BC76AF7696F69C768F700D0070140
:1034E0006A51326AD00F316E070E3222110EDB5054
:1034F000336E346A3350315C2F6E34503258306E34
:10350000190E1D6E1E6A2FC022F030C023F0E3ECAE
:1035100017F01BC02DF01CC02EF0640E226E236A23
:103520002DC01DF02EC01EF0E4EC21F01DC02DF0CA
:103530001EC02EF0110EDB5000012C6B2D242B6FC2
:103540002E502C23F40E2B5E010E2C5A2BC06BF741
:103550002BC06AF707016851326AD00F316E070E2F
:103560003222120EDB50336E346A3350315C2F6ED0
:1035700034503258306E190E1D6E1E6A2FC022F064
:1035800030C023F0E3EC17F01BC02DF01CC02EF070
:10359000640E226E236A2DC01DF02EC01EF0E4ECD6
:1035A00021F01DC02DF01EC02EF0120EDB500001C8
:1035B0002C6B2D242B6F2E502C23F40E2B5E010E22
:1035C0002C5A2BC069F72BC068F7110E6AC7DBFFB6
:1035D000120E68C7DBFFDF5023E0D950010F2B6EBE
:1035E000DACF2CF0DF50020D2B50F324E96E2C5073
:1035F000F420EA6EEE50ED1013E1D950010F2B6E5E
:10360000DACF2CF0DF50020D2B50F324E96E2C5052
:10361000F420EA6E0F0EDBCFEEFF100EDBCFEDFFD6
:1036200081B403D08C8A8D9A02D08C9A8D9A7F0EA9
:103630000701685D320DF3CF2BF0640E2C6E2CC0A9
:1036400023F02BC01EF02EEC22F01E50070168253F
:10365000696F686F7F0E6A5D320DF3CF2BF0640ED9
:103660002C6E2CC023F02BC01EF02EEC22F01E502E
:1036700007016A256B6F6A6F6BC7E6FF6AC7E6FFD3
:1036800069C7E6FF68C7E6FF15EC1FF0E552E55293
:10369000E552E552580EE66E070EE66E90EC1CF011
:1036A000E552E5520FD6D9CFE1FFE552E7CFD9FF7A
:0436B00012001200F2
:0C36B400DACFE4FFE2CFDAFFE9CFE4FF59
:1036C000EACFE4FFE652F2A202D094D802D09EB62E
:1036D000C0D8E552E5CFEAFFE5CFE9FFE5CFDAFF55
:1036E0001100E66A010EE66E050EE66EFCEC20F0B7
:1036F000E552E552E5521200070EB46E000E886ED8
:10370000876E866E856E846E836E826E816E806E2D
:10371000916E906E8F6E8E6E8D6E8C6E8B6E8A6ECD
:10372000896E2F0E926E93689C0E946E956A966ABF
:103730009768986A0E0E9A6E9968C16AF19EB09861
:103740009C8EA26A9F6AA06A9D6AA36AA56AC9DF65
:103750009F86D08E9E969D869382F06AF288F09E18
:10376000F098F192F09AF16AF28CF28E1200D9CFB1
:10377000E6FFE1CFD9FFE652BFDF0701989798999E
:1037800007015C0ED86F070ED96FDF6A100EDF5C81
:103790000AE2DF50EA6AD825E96ED951EA227F0EA3
:1037A000EF6EDF2AF3D70701756B010E766FC20E3D
:1037B000776F0701988507017A6B7B6B0701586B60
:1037C0005A6B5B6B010ED56E320ED76ECF0ED66E76
:1037D000D59E580EE66E070EE66EA2D8E552E5526B
:1037E000E552E552E7CFD9FF120082828088949299
:1037F00092981200F2920701200ED46F9F86070163
:1038000098A906D00701E00ED16F000ED26F05D047
:103810000701C00ED16F000ED26F070198A19879F1
:1038200098A706D00701800ECF6F000ED06F05D08D
:103830000701A00ECF6F000ED06FC9CFD5F7CFC74D
:10384000E9FFD0C7EAFFCF2B000ED023EF50C96E9F
:1038500012009E96C9CFD5F70701D451000824E283
:10386000D1C7E9FFD2C7EAFFD12B000ED223D5C7BB
:10387000EFFFCFC7E9FFD0C7EAFFCF2BD023EFCFB1
:10388000D5F7D5C7C9FFD407D4510DE107019881F9
:103890000701020E766F07019893320ED76ECF0E96
:1038A000D66EF294D58E01D0C96A1200D9CFE6FF48
:1038B000E1CFD9FF070198A12FD098A906D0070121
:1038C000C00ECD6F000ECE6F05D00701E00ECD6F9C
:1038D000000ECE6FFD0EDBCFD6F7FE0EDBCFD7F797
:1038E000D36B200ED35D14E2D351EA6ACD25E96E85
:1038F000CE51EA22EF50E66ED6C7E9FFD7C7EAFFFE
:10390000D62B000ED723E552E750EF6ED32BE9D725
:103910009D96070198919D86E552E7CFD9FF120049
:10392000D9CFE6FFE1CFD9FF070198B33AD0020E15
:103930000701765D01E180D807016D9F070198A717
:1039400006D00701A00ECD6F000ECE6F05D0070187
:10395000800ECD6F000ECE6FFD0EDBCFD8F7FE0EC2
:10396000DBCFD9F7D36B200ED35D14E2D8C7E9FFC4
:10397000D9C7EAFFD82B000ED923EF50E66ED351FA
:10398000EA6ACD25E96ECE51EA22E552E750EF6EA4
:10399000D32BE9D79D960701987798839D860701D9
:1039A000752BE552E7CFD9FF12009D96070198913C
:1039B0009D861200D9CFE6FFE1CFD9FF0001166B3B
:1039C000D950FD0FE96EFF0EDA20EA6E010EEE18F7
:1039D00001E1ED5002E1168101D0BA6AD950FB0F26
:1039E000E96EFF0EDA20EA6E010EEE1801E1ED50ED
:1039F00002E1168301D0B76AD950F90FE96EFF0EC4
:103A0000DA20EA6E010EEE1801E1ED5002E11685B2
:103A100001D0736AD950F70FE96EFF0EDA20EA6E13
:103A2000010EEE1801E1ED5002E1168701D0706A37
:103A3000E552E7CFD9FF12000701746B6F6BC6AE7A
:103A400004D0C69E010E6F6F0ED0F150800B06E0C1
:103A5000F250080B03E0020E6F6F05D0F0A603D002
:103A6000909E030E6F6F250EC614250805E0010E0B
:103A7000746FC6CF6FF768D0C55005E0020E746F43
:103A8000C5CF6FF761D0D0BE05D0030E746FD0CF15
:103A90006FF75AD09DB605D0040E746F9DCF6FF7A7
:103AA00053D09C5005E0050E746F9CCF6FF74CD03F
:103AB000080E9F5C05E0060E746F9FCF6FF744D031
:103AC000A25005E0070E746FA2CF6FF73DD0A5504E
:103AD00005E0080E746FA5CF6FF736D0500EF214C4
:103AE000500805E0090E746FF2CF6FF72DD0470E26
:103AF000F11405E00A0E746FF1CF6FF725D0C00EF8
:103B0000F01405E00B0E746FF0CF6FF71DD092A884
:103B100005D00C0E746F92CF6FF716D093B005D00E
:103B20000D0E746F93CF6FF70FD03E0E94141C08D8
:103B300005E00E0E746F94CF6FF706D097BE04D0D9
:0A3B40000F0E746F97CF6FF712009D
:063B4A009EB802D0FDD779
:103B5000FCD71200D9CFE6FFE1CFD9FFFE0EDBCFB5
:103B6000E6FFFEEC1EF0E5520D0EAD6EEEDFE55207
:103B7000E7CFD9FF1200D9CFE6FFE1CFD9FF070188
:103B8000D950FD0F506FFF0EDA20516F010EEA6A17
:103B90005025E96E5151EA22EF50E66EFEEC1EF020
:103BA000E55250C7E9FF51C7EAFFEF50E66EFEEC61
:103BB0001EF0E5520D0EAD6EC8DFE552E7CFD9FF1E
:103BC0001200D9CFE6FFE1CFD9FFFD0EDBCF2BF0FE
:103BD000FE0EDBCF2CF02D6A2BC0E6FF2CC0E6FFDB
:103BE0002DC0E6FF000EE66E070EE66E80EC21F0BB
:103BF000F56E050EE15EF550000EE66E070EE66E00
:103C000099EC21F0E552E552F3CF54F7F4CF55F794
:103C100007015551000AE8AE02D0553505D0500EC7
:103C2000D8805455000E555503E2500E546F556B15
:103C3000566B576B57515519E8AE02D0553504D025
:103C40005451565D555157590EE2000E5625E96EF6
:103C5000070E5721EA6EEF50AD6E77DF0701562B46
:103C6000000E5723E7D7E552E7CFD9FF1200D9CF8F
:103C7000E6FFE1CFD9FF0701526B1A0E525D11E248
:103C8000FD0EDBCFE9FFDB2AFE0EDBCFEAFF01E30F
:103C9000DB2AEF50E66EFEEC1EF0E5520701522BD8
:103CA000ECD70D0EAD6E51DFE552E7CFD9FF120014
:103CB0000701780E506F070E516F0701785101010F
:103CC000096F0A6B0B51091902E10C510A1918E02E
:103CD000070198A502D098950FD00BC1E6FFFEEC26
:103CE0001EF0E55209C1E6FFFEEC1EF0E5520D0E96
:103CF000AD6E2BDF0701989509C10BF10AC10CF1DC
:103D000001010B2B000E0C230C51000AE8AE02D06F
:103D10000C3505D0FF0ED8800B55000E0C5502E275
:103D20000B6B0C6B1200150EE66E3C0EE66E29EC6A
:103D300021F0E552E552320EE66E1EEC22F0E5521D
:103D40001200D9CFE6FFE1CFD9FFFE0EDBCF53F74C
:103D5000E552E7CFD9FF1200D9CFE6FFE1CFD9FF77
:103D6000020EE126FE0EDB507F0BFE0BFD0BE66E16
:103D700053C7E6FF55EC21F0E552E5520A0EE66E18
:103D80003CEC22F0E5524AEC22F007EC04F000098A
:103D900001E0FBD7CBEC21F047EC22F0C4502D6EB4
:103DA0002DC02EF02D6AC35000012D102B6F2EC098
:103DB0002CF02BC0DEFF2CC0DDFFDECF2BF0DDCFE3
:103DC0002CF02BC0F3FF2CC0F4FF00D0D9CFE1FFC3
:083DD000E552E7CFD9FF120014
:083DD800000EE96EEA6E040022
:103DE000F9EC1EF0EA2A080EEA5CD8A4EFEF1EF008
:103DF0001200EF6AE93EF9EF1EF01200FF0EE3CF6A
:103E000009F009380F0B060FD8B2070F2A0FAD6E55
:103E1000A5EC1DF009500F0B060FD8B2070F2A0FA3
:103E2000AD6EA5EC1DF0000C1200F2B4120016509D
:103E30000F0AD8B41200FF0EE3CF0AF0FE0EE3CF54
:103E40000BF0FD0EE3CF0CF0FC0EE3CF0DF00A2AD1
:103E500016A08D8E0B2A16A28F800C2A16A48F8690
:103E60000D2A16A68F880E6A0F6A106A116A68EC0E
:103E70001FF00A2E3EEF1FF016A08D9E0B2E43EF73
:103E80001FF016A28F900C2E48EF1FF016A48F96ED
:103E900000000D2E4EEF1FF016A68F9800000E2E7C
:103EA00053EF1FF0129000000F2E58EF1FF01292E8
:103EB0000000102E5DEF1FF012940000112E62EF33
:103EC0001FF012968AEC1FF0133E39EF1FF012001C
:103ED000D70E136E000000000000000080EC1FF001
:103EE000132E6AEF1FF0D70E136E000000000000C3
:103EF000000080EC1FF0132E75EF1FF00000120081
:103F0000000083EF1FF00000000000000000000030
:103F100000001200030E146E0000142E8CEF1FF030
:023F200012008D
:0E3F22009F909D80CD8ECD98CD8ACD96CD926C
:103F3000CD809388938A938C938EF190F286A1EF33
:103F40001FF0CC6ACB68CA96CA98CA9ACA9CCA8023
:103F5000CA829D829F92CA841200CD901200CD9099
:103F6000CA94F2961200CD80CA84F286120007012C
:103F7000E62B000EE723E823E92312000701E42BD8
:103F8000000EE5231200D9CFE6FFE1CFD9FF070EDF
:103F9000E126FC0EDBCFE9FFFD0EDBCFEAFFEF50A1
:103FA00011E1CF0EE66E400EE66E35EC0AF0E552FA
:103FB000E552FC0EDBCFE9FFFD0EDBCFEAFF010E81
:103FC000EF6E01D0CADFD9CFE1FFE552E7CFD9FFCD
:103FD0001200D9CFE6FFE1CFD9FF81AA04D00701B3
:103FE000EA2B000EEB23E552E7CFD9FF1200D9CF21
:103FF000E6FFE1CFD9FF81AC04D00701EC2B000E26
:10400000ED23E552E7CFD9FF1200D9CFE6FFE1CF8C
:0A401000D9FFE552E7CFD9FF1200F7
:06401A0044697374203DAF
:104020002025640A00436C6F636B203D2025640AE1
:10403000005461736B203D2025640A00586F3A20BC
:10404000256409596F3A2025640A00446973742075
:1040500066726F6D2066726F6E743A2025640A0076
:104060000A2D2D2D2D2D2D2D2D2D2D2D0A002573B5
:104070000A0049464920557365722050726F636586
:1040800073736F7220496E697469616C697A6564D3
:10409000202E2E2E0043757272656E743A202564B0
:1040A00000646967313A20256400696E74333A20F0
:1040B00025640A00696E74323A2025640A00696E2C
:1040C00074313A2025640A00286E756C6C2900480A
:1040D00065616420546F7761726473207468652031
:0A40E0004C696768742E2E2E0A004A
:0640EA001E0EF66E080E2A
:1040F000F76E000EF86E07010900F550DF6F09003A
:10410000F550E06F03E1DF6701D03DD00900F550C5
:10411000DA6F0900F550DB6F0900F550DC6F09001C
:104120000900F550E96E0900F550EA6E0900090032
:104130000900F550DD6F0900F550DE6F0900090038
:10414000F6CFE1F7F7CFE2F7F8CFE3F7DAC7F6FFFC
:10415000DBC7F7FFDCC7F8FF0701DD5302E1DE53E1
:1041600007E00900F550EE6EDD07F8E2DE07F9D74B
:10417000E1C7F6FFE2C7F7FFE3C7F8FF0701DF0774
:08418000000EE05BBFD7120046
:084188001B502002F3CF17F0D9
:10419000F4CF18F02102F3501826000EF420196E07
:1041A0001B502202F3501926000EF4201A6E1B50E9
:1041B0002302F3501A261C502002F3501826F45004
:1041C0001922000E1A221C502102F3501926F45015
:1041D0001A221C502202F3501A261D502002F350BE
:1041E0001926F4501A221D502102F3501A261E508F
:0841F0002002F3501A26120010
:0841F800D9CFE6FFE1CFD9FFAA
:104200003F0EC716C66AFE0EDB50C612FC0EDB5010
:10421000C712FD0EDB50030A09E0010A04E0020A9E
:1042200006E1C78C04D0C78CC68801D0C688FE0EB4
:10423000DB50050A03E0010A04E1928A9486C79ED6
:1042400001D09496949A9488C68AE552E7CFD9FF14
:0242500012005A
:0E425200D9CFE6FFE1CFD9FFAC6AAB6AFE0E12
:10426000DBB0AC88DBA202D0AC8CAB8CDBB4AC8E08
:10427000DBA602D0AB8801D0AB8ADBA802D0AC842D
:1042800001D0AC94DBAC02D09D8A01D09D9ADBAE0C
:1042900002D09D8801D09D98FD0EDB50AF6EAC8A98
:0A42A000AB8EE552E7CFD9FF120004
:0642AA00D9CFE6FFE1CFD1
:1042B000D9FFC26AC16AC06AFD0EDB407F0B3C0BAE
:1042C000C26EFE0EDB500F0B2B6EFD0EDB38F00BBB
:1042D000300B2B10C16EFE0EDB380F0B070B2B6E55
:1042E000FE0EDB50800B2B10C06EFD0EDBAE03D03C
:1042F0009E9C9D8CF28CC280E552E7CFD9FF1200C4
:10430000FB0EE3CFF6FFFC0EE3CFF7FFFD0EE3CF8E
:10431000F8FFFE0EE3CFE9FFFF0EE3CFEAFFE9CFA0
:10432000F3FFEACFF4FF0900F5CFEFFFEE66FBD70E
:104330001200FE0EE3CFE9FFFF0EE3CFEAFFF36AC0
:0E434000F46AEE5203E0F34AF42AFBD71200AF
:02434E001A6AE9
:10435000196A186A176A200EE76ED8901B361C3649
:104360001D361E361736183619361A362050175C89
:10437000215018582250195823501A5809E3205038
:10438000175E2150185A2250195A23501A5A1B2AC4
:06439000E72EE4D7120045
:0A439600D9CFE6FFE1CFD9FF020EF8
:1043A000E126C350DF6E010EC4CFDBFFDECF2BF062
:1043B000DDCF2CF02BC0F3FF2CC0F4FFD9CFE1FFF1
:0843C000E552E7CFD9FF12001E
:0843C8001A6A196A100EE76E73
:1043D000D8901D361E3619361A362250195C2350D5
:1043E0001A5805E32250195E23501A5A1D2AE72E47
:0443F000F0D71200F0
:0C43F400B7EC1BF0BCEC11F00701989135
:10440000070198A107D030EC12F0070179AD02D076
:0C44100038EC19F059EC1BF0F3D7120047
:04441C0016EE00F0A8
:1044200026EE00F0F86A269CA68EA69CECEC1EF008
:0C44300075EC20F0FAEC21F0F9D7120036
:04443C00FF0EE3503C
:10444000376E480E01D04C0EE76EE72EFED7E76AB6
:0C445000E72EFED7372EF7D70000120031
:04445C001A6A080EC2
:10446000E76ED8901E361A3623501A5C02E31A6E95
:084470001E2AE72EF7D7120007
:08447800FF0EE350E84E1200B4
:0E448000000000D000D000D0E82EFAD71200C5
:02448E00C290DA
:044490009D9C1200DD
:04449400C2821200CE
:084498007F7F0000000000001E
:0144A000001B
:0A44A1000000000000000000000011
:0244AB00C84007
:0344AD000000000C
:0144B000000B
:020000040030CA
:0E000000FFFEFEFCFFFEFBFFFFFFFFFFFFFF0A
:00000001FF
