:020000040000FA
:06080000CDEF28F012000C
:020806005A4C4A
:06080800F7EF21F01200E1
:02080E00C250D6
:08081000020B01E0010E1200D1
:06081800FCEF1EF01200CF
:02081E000500D3
:1008200045520000EF070000040000000608000029
:10083000E2010000020000003B520000D80100006D
:100840000A00000016520000CA0700002500000040
:0C085000614C0000F307000001000000F4
:0C090400D9CFE6FFE1CFD9FFFD0EDBCF1D
:100910002BF0FE0EDBCF2CF02C50070AE8AE02D0F5
:10092000D89004D0D00E2B5C070E2C5806E20101A3
:10093000D00EBF6F070EC06F1ED0FD0EDBCF2BF0A9
:10094000FE0EDBCF2CF02C50080AE8AE02D02C347F
:1009500005D0CE0ED8802B54080E2C5406E201018F
:10096000CE0EBF6F080EC06F06D0FD0EDBCFBFF1FD
:10097000FE0EDBCFC0F1BFC12BF0C0C12CF0D00EFA
:100980002B5E070E2C5A2B5000D0E552E7CFD9FF33
:100990001200D9CFE6FFE1CFD9FF140EE126FD0EFC
:1009A000DBCFE9FFFE0EDBCFEAFFEF50DE6EDD6A44
:1009B000FB0EDBCFE9FFFC0EDBCFEAFFEF50E66E6C
:1009C000D950020FE96EDACFEAFFE552E750EE6E3A
:1009D000ED6A640EF36E040EF3CFDBFF050EDB6AE7
:1009E000DECF2BF0DDCF2CF07F0E2B5E000E2C5ACD
:1009F000060E2BC0DBFF070E2CC0DBFF020EDBCF89
:100A00002BF0030EDBCF2CF07F0E2B5E000E2C5A4A
:100A1000080E2BC0DBFF090E2CC0DBFF7F0EF36E30
:100A20000A0EF3CFDBFF0B0EDB6A7F0EF36E0C0EAC
:100A3000F3CFDBFF0D0EDB6ADECF2BF0DDCF2CF02A
:100A40007F0E2B5C000E2C583AE2DECF2BF0DDCF70
:100A50002CF0FF0ED8802B56000E2C567F0E2B5EEE
:100A6000000E2C5A060E2BC0DBFF070E2CC0DBFF3E
:100A7000DDC71DF0DEC71EF0060EDBCF22F0070E2D
:100A8000DBCF23F0DEEC1DF01BC02BF01CC02CF0E4
:100A9000640E226E236A2BC01DF02CC01EF0A3EC46
:100AA00028F01DC02BF01EC02CF07F0ED8802B56D6
:100AB000000E2C562BC0DEFF2CC0DDFF77D0DDC72B
:100AC0001DF0DEC71EF0060EDBCF22F0070EDBCFD7
:100AD00023F0DEEC1DF00E0E1BC0DBFF0F0E1CC062
:100AE000DBFF640E2B6E2C6A0E0EDBCF1DF00F0E9B
:100AF000DBCF1EF02BC022F02CC023F0A3EC28F09B
:100B0000100E1DC0DBFF110E1EC0DBFF7F0EE76E57
:100B1000100EDBCF2BF0110EDBCF2CF0E7502B2685
:100B2000000E2C22120E2BC0DBFF130E2CC0DBFF9D
:100B30000701D85110E00E0EDBCFE6FF0F0EDBCF22
:100B4000E6FF500EE66E4C0EE66EDAEC15F0E5525E
:100B5000E552E552E5520701D85110E0100EDBCF07
:100B6000E6FF110EDBCFE6FF460EE66E4C0EE66E9C
:100B7000DAEC15F0E552E552E552E5520701D8519D
:100B800010E0120EDBCFE6FF130EDBCFE6FF3C0ECC
:100B9000E66E4C0EE66EDAEC15F0E552E552E552E3
:100BA000E552120EDBCFDEFFDBCFDDFF020EDBCF27
:100BB0002BF0030EDBCF2CF07F0E2B5C000E2C589D
:100BC0003EE2020EDBCF2BF0030EDBCF2CF0FF0E4C
:100BD000D8802B56000E2C567F0E2B5E000E2C5A02
:100BE000080E2BC0DBFF090E2CC0DBFFDDC71DF09C
:100BF000DEC71EF0080EDBCF22F0090EDBCF23F09C
:100C0000DEEC1DF01BC02BF01CC02CF0640E226E1D
:100C1000236A2BC01DF02CC01EF0A3EC28F01DC0D1
:100C20002BF01EC02CF07F0ED8802B56000E2C56B9
:100C3000020E2BC0DBFF030E2CC0DBFF7ED0DDC716
:100C40001DF0DEC71EF0080EDBCF22F0090EDBCF51
:100C500023F0DEEC1DF00E0E1BC0DBFF0F0E1CC0E0
:100C6000DBFF640E2B6E2C6A0E0EDBCF1DF00F0E19
:100C7000DBCF1EF02BC022F02CC023F0A3EC28F019
:100C8000100E1DC0DBFF110E1EC0DBFF7F0EE76ED6
:100C9000100EDBCF2BF0110EDBCF2CF0E7502B2604
:100CA000000E2C22120E2BC0DBFF130E2CC0DBFF1C
:100CB0000701D85110E00E0EDBCFE6FF0F0EDBCFA1
:100CC000E6FF500EE66E4C0EE66EDAEC15F0E552DD
:100CD000E552E552E5520701D85110E0100EDBCF86
:100CE000E6FF110EDBCFE6FF460EE66E4C0EE66E1B
:100CF000DAEC15F0E552E552E552E5520701D8511C
:100D000010E0120EDBCFE6FF130EDBCFE6FF3C0E4A
:100D1000E66E4C0EE66EDAEC15F0E552E552E55261
:100D2000E552120EDBCF1DF0130EDBCF1EF0020ECC
:100D30001DC0DBFF030E1EC0DBFFD9CFE9FFDACFFA
:100D4000EAFF0A0EEECFDBFF0B0EEDCFDBFF020E4C
:100D5000DBCF1DF0030EDBCF1EF00C0E1DC0DBFF42
:100D60000D0E1EC0DBFFFD0EDBCFE9FFFE0EDBCF5D
:100D7000EAFFDFCFEFFFFB0EDBCFE9FFFC0EDBCF9F
:100D8000EAFF020EDBCFEFFFD9CFE1FFE552E7CF5D
:100D9000D9FF1200D9CFE6FFE1CFD9FF0E0EE12631
:100DA000FD0EDBCF2BF0FE0EDBCF2CF02D6A2E6A72
:100DB0007F0E2B5E000E2C5A2D5A2E5A2BC0DFFFB1
:100DC000010E2CC0DBFF020E2DC0DBFF030E2EC078
:100DD000DBFFD9CFE9FFDACFEAFFEECF2BF0EECF82
:100DE0002CF0EECF2DF0EFCF2EF02BC01BF02CC04F
:100DF0001CF02DC01DF02EC01EF0DFCF20F0010E24
:100E0000DBCF21F0020EDBCF22F0030EDBCF23F08D
:100E100083EC27F0040E17C0DBFF050E18C0DBFFC4
:100E2000060E19C0DBFF070E1AC0DBFF040EDBCF76
:100E30001BF0050EDBCF1CF0060EDBCF1DF0070EFE
:100E4000DBCF1EF07F0E206E216A226A236A7DECC2
:100E50001DF0080E1BC0DBFF090E1CC0DBFF0A0ED5
:100E60001DC0DBFF0B0E1EC0DBFF7F0E2D6E2E6A3A
:100E70002F6A306AD950080FE96EDACFEAFFEE50D8
:100E80002D26EE502E22EE502F22EE5030222DC075
:100E90002BF02EC02CF0FF0ED8802B56000E2C56B7
:100EA0000C0E2BC0DBFF0D0E2CC0DBFFFD0EDBCFCD
:100EB0002BF0FE0EDBCF2CF07F0E2B5C000E2C589F
:100EC00011E20C0EDBCF2BF00D0EDBCF2CF0FF0E62
:100ED000D8802B56000E2C560C0E2BC0DBFF0D0EAF
:100EE0002CC0DBFF0C0EDBCF2BF00D0EDBCF2CF07C
:100EF0002BC0F3FF2CC0F4FF00D0D9CFE1FFE552A7
:100F0000E7CFD9FF1200D9CFE6FFE1CFD9FF0D0E11
:100F1000E126FE0EDBCF2BF02C6A2D6A2E6A7F0EA7
:100F20002B5E000E2C5A2D5A2E5A2BC0DFFF010EBD
:100F30002CC0DBFF020E2DC0DBFF030E2EC0DBFF3B
:100F4000D9CFE9FFDACFEAFFEECF2BF0EECF2CF0CE
:100F5000EECF2DF0EFCF2EF02BC01BF02CC01CF0ED
:100F60002DC01DF02EC01EF0DFCF20F0010EDBCF14
:100F700021F0020EDBCF22F0030EDBCF23F083EC57
:100F800027F0040E17C0DBFF050E18C0DBFF060EAE
:100F900019C0DBFF070E1AC0DBFF040EDBCF1BF00E
:100FA000050EDBCF1CF0060EDBCF1DF0070EDBCFEE
:100FB0001EF07F0E206E216A226A236A7DEC1DF0EE
:100FC000080E1BC0DBFF090E1CC0DBFF0A0E1DC094
:100FD000DBFF0B0E1EC0DBFF7F0E2D6E2E6A2F6A0D
:100FE000306AD950080FE96EDACFEAFFEE502D26AD
:100FF000EE502E22EE502F22EE5030222D502B6E2E
:101000002C6AFF0ED8802B56000E2C560C0E2BC0CF
:10101000DBFF7F0EF36EFE0EDBCFF4FFF350F45CCC
:101020000CE20C0EDB502B6E2C6AFF0ED8802B5678
:10103000000E2C560C0E2BC0DBFF0C0EDB5000D02C
:10104000D9CFE1FFE552E7CFD9FF12000701EE51FA
:10105000030A20E0010A15E0030A0CE0010A01E09E
:101060001FD001017AA105D08C868D960701010E53
:10107000EE6F16D001017AB103D00701020EEE6FB8
:101080000FD001017AA105D08C968D860701030E41
:10109000EE6F06D001017AB102D00701EE6B00D0ED
:1010A000120081B403D08C8A8D9A02D08C9A8D9ACA
:1010B000CDDF01017AA303D08C848D9402D08C946F
:1010C0008D847AA507D0640E0701DB6FDC6B4E0EB2
:1010D000D96FDA6B01017AA707D03C0E0701D96FEF
:1010E000DA6B320EDB6FDC6B01018651280805E2FA
:1010F000320E865D02E20701CC6B010186512B6E38
:101100002C6A2C50000AE8AE02D02C3405D0FA0E1E
:10111000D8802B54000E2C5415E286512D6E2E6A69
:101120002E50010AE8AE02D0D89004D0040E2D5CF7
:10113000010E2E5807E20701CC0502E08C828D9249
:10114000010ECC6F010186515A0810E2640E865DD3
:101150000DE2060E0701CC5D07E08CB203D08C8255
:101160008D9202D08C928D82060ECC6F0101865139
:101170002B6E2C6A2C50000AE8AE02D02C3405D01D
:10118000BE0ED8802B54000E2C5411E286512D6EC9
:101190002E6A2E50000AE8AE02D0D89004D0D10EAC
:1011A0002D5C000E2E5803E20701020ECC6F0101E8
:1011B00086512B6E2C6A2C50000AE8AE02D02C34DB
:1011C00005D08C0ED8802B54000E2C5416E286517C
:1011D0002D6E2E6A2E50000AE8AE02D0D89004D0B0
:1011E000A00E2D5C000E2E5808E2040E0701CC5D07
:1011F00002E08C928D82040ECC6F010186512B6E21
:101200002C6A2C50000AE8AE02D02C3405D0A00E77
:10121000D8802B54000E2C5414E286512D6E2E6A69
:101220002E50000AE8AE02D0D89004D0AA0E2D5C51
:10123000000E2E5806E2050E0701CC5D00E0050EFB
:10124000CC6F010186512B6E2C6A2C50000AE8AE3F
:1012500002D02C3405D0D20ED8802B54000E2C5442
:1012600014E286512D6E2E6A2E50000AE8AE02D08E
:10127000D89004D0D70E2D5C000E2E5806E2030E37
:101280000701CC5D00E0030ECC6F010183512B6E92
:101290002C6A2C50000AE8AE02D02C3405D08C0EFB
:1012A000D8802B54000E2C540DE20701D15107E1D8
:1012B0008CA003D08C908D9002D08C808D90010EEC
:1012C000D16F02D00701D16B01017F512B6E2C6AC7
:1012D0002C50000AE8AE02D02C3405D08C0ED880F9
:1012E0002B54000E2C5400E287512B6E2C6A2C508C
:1012F000000AE8AE02D02C3405D08C0ED8802B54D6
:10130000000E2C5403E28C888D9802D08C988D9816
:101310008B512B6E2C6A2C50000AE8AE02D02C3474
:1013200005D08C0ED8802B54000E2C5410E2020EE7
:101330000701D05D0BE2D05105E18C948D84030E42
:10134000D06F04D08C848D94020ED06F07D007012B
:10135000D051010803E2020ED05DD06F01017BA1E4
:1013600003D001015C6B06D00701CD5103E10101FF
:101370007F0E5C6F01017BA315D07BB70ED00701F8
:10138000CF510AE17F0E01015C5D04E10701020E0D
:10139000CD6F02D00701CD6B02D00701CD6B010EDE
:1013A000CF6F02D00701CF6B01017BA500D07BA7D7
:1013B0001CD0330EE66E4C0EE66EDAEC15F0E552FC
:1013C000E55201017BB30DD00701CE510AE17F0E3A
:1013D00001015C5D04E10701010ECD6F02D0070140
:1013E000CD6B0701010ECE6F02D00701CE6BCD5140
:1013F00036E0CD0520E1D2512B6E2C6A2C50000A2C
:10140000E8AE02D0D89004D09E0E2B5C000E2C5873
:101410000CE20101FE0E5C6F8150800B01E0010EB9
:101420000701D35D01E0D22B05D001017F0E5C6F77
:101430000701CD6B13D0D25100080BE201015C6BA8
:101440008150800B01E0010E0701D35D01E0D2075E
:1014500005D001017F0E5C6F0701CD6B03D0010148
:101460007F0E5C6F01017BA50DD001015C6B81508B
:10147000800B01E0010E0701D35D03E0D25101E0D2
:10148000D20706D00701CD5103E101017F0E5C6F49
:101490008150800B01E0010E0701D36F12008C8098
:1014A0008D908C928D828C948D948C968D868C9858
:1014B0008D988C9A8D9A8150800B01E0010E070166
:1014C000D36F1200D9CFE6FFE1CFD9FF070EE12697
:1014D000DF6A010EDB6A7F0EF36E060EF3CFDBFFD1
:1014E000DF50EA6AB10FE96E010EEA22EFCF2BF06E
:1014F000FD0EDBCF2CF0FE0EDBCF2DF02B502C5C45
:10150000000E2D5805E20D0EDF5C02E2DF2AE8D75F
:10151000DF04EA6AB10FE96E010EEA22EFCF2CF088
:10152000DF50EA6AB10FE96E010EEA22EF502C5C3F
:101530002B6E0A0E2D6E2DC023F02BC01EF0EDEC8D
:1015400028F01E50E66ED950020FE96EDACFEAFF9E
:10155000E552E750EE6EED6ADF04EA6AB10FE96E1C
:10156000010EEA22EF50E66ED950040FE96EDACF91
:10157000EAFFE552E750EE6EED6ADF04E76E010E1A
:10158000E7CFDBFFDF6A040EDBCF2DF0050EDBCFEC
:101590002EF0DF502F6E306A2FC01DF030C01EF0CD
:1015A000020EDBCF22F0030EDBCF23F0DEEC1DF0CA
:1015B0002D501B242B6E2E501C202C6EFD0EDBCFCD
:1015C00031F0FE0EDBCF32F02B50315C2C50325814
:1015D00002E2DF2AD8D7FC0EDB040BE1010EDB5060
:1015E0000A0DF3507F0FDF24E76E060EE7CFDBFF17
:1015F0000DD07F0E2B6E010EDB500A0DF3502B5CCD
:10160000D880DF54E76E060EE7CFDBFFDB5000D05B
:10161000D9CFE1FFE552E7CFD9FF1200D9CFE6FFDE
:10162000E1CFD9FF1D0EE126DAC1DEFFDBC1DDFF10
:1016300001016A51E66ED950040FE96EDACFEAFF74
:10164000E552E750EE6EED6A6851E66ED950060F2E
:10165000E96EDACFEAFFE552E750EE6EED6A010E71
:10166000F36E080EF3CFDBFF090EDB6A0A0EDB6AAE
:101670000B0EDB6A7F0EF36E0C0EF3CFDBFF0D0E4D
:10168000DB6A0E0EDB6A0F0EDB6A7F0EF36E100E46
:10169000F3CFDBFFDEC122F0DFC123F0DECF1DF090
:1016A000DDCF1EF0A3EC28F01DC02BF01EC02CF0E7
:1016B0002BC0E6FF2CC0E6FF220EE66E4C0EE66E57
:1016C000DAEC15F0E552E552E552E552E0C122F0C0
:1016D000E1C123F0DECF1DF0DDCF1EF0A3EC28F03A
:1016E0001DC02BF01EC02CF02BC0E6FF2CC0E6FF67
:1016F000100EE66E4C0EE66EDAEC15F0E552E55291
:10170000E552E5520101000ED880DE55000EDF558E
:1017100029E27F0E01016A5D02E2080EDB6A080E13
:10172000DBCFE6FFDEC122F0DFC123F0DECF1DF00C
:10173000DDCF1EF0A3EC28F01DC02BF01EC02CF056
:101740002BC0E6FF2CC0E6FFBDDEE552E552E552B8
:10175000E76E020EE7CFDBFF010EF36E080EF3CF4C
:10176000DBFF0DD0010EE66EE66A020EE66EAADE23
:10177000E552E552E552E76E020EE7CFDBFF0101CD
:10178000000ED880E055000EE15529E27F0E0101E0
:10179000685D02E2080EDB6A080EDBCFE6FFE0C1FF
:1017A00022F0E1C123F0DECF1DF0DDCF1EF0A3EC6F
:1017B00028F01DC02BF01EC02CF02BC0E6FF2CC063
:1017C000E6FF80DEE552E552E552E76E030EE7CF15
:1017D000DBFF010EF36E080EF3CFDBFF0DD0010E21
:1017E000E66EE66A020EE66E6DDEE552E552E55201
:1017F000E76E030EE7CFDBFF020EDB502D6E2E6A85
:10180000040EDBCF1DF0050EDBCF1EF02D501D5C4E
:101810002B6E2E501E582C6E110E2BC0DBFF120E9D
:101820002CC0DBFF0D0EDBCF2BF00E0EDBCF2CF030
:101830000F0EDBCF2DF0100EDBCF2EF0110EDBCF15
:101840001DF0120EDBCF1EF00701E7511D5C336E59
:10185000E8511E58346E33C01DF034C01EF084ECC5
:1018600018F01CC02FF01DC030F01EC031F01FC09A
:1018700032F02FC021F030C022F031C023F032C04E
:1018800024F02BC01CF02CC01DF02DC01EF02EC06B
:101890001FF0F9EC1CF05EEC1EF0130E1DC0DBFF18
:1018A000140E1EC0DBFF110EDBCFE7F7120EDBCFED
:1018B000E8F7090EDBCF2FF00A0EDBCF30F00B0E6E
:1018C000DBCF31F00C0EDBCF32F0DAC11BF0DBC125
:1018D0001CF0DCC11DF0DDC11EF02BEC19F01CC0AA
:1018E00033F01DC034F01EC035F01FC036F033C0D9
:1018F00021F034C022F035C023F036C024F02FC0D0
:101900001CF030C01DF031C01EF032C01FF0F9ECE9
:101910001CF01CC02BF01DC02CF01EC02DF01FC0F1
:101920002EF0110EDBCF1DF0120EDBCF1EF084EC7B
:1019300018F01CC037F01DC038F01EC039F01FC0B1
:101940003AF037C021F038C022F039C023F03AC055
:1019500024F02BC01CF02CC01DF02DC01EF02EC09A
:101960001FF0F9EC1CF05EEC1EF0150E1DC0DBFF45
:10197000160E1EC0DBFF0701EB512F6E306A130EEF
:10198000DB502F242D6E140EDB5030202E6E150EE2
:10199000DB502D242B6E160EDB502E202C6E2BC010
:1019A0006BF12BC06AF1030EDB502D6E2E6A060E12
:1019B000DBCF1DF0070EDBCF1EF02D501D5C2B6E14
:1019C0002E501E582C6E170E2BC0DBFF180E2CC08D
:1019D000DBFF0D0EDBCF2BF00E0EDBCF2CF00F0E4E
:1019E000DBCF2DF0100EDBCF2EF0170EDBCF1DF06E
:1019F000180EDBCF1EF0E9511D5C336EEA511E5804
:101A0000346E33C01DF034C01EF084EC18F01CC0DE
:101A10002FF01DC030F01EC031F01FC032F02FC0BB
:101A200021F030C022F031C023F032C024F02BC0AE
:101A30001CF02CC01DF02DC01EF02EC01FF0F9ECC4
:101A40001CF05EEC1EF0190E1DC0DBFF1A0E1EC04E
:101A5000DBFF170EDBCFE9F7180EDBCFEAF7090E35
:101A6000DBCF2FF00A0EDBCF30F00B0EDBCF31F0E7
:101A70000C0EDBCF32F0DAC11BF0DBC11CF0DCC195
:101A80001DF0DDC11EF02BEC19F01CC033F01DC0A1
:101A900034F01EC035F01FC036F033C021F034C022
:101AA00022F035C023F036C024F02FC01CF030C027
:101AB0001DF031C01EF032C01FF0F9EC1CF01CC04C
:101AC0002BF01DC02CF01EC02DF01FC02EF0170EE5
:101AD000DBCF1DF0180EDBCF1EF084EC18F01CC01D
:101AE00037F01DC038F01EC039F01FC03AF037C0C3
:101AF00021F038C022F039C023F03AC024F02BC0C6
:101B00001CF02CC01DF02DC01EF02EC01FF0F9ECF3
:101B10001CF05EEC1EF01B0E1DC0DBFF1C0E1EC079
:101B2000DBFF0701EC512F6E306A190EDB502F24BA
:101B30002D6E1A0EDB5030202E6E1B0EDB502D2426
:101B40002B6E1C0EDB502E202C6E2BC069F12BC08F
:101B500068F10101DA6BDB6BDC6BDD6B000E010100
:101B6000E06FE16B0101DE6FDF6BD9CFE1FFE55282
:101B7000E7CFD9FF12000101B16BB26B880EB36FD2
:101B8000CA0EB46F660EB56F600EB66F5C0EB76F9F
:101B9000580EB86F500EB96F4C0EBA6F480EBB6F2F
:101BA000410EBC6F3D0EBD6FBE6F1200D9CFE6FF78
:101BB000E1CFD9FF020EE126ED0EDE6E4B0EDD6E9B
:101BC000F00EE66E3EEC25F0E552938A93889386FC
:101BD000938499829980938E938C9A849A82998621
:101BE00099849A8A9A8894809A869A8E9A9C919CD3
:101BF00001017F0E636F63C162F163C161F163C173
:101C000060F163C15FF163C15EF163C15DF163C106
:101C10005CF16B6F6BC16AF16BC169F16BC168F10B
:101C20006BC167F16BC166F16BC165F16BC164F1AA
:101C3000000EE66EE66AE66EE66AE66EE66AE66E56
:101C4000E66A77EC23F0F56E080EE15EF55027DCCE
:101C500092DF30EC25F0580EE66E010EE66E2DECAC
:101C600023F0E552E552DECFE6FFDDCFE6FFE90ED9
:101C7000E66E4B0EE66EDAEC15F0E552E552E552F3
:101C8000E55292EC22F0D9CFE1FFE552E7CFD9FF40
:101C90001200780EE66E010EE66EF3EC22F0E552CD
:101CA000E552010179BD02D0F2EC26F00701D42BF8
:101CB000000ED523D623D723D4C72BF0D5C72CF0BD
:101CC000D6C72DF0D7C72EF00F0E2B162C6A2D6A13
:101CD0002E6A2B502C102D102E100BE1010ED86FF8
:101CE000DB0EE66E4B0EE66EDAEC15F0E552E552D1
:101CF00001D0D86B43D851EC08F0D4C72BF0D5C72E
:101D00002CF0D6C72DF0D7C72EF0030E206E216A17
:101D1000226A236A2BC01BF02CC01CF02DC01DF0C2
:101D20002EC01EF066EC28F017C02BF018C02CF067
:101D300019C02DF01AC02EF02B502C102D102E1083
:101D400006E10701D451D511D611D71100E06BC1BE
:101D5000E6FF6AC1E6FF69C1E6FF68C1E6FF5AEC2B
:101D600026F0E552E552E552E552580EE66E010EB8
:101D7000E66E2DEC23F0E552E552120001017E5192
:101D80002B6E2C6AFF0ED8802B56000E2C562BC0C3
:101D90007EF180512B6E2C6AFF0ED8802B56000EE0
:101DA0002C562BC080F10701ED6B01018051D880CA
:101DB0007E5508E27E51805D0C0803E20701010EAA
:101DC000ED6F07D080517E5D0C0803E20701010E24
:101DD000ED6F800EE66E010EE66E7E0EE66E010E73
:101DE000E66EC9EC04F0E552E552E552E552010118
:101DF0008051E66EE66ACAEC06F0E552E552F3CF92
:101E000080F101017E51E66EE66ACAEC06F0E55209
:101E1000E552F3CF7EF180C16BF180C16AF17EC1E2
:101E200069F17EC168F1010179BBBFD0000E7E5D12
:101E300007E37E51380804E30101589158833AD0F2
:101E40007D0E7E5D13E37E512B6E2C6A2C50000AB2
:101E5000E8AE02D02C3405D0810ED8802B54000E71
:101E60002C5404E301015881588324D07E512B6EF9
:101E70002C6A2C50000AE8AE02D0D89004D0D80EBC
:101E80002B5C000E2C5813E37E512D6E2E6A2E50C3
:101E9000000AE8AE02D02E3405D0FF0ED8802D54B3
:101EA000000E2E5404E301015881589303D0010120
:101EB00058915893000E01017F5D07E37F51380868
:101EC00004E30101589558873AD07D0E7F5D13E3F6
:101ED0007F512B6E2C6A2C50000AE8AE02D02C34B5
:101EE00005D0810ED8802B54000E2C5404E3010140
:101EF0005885588724D07F512B6E2C6A2C50000AAD
:101F0000E8AE02D0D89004D0D80E2B5C000E2C582E
:101F100013E37F512D6E2E6A2E50000AE8AE02D0D8
:101F20002E3405D0FF0ED8802D54000E2E5404E31D
:101F300001015885589703D0010158955897589B2F
:101F40008C50010B01E0588B58998D50010B01E02A
:101F50005889589F8C50020B01E0588F589D8D5026
:101F6000020B01E0588D8C50080B01E0010E010BB3
:101F7000F36EFE0E5915F310596F8C50080B01E0EB
:101F8000010E010BF36EF346FD0E5915F310596F58
:101F90008C50080B01E0010E010BF36EF346F34683
:101FA000FB0E5915F310596F51D08FC11EF048EC3C
:101FB00018F01CC033F01DC034F01EC035F01FC037
:101FC00036F0710E216E3D0E226E7A0E236E820E59
:101FD000246E33C01CF034C01DF035C01EF036C076
:101FE0001FF0F9EC1CF01CC02FF01DC030F01EC01B
:101FF00031F01FC032F0216A226A236A870E246EF4
:102000002FC01CF030C01DF031C01EF032C01FF0D8
:1020100072EC1AF01CC02BF01DC02CF01EC02DF06D
:102020001FC02EF0216A226A200E236E820E246EBB
:102030002BC01CF02CC01DF02DC01EF02EC01FF0B8
:0E204000F9EC1CF0FCEC1DF01EC058F1120073
:02204E00D9CFE8
:10205000E6FFE1CFD9FFFD0EDB50AD6E42EC24F080
:10206000E552E7CFD9FF1200D9CFE6FFE1CFD9FF84
:10207000080EE126DE6ADD6A200EF36E020EF3CF53
:10208000DBFF030EDB6AFB0EDBCF2BF0FC0EDBCF9E
:102090002CF02C50000AE8AE02D02C3405D0000EF3
:1020A000D8802B54000E2C545AE2040EDB6A050E25
:1020B000DB6AFD0EDBCF1DF0FE0EDBCF1EF0060E41
:1020C0001DC0DBFF070E1EC0DBFF060EDBCFE9FFE6
:1020D000070EDBCFEAFFEF500BE0040EDB2A050E04
:1020E00001E3DB2A060EDB2A070E01E3DB2AEDD72C
:1020F000040EDBCF2BF0050EDBCF2CF0FB0EDBCF7D
:102100002DF0FC0EDBCF2EF02C502E18E8AE02D0B6
:102110002E3404D02D502B5C2E502C5805E3FB0E92
:10212000DB6AFC0EDB6A10D0040EDBCF2BF0050E51
:10213000DBCF2CF0D950FB0FE96EFF0EDA20EA6EF0
:102140002B50EE5E2C50ED5AF90EDB50020B07E0DF
:10215000300EF36E020EF3CFDBFF030EDB6AF90ED7
:10216000DB50010B25E1FB0EDBCF2BF0FC0EDBCFB0
:102170002CF02C50000AE8AE02D02C3405D0000E12
:10218000D8802B54000E2C5413E2020EDBCFE6FF56
:10219000030EDBCFE6FF5BDFE552E552DF2A010EDF
:1021A00001E3DB2AFB0EDB06FC0E01E2DB06DBD7DC
:1021B000FD0EDBCFE9FFFE0EDBCFEAFFEF501CE0A8
:1021C000FD0EDBCFE9FFFE0EDBCFEAFFEFCF2BF0FA
:1021D0002C6A2BBE2C682BC0E6FF2CC0E6FF37DF35
:1021E000E552E552DF2A010E01E3DB2AFD0EDB2A70
:1021F000FE0E01E3DB2ADCD7FB0EDBCF2BF0FC0E5F
:10220000DBCF2CF02C50000AE8AE02D02C3405D0E5
:10221000000ED8802B54000E2C5413E2020EDBCF9C
:10222000E6FF030EDBCFE6FF12DFE552E552DF2AC1
:10223000010E01E3DB2AFB0EDB06FC0E01E2DB06EE
:10224000DBD7DECF2BF0DDCF2CF02BC0F3FF2CC083
:10225000F4FF00D0D9CFE1FFE552E7CFD9FF12005C
:10226000D9CFE6FFE1CFD9FF0A0EE126040EDB6AE3
:10227000050EDB6A060EDB6A070EDB6AFD0EDBCF9E
:102280001DF0FE0EDBCF1EF0080E1DC0DBFF090E99
:102290001EC0DBFF0101BE0E996FEF0EAD6FD9506E
:1022A000FD0FE96EFF0EDA20EA6EEE50ED1019E137
:1022B000300E996F9A6BF50EDBCFE6FFF60EDBCF93
:1022C000E6FFF70EDBCFE6FFF80EDBCFE6FF990E59
:1022D000E66E010EE66EC8DEF56E060EE15EF550A6
:1022E00026D1D950F90FE96EFF0EDA20EA6EEE50D2
:1022F000ED102CE0D950FB0FE96EFF0EDA20EA6EEC
:102300000A0EEE1801E1ED5021E1FD0EDBCF2BF0BE
:10231000FE0EDBCF2CF00001800E2C1517E0010E15
:10232000F36E040EF3CFDBFF050EDB6A1D681E683B
:10233000FD0EDBCF22F0FE0EDBCF23F0B1EC1DF063
:10234000080E1BC0DBFF090E1CC0DBFFAD0E2B6EA1
:10235000010E2C6E2B06000E2C5A2BC0DEFF2CC05B
:10236000DDFFDECFE9FFDDCFEAFFEF6AD950080FCE
:10237000E96EDACFEAFFEE50ED1072E0080EDBCF27
:102380001DF0090EDBCF1EF0FB0EDBCF22F0FC0EA2
:10239000DBCF23F0A3EC28F0020E19C0DBFF030E05
:1023A0001AC0DBFF020EDBCF2BF0030EDBCF2CF0CD
:1023B0002C50000AE8AE02D0D89004D00A0E2B5C54
:1023C000000E2C5817E3F30EDBCF2BF0F40EDBCF0F
:1023D0002CF0300E2B5E000E2C5A0A0E2B5E000ED7
:1023E0002C5AD950020FE96EDACFEAFF2B50EE26B5
:1023F0002C50ED22300EE76E020EDBCF2BF0030ED9
:10240000DBCF2CF0E7502B26000E2C22D9CFE9FF92
:10241000DACFEAFFEE06ED5AEECFF3FFEDCFF4FF91
:10242000F3CFE9FFF4CFEAFF2BC0EFFFFB0EDBCFCA
:102430002BF0FC0EDBCF2CF0D950080FE96EDACF71
:10244000EAFF2BC022F02CC023F0EECF1DF0EDCF21
:102450001EF0A3EC28F01DC0EEFF1EC0EDFF86D7D6
:10246000D950040FE96EDACFEAFFEE50ED102FE0FD
:10247000D950F70FE96EFF0EDA20EA6EEE50ED103C
:1024800015E0F50EDB50020B11E02D0EE66EE66A4C
:10249000DEDDE552E552060EDB2A070E01E3DB2AFC
:1024A000F70EDB06F80E01E2DB0611D0D9CFE9FF0B
:1024B000DACFEAFFEE06000EED5AEECFF3FFEDCFD6
:1024C000F4FFF3CFE9FFF4CFEAFF2D0EEF6E060E17
:1024D000DBCF2DF0070EDBCF2EF02DC0E6FF2EC098
:1024E000E6FFF50EDBCFE6FFF60EDBCFE6FFF70EDD
:1024F000DBCFE6FFF80EDBCFE6FFDECFE6FFDDCF7A
:10250000E6FFB2DDF56E060EE15EF550E552E7CF6F
:102510002EF0E552E7CF2DF02D50F3242B6E2E50E8
:10252000F4202C6E2BC0F3FF2CC0F4FF00D0D9CFC9
:10253000E1FFE552E7CFD9FF1200D9CFE6FFE1CFA7
:10254000D9FF2E0EE1262C0EDB6A2D0EDB6AFD0E66
:10255000DBCFE9FFFE0EDBCFEAFFEF5001E119D33D
:10256000FD0EDBCFE9FFFE0EDBCFEAFFEF502508C3
:1025700001E0E0D2FD0EDB2AFE0E01E3DB2A2A0E8B
:10258000DB6A2B0EDB6AD950280FE96EDACFEAFF3F
:10259000EE6AED6AFD0EDBCFE9FFFE0EDBCFEAFF50
:1025A000EF5001E1F6D2FD0EDBCFE9FFFE0EDBCFEF
:1025B000EAFFEF50250801E1BDD2FD0EDBCFE9FFB8
:1025C000FE0EDBCFEAFFEF502D080CE1FD0EDB2AFB
:1025D000FE0E01E3DB2A010EF36E2A0EF3CFDBFFC2
:1025E0002B0EDB6AFD0EDBCFE9FFFE0EDBCFEAFF31
:1025F000EF5030080DE1FD0EDB2AFE0E01E3DB2A71
:10260000D9502A0FE96EDACFEAFFEE82ED52EAD70F
:10261000FD0EDBCFE9FFFE0EDBCFEAFFEFCF2BF0A5
:10262000300E2B5C30E3FD0EDBCFE9FFFE0EDBCF7F
:10263000EAFFEF50390827E3D950280FE96EDACFC7
:10264000EAFF0A0EEC02F3CFEDFFEF02F3CFEEFF4D
:10265000F450ED26FD0EDBCFE9FFFE0EDBCFEAFFE7
:10266000EF50D00F2B6E2C6AD950280FE96EDACFBD
:10267000EAFF2B50EE262C50ED22FD0EDB2AFE0E3B
:1026800001E3DB2AC5D7FD0EDBCFE9FFFE0EDBCF72
:10269000EAFFEF50730861E1D950FB0FE96EFF0EBE
:1026A000DA20EA6EEECFF3FFEDCFF4FF020EEE5E1E
:1026B000000EEF5AF3CFE9FFF4CFEAFFEECF2BF095
:1026C000EFCF2CF02D6A2BC0E6FF2CC0E6FF2DC00B
:1026D000E6FFD9CFE6FFDACFE6FF3FEC28F0F56E54
:1026E000050EE15EF550DF5015E1E2C12BF0E3C1CC
:1026F0002CF02D6A2BC0E6FF2CC0E6FF2DC0E6FFB4
:10270000D9CFE6FFDACFE6FF3FEC28F0F56E050EF5
:10271000E15EF5502A0EDBCFE6FF2B0EDBCFE6FFA6
:10272000280EDBCFE6FF290EDBCFE6FFD9CFE6FF91
:10273000DACFE6FF99DCF56E060EE15EF550F3CFD9
:102740002BF0F4CF2CF0D9502C0FE96EDACFEAFF42
:102750002B50EE262C50ED2216D2FD0EDBCFE9FFDA
:10276000FE0EDBCFEAFFEF5064083EE1610EE66E3D
:10277000E66A2A0EDBCFE6FF2B0EDBCFE6FF280E44
:10278000DBCFE6FF290EDBCFE6FF010EE66EE66A41
:102790000A0EE66EE66AD950FB0FE96EFF0EDA20EC
:1027A000EA6EEECFF3FFEDCFF4FF020EEE5E000E09
:1027B000EF5AF3CFE9FFF4CFEAFFEECFE6FFEFCF1A
:1027C000E6FF4EDDF56E0C0EE15EF550F3CF2BF01B
:1027D000F4CF2CF0D9502C0FE96EDACFEAFF2B5052
:1027E000EE262C50ED22CFD1FD0EDBCFE9FFFE0E01
:1027F000DBCFEAFFEF5078083EE1610EE66EE66A55
:102800002A0EDBCFE6FF2B0EDBCFE6FF280EDBCF59
:10281000E6FF290EDBCFE6FF000EE66EE66A100E3D
:10282000E66EE66AD950FB0FE96EFF0EDA20EA6E1B
:10283000EECFF3FFEDCFF4FF020EEE5E000EEF5A87
:10284000F3CFE9FFF4CFEAFFEECFE6FFEFCFE6FFED
:1028500007DDF56E0C0EE15EF550F3CF2BF0F4CFF3
:102860002CF0D9502C0FE96EDACFEAFF2B50EE2670
:102870002C50ED2288D1FD0EDBCFE9FFFE0EDBCF21
:10288000EAFFEF5058083EE1410EE66EE66A2A0E76
:10289000DBCFE6FF2B0EDBCFE6FF280EDBCFE6FF1C
:1028A000290EDBCFE6FF000EE66EE66A100EE66E3E
:1028B000E66AD950FB0FE96EFF0EDA20EA6EEECF22
:1028C000F3FFEDCFF4FF020EEE5E000EEF5AF3CFF2
:1028D000E9FFF4CFEAFFEECFE6FFEFCFE6FFC0DC83
:1028E000F56E0C0EE15EF550F3CF2BF0F4CF2CF02B
:1028F000D9502C0FE96EDACFEAFF2B50EE262C5080
:10290000ED2241D1FD0EDBCFE9FFFE0EDBCFEAFF6A
:10291000EF5075083EE1610EE66EE66A2A0EDBCFE7
:10292000E6FF2B0EDBCFE6FF280EDBCFE6FF290EFE
:10293000DBCFE6FF000EE66EE66A0A0EE66EE66A9A
:10294000D950FB0FE96EFF0EDA20EA6EEECFF3FFEF
:10295000EDCFF4FF020EEE5E000EEF5AF3CFE9FF6B
:10296000F4CFEAFFEECFE6FFEFCFE6FF79DCF56EBE
:102970000C0EE15EF550F3CF2BF0F4CF2CF0D950D4
:102980002C0FE96EDACFEAFF2B50EE262C50ED2209
:10299000FAD0FD0EDBCFE9FFFE0EDBCFEAFFEF50F2
:1029A0006C0801E081D0610EE66EE66A2A0EDBCF8C
:1029B000E6FF2B0EDBCFE6FF280EDBCFE6FF290E6E
:1029C000DBCFE6FF000EE66EE66A100EE66EE66A04
:1029D000D950FB0FE96EFF0EDA20EA6EEECFF3FF5F
:1029E000EDCFF4FF020EEE5E000EEF5AF3CFE9FFDB
:1029F000F4CFEAFFEECFE6FFEFCFE6FF31DCF56E76
:102A00000C0EE15EF550F3CF2BF0F4CF2CF0D95043
:102A10002C0FE96EDACFEAFF2B50EE262C50ED2278
:102A2000610EE66EE66A2A0EDBCFE6FF2B0EDBCFE9
:102A3000E6FF280EDBCFE6FF290EDBCFE6FF000E18
:102A4000E66EE66A100EE66EE66AD950FB0FE96E96
:102A5000FF0EDA20EA6EEECFF3FFEDCFF4FF020EA9
:102A6000EE5E000EEF5AF3CFE9FFF4CFEAFFEECFB0
:102A7000E6FFEFCFE6FF30EC11F0F56E0C0EE15EF5
:102A8000F550F3CF2BF0F4CF2CF0D9502C0FE96E8A
:102A9000DACFEAFF2B50EE262C50ED22FD0EDB2A7A
:102AA000FE0E01E3DB2A6FD0FD0EDBCFE9FFFE0E49
:102AB000DBCFEAFFEF5062083CE1610EE66EE66AAA
:102AC000020EE66EE66A280EDBCFE6FF290EDBCFAC
:102AD000E6FF000EE66EE66A020EE66EE66AD95082
:102AE000FB0FE96EFF0EDA20EA6EEECFF3FFEDCFBB
:102AF000F4FF020EEE5E000EEF5AF3CFE9FFF4CFC3
:102B0000EAFFEECFE6FFEFCFE6FF30EC11F0F56E17
:102B10000C0EE15EF550F3CF2BF0F4CF2CF0D95032
:102B20002C0FE96EDACFEAFF2B50EE262C50ED2267
:102B30002AD029D0FD0EDBCFE9FFFE0EDBCFEAFF66
:102B4000EF500A0808E1FD0EDBCFE9FFFE0EDBCFF8
:102B5000EAFF0D0EEF6EFD0EDBCFE9FFFE0EDBCFC1
:102B6000EAFFEFCF2BF02C6A2BBE2C682BC0E6FFC0
:102B70002CC0E6FF27EC10F0E552E5522C0EDB2AC4
:102B80002D0E01E3DB2AFD0EDB2AFE0E01E3DB2A1C
:102B9000DED42C0EDBCF2BF02D0EDBCF2CF02BC098
:102BA000F3FF2CC0F4FF00D0D9CFE1FFE552E7CF0F
:102BB000D9FF1200D9CFE6FFE1CFD9FF020EE126FF
:102BC000D950FD0F2B6EFF0EDA202C6E2BC0DEFFCE
:102BD0002CC0DDFFFD0EDBCF2BF0FE0EDBCF2CF08B
:102BE0002D6A2BC0E6FF2CC0E6FF2DC0E6FF000ECD
:102BF000E66E010EE66E3FEC28F0F56E050EE15E26
:102C0000F550D9CFE9FFDACFEAFF020EEE5E000EF3
:102C1000EF5ADECFE6FFDDCFE6FF000EE66E010ED7
:102C2000E66E8BDCE552E552E552E55200D0D9CF95
:102C3000E1FFE552E7CFD9FF1200D9CFE6FFE1CFA0
:102C4000D9FF610EE66EE66A020EE66EE66A040ED3
:102C5000E66EE66A010EE66EE66A0A0EE66EE66A61
:102C6000FD0EDBCFE6FFFE0EDBCFE6FF30EC11F012
:102C7000F56E0C0EE15EF550D950FB0FE96EFF0EBC
:102C8000DA20EA6EEE50ED1007E00D0EE66EE66A11
:102C900027EC10F0E552E552E552E7CFD9FF1200DC
:102CA000D9CFE6FFE1CFD9FF610EE66EE66A020EEC
:102CB000E66EE66A030EE66EE66A010EE66EE66A08
:102CC0000A0EE66EE66AFE0EDBCFE6FFE66A30EC41
:102CD00011F0F56E0C0EE15EF550D950FC0FE96E67
:102CE000FF0EDA20EA6EEE50ED1007E00D0EE66EF4
:102CF000E66A27EC10F0E552E552E552E7CFD9FF3E
:102D00001200D9CFE6FFE1CFD9FF610EE66EE66A89
:102D1000020EE66EE66A100EE66EE66A000EE66EDB
:102D2000E66A020EE66EE66AFD0EDBCFE6FFFE0EF9
:102D3000DBCFE6FF30EC11F0F56E0C0EE15EF550E6
:102D4000D950FB0FE96EFF0EDA20EA6EEE50ED105F
:102D500007E00D0EE66EE66A27EC10F0E552E5524C
:102D6000E552E7CFD9FF1200D9CFE6FFE1CFD9FF77
:102D7000610EE66EE66A020EE66EE66A080EE66E22
:102D8000E66A000EE66EE66A020EE66EE66AFE0E81
:102D9000DBCFE6FFE66A30EC11F0F56E0C0EE15E7B
:102DA000F550D950FC0FE96EFF0EDA20EA6EEE50B6
:102DB000ED1007E00D0EE66EE66A27EC10F0E55226
:102DC000E552E552E7CFD9FF1200D9CFE6FFE1CFB8
:102DD000D9FF610EE66EE66A000EE66EE66A020E46
:102DE000E66EE66A000EE66EE66A100EE66EE66ACB
:102DF000FD0EDBCFE6FFFE0EDBCFE6FF30EC11F081
:102E0000F56E0C0EE15EF550D950FB0FE96EFF0E2A
:102E1000DA20EA6EEE50ED1007E00D0EE66EE66A7F
:102E200027EC10F0E552E552E552E7CFD9FF12004A
:102E3000D9CFE6FFE1CFD9FF610EE66EE66A020E5A
:102E4000E66EE66AE66EE66A000EE66EE66A100E6A
:102E5000E66EE66AFE0EDBCFE6FFE66A30EC11F0C6
:102E6000F56E0C0EE15EF550D950FC0FE96EFF0EC9
:102E7000DA20EA6EEE50ED1007E00D0EE66EE66A1F
:102E800027EC10F0E552E552E552E7CFD9FF1200EA
:102E9000D9CFE6FFE1CFD9FFFD0EDBCF2BF0FE0E41
:102EA000DBCF2CF02D6A2BC0E6FF2CC0E6FF2DC037
:102EB000E6FF000EE66E010EE66E3FEC28F0F56EC2
:102EC000050EE15EF5500101AF6BB06B000EE66ED2
:102ED000010EE66E58EC28F0E552E552F3CF2BF0E8
:102EE000F4CF2CF001012B50AF5D2C50B05918E2FB
:102EF000000EAF25E96E010EB021EA6EEFCF2BF088
:102F00002C6A2BBE2C682BC0E6FF2CC0E6FF27ECFA
:102F100010F0E552E5520101AF2B000EB023D6D7D9
:102F2000010EE66EE66AFB0EDBCFE6FFFC0EDBCFA2
:102F3000E6FF4BDFE552E552E552E552E552E7CFB9
:102F4000D9FF1200D9CFE6FFE1CFD9FFFD0EDBCFCD
:102F50002BF0FE0EDBCF2CF02D6A2BC0E6FF2CC031
:102F6000E6FF2DC0E6FF000EE66E010EE66E3FECBA
:102F700028F0F56E050EE15EF5500101AF6BB06B08
:102F8000000EE66E010EE66E58EC28F0E552E552B2
:102F9000F3CF2BF0F4CF2CF001012B50AF5D2C5070
:102FA000B05918E2000EAF25E96E010EB021EA6EAD
:102FB000EFCF2BF02C6A2BBE2C682BC0E6FF2CC069
:102FC000E6FF27EC10F0E552E5520101AF2B000EB1
:102FD000B023D6D7010EE66EE66AFB0EDBCFE6FF26
:102FE000FC0EDBCFE6FF8DDEE552E552E552E55201
:102FF000E552E7CFD9FF1200D9CFE6FFE1CFD9FFE5
:10300000FD0EDBCF2BF0FE0EDBCF2CF02D6A2BC09C
:10301000E6FF2CC0E6FF2DC0E6FF000EE66E010EB7
:10302000E66E3FEC28F0F56E050EE15EF55001010D
:10303000AF6BB06B000EE66E010EE66E58EC28F03A
:10304000E552E552F3CF2BF0F4CF2CF001012B50D9
:10305000AF5D2C50B05918E2000EAF25E96E010E9D
:10306000B021EA6EEFCF2BF02C6A2BBE2C682BC060
:10307000E6FF2CC0E6FF27EC10F0E552E552010117
:10308000AF2B000EB023D6D7E552E7CFD9FF120001
:10309000860E1F6E256A1D6A1C6A1B6A5CEF18F09B
:1030A000860E1F6E1EC025F01D6A1C6A1B6AE86A28
:1030B0001EAE5CEF18F01E6C2A6AE86A1E6422EFEE
:1030C00019F0F00E1E14E86668EF18F01E3A2A8414
:1030D000D8901EBE78EF18F01E362A2A1EBE78EF52
:1030E00018F01E362A2A1EBE78EF18F01E362A2A3D
:1030F0002A501F5E25AE1E9E000C8E0E1F6E256A86
:103100001C6A1B6A91EF18F08E0E1F6E1EC025F010
:103110001C6A1B6A1EAE91EF18F01D6C1E1EE86A39
:103120001E222A6AE86A1E64BAEF18F0F00E1E1416
:10313000E866A3EF18F01E3A1D380F0B1E261D3847
:10314000F00B1D6E2A84D8901EBEB6EF18F01D3607
:103150001E362A2A1EBEB6EF18F01D361E362A2A43
:103160001EBEB6EF18F01D361E362A2A2A501F5EE4
:1031700028EF19F01DC01EF01D6AE86A2A861E6439
:1031800022EF19F0F00E1E14E866C9EF18F01E3A8F
:103190002A84D8901EBEB6EF18F01E362A2A1EBE0C
:1031A000B6EF18F01E362A2A1EBEB6EF18F01E36ED
:1031B0002A2AB6EF18F0268026AEFF0C1E6A25AE2E
:1031C0001E681EC01DF01EC01CF01EC01BF0253660
:1031D0001E32FF0C268026AEFF0C1E6A25AE1E682E
:1031E0001EC01DF01EC01CF025361E32FF0C2680AE
:1031F00026AEFF0C1E6A25AE1E681EC01DF02536C9
:103200001E32FF0C268026AEFF0C1E6A25AE1E68FD
:1032100025361E32FF0C268226AEFF0C1F681E6864
:103220001D681C6825361E32FF0C268426AEFF0C56
:10323000010E1F6E1E6A1D6A1C6A25361E32FF0CA7
:103240002686FF0C1E6A1D6A1C6A1B6A1F6A000C18
:1032500025AE1E9E000C9E0E1F6E256A3FEF19F0D4
:103260009E0E1F6E1EC025F01EAE3FEF19F0E86ADD
:103270001B6C1C1E1D1E1E1E1C221D221E221E50EB
:10328000FF0BD8B4A4EF19F0F00BD8B47DEF19F010
:10329000E86A1EBE66EF19F0D8901B361C361D3644
:1032A0001E36E82A1EBE62EF19F01B361C361D368C
:1032B0001E36E82A1EBE62EF19F01B361C361D367C
:1032C0001E36E82A1F6415EF19F01F5E26BC1BAEE0
:1032D00028EF19F0D880800E1B641C30E86A1C228D
:1032E0001D221E22D8A028EF19F01E321D321C32DA
:1032F0001F4A0BEF19F028EF19F01CC021F01EC077
:1033000023F0D8901E34C50FF66E340EF76AF722FC
:10331000000EF86AF8220A00F5501B02F3CF1BF0EA
:10332000F4CF1CF01D02F3CF1DF0F4CF1EF02102EC
:10333000F3501C26F4501D26F5502302F3501E2690
:103340000800F55062EF19F01D501E6EFF0BD8B447
:10335000EDEF19F01CC01DF01BC01CF01B6A1E50C5
:10336000F00BD8B4CDEF19F0080E1EBE62EF19F0C5
:10337000D8901C361D361E36E82A1EBE62EF19F0A4
:103380001C361D361E36E82A1EBE62EF19F01C36AA
:103390001D361E36E82A62EF19F01DC022F0D890C3
:1033A0001E34C50FF66E340EF76AF722000EF86A67
:1033B000F8220A00F5501C02F3CF1CF0F4CF1DF0E8
:1033C0001E02F3CF1EF02202F3501D26F4501E26DB
:1033D0000800F550080F62EF19F01C501E6EFF0B2D
:1033E000D8B42DEF1AF01BC01DF01C6A1B6A1E50CA
:1033F000F00BD8B412EF1AF0100E1EBE62EF19F0E7
:10340000D8901D361E36E82A1EBE62EF19F01D3612
:103410001E36E82A1EBE62EF19F01D361E36E82A57
:1034200062EF19F01EC023F0D8901E34C50FF66E5F
:10343000340EF76AF722000EF86AF8220A00F550F7
:103440001D02F3CF1DF0F4CF1EF02302F3501E2611
:103450000800F550100F62EF19F01B501E6EFF0BA5
:10346000D8B422EF19F01D6A1C6A1B6A1E50F00BBB
:10347000D8B44EEF1AF0180E1EBE62EF19F0D890B5
:103480001E36E82A1EBE62EF19F01E36E82A1EBE5E
:1034900062EF19F01E36E82A62EF19F0D8901E3458
:1034A000C50FF66E340EF76AF722000EF86AF8229E
:1034B0000A00F5501E02F3CF1EF00800F550180F59
:1034C00062EF19F000000780064006400520052045
:1034D000052005200410041004100410041004102A
:1034E00004100410276AE86A246420EF19F01F64AE
:1034F00022EF19F01E502318256E1E8E238E2234C3
:1035000023342A36D890E8362A36F20FF66E370E74
:10351000F76E2A50010BF722F86A000EF8220A0013
:10352000F5CF19F00A00F5CF2AF00800F5CF29F001
:103530001950295C196ED89021341902F4CFF7FF85
:1035400022341902F3CFE8FFF726D8B0F42A286A0C
:10355000F750285EF450295AE86A2A5A1EC019F01A
:103560001DC0F7FF1CC0F6FF1C502802F4CF1AF054
:103570001D502902F4CF1CF0F3CF1BF02802F350AA
:103580001A26F4501B22E86A1C22F6502902F35036
:103590001A26F4501B22E86A1C221E502802F350FF
:1035A0001B26F4501C221E5029021D6AE86A1D22A7
:1035B000F3501C26F4501D22F6502A02F3501B260D
:1035C000F4501C221E6AE86A1D221E22F7502A02AD
:1035D000F3501C26F4501D22E86A1E2219502A02BC
:1035E000F3501D26F4501E221EBEFCEF1AF01B36AF
:1035F0001C361D361E36270623C019F022C0F7FFE1
:1036000021C0F6FF21502802F4CF1AF022502902DF
:10361000F4CF21F0F3CF20F02802F3501A26F45013
:103620002022E86A2122F6502902F3501A26F4508B
:103630002022E86A212223502802F3502026F45049
:10364000212223502902226AE86A2222F3502126ED
:10365000F4502222F6502A02F3502026F450212260
:10366000236AE86A22222322F7502A02F3502126F5
:10367000F4502222E86A232219502A02F35022260B
:10368000F450232223AE23BC4CEF1BF01A36203615
:10369000213622362336272A206C211E221E231E85
:1036A000E86A2122222223221EC02AF01DC029F00E
:1036B0001CC028F01BC0F6FF1C502102F4CF1AF0EA
:1036C0001D502002F4501A261D5021021B6AE86A80
:1036D0001B22F3501A26F4501B22F6502202F450FB
:1036E0001A261C6AE86A1B221C2228502202F35068
:1036F0001A26F4501B22E86A1C2229502202F35099
:103700001B26F4501C221E502102F3501B26F4509D
:103710001C221E5022021D6AE86A1D22F3501C263C
:10372000F4501D222A502002F3501A26F4501B2276
:10373000E86A1C221D222A502302F4CF1EF0F35007
:103740001D26E86A1E22F6502302F3501A26F45072
:103750001B22E86A1C221D221E2228502302F3503D
:103760001B26F4501C22E86A1D221E222950230227
:10377000F3501C26F4501D22E86A1E221EBECEEF16
:103780001BF01B361C361D361E3627061EBECEEF1E
:103790001BF01B361C361D361E36270624501F5EB6
:1037A000800ED8A0DBEF1BF027241F26D8B00BEF2C
:1037B00019F0E0EF1BF027241F26D8A015EF19F011
:1037C00026BC1BAEF5EF1BF0D880800E1B641C30AE
:1037D000E86A1C221D221E22D8A0F5EF1BF01E3223
:1037E0001D321C321F4A0BEF19F025AE1E9E000C35
:1037F000FFFF01FF04FE09FD10FC19FB23FA30F95D
:103800003EF84EF760F674F58AF4A1F3BAF2D5F1FA
:10381000F1F00FF02FEF50EE73ED98ECBEEBE5EA10
:103820000FEA39E966E893E7C3E6F3E526E559E4EC
:103830008EE3C5E2FCE136E170E0ACDFE9DE28DED4
:1038400068DDA9DCEBDB2FDB74DABAD902D94AD800
:1038500094D7DFD62CD679D5C7D417D468D3BAD2AB
:103860000DD261D1B7D00DD064CFBDCE17CE71CD02
:10387000CDCC29CC87CBE6CA46CAA6C908C96AC836
:10388000CEC733C798C6FEC566C5CEC437C4A1C36C
:103890000CC378C2E5C152C1C1C030C0A0BF11BFC6
:1038A00083BEF6BD69BDDDBC52BCC8BB3FBBB6BA6A
:1038B0002FBAA8B921B99CB817B893B710B78DB66D
:1038C0000BB68AB50AB58AB40BB48DB30FB392B2F6
:1038D00016B29BB120B1A6B02CB0B3AF3BAFC3AE14
:1038E0004CAED6AD60ADEBAC77AC03AC8FAB1DABE3
:1038F000ABAA39AAC8A958A9E8A879A80BA89CA777
:103900002FA7C2A656A6EAA57FA514A5AAA440A4DF
:10391000D7A36EA306A39FA238A2D1A16BA106A133
:10392000A1A03CA0D89F749F119FAF9E4D9EEB9D80
:103930008A9D299DC99C699C0A9CAB9B4C9BEE9AD5
:10394000919A349AD7997B991F99C49869980E983F
:10395000B4975A970197A8965096F895A0954995CF
:10396000F2949C944694F0939B934693F1929D928B
:103970004992F691A3915091FE90AC905A90099083
:10398000B88F688F178FC88E788E298EDA8D8C8DC0
:103990003E8DF08CA38C568C098CBC8B708B248B49
:1039A000D98A8E8A438AF889AE8964891B89D2882C
:1039B00089884088F887AF8768872087D98692866C
:1039C0004C860586BF8579853485EF84AA84658415
:1039D0002184DD83998356831283CF828D824A822C
:1039E0000882C681858143810281C18081804080B7
:1039F00001801B6AE86A24621F6422EF19F01E50DE
:103A00002318256E24501F267E0ED8A00EEF1DF021
:103A10001F5ED8B00BEF19F012EF1DF01F5ED8A09B
:103A200015EF19F01E8E238E1EC02AF01DC029F03E
:103A30001CC028F01C502102F4CF1AF01D502202A5
:103A4000F4CF1CF0F3CF1BF02102F3501A26F450F0
:103A50001B22E86A1C2228502202F3501A26F45036
:103A60001B22E86A1C221E502102F3501B26F45030
:103A70001C221E5022021D6AE86A1D22F3501C26D9
:103A8000F4501D2228502302F3501B26F4501C2210
:103A90001E6AE86A1D221E2229502302F3501C26AA
:103AA000F4501D22E86A1E222A502302F3501D26DC
:103AB000F4501E221EBE65EF1DF01B361C361D364F
:103AC0001E361F06D8B415EF19F026BC1BAE7AEFD0
:103AD0001DF0D880800E1B641C30E86A1C221D2259
:103AE0001E22D8A07AEF1DF01E321D321C321F4A52
:103AF0000BEF19F025AE1E9E000C256AE86A23AE76
:103B00008AEF1DF0206C211E221E231E212222225C
:103B10002322251E1EAE95EF1DF01B6C1C1E1D1EC4
:103B20001E1E1C221D221E22251E66EC28F01EBE13
:103B3000ACEF1DF025AE000C1B6C1C1E1D1E1E1EC6
:103B4000E86A1C221D221E22176C181E191E1A1E3E
:103B5000182219221A22000C25BE9CEF1DF026887F
:103B6000FF0C1EC02AF01DC029F01D502202F4CF08
:103B70001CF0F3CF1BF01E502302F4CF1EF0F3CF46
:103B80001DF02202F3501C26F4501D22E86A1E226A
:103B900029502302F3501C26F4501D22E86A1E22ED
:103BA00023AED7EF1DF029501D5E2A501E5A2AAEB3
:103BB000000C22501D5E23501E5A000C1DC029F01F
:103BC0001D502202F4CF1CF0F3CF1BF01E50230235
:103BD000F4CF1EF0F3CF1DF02202F3501C26F45058
:103BE0001D22E86A1E2229502302F3501C26F4509D
:103BF0001D22E86A1E22000CE86A1F64000C1EC029
:103C000025F01E8E860E1F5CE8AE02EF19F0E86C00
:103C10001F6E070E1F642DEF1EF01F5E1EC01DF0ED
:103C20001E6A1F4E4DEF1EF0030E1F641FEF1EF0A5
:103C30001F5E1D380F0B1D6E1F4E4DEF1EF0D890EE
:103C40001D321F4E4DEF1EF0D8901D321F4E4DEF0E
:103C50001EF0D8901D324DEF1EF0030E1F643EEF94
:103C60001EF01F5E1D380F0B1D6E1E38F00B1D263B
:103C70001E380F0B1E6E1F4E4DEF1EF0D8901E32D9
:103C80001D321F4E4DEF1EF0D8901E321D321F4EBA
:103C90004DEF1EF0D8901E321D3226BC1DAE5AEFDD
:103CA0001EF0D880800E1D641E30E86A1E221EBEE3
:103CB00002EF19F025AE000C1E6C000CE86A1F64C0
:103CC000000C1EC025F01E8E8E0E1F5CE8AEF7EFB6
:103CD00018F0E86C1F6E070E1F64BEEF1EF01F5E2B
:103CE0001DC01CF01EC01DF01E6A1F4EE7EF1EF027
:103CF000070E1F649CEF1EF01F5E1DC01CF01D6AA6
:103D00001F4EE7EF1EF0030E1F648EEF1EF01F5EC6
:103D10001C380F0B1C6E1F4EE7EF1EF0D8901C32A4
:103D20001F4EE7EF1EF0D8901C321F4EE7EF1EF03B
:103D3000D8901C32E7EF1EF0030E1F64ADEF1EF0AB
:103D40001F5E1C380F0B1C6E1D38F00B1C261D3817
:103D50000F0B1D6E1F4EE7EF1EF0D8901D321C3268
:103D60001F4EE7EF1EF0D8901D321C321F4EE7EFBA
:103D70001EF0D8901D321C32E7EF1EF0030E1F64B8
:103D8000D5EF1EF01F5E1C380F0B1C6E1D38F00B9C
:103D90001C261D380F0B1D6E1E38F00B1D261E38FD
:103DA0000F0B1E6E1F4EE7EF1EF0D8901E321D3215
:103DB0001C321F4EE7EF1EF0D8901E321D321C320F
:103DC0001F4EE7EF1EF0D8901E321D321C3226BC6B
:103DD0001CAEF5EF1EF0D880800E1C641D30E86A22
:103DE0001D221E221EBEF7EF18F025AE000C1D6C22
:083DF0001E1EE86A1E22000CF1
:083DF800D8CFE4FFE0CFE4FFA7
:103E0000E46EDACFE4FFE2CFDAFFE9CFE4FFEACFF6
:103E1000E4FFE652D9CFE6FFE1CFD9FF020EE1265B
:103E2000F2A402D0F29455D09EA004D09E9003EC50
:103E300027F04FD09EA204D09E92FCEC26F049D0F1
:103E4000F0A202D0F09245D0F0A402D0F09441D07C
:103E5000F2A03FD08150DF6EF290DF500701F319DE
:103E6000E76E010EE7CFDBFFDFCFF3F7DBA80AD069
:103E7000100EDF1402E0010E01D0000EE66E08EC19
:103E800027F0E552010EDBAA0AD0200EDF1402E073
:103E9000010E01D0000EE66E14EC27F0E552010E83
:103EA000DBAC0AD0400EDF1402E0010E01D0000EA0
:103EB000E66E20EC27F0E552010EDBAE0AD0800E54
:103EC000DF1402E0010E01D0000EE66E2CEC27F0AC
:103ED000E552D9CFE1FFE552E7CFD9FFE552E5CF73
:103EE000EAFFE5CFE9FFE5CFDAFFE550E5CFE0FFF8
:103EF000E5CFD8FF1000D9CFE6FFE1CFD9FFFE0E06
:103F0000DBCF6AF1DBCF6BF1E552E7CFD9FF1200CF
:103F1000D9CFE6FFE1CFD9FFFE0EDBCF68F1DBCFD3
:103F200069F1E552E7CFD9FF1200D9CFE6FFE1CF23
:103F3000D9FF190EE126DF6A0F0EDB6A100EDB6A6D
:103F4000110EDB6A120EDB6A7F0EF36E130EF3CFD7
:103F5000DBFF7F0EF36E140EF3CFDBFF150EDB6A73
:103F6000170EDB6A180EDB6A070EDF5C11E2D95010
:103F7000010F2B6EDACF2CF0DF50020D2B50F32403
:103F8000E96E2C50F420EA6EEE6AED6ADF2AECD777
:103F9000160EDB6ABD0EE66E4B0EE66EDAEC15F021
:103FA000E552E552010179AD1BD281A811D0100E66
:103FB000F36E180EDBCFF4FFF350F45C03E2180E3F
:103FC000DB2A05D0010EF36E170EF3CFDBFF02D014
:103FD000180EDB6A010198A102D2780EE66E010E7E
:103FE000E66EF3EC22F0E552E552160EDB50070ABE
:103FF00001E104D1020A01E1D5D0010A01E1A6D014
:10400000070A01E177D0010A49E0030A28E0010A22
:1040100001E0FDD0A50EE66E6EDFE552A00EE66E65
:1040200077DFE552180EDB6A170EDB6AD950110FE5
:10403000E96EDACFEAFF690ED880EE54000EED5437
:104040000DE2010EF36E160EF3CFDBFF9F0EE66E50
:104050004B0EE66EDAEC15F0E552E552D8D0A50E1F
:10406000E66E49DFE552A00EE66E52DFE552170E0E
:10407000DB5013E0F2EC26F0020EF36E160EF3CFD7
:10408000DBFF840EE66E4B0EE66EDAEC15F0E552C1
:10409000E5520F0EDB6A100EDB6AB9D07F0EE66EBA
:1040A0002ADFE5527F0EE66E33DFE5528C888D986D
:1040B0000F0EDB2A100E01E3DB2AD9500F0FE96E39
:1040C000DACFEAFF140ED880EE54000EED5411E260
:1040D000030EF36E160EF3CFDBFF660EE66E4B0E8D
:1040E000E66EDAEC15F0E552E5520F0EDB6A100EC3
:1040F000DB6A8DD07F0EE66EFEDEE5527F0EE66E49
:1041000007DFE5528C888D980F0EDB2A100E01E335
:10411000DB2AD9500F0FE96EDACFEAFF280ED880DC
:10412000EE54000EED5411E2040EF36E160EF3CFB2
:10413000DBFF4A0EE66E4B0EE66EDAEC15F0E5524A
:10414000E5520F0EDB6A100EDB6A61D07F0EE66E61
:10415000D2DEE5527F0EE66EDBDEE5528C988D985E
:104160000F0EDB2A100E01E3DB2AD9500F0FE96E88
:10417000DACFEAFF190ED880EE54000EED5411E2AA
:10418000050EF36E160EF3CFDBFF2B0EE66E4B0E15
:10419000E66EDAEC15F0E552E5520F0EDB6A100E12
:1041A000DB6A35D08C988D98C80EE66EA4DEE55299
:1041B000C40EE66EADDEE5520F0EDB2A100E01E3F3
:1041C000DB2AD9500F0FE96EDACFEAFF640ED880F0
:1041D000EE54000EED5411E2070EF36E160EF3CFFF
:1041E000DBFF120EE66E4B0EE66EDAEC15F0E552D2
:1041F000E5520F0EDB6A100EDB6A09D07F0EE66E09
:104200007ADEE5527F0EE66E83DEE55200D00101D4
:104210006A51326AD00F316E070E3222130EDB5014
:10422000336E346A3350315C2F6E34503258306EF6
:10423000190E1D6E1E6A2FC022F030C023F0DEEC76
:104240001DF01BC02DF01CC02EF0640E226E236AE0
:104250002DC01DF02EC01EF0A3EC28F01DC02DF0C7
:104260001EC02EF0130EDB5000012C6B2D242B6F83
:104270002E502C23F40E2B5E010E2C5A2BC06BF10A
:104280002BC06AF101016851326AD00F316E070EFE
:104290003222140EDB50336E346A3350315C2F6E91
:1042A00034503258306E190E1D6E1E6A2FC022F027
:1042B00030C023F0DEEC1DF01BC02DF01CC02EF032
:1042C000640E226E236A2DC01DF02EC01EF0A3ECDA
:1042D00028F01DC02DF01EC02EF0140EDB50000182
:1042E0002C6B2D242B6F2E502C23F40E2B5E010EE5
:1042F0002C5A2BC069F12BC068F1130E6AC1DBFF89
:10430000140E68C1DBFFDF5023E0D950010F2B6E84
:10431000DACF2CF0DF50020D2B50F324E96E2C5035
:10432000F420EA6EEE50ED1013E1D950010F2B6E20
:10433000DACF2CF0DF50020D2B50F324E96E2C5015
:10434000F420EA6E0F0EDBCFEEFF100EDBCFEDFF99
:1043500081B403D08C8A8D9A02D08C9A8D9A7F0E6C
:104360000101685D320DF3CF2BF0640E2C6E2CC072
:1043700023F02BC01EF0EDEC28F01E500101682543
:10438000696F686F7F0E6A5D320DF3CF2BF0640E9C
:104390002C6E2CC023F02BC01EF0EDEC28F01E502C
:1043A00001016A256B6F6A6F6BC1E6FF6AC1E6FFA8
:1043B00069C1E6FF68C1E6FF5AEC26F0E552E55216
:1043C000E552E552110EDB2A120E01E3DB2A580EEC
:1043D000E66E010EE66E2DEC23F0E552E552E2D5D5
:0E43E000D9CFE1FFE552E7CFD9FF120012005E
:0243EE00DACF24
:1043F000E4FFE2CFDAFFE9CFE4FFEACFE4FFE652E1
:10440000F2A202D094D802D09EB6C0D8E552E5CF31
:10441000EAFFE5CFE9FFE5CFDAFF1100E66A010E1A
:10442000E66E050EE66EBBEC27F0E552E552E5526E
:104430001200070EB46E000E886E876E866E856E53
:10444000846E836E826E816E806E916E906E8F6EC2
:104450008E6E8D6E8C6E8B6E8A6E896E2F0E926E46
:1044600093689C0E946E956A966A9768986A0E0E89
:104470009A6E9968C16AF19EB0989C8EA26A9F6AF2
:10448000A06A9D6AA36AA56AC9DF9F86D08E9E96A0
:104490009D869382F06AF288F09EF098F192F09AED
:1044A000F16AF28CF28E1200D9CFE6FFE1CFD9FF8C
:1044B000E652BFDF01019897989901015C0ECC6F1D
:1044C000010ECD6FDF6A100EDF5C0AE2DF50EA6A90
:1044D000CC25E96ECD51EA227F0EEF6EDF2AF3D7AD
:1044E0000101756B010E766FC20E776F0101988521
:1044F00001017A6B7B6B0101586B5A6B5B6B010E90
:10450000D56E320ED76ECF0ED66ED59E580EE66E95
:10451000010EE66EA2D8E552E552E552E552E7CF2C
:10452000D9FF120082828088949292981200F292AF
:104530000101200EC86F9F86010198A906D00101D4
:10454000E00EC56F000EC66F05D00101C00EC56F2D
:10455000000EC66F010198A1987998A706D00101B5
:10456000800EC36F000EC46F05D00101A00EC36F93
:10457000000EC46FC9CFC9F1C3C1E9FFC4C1EAFFCE
:10458000C32B000EC423EF50C96E12009E96C9CFF4
:10459000C9F10101C851000824E2C5C1E9FFC6C143
:1045A000EAFFC52B000EC623C9C1EFFFC3C1E9FF57
:1045B000C4C1EAFFC32BC423EFCFC9F1C9C1C9FFEE
:1045C000C807C8510DE1010198810101020E766F03
:1045D00001019893320ED76ECF0ED66EF294D58E1F
:1045E00001D0C96A1200D9CFE6FFE1CFD9FF01019E
:1045F00098A12FD098A906D00101C00EC16F000E5E
:10460000C26F05D00101E00EC16F000EC26FFD0E3A
:10461000DBCFCAF1FE0EDBCFCBF1C76B200EC75D3F
:1046200014E2C751EA6AC125E96EC251EA22EF508D
:10463000E66ECAC1E9FFCBC1EAFFCA2B000ECB234D
:10464000E552E750EF6EC72BE9D79D96010198918F
:104650009D86E552E7CFD9FF1200D9CFE6FFE1CF23
:10466000D9FF010198B33AD0020E0101765D01E154
:1046700080D801016D9F010198A706D00101A00E0D
:10468000C16F000EC26F05D00101800EC16F000E18
:10469000C26FFD0EDBCFCCF1FE0EDBCFCDF1C76BD1
:1046A000200EC75D14E2CCC1E9FFCDC1EAFFCC2BDF
:1046B000000ECD23EF50E66EC751EA6AC125E96EC0
:1046C000C251EA22E552E750EF6EC72BE9D79D961B
:1046D0000101987798839D860101752BE552E7CFFC
:1046E000D9FF12009D96010198919D861200D9CFA5
:1046F000E6FFE1CFD9FF0001166BD950FD0FE96E3F
:10470000FF0EDA20EA6E010EEE1801E1ED5002E133
:10471000168101D0BA6AD950FB0FE96EFF0EDA207C
:10472000EA6E010EEE1801E1ED5002E1168301D0B0
:10473000B76AD950F90FE96EFF0EDA20EA6E010E62
:10474000EE1801E1ED5002E1168501D0736AD950EF
:10475000F70FE96EFF0EDA20EA6E010EEE1801E1A6
:10476000ED5002E1168701D0706AE552E7CFD9FF1C
:1047700012000101746B6F6BC6AE04D0C69E010EB1
:104780006F6F0ED0F150800B06E0F250080B03E083
:10479000020E6F6F05D0F0A603D0909E030E6F6FD0
:1047A000250EC614250805E0010E746FC6CF6FF103
:1047B00068D0C55005E0020E746FC5CF6FF161D0AF
:1047C000D0BE05D0030E746FD0CF6FF15AD09DB616
:1047D00005D0040E746F9DCF6FF153D09C5005E04F
:1047E000050E746F9CCF6FF14CD0080E9F5C05E0F6
:1047F000060E746F9FCF6FF144D0A25005E0070EF4
:10480000746FA2CF6FF13DD0A55005E0080E746F14
:10481000A5CF6FF136D0500EF214500805E0090E06
:10482000746FF2CF6FF12DD0470EF11405E00A0E30
:10483000746FF1CF6FF125D0C00EF01405E00B0EB0
:10484000746FF0CF6FF11DD092A805D00C0E746F6D
:1048500092CF6FF116D093B005D00D0E746F93CF39
:104860006FF10FD03E0E94141C0805E00E0E746F0D
:1048700094CF6FF106D097BE04D00F0E746F97CF10
:044880006FF11200C2
:0C4884009EB802D0FDD7FCD71200D9CF9F
:10489000E6FFE1CFD9FFFE0EDBCFE6FF43EC26F0CB
:1048A000E5520D0EAD6EEEDFE552E7CFD9FF1200F7
:1048B000D9CFE6FFE1CFD9FF0101D950FD0F506FED
:1048C000FF0EDA20516F010EEA6A5025E96E515150
:1048D000EA22EF50E66E43EC26F0E55250C1E9FFC4
:1048E00051C1EAFFEF50E66E43EC26F0E5520D0EA3
:1048F000AD6EC8DFE552E7CFD9FF1200D9CFE6FF92
:10490000E1CFD9FFFD0EDBCF2BF0FE0EDBCF2CF07D
:104910002D6A2BC0E6FF2CC0E6FF2DC0E6FF000E7F
:10492000E66E010EE66E3FEC28F0F56E050EE15ED8
:10493000F550000EE66E010EE66E58EC28F0E552DA
:10494000E552F3CF54F1F4CF55F101015551000A6E
:10495000E8AE02D0553505D0500ED8805455000E23
:10496000555503E2500E546F556B566B576B5751AC
:104970005519E8AE02D0553504D05451565D555105
:1049800057590EE2000E5625E96E010E5721EA6EC8
:10499000EF50AD6E77DF0101562B000E5723E7D79E
:1049A000E552E7CFD9FF1200D9CFE6FFE1CFD9FF1B
:1049B0000101526B1A0E525D11E2FD0EDBCFE9FFD1
:1049C000DB2AFE0EDBCFEAFF01E3DB2AEF50E66EC7
:1049D00043EC26F0E5520101522BECD70D0EAD6EE3
:1049E00051DFE552E7CFD9FF12000101780E506F79
:1049F000010E516F010178510701EF6FF06BF1511A
:104A0000EF1902E1F251F01918E0010198A502D066
:104A100098950FD0F1C7E6FF43EC26F0E552EFC7BB
:104A2000E6FF43EC26F0E5520D0EAD6E2BDF0101E3
:104A30009895EFC7F1F7F0C7F2F70701F12B000ED9
:104A4000F223F251000AE8AE02D0F23505D0FF0E93
:104A5000D880F155000EF25502E2F16BF26B1200B4
:104A6000150EE66E3C0EE66EE8EC27F0E552E552D8
:104A7000320EE66EDDEC28F0E5521200D9CFE6FFEB
:104A8000E1CFD9FFFE0EDBCF53F1E552E7CFD9FFDF
:104A90001200D9CFE6FFE1CFD9FF020EE126FE0ECC
:104AA000DB507F0BFE0BFD0BE66E53C1E6FF14ECF3
:104AB00028F0E552E5520A0EE66EFBEC28F0E552CE
:104AC00009EC29F007EC04F0000901E0FBD78AECBF
:104AD00028F006EC29F0C4502D6E2DC02EF02D6A62
:104AE000C35000012D102B6F2EC02CF02BC0DEFF09
:104AF0002CC0DDFFDECF2BF0DDCF2CF02BC0F3FF81
:104B00002CC0F4FF00D0D9CFE1FFE552E7CFD9FFA9
:024B1000120091
:0E4B1200656E746572696E6720535441544598
:104B20005F414C4C5F53544F500A00656E74657280
:104B3000696E672053544154455F4348415247458D
:104B40005F464F52574152440A00656E7465726960
:104B50006E672053544154455F524554524143546B
:104B60005F52414D0A00656E746572696E6720532D
:104B7000544154455F4C454156455F52414D5F4F4E
:104B800055540A00656E746572696E67205354410E
:104B900054455F455854454E445F52414D0A0065A7
:104BA0006E746572696E672053544154455F474F78
:104BB0005F554E54494C5F4C494E450A00656E7432
:104BC0006572696E672053544154455F474F5F4695
:104BD0004F525F415748494C450A000A2D2D2D2D53
:104BE0002D2D2D2D2D2D2D0A0025730A0049464906
:104BF00020557365722050726F636573736F7220F6
:104C0000496E697469616C697A6564202E2E2E0084
:104C1000526967687420506572696F643A20256430
:104C20000A004C65667420506572696F643A2025ED
:104C3000640A00503220417578320A00696E74337C
:104C40003A2025640A00696E74323A2025640A000D
:104C5000696E74313A2025640A00286E756C6C29DF
:014C60000053
:014C6100FF53
:0E4C6200000EE96EEA6E04003EEC26F0EA2A2F
:104C7000080EEA5CD8A434EF26F01200EF6AE93E91
:104C80003EEF26F01200FF0EE3CF09F009380F0BBC
:104C9000060FD8B2070F2A0FAD6E42EC24F0095070
:104CA0000F0B060FD8B2070F2A0FAD6E42EC24F09F
:104CB000000C1200F2B4120016500F0AD8B4120001
:104CC000FF0EE3CF0AF0FE0EE3CF0BF0FD0EE3CFB5
:104CD0000CF0FC0EE3CF0DF00A2A16A08D8E0B2AE5
:104CE00016A28F800C2A16A48F860D2A16A68F88EE
:104CF0000E6A0F6A106A116AADEC26F00A2E83EF75
:104D000026F016A08D9E0B2E88EF26F016A28F900F
:104D10000C2E8DEF26F016A48F9600000D2E93EF2B
:104D200026F016A68F9800000E2E98EF26F012900F
:104D300000000F2E9DEF26F012920000102EA2EF21
:104D400026F012940000112EA7EF26F01296CFEC59
:104D500026F0133E7EEF26F01200D70E136E0000F1
:104D6000000000000000C5EC26F0132EAFEF26F087
:104D7000D70E136E0000000000000000C5EC26F006
:104D8000132EBAEF26F0000012000000C8EF26F044
:104D90000000000000000000000000001200030EF0
:0C4DA000146E0000142ED1EF26F012005B
:044DAC009F909D80B7
:104DB000CD8ECD98CD8ACD96CD92CD809388938A95
:104DC000938C938EF190F286E6EF26F0CC6ACB6856
:104DD000CA96CA98CA9ACA9CCA80CA829D829F9261
:104DE000CA841200CD901200CD90CA94F29612009F
:104DF000CD80CA84F28612000101DA2B000EDB237B
:104E0000DC23DD2312000101D82B000ED923120070
:104E1000D9CFE6FFE1CFD9FF070EE126D9CFE1FFD9
:104E2000E552E7CFD9FF1200D9CFE6FFE1CFD9FF96
:104E30000101E02B000EE123E552E7CFD9FF12007C
:104E4000D9CFE6FFE1CFD9FF0101DE2B000EDF2332
:104E5000E552E7CFD9FF1200D9CFE6FFE1CFD9FF66
:084E6000E552E7CFD9FF120073
:084E68001E0EF66E080EF76E37
:104E7000000EF86E01010900F550D36F0900F550DE
:104E8000D46F03E1D36701D03DD00900F550CE6F58
:104E90000900F550CF6F0900F550D06F09000900E7
:104EA000F550E96E0900F550EA6E090009000900A5
:104EB000F550D16F0900F550D26F09000900F6CF07
:104EC000D5F1F7CFD6F1F8CFD7F1CEC1F6FFCFC1EC
:104ED000F7FFD0C1F8FF0101D15302E1D25307E03F
:104EE0000900F550EE6ED107F8E2D207F9D7D5C127
:104EF000F6FFD6C1F7FFD7C1F8FF0101D307000EB7
:064F0000D45BBFD71200D4
:0A4F06001B502002F3CF17F0F4CF88
:104F100018F02102F3501826000EF420196E1B50D1
:104F20002202F3501926000EF4201A6E1B502302A1
:104F3000F3501A261C502002F3501826F450192260
:104F4000000E1A221C502102F3501926F4501A2286
:104F50001C502202F3501A261D502002F35019262D
:104F6000F4501A221D502102F3501A261E5020021E
:064F7000F3501A261200A6
:0A4F7600D9CFE6FFE1CFD9FF3F0ECF
:104F8000C716C66AFE0EDB50C612FC0EDB50C712F7
:104F9000FD0EDB50030A09E0010A04E0020A06E103
:104FA000C78C04D0C78CC68801D0C688FE0EDB50E3
:104FB000050A03E0010A04E1928A9486C79E01D0A3
:104FC0009496949A9488C68AE552E7CFD9FF120046
:104FD000D9CFE6FFE1CFD9FFAC6AAB6AFE0EDBB0FA
:104FE000AC88DBA202D0AC8CAB8CDBB4AC8EDBA685
:104FF00002D0AB8801D0AB8ADBA802D0AC8401D050
:10500000AC94DBAC02D09D8A01D09D9ADBAE02D07D
:105010009D8801D09D98FD0EDB50AF6EAC8AAB8EA3
:08502000E552E7CFD9FF1200B1
:08502800D9CFE6FFE1CFD9FF6B
:10503000C26AC16AC06AFD0EDB407F0B3C0BC26EC8
:10504000FE0EDB500F0B2B6EFD0EDB38F00B300B22
:105050002B10C16EFE0EDB380F0B070B2B6EFE0EF6
:10506000DB50800B2B10C06EFD0EDBAE03D09E9C80
:0E5070009D8CF28CC280E552E7CFD9FF120072
:02507E00FB0E27
:10508000E3CFF6FFFC0EE3CFF7FFFD0EE3CFF8FF13
:10509000FE0EE3CFE9FFFF0EE3CFEAFFE9CFF3FF18
:1050A000EACFF4FF0900F5CFEFFFEE66FBD7120061
:1050B000FE0EE3CFE9FFFF0EE3CFEAFFF36AF46AE7
:0C50C000EE5203E0F34AF42AFBD7120082
:0450CC001A6A196AD9
:1050D000186A176A200EE76ED8901B361C361D36EC
:1050E0001E361736183619361A362050175C2150DE
:1050F00018582250195823501A5809E32050175EA7
:105100002150185A2250195A23501A5A1B2AE72E96
:04511000E4D71200CE
:0C511400D9CFE6FFE1CFD9FF020EE12663
:10512000C350DF6E010EC4CFDBFFDECF2BF0DDCF2F
:105130002CF02BC0F3FF2CC0F4FFD9CFE1FFE552D8
:06514000E7CFD9FF1200C9
:0A5146001A6A196A100EE76ED8907D
:105150001D361E3619361A362250195C23501A583D
:1051600005E32250195E23501A5A1D2AE72EF0D764
:0251700012002B
:0E51720054EC22F0D6EC0DF0010198910101F1
:1051800098A107D049EC0EF0010179AD02D095EC61
:0A5190001FF0F6EC21F0F3D7120037
:06519A0016EE00F026EE07
:1051A00000F0F86A269CA68EA69C31EC26F034EC22
:0A51B00027F0B9EC28F0F9D712003F
:0651BA00FF0EE3503B6E06
:1051C000480E01D04C0EE76EE72EFED7E76AE72EB9
:0A51D000FED73B2EF7D700001200B7
:0651DA001A6A080EE76EE0
:1051E000D8901E361A3623501A5C02E31A6E1E2A15
:0651F000E72EF7D71200C4
:0A51F600FF0EE350E84E1200000027
:0C52000000D000D000D0E82EFAD7120039
:04520C00C2909D9C13
:0252100012008A
:04521200C282120042
:0A5216007F7F000000000000000090
:1052200000000000004E0050005000000000000090
:0B523000000000000000007F7F000075
:05523B0000000000006E
:05524000000000000069
:045245000000000065
:020000040030CA
:0E000000FFFEFEFCFFFEFBFFFFFFFFFFFFFF0A
:00000001FF
