:020000040000FA
:06080000ECEF28F01200ED
:0208060000FFF1
:0608080006EF22F01200D1
:02080E00C250D6
:08081000020B01E0010E1200D1
:060818006FEF1FF012005B
:02081E000500D3
:100820007C5200000E010000040000007A5200001B
:1008300014010000020000007052000000010000DE
:100840000A00000054520000990700001C0000003C
:0C08500006080000120100000200000079
:0C090400D9CFE6FFE1CFD9FFFD0EDBCF1D
:100910002BF0FE0EDBCF2CF02C50070AE8AE02D0F5
:10092000D89004D0D00E2B5C070E2C5806E207019D
:10093000D00EDB6F070EDC6F1ED0FD0EDBCF2BF071
:10094000FE0EDBCF2CF02C50080AE8AE02D02C347F
:1009500005D0CE0ED8802B54080E2C5406E2070189
:10096000CE0EDB6F080EDC6F06D0FD0EDBCFDBF7A3
:10097000FE0EDBCFDCF7DBC72BF0DCC72CF0D00E94
:100980002B5E070E2C5A2B5000D0E552E7CFD9FF33
:100990001200D9CFE6FFE1CFD9FF100EE126FD0E00
:1009A000DBCFE9FFFE0EDBCFEAFFEF502B6E2C6AA8
:1009B000FF0ED8802B56000E2C562BC0DEFF2CC00D
:1009C000DDFFFB0EDBCFE9FFFC0EDBCFEAFFEF50D4
:1009D0002B6E2C6AFF0ED8802B56000E2C56020E62
:1009E0002BC0DBFF030E2CC0DBFFF40EF36E040EF6
:1009F000F3CFDBFF010EF36E050EF3CFDBFFDECF8F
:100A00002BF0DDCF2CF07F0E2B5E000E2C5A060E45
:100A10002BC0DBFF070E2CC0DBFF020EDBCF2BF061
:100A2000030EDBCF2CF07F0E2B5E000E2C5A080E2F
:100A30002BC0DBFF090E2CC0DBFFDECF2BF0DDCFA0
:100A40002CF07F0E2B5C000E2C5839E2DECF2BF001
:100A5000DDCF2CF0FF0ED8802B56000E2C567F0ECB
:100A60002B5E000E2C5A060E2BC0DBFF070E2CC08F
:100A7000DBFF0A0E1D6E1E6A060EDBCF22F0070E8C
:100A8000DBCF23F051EC1EF01BC02BF01CC02CF070
:100A9000640E226E236A2BC01DF02CC01EF0C2EC27
:100AA00028F01DC02BF01EC02CF07F0ED8802B56D6
:100AB000000E2C562BC0DEFF2CC0DDFF76D00A0EB8
:100AC0001D6E1E6A060EDBCF22F0070EDBCF23F071
:100AD00051EC1EF00A0E1BC0DBFF0B0E1CC0DBFF2F
:100AE000640E2B6E2C6A0A0EDBCF1DF00B0EDBCFD3
:100AF0001EF02BC022F02CC023F0C2EC28F00C0E0C
:100B00001DC0DBFF0D0E1EC0DBFF7F0EE76E0C0E5F
:100B1000DBCF2BF00D0EDBCF2CF0E7502B26000E99
:100B20002C220E0E2BC0DBFF0F0E2CC0DBFF0701AB
:100B3000A65110E00A0EDBCFE6FF0B0EDBCFE6FF7F
:100B40005D0EE66E4D0EE66E4DEC16F0E552E5528A
:100B5000E552E5520701A65110E00C0EDBCFE6FF8F
:100B60000D0EDBCFE6FF530EE66E4D0EE66E4DEC3E
:100B700016F0E552E552E552E5520701A65110E0A4
:100B80000E0EDBCFE6FF0F0EDBCFE6FF490EE66E63
:100B90004D0EE66E4DEC16F0E552E552E552E5528B
:100BA0000E0EDBCFDEFFDBCFDDFFDECFE6FFDDCFDE
:100BB000E6FFCCD9E552E552F3CFDEFFF4CFDDFFFF
:100BC0008CA6C5D0020EDBCF2BF0030EDBCF2CF0B2
:100BD0007F0E2B5C000E2C583DE2020EDBCF2BF07B
:100BE000030EDBCF2CF0FF0ED8802B56000E2C56B8
:100BF0007F0E2B5E000E2C5A080E2BC0DBFF090E59
:100C00002CC0DBFF320E1D6E1E6A080EDBCF22F0F9
:100C1000090EDBCF23F051EC1EF01BC02BF01CC0E3
:100C20002CF0640E226E236A2BC01DF02CC01EF027
:100C3000C2EC28F01DC02BF01EC02CF07F0ED88017
:100C40002B56000E2C56020E2BC0DBFF030E2CC0C1
:100C5000DBFF7DD0320E1D6E1E6A080EDBCF22F048
:100C6000090EDBCF23F051EC1EF00A0E1BC0DBFF98
:100C70000B0E1CC0DBFF640E2B6E2C6A0A0EDBCF42
:100C80001DF00B0EDBCF1EF02BC022F02CC023F08A
:100C9000C2EC28F00C0E1DC0DBFF0D0E1EC0DBFFEA
:100CA0007F0EE76E0C0EDBCF2BF00D0EDBCF2CF0A2
:100CB000E7502B26000E2C220E0E2BC0DBFF0F0E52
:100CC0002CC0DBFF0701A65110E00A0EDBCFE6FFC8
:100CD0000B0EDBCFE6FF5D0EE66E4D0EE66E4DECC5
:100CE00016F0E552E552E552E5520701A65110E033
:100CF0000C0EDBCFE6FF0D0EDBCFE6FF530EE66EEC
:100D00004D0EE66E4DEC16F0E552E552E552E55219
:100D10000701A65110E00E0EDBCFE6FF0F0EDBCF72
:100D2000E6FF490EE66E4D0EE66E4DEC16F0E5520E
:100D3000E552E552E5520E0EDBCF1DF00F0EDBCF74
:100D40001EF0020E1DC0DBFF030E1EC0DBFF020EF5
:100D5000DBCF33F0030EDBCF34F0D00E3326070E9B
:100D6000342207019A51356E366A3550335C316E44
:100D700036503458326E190E1D6E1E6A31C022F084
:100D800032C023F051EC1EF01BC02FF01CC030F01D
:100D9000640E226E236A2FC01DF030C01EF0C2EC1C
:100DA00028F01DC02FF01EC030F007019A5100013D
:100DB0002E6B2F242D6F30502E23040EDB502D5C14
:100DC0002B6E050EDB502E582C6E020E2BC0DBFF57
:100DD000030E2CC0DBFFDECF33F0DDCF34F0D00EBE
:100DE0003326070E342207019951356E366A355085
:100DF000335C316E36503458326E190E1D6E1E6AD9
:100E000031C022F032C023F051EC1EF01BC02FF095
:100E10001CC030F0640E226E236A2FC01DF030C05B
:100E20001EF0C2EC28F01DC02FF01EC030F00701EC
:100E3000995100012E6B2F242D6F30502E23040E5C
:100E4000DB502D5C2B6E050EDB502E582C6E2BC00C
:100E5000DEFF2CC0DDFF020EDBCF9AF7DFCF99F764
:100E6000D9CFE6FFDACFE6FF21D8E552E552D950D7
:100E7000020FE66EDACFE6FF19D8E552E552FD0E15
:100E8000DBCFE9FFFE0EDBCFEAFFDFCFEFFFFB0E8C
:100E9000DBCFE9FFFC0EDBCFEAFF020EDBCFEFFF7B
:100EA000D9CFE1FFE552E7CFD9FF1200D9CFE6FF56
:100EB000E1CFD9FF020EE126FD0EDBCFE9FFFE0EEA
:100EC000DBCFEAFFEECFDEFFEDCFDDFFDECF2BF095
:100ED000DDCF2CF0770E2B5C000E2C580DE2DECF10
:100EE0002BF0DDCF2CF0080E2B26000E2C222BC071
:100EF000DEFF2CC0DDFF1AD0D9CFE9FFDACFEAFF41
:100F0000870ED880EE54000EED540DE2DECF2BF0AC
:100F1000DDCF2CF0080E2B5E000E2C5A2BC0DEFF0E
:100F20002CC0DDFF03D07F0EDE6EDD6AFD0EDBCF51
:100F3000E9FFFE0EDBCFEAFFDECFEEFFDDCFEDFFF8
:100F4000D9CFE1FFE552E7CFD9FF1200D9CFE6FFB5
:100F5000E1CFD9FF0E0EE126FD0EDBCF2BF0FE0E0A
:100F6000DBCF2CF02D6A2E6A7F0E2B5E000E2C5AE2
:100F70002D5A2E5A2BC0DFFF010E2CC0DBFF020EB4
:100F80002DC0DBFF030E2EC0DBFFD9CFE9FFDACF88
:100F9000EAFFEECF2BF0EECF2CF0EECF2DF0EFCF1F
:100FA0002EF02BC01BF02CC01CF02DC01DF02EC04D
:100FB0001EF0DFCF20F0010EDBCF21F0020EDBCFE1
:100FC00022F0030EDBCF23F0A2EC27F0040E17C0B3
:100FD000DBFF050E18C0DBFF060E19C0DBFF070E96
:100FE0001AC0DBFF040EDBCF1BF0050EDBCF1CF0BD
:100FF000060EDBCF1DF0070EDBCF1EF07F0E206E3E
:10100000216A226A236AF0EC1DF0080E1BC0DBFF88
:10101000090E1CC0DBFF0A0E1DC0DBFF0B0E1EC03D
:10102000DBFF7F0E2D6E2E6A2F6A306AD950080FB3
:10103000E96EDACFEAFFEE502D26EE502E22EE506A
:101040002F22EE5030222DC02BF02EC02CF0FF0EA0
:10105000D8802B56000E2C560C0E2BC0DBFF0D0E2D
:101060002CC0DBFFFD0EDBCF2BF0FE0EDBCF2CF018
:101070007F0E2B5C000E2C5811E20C0EDBCF2BF0F8
:101080000D0EDBCF2CF0FF0ED8802B56000E2C5609
:101090000C0E2BC0DBFF0D0E2CC0DBFF0C0EDBCFCC
:1010A0002BF00D0EDBCF2CF02BC0F3FF2CC0F4FF88
:1010B00000D0D9CFE1FFE552E7CFD9FF1200D9CF59
:1010C000E6FFE1CFD9FFFE0EDB5000D0E552E7CFBF
:1010D000D9FF120081B403D08C8A8D9A02D08C9AE9
:1010E0008D9A0701A65110E08150040B01E0010E1A
:1010F000E66EE66A400EE66E4D0EE66E4DEC16F0BC
:10110000E552E552E552E55207017AA110D0020EF0
:1011100007019C5D0BE29C5105E18C868D96030EC8
:101120009C6F04D08C968D86020E9C6F07D00701B1
:101130009C51010803E2020E9C5D9C6F07017AA39B
:1011400000D07AA500D07AA700D08651280805E201
:10115000320E865D02E207019B6B070186512B6E02
:101160002C6A2C50000AE8AE02D02C3405D0FA0EBE
:10117000D8802B54000E2C5417E286512D6E2E6A07
:101180002E50010AE8AE02D0D89004D0040E2D5C97
:10119000010E2E5809E207019B0504E08C828D9216
:1011A0008C848D94010E9B6F070186515A0810E2C2
:1011B000640E865D0DE2060E07019B5D07E08CB2B2
:1011C00003D08C828D9202D08C928D82060E9B6F02
:1011D000070186512B6E2C6A2C50000AE8AE02D013
:1011E0002C3405D0BE0ED8802B54000E2C541BE29C
:1011F00086512D6E2E6A2E50000AE8AE02D0D8908D
:1012000004D0D10E2D5C000E2E580DE2020E070107
:101210009B5D07E08CB403D08C848D9402D08C94B9
:101220008D94020E9B6F070186512B6E2C6A2C50F9
:10123000000AE8AE02D02C3405D08C0ED8802B5496
:10124000000E2C5418E286512D6E2E6A2E50000A84
:10125000E8AE02D0D89004D0A00E2D5C000E2E581F
:101260000AE2040E07019B5D04E08C928D828C944F
:101270008D94040E9B6F070186512B6E2C6A2C50A7
:10128000000AE8AE02D02C3405D0A00ED8802B5432
:10129000000E2C5414E286512D6E2E6A2E50000A38
:1012A000E8AE02D0D89004D0AA0E2D5C000E2E58C5
:1012B00006E2050E07019B5D00E0050E9B6F07012E
:1012C00086512B6E2C6A2C50000AE8AE02D02C34CA
:1012D00005D0D20ED8802B54000E2C5414E2865127
:1012E0002D6E2E6A2E50000AE8AE02D0D89004D09F
:1012F000D70E2D5C000E2E5806E2030E07019B5DF3
:1013000000E0030E9B6F070183512B6E2C6A2C505B
:10131000000AE8AE02D02C3405D08C0ED8802B54B5
:10132000000E2C5403E28C908D9002D08C808D9016
:101330007F512B6E2C6A2C50000AE8AE02D02C3460
:1013400005D08C0ED8802B54000E2C5400E287510F
:101350002B6E2C6A2C50000AE8AE02D02C3405D03B
:101360008C0ED8802B54000E2C5403E28C888D9860
:1013700002D08C988D988B512B6E2C6A2C50000AC1
:10138000E8AE02D02C3405D08C0ED8802B54000E41
:101390002C5400E27BA100D00701A05102E0000E16
:1013A00001D0010E9D6F000903E08C909D6B78D0F9
:1013B00007017BA336D0380EE66E4D0EE66E4DEC7F
:1013C00016F0E552E55207017B51080B21E10701B8
:1013D0009D511EE19F511CE1020E9D6FA65117E029
:1013E0008F0EE66E58EC25F0E552F3CF2BF0F4CFDC
:1013F0002CF02BC0E6FF2CC0E6FF2C0EE66E4D0E47
:10140000E66E4DEC16F0E552E552E552E55205D098
:1014100007017F0E5C6F07019D6B0701010E9F6F37
:1014200002D007019F6B07017BA500D07BA736D0B8
:10143000230EE66E4D0EE66E4DEC16F0E552E552CB
:1014400007017B51020B21E107019D511EE19E51D5
:101450001CE1010E9D6FA65117E08F0EE66E58EC51
:1014600025F0E552F3CF2BF0F4CF2CF02BC0E6FFA4
:101470002CC0E6FF2C0EE66E4D0EE66E4DEC16F01F
:10148000E552E552E552E55205D007017F0E5C6F4B
:1014900007019D6B0701010E9E6F02D007019E6B35
:1014A000A6510DE09D51E66EE66A180EE66E4D0EF1
:1014B000E66E4DEC16F0E552E552E552E5520701B5
:1014C0009D5128E09D0513E11E0EA05D0CE2070171
:1014D000FE0E5C6F8150800B01E0010E0701A15DE3
:1014E00001E0A02B03D007017F0E5C6F12D0A0514A
:1014F00000080CE20701FE0E5C6F8150800B01E0DA
:10150000010E0701A15D01E0A00703D007017F0ED6
:101510005C6F03D007017F0E5C6F8150800B01E090
:10152000010E0701A16F12008C808D908C928D822C
:101530008C948D948C968D868C988D988C9A8D9A9F
:101540008150800B01E0010E0701A16F1200D9CF7D
:10155000E6FFE1CFD9FF070EE126DF6A010EDB6A65
:101560007F0EF36E060EF3CFDBFFDF50EA6ACD0F7E
:10157000E96E070EEA22EFCF2BF0FD0EDBCF2CF049
:10158000FE0EDBCF2DF02B502C5C000E2D5805E20B
:101590000D0EDF5C02E2DF2AE8D7DF04EA6ACD0F36
:1015A000E96E070EEA22EFCF2CF0DF50EA6ACD0F8A
:1015B000E96E070EEA22EF502C5C2B6E0A0E2D6EA0
:1015C0002DC023F02BC01EF00CEC29F01E50E66E4F
:1015D000D950020FE96EDACFEAFFE552E750EE6E1E
:1015E000ED6ADF04EA6ACD0FE96E070EEA22EF50DA
:1015F000E66ED950040FE96EDACFEAFFE552E75004
:10160000EE6EED6ADF04E76E010EE7CFDBFFDF6A07
:10161000040EDBCF2DF0050EDBCF2EF0DF502F6E4A
:10162000306A2FC01DF030C01EF0020EDBCF22F05A
:10163000030EDBCF23F051EC1EF02D501B242B6E3C
:101640002E501C202C6EFD0EDBCF31F0FE0EDBCFBA
:1016500032F02B50315C2C50325802E2DF2AD8D7BE
:10166000FC0EDB040BE1010EDB500A0DF3507F0F83
:10167000DF24E76E060EE7CFDBFF0DD07F0E2B6E6B
:10168000010EDB500A0DF3502B5CD880DF54E76E5F
:10169000060EE7CFDBFFDB5000D0D9CFE1FFE552EC
:1016A000E7CFD9FF1200D9CFE6FFE1CFD9FF1D0E5A
:1016B000E12602C1DEFF03C1DDFF07016A51E66ECC
:1016C000D950040FE96EDACFEAFFE552E750EE6E2B
:1016D000ED6A6851E66ED950060FE96EDACFEAFF7F
:1016E000E552E750EE6EED6A010EF36E080EF3CF91
:1016F000DBFF090EDB6A0A0EDB6A0B0EDB6A7F0E6C
:10170000F36E0C0EF3CFDBFF0D0EDB6A0E0EDB6A01
:101710000F0EDB6A7F0EF36E100EF3CFDBFF08C1F6
:1017200022F009C123F0DECF1DF0DDCF1EF0C2ECA8
:1017300028F01DC02BF01EC02CF02BC0E6FF2CC0E3
:10174000E6FF070EE66E4D0EE66E4DEC16F0E55226
:10175000E552E552E55206C122F007C123F0DECF83
:101760001DF0DDCF1EF0C2EC28F01DC02BF01EC016
:101770002CF02BC0E6FF2CC0E6FFF50EE66E4C0EFB
:10178000E66E4DEC16F0E552E552E552E5520101E8
:10179000000ED8800855000E095529E27F0E07017A
:1017A0006A5D02E2080EDB6A080EDBCFE6FF08C1C5
:1017B00022F009C123F0DECF1DF0DDCF1EF0C2EC18
:1017C00028F01DC02BF01EC02CF02BC0E6FF2CC053
:1017D000E6FFBDDEE552E552E552E76E020EE7CFC9
:1017E000DBFF010EF36E080EF3CFDBFF0DD0010E11
:1017F000E66EE66A020EE66EAADEE552E552E552B4
:10180000E76E020EE7CFDBFF0101000ED880065520
:10181000000E075529E27F0E0701685D02E2080EFF
:10182000DB6A080EDBCFE6FF06C122F007C123F01A
:10183000DECF1DF0DDCF1EF0C2EC28F01DC02BF076
:101840001EC02CF02BC0E6FF2CC0E6FF80DEE55268
:10185000E552E552E76E030EE7CFDBFF010EF36EB4
:10186000080EF3CFDBFF0DD0010EE66EE66A020E26
:10187000E66E6DDEE552E552E552E76E030EE7CF08
:10188000DBFF020EDB502D6E2E6A040EDBCF1DF047
:10189000050EDBCF1EF02D501D5C2B6E2E501E58FA
:1018A0002C6E110E2BC0DBFF120E2CC0DBFF0D0EB9
:1018B000DBCF2BF00E0EDBCF2CF00F0EDBCF2DF09D
:1018C000100EDBCF2EF0110EDBCF1DF0120EDBCF92
:1018D0001EF00701AF511D5C336EB0511E58346EBF
:1018E00033C01DF034C01EF0F7EC18F01CC02FF010
:1018F0001DC030F01EC031F01FC032F02FC021F0EB
:1019000030C022F031C023F032C024F02BC01CF0D4
:101910002CC01DF02DC01EF02EC01FF06CEC1DF071
:10192000D1EC1EF0130E1DC0DBFF140E1EC0DBFF3A
:10193000110EDBCFAFF7120EDBCFB0F7090EDBCF06
:101940002FF00A0EDBCF30F00B0EDBCF31F00C0E98
:10195000DBCF32F002C11BF003C11CF004C11DF04B
:1019600005C11EF09EEC19F01CC033F01DC034F010
:101970001EC035F01FC036F033C021F034C022F055
:1019800035C023F036C024F02FC01CF030C01DF04D
:1019900031C01EF032C01FF06CEC1DF01CC02BF0EB
:1019A0001DC02CF01EC02DF01FC02EF0110EDBCF7D
:1019B0001DF0120EDBCF1EF0F7EC18F01CC037F054
:1019C0001DC038F01EC039F01FC03AF037C021F0FA
:1019D00038C022F039C023F03AC024F02BC01CF0EC
:1019E0002CC01DF02DC01EF02EC01FF06CEC1DF0A1
:1019F000D1EC1EF0150E1DC0DBFF160E1EC0DBFF66
:101A00000701B3512F6E306A130EDB502F242D6E59
:101A1000140EDB5030202E6E150EDB502D242B6E55
:101A2000160EDB502E202C6E2BC06BF72BC06AF7E6
:101A3000030EDB502D6E2E6A060EDBCF1DF0070E57
:101A4000DBCF1EF02D501D5C2B6E2E501E582C6EC1
:101A5000170E2BC0DBFF180E2CC0DBFF0D0EDBCFEB
:101A60002BF00E0EDBCF2CF00F0EDBCF2DF0100E77
:101A7000DBCF2EF0170EDBCF1DF0180EDBCF1EF0E4
:101A8000B1511D5C336EB2511E58346E33C01DF01F
:101A900034C01EF0F7EC18F01CC02FF01DC030F061
:101AA0001EC031F01FC032F02FC021F030C022F034
:101AB00031C023F032C024F02BC01CF02CC01DF02C
:101AC0002DC01EF02EC01FF06CEC1DF0D1EC1EF0EE
:101AD000190E1DC0DBFF1A0E1EC0DBFF170EDBCF79
:101AE000B1F7180EDBCFB2F7090EDBCF2FF00A0EDD
:101AF000DBCF30F00B0EDBCF31F00C0EDBCF32F052
:101B000002C11BF003C11CF004C11DF005C11EF091
:101B10009EEC19F01CC033F01DC034F01EC035F02F
:101B20001FC036F033C021F034C022F035C023F09E
:101B300036C024F02FC01CF030C01DF031C01EF0A4
:101B400032C01FF06CEC1DF01CC02BF01DC02CF03F
:101B50001EC02DF01FC02EF0170EDBCF1DF0180E8B
:101B6000DBCF1EF0F7EC18F01CC037F01DC038F0CA
:101B70001EC039F01FC03AF037C021F038C022F043
:101B800039C023F03AC024F02BC01CF02CC01DF04B
:101B90002DC01EF02EC01FF06CEC1DF0D1EC1EF01D
:101BA0001B0E1DC0DBFF1C0E1EC0DBFF0701B45166
:101BB0002F6E306A190EDB502F242D6E1A0EDB505B
:101BC00030202E6E1B0EDB502D242B6E1C0EDB5096
:101BD0002E202C6E2BC069F72BC068F70101026B19
:101BE000036B046B056B000E0101066F076B0101AF
:101BF000086F096BD9CFE1FFE552E7CFD9FF12009B
:101C00000701CD6BCE6BCF6BD06BD16BD26BD36B2F
:101C1000D46BD56BD66BD76BD86BD96BDA6B1200E4
:101C2000D9CFE6FFE1CFD9FF020EE126D20EDE6E5C
:101C30004C0EDD6EF00EE66E4DEC25F0E552938A0B
:101C400093889386938499829980938E938C9A84B7
:101C50009A82998699849A8A9A8894809A869A8E8A
:101C60009A9C919C07017F0E636F63C762F763C7FD
:101C700061F763C760F763C75FF763C75EF763C762
:101C80005DF763C75CF76B6F6BC76AF76BC769F784
:101C90006BC768F76BC767F76BC766F76BC765F706
:101CA0006BC764F7000EE66EE66AE66EE66AE66EFD
:101CB000E66AE66EE66A86EC23F0F56E080EE15EF3
:101CC000F55032DC9DDF3FEC25F0C9EC26F0580ED4
:101CD000E66E070EE66E3CEC23F0E552E552DECFF1
:101CE000E6FFDDCFE6FFCE0EE66E4C0EE66E4DEC67
:101CF00016F0E552E552E552E552A1EC22F0D9CFBB
:101D0000E1FFE552E7CFD9FF1200780EE66E070E2D
:101D1000E66E02EC23F0E552E552070179BD02D0F0
:101D2000E5EC26F00701A22B000EA323A423A52394
:101D3000A2C72BF0A3C72CF0A4C72DF0A5C72EF087
:101D40000F0E2B162C6A2D6A2E6A2B502C102D107C
:101D50002E100BE1010EA66FC00EE66E4C0EE66E65
:101D60004DEC16F0E552E55201D0A66B0701A651E5
:101D700017E0870EE66E58EC25F0E552F3CF2BF016
:101D8000F4CF2CF02BC0E6FF2CC0E6FFAB0EE66EC6
:101D90004C0EE66E4DEC16F0E552E552E552E5527A
:101DA00044D86AEC08F0A2C72BF0A3C72CF0A4C754
:101DB0002DF0A5C72EF0030E206E216A226A236A39
:101DC0002BC01BF02CC01CF02DC01DF02EC01EF02F
:101DD00085EC28F017C02BF018C02CF019C02DF09E
:101DE0001AC02EF02B502C102D102E1007E10701D9
:101DF000A251A311A411A51101E055DC6BC7E6FFA8
:101E00006AC7E6FF69C7E6FF68C7E6FFC1EC25F0D1
:101E1000E552E552E552E552580EE66E070EE66EC3
:101E20003CEC23F0E552E55212007E0EE66E070E02
:101E3000E66E820EE66E070EE66EC9EC04F0E55221
:101E4000E552E552E5520701A65111E007017E5126
:101E5000E66EE66A8251E66EE66A9C0EE66E4C0E0F
:101E6000E66E4DEC16F0F56E060EE15EF5500701DC
:101E700082512E6AD00F2D6E070E2E227E51000148
:101E80002D242B6F000E2E202C6F7F0E2B5E000E4C
:101E90002C5A2BC0E6FF2CC0E6FF82EC04F0E55282
:101EA000E552E66E5FEC08F0E55207016A6F6B6F72
:101EB000070182512E6AD00F2D6E070E2E227E5101
:101EC0002F6E306A2F502D5C2B6E30502E582C6E9A
:101ED0007F0E2B26000E2C222BC0E6FF2CC0E6FF27
:101EE00082EC04F0E552E552E66E5FEC08F0E55254
:101EF0000701686F696F69512B6E2C6AFF0ED880DD
:101F00002B56000E2C562BC069F72BC068F7070123
:101F100079BBBED07E5D07E37E51380804E307013C
:101F2000589158833AD07D0E7E5D13E37E512B6E1F
:101F30002C6A2C50000AE8AE02D02C3405D0810E59
:101F4000D8802B54000E2C5404E307015881588389
:101F500024D07E512B6E2C6A2C50000AE8AE02D0A1
:101F6000D89004D0D80E2B5C000E2C5813E37E5171
:101F70002D6E2E6A2E50000AE8AE02D02E3405D007
:101F8000FF0ED8802D54000E2E5404E30701588113
:101F9000589303D0070158915893000E07017F5DB5
:101FA00007E37F51380804E30701589558873AD072
:101FB0007D0E7F5D13E37F512B6E2C6A2C50000A3F
:101FC000E8AE02D02C3405D0810ED8802B54000E00
:101FD0002C5404E307015885588724D07F512B6E79
:101FE0002C6A2C50000AE8AE02D0D89004D0D80E4B
:101FF0002B5C000E2C5813E37F512D6E2E6A2E5051
:10200000000AE8AE02D02E3405D0FF0ED8802D5441
:10201000000E2E5404E307015885589703D007019A
:1020200058955897589B8C50010B01E0588B589944
:102030008D50010B01E05889589F8C50020B01E034
:10204000588F589D8D50020B01E0588D8C50080B15
:1020500001E0010E010BF36EFE0E5915F310596FDE
:102060008C50080B01E0010E010BF36EF346FD0EE0
:102070005915F310596F8C50080B01E0010E010B3C
:10208000F36EF346F346FB0E5915F310596F51D01A
:102090008FC71EF0BBEC18F01CC033F01DC034F02D
:1020A0001EC035F01FC036F0710E216E3D0E226E3F
:1020B0007A0E236E820E246E33C01CF034C01DF0E5
:1020C00035C01EF036C01FF06CEC1DF01CC02FF0A8
:1020D0001DC030F01EC031F01FC032F0216A226AEC
:1020E000236A870E246E2FC01CF030C01DF031C053
:1020F0001EF032C01FF0E5EC1AF01CC02BF01DC022
:102100002CF01EC02DF01FC02EF0216A226A200E76
:10211000236E820E246E2BC01CF02CC01DF02DC02F
:102120001EF02EC01FF06CEC1DF06FEC1EF01EC0F8
:0421300058F712004A
:0C213400D9CFE6FFE1CFD9FFFD0EDB5054
:10214000AD6E51EC24F0E552E7CFD9FF1200D9CFA4
:10215000E6FFE1CFD9FF080EE126DE6ADD6A200E38
:10216000F36E020EF3CFDBFF030EDB6AFB0EDBCF59
:102170002BF0FC0EDBCF2CF02C50000AE8AE02D086
:102180002C3405D0000ED8802B54000E2C545AE26B
:10219000040EDB6A050EDB6AFD0EDBCF1DF0FE0EC2
:1021A000DBCF1EF0060E1DC0DBFF070E1EC0DBFFDF
:1021B000060EDBCFE9FF070EDBCFEAFFEF500BE0A7
:1021C000040EDB2A050E01E3DB2A060EDB2A070ECE
:1021D00001E3DB2AEDD7040EDBCF2BF0050EDBCFBE
:1021E0002CF0FB0EDBCF2DF0FC0EDBCF2EF02C50B5
:1021F0002E18E8AE02D02E3404D02D502B5C2E5079
:102200002C5805E3FB0EDB6AFC0EDB6A10D0040ED3
:10221000DBCF2BF0050EDBCF2CF0D950FB0FE96E96
:10222000FF0EDA20EA6E2B50EE5E2C50ED5AF90EBE
:10223000DB50020B07E0300EF36E020EF3CFDBFF34
:10224000030EDB6AF90EDB50010B25E1FB0EDBCF41
:102250002BF0FC0EDBCF2CF02C50000AE8AE02D0A5
:102260002C3405D0000ED8802B54000E2C5413E2D1
:10227000020EDBCFE6FF030EDBCFE6FF5BDFE552AE
:10228000E552DF2A010E01E3DB2AFB0EDB06FC0E22
:1022900001E2DB06DBD7FD0EDBCFE9FFFE0EDBCF75
:1022A000EAFFEF501CE0FD0EDBCFE9FFFE0EDBCFB7
:1022B000EAFFEFCF2BF02C6A2BBE2C682BC0E6FF79
:1022C0002CC0E6FF37DFE552E552DF2A010E01E3BD
:1022D000DB2AFD0EDB2AFE0E01E3DB2ADCD7FB0E38
:1022E000DBCF2BF0FC0EDBCF2CF02C50000AE8AE3D
:1022F00002D02C3405D0000ED8802B54000E2C5464
:1023000013E2020EDBCFE6FF030EDBCFE6FF12DFA8
:10231000E552E552DF2A010E01E3DB2AFB0EDB0664
:10232000FC0E01E2DB06DBD7DECF2BF0DDCF2CF09D
:102330002BC0F3FF2CC0F4FF00D0D9CFE1FFE55252
:10234000E7CFD9FF1200D9CFE6FFE1CFD9FF0A0EC0
:10235000E126040EDB6A050EDB6A060EDB6A070E59
:10236000DB6AFD0EDBCF1DF0FE0EDBCF1EF0080E8C
:102370001DC0DBFF090E1EC0DBFF0701BE0EB56FDF
:10238000EF0EC96FD950FD0FE96EFF0EDA20EA6E2D
:10239000EE50ED1019E1300EB56FB66BF50EDBCFD8
:1023A000E6FFF60EDBCFE6FFF70EDBCFE6FFF80E1B
:1023B000DBCFE6FFB50EE66E070EE66EC8DEF56E05
:1023C000060EE15EF55026D1D950F90FE96EFF0EE9
:1023D000DA20EA6EEE50ED102CE0D950FB0FE96EDA
:1023E000FF0EDA20EA6E0A0EEE1801E1ED5021E14F
:1023F000FD0EDBCF2BF0FE0EDBCF2CF00001800EAC
:102400002C1517E0010EF36E040EF3CFDBFF050E63
:10241000DB6A1D681E68FD0EDBCF22F0FE0EDBCFEF
:1024200023F024EC1EF0080E1BC0DBFF090E1CC0BD
:10243000DBFFC90E2B6E070E2C6E2B06000E2C5ADE
:102440002BC0DEFF2CC0DDFFDECFE9FFDDCFEAFFD2
:10245000EF6AD950080FE96EDACFEAFFEE50ED10BF
:1024600072E0080EDBCF1DF0090EDBCF1EF0FB0E75
:10247000DBCF22F0FC0EDBCF23F0C2EC28F0020E03
:1024800019C0DBFF030E1AC0DBFF020EDBCF2BF0FF
:10249000030EDBCF2CF02C50000AE8AE02D0D8900F
:1024A00004D00A0E2B5C000E2C5817E3F30EDBCF82
:1024B0002BF0F40EDBCF2CF0300E2B5E000E2C5ADE
:1024C0000A0E2B5E000E2C5AD950020FE96EDACF9D
:1024D000EAFF2B50EE262C50ED22300EE76E020E56
:1024E000DBCF2BF0030EDBCF2CF0E7502B26000EBA
:1024F0002C22D9CFE9FFDACFEAFFEE06ED5AEECF74
:10250000F3FFEDCFF4FFF3CFE9FFF4CFEAFF2BC0E9
:10251000EFFFFB0EDBCF2BF0FC0EDBCF2CF0D95006
:10252000080FE96EDACFEAFF2BC022F02CC023F0AF
:10253000EECF1DF0EDCF1EF0C2EC28F01DC0EEFF77
:102540001EC0EDFF86D7D950040FE96EDACFEAFF3F
:10255000EE50ED102FE0D950F70FE96EFF0EDA20A4
:10256000EA6EEE50ED1015E0F50EDB50020B11E0B7
:102570002D0EE66EE66ADEDDE552E552060EDB2A3A
:10258000070E01E3DB2AF70EDB06F80E01E2DB069D
:1025900011D0D9CFE9FFDACFEAFFEE06000EED5AEF
:1025A000EECFF3FFEDCFF4FFF3CFE9FFF4CFEAFF77
:1025B0002D0EEF6E060EDBCF2DF0070EDBCF2EF0CB
:1025C0002DC0E6FF2EC0E6FFF50EDBCFE6FFF60ED0
:1025D000DBCFE6FFF70EDBCFE6FFF80EDBCFE6FF43
:1025E000DECFE6FFDDCFE6FFB2DDF56E060EE15E83
:1025F000F550E552E7CF2EF0E552E7CF2DF02D5004
:10260000F3242B6E2E50F4202C6E2BC0F3FF2CC025
:10261000F4FF00D0D9CFE1FFE552E7CFD9FF120098
:10262000D9CFE6FFE1CFD9FF2E0EE1262C0EDB6AD3
:102630002D0EDB6AFD0EDBCFE9FFFE0EDBCFEAFFDE
:10264000EF5001E119D3FD0EDBCFE9FFFE0EDBCF2A
:10265000EAFFEF50250801E0E0D2FD0EDB2AFE0E76
:1026600001E3DB2A2A0EDB6A2B0EDB6AD950280F26
:10267000E96EDACFEAFFEE6AED6AFD0EDBCFE9FF25
:10268000FE0EDBCFEAFFEF5001E1F6D2FD0EDBCF0D
:10269000E9FFFE0EDBCFEAFFEF50250801E1BDD2D6
:1026A000FD0EDBCFE9FFFE0EDBCFEAFFEF502D087A
:1026B0000CE1FD0EDB2AFE0E01E3DB2A010EF36EB8
:1026C0002A0EF3CFDBFF2B0EDB6AFD0EDBCFE9FF1B
:1026D000FE0EDBCFEAFFEF5030080DE1FD0EDB2AE6
:1026E000FE0E01E3DB2AD9502A0FE96EDACFEAFFAA
:1026F000EE82ED52EAD7FD0EDBCFE9FFFE0EDBCF17
:10270000EAFFEFCF2BF0300E2B5C30E3FD0EDBCF7A
:10271000E9FFFE0EDBCFEAFFEF50390827E3D9507F
:10272000280FE96EDACFEAFF0A0EEC02F3CFEDFFD5
:10273000EF02F3CFEEFFF450ED26FD0EDBCFE9FF05
:10274000FE0EDBCFEAFFEF50D00F2B6E2C6AD95074
:10275000280FE96EDACFEAFF2B50EE262C50ED223F
:10276000FD0EDB2AFE0E01E3DB2AC5D7FD0EDBCF13
:10277000E9FFFE0EDBCFEAFFEF50730861E1D950AD
:10278000FB0FE96EFF0EDA20EA6EEECFF3FFEDCF1E
:10279000F4FF020EEE5E000EEF5AF3CFE9FFF4CF26
:1027A000EAFFEECF2BF0EFCF2CF02D6A2BC0E6FF27
:1027B0002CC0E6FF2DC0E6FFD9CFE6FFDACFE6FF5B
:1027C0005EEC28F0F56E050EE15EF550DF5015E188
:1027D00014C12BF015C12CF02D6A2BC0E6FF2CC0C4
:1027E000E6FF2DC0E6FFD9CFE6FFDACFE6FF5EECCD
:1027F00028F0F56E050EE15EF5502A0EDBCFE6FF00
:102800002B0EDBCFE6FF280EDBCFE6FF290EDBCF5A
:10281000E6FFD9CFE6FFDACFE6FF99DCF56E060ECC
:10282000E15EF550F3CF2BF0F4CF2CF0D9502C0F04
:10283000E96EDACFEAFF2B50EE262C50ED2216D2AD
:10284000FD0EDBCFE9FFFE0EDBCFEAFFEF506408A1
:102850003EE1610EE66EE66A2A0EDBCFE6FF2B0E46
:10286000DBCFE6FF280EDBCFE6FF290EDBCFE6FF4E
:10287000010EE66EE66A0A0EE66EE66AD950FB0FB6
:10288000E96EFF0EDA20EA6EEECFF3FFEDCFF4FF34
:10289000020EEE5E000EEF5AF3CFE9FFF4CFEAFF2F
:1028A000EECFE6FFEFCFE6FF4EDDF56E0C0EE15EFC
:1028B000F550F3CF2BF0F4CF2CF0D9502C0FE96E5C
:1028C000DACFEAFF2B50EE262C50ED22CFD1FD0EB1
:1028D000DBCFE9FFFE0EDBCFEAFFEF5078083EE1E9
:1028E000610EE66EE66A2A0EDBCFE6FF2B0EDBCF2B
:1028F000E6FF280EDBCFE6FF290EDBCFE6FF000E5A
:10290000E66EE66A100EE66EE66AD950FB0FE96ED7
:10291000FF0EDA20EA6EEECFF3FFEDCFF4FF020EEA
:10292000EE5E000EEF5AF3CFE9FFF4CFEAFFEECFF1
:10293000E6FFEFCFE6FF07DDF56E0C0EE15EF5502A
:10294000F3CF2BF0F4CF2CF0D9502C0FE96EDACF67
:10295000EAFF2B50EE262C50ED2288D1FD0EDBCF66
:10296000E9FFFE0EDBCFEAFFEF5058083EE1410ED3
:10297000E66EE66A2A0EDBCFE6FF2B0EDBCFE6FF24
:10298000280EDBCFE6FF290EDBCFE6FF000EE66E5A
:10299000E66A100EE66EE66AD950FB0FE96EFF0E8E
:1029A000DA20EA6EEECFF3FFEDCFF4FF020EEE5E1B
:1029B000000EEF5AF3CFE9FFF4CFEAFFEECFE6FFC8
:1029C000EFCFE6FFC0DCF56E0C0EE15EF550F3CF05
:1029D0002BF0F4CF2CF0D9502C0FE96EDACFEAFFB0
:1029E0002B50EE262C50ED2241D1FD0EDBCFE9FF1E
:1029F000FE0EDBCFEAFFEF5075083EE1610EE66E9A
:102A0000E66A2A0EDBCFE6FF2B0EDBCFE6FF280EB1
:102A1000DBCFE6FF290EDBCFE6FF000EE66EE66AAF
:102A20000A0EE66EE66AD950FB0FE96EFF0EDA2059
:102A3000EA6EEECFF3FFEDCFF4FF020EEE5E000E76
:102A4000EF5AF3CFE9FFF4CFEAFFEECFE6FFEFCF87
:102A5000E6FF79DCF56E0C0EE15EF550F3CF2BF05E
:102A6000F4CF2CF0D9502C0FE96EDACFEAFF2B50BF
:102A7000EE262C50ED22FAD0FD0EDBCFE9FFFE0E44
:102A8000DBCFEAFFEF506C0801E081D0610EE66E0B
:102A9000E66A2A0EDBCFE6FF2B0EDBCFE6FF280E21
:102AA000DBCFE6FF290EDBCFE6FF000EE66EE66A1F
:102AB000100EE66EE66AD950FB0FE96EFF0EDA20C3
:102AC000EA6EEECFF3FFEDCFF4FF020EEE5E000EE6
:102AD000EF5AF3CFE9FFF4CFEAFFEECFE6FFEFCFF7
:102AE000E6FF31DCF56E0C0EE15EF550F3CF2BF016
:102AF000F4CF2CF0D9502C0FE96EDACFEAFF2B502F
:102B0000EE262C50ED22610EE66EE66A2A0EDBCF31
:102B1000E6FF2B0EDBCFE6FF280EDBCFE6FF290E0C
:102B2000DBCFE6FF000EE66EE66A100EE66EE66AA2
:102B3000D950FB0FE96EFF0EDA20EA6EEECFF3FFFD
:102B4000EDCFF4FF020EEE5E000EEF5AF3CFE9FF79
:102B5000F4CFEAFFEECFE6FFEFCFE6FFA3EC11F0F4
:102B6000F56E0C0EE15EF550F3CF2BF0F4CF2CF0A8
:102B7000D9502C0FE96EDACFEAFF2B50EE262C50FD
:102B8000ED22FD0EDB2AFE0E01E3DB2A6FD0FD0EE7
:102B9000DBCFE9FFFE0EDBCFEAFFEF5062083CE13E
:102BA000610EE66EE66A020EE66EE66A280EDBCF7E
:102BB000E6FF290EDBCFE6FF000EE66EE66A020EA8
:102BC000E66EE66AD950FB0FE96EFF0EDA20EA6E78
:102BD000EECFF3FFEDCFF4FF020EEE5E000EEF5AE4
:102BE000F3CFE9FFF4CFEAFFEECFE6FFEFCFE6FF4A
:102BF000A3EC11F0F56E0C0EE15EF550F3CF2BF067
:102C0000F4CF2CF0D9502C0FE96EDACFEAFF2B501D
:102C1000EE262C50ED222AD029D0FD0EDBCFE9FF85
:102C2000FE0EDBCFEAFFEF500A0808E1FD0EDBCF16
:102C3000E9FFFE0EDBCFEAFF0D0EEF6EFD0EDBCFE0
:102C4000E9FFFE0EDBCFEAFFEFCF2BF02C6A2BBEA5
:102C50002C682BC0E6FF2CC0E6FF9AEC10F0E55282
:102C6000E5522C0EDB2A2D0E01E3DB2AFD0EDB2ABA
:102C7000FE0E01E3DB2ADED42C0EDBCF2BF02D0E73
:102C8000DBCF2CF02BC0F3FF2CC0F4FF00D0D9CF4A
:102C9000E1FFE552E7CFD9FF1200D9CFE6FFE1CF40
:102CA000D9FF020EE126D950FD0F2B6EFF0EDA2060
:102CB0002C6E2BC0DEFF2CC0DDFFFD0EDBCF2BF01A
:102CC000FE0EDBCF2CF02D6A2BC0E6FF2CC0E6FFFA
:102CD0002DC0E6FF000EE66E070EE66E5EEC28F0F5
:102CE000F56E050EE15EF550D9CFE9FFDACFEAFFC8
:102CF000020EEE5E000EEF5ADECFE6FFDDCFE6FFFE
:102D0000000EE66E070EE66E8BDCE552E552E552EC
:102D1000E55200D0D9CFE1FFE552E7CFD9FF12004D
:102D2000D9CFE6FFE1CFD9FF610EE66EE66A020E6B
:102D3000E66EE66A040EE66EE66A010EE66EE66A86
:102D40000A0EE66EE66AFD0EDBCFE6FFFE0EDBCF77
:102D5000E6FFA3EC11F0F56E0C0EE15EF550D950D4
:102D6000FB0FE96EFF0EDA20EA6EEE50ED1007E081
:102D70000D0EE66EE66A9AEC10F0E552E552E55269
:102D8000E7CFD9FF1200D9CFE6FFE1CFD9FF610E1F
:102D9000E66EE66A020EE66EE66A030EE66EE66A26
:102DA000010EE66EE66A0A0EE66EE66AFE0EDBCFFE
:102DB000E6FFE66AA3EC11F0F56E0C0EE15EF5504D
:102DC000D950FC0FE96EFF0EDA20EA6EEE50ED10DE
:102DD00007E00D0EE66EE66A9AEC10F0E552E55259
:102DE000E552E7CFD9FF1200D9CFE6FFE1CFD9FFF7
:102DF000610EE66EE66A020EE66EE66A100EE66E9A
:102E0000E66A000EE66EE66A020EE66EE66AFD0E01
:102E1000DBCFE6FFFE0EDBCFE6FFA3EC11F0F56E95
:102E20000C0EE15EF550D950FB0FE96EFF0EDA2073
:102E3000EA6EEE50ED1007E00D0EE66EE66A9AECD3
:102E400010F0E552E552E552E7CFD9FF1200D9CF95
:102E5000E6FFE1CFD9FF610EE66EE66A020EE66E8E
:102E6000E66A080EE66EE66A000EE66EE66A020E96
:102E7000E66EE66AFE0EDBCFE6FFE66AA3EC11F033
:102E8000F56E0C0EE15EF550D950FC0FE96EFF0EA9
:102E9000DA20EA6EEE50ED1007E00D0EE66EE66AFF
:102EA0009AEC10F0E552E552E552E7CFD9FF120057
:102EB000D9CFE6FFE1CFD9FF610EE66EE66A000EDC
:102EC000E66EE66A020EE66EE66A000EE66EE66AF8
:102ED000100EE66EE66AFD0EDBCFE6FFFE0EDBCFE0
:102EE000E6FFA3EC11F0F56E0C0EE15EF550D95043
:102EF000FB0FE96EFF0EDA20EA6EEE50ED1007E0F0
:102F00000D0EE66EE66A9AEC10F0E552E552E552D7
:102F1000E7CFD9FF1200D9CFE6FFE1CFD9FF610E8D
:102F2000E66EE66A020EE66EE66AE66EE66A000E97
:102F3000E66EE66A100EE66EE66AFE0EDBCFE6FF90
:102F4000E66AA3EC11F0F56E0C0EE15EF550D95077
:102F5000FC0FE96EFF0EDA20EA6EEE50ED1007E08E
:102F60000D0EE66EE66A9AEC10F0E552E552E55277
:102F7000E7CFD9FF1200D9CFE6FFE1CFD9FFFD0E91
:102F8000DBCF2BF0FE0EDBCF2CF02D6A2BC0E6FF43
:102F90002CC0E6FF2DC0E6FF000EE66E070EE66EC3
:102FA0005EEC28F0F56E050EE15EF5500701CB6B87
:102FB000CC6B000EE66E070EE66E77EC28F0E5525D
:102FC000E552F3CF2BF0F4CF2CF007012B50CB5D63
:102FD0002C50CC5918E2000ECB25E96E070ECC21FF
:102FE000EA6EEFCF2BF02C6A2BBE2C682BC0E6FFCD
:102FF0002CC0E6FF9AEC10F0E552E5520701CB2B0E
:10300000000ECC23D6D7010EE66EE66AFB0EDBCFB0
:10301000E6FFFC0EDBCFE6FF4BDFE552E552E55263
:10302000E552E552E7CFD9FF1200D9CFE6FFE1CF55
:10303000D9FFFD0EDBCF2BF0FE0EDBCF2CF02D6A7F
:103040002BC0E6FF2CC0E6FF2DC0E6FF000EE66EAB
:10305000070EE66E5EEC28F0F56E050EE15EF550AB
:103060000701CB6BCC6B000EE66E070EE66E77ECBD
:1030700028F0E552E552F3CF2BF0F4CF2CF0070106
:103080002B50CB5D2C50CC5918E2000ECB25E96EAD
:10309000070ECC21EA6EEFCF2BF02C6A2BBE2C68EA
:1030A0002BC0E6FF2CC0E6FF9AEC10F0E552E5528B
:1030B0000701CB2B000ECC23D6D7010EE66EE66AB5
:1030C000FB0EDBCFE6FFFC0EDBCFE6FF8DDEE5522D
:1030D000E552E552E552E552E7CFD9FF1200D9CFCC
:1030E000E6FFE1CFD9FFFD0EDBCF2BF0FE0EDBCFED
:1030F0002CF02D6A2BC0E6FF2CC0E6FF2DC0E6FFAA
:10310000000EE66E070EE66E5EEC28F0F56E050E1C
:10311000E15EF5500701CB6BCC6B000EE66E070E3F
:10312000E66E77EC28F0E552E552F3CF2BF0F4CFC2
:103130002CF007012B50CB5D2C50CC5918E2000E1F
:10314000CB25E96E070ECC21EA6EEFCF2BF02C6A6F
:103150002BBE2C682BC0E6FF2CC0E6FF9AEC10F0CB
:10316000E552E5520701CB2B000ECC23D6D7E55212
:06317000E7CFD9FF1200B9
:0A317600860E1F6E256A1D6A1C6A92
:103180001B6ACFEF18F0860E1F6E1EC025F01D6A59
:103190001C6A1B6AE86A1EAECFEF18F01E6C2A6A22
:1031A000E86A1E6495EF19F0F00E1E14E866DBEF76
:1031B00018F01E3A2A84D8901EBEEBEF18F01E3687
:1031C0002A2A1EBEEBEF18F01E362A2A1EBEEBEF8F
:1031D00018F01E362A2A2A501F5E25AE1E9E000CAD
:1031E0008E0E1F6E256A1C6A1B6A04EF19F08E0E84
:1031F0001F6E1EC025F01C6A1B6A1EAE04EF19F07C
:103200001D6C1E1EE86A1E222A6AE86A1E642DEFE3
:1032100019F0F00E1E14E86616EF19F01E3A1D386C
:103220000F0B1E261D38F00B1D6E2A84D8901EBE73
:1032300029EF19F01D361E362A2A1EBE29EF19F075
:103240001D361E362A2A1EBE29EF19F01D361E36DF
:103250002A2A2A501F5E9BEF19F01DC01EF01D6A1E
:10326000E86A2A861E6495EF19F0F00E1E14E866CF
:103270003CEF19F01E3A2A84D8901EBE29EF19F0AF
:103280001E362A2A1EBE29EF19F01E362A2A1EBE15
:1032900029EF19F01E362A2A29EF19F0268026AECA
:1032A000FF0C1E6A25AE1E681EC01DF01EC01CF05D
:1032B0001EC01BF025361E32FF0C268026AEFF0CEA
:1032C0001E6A25AE1E681EC01DF01EC01CF02536ED
:1032D0001E32FF0C268026AEFF0C1E6A25AE1E682D
:1032E0001EC01DF025361E32FF0C268026AEFF0CB8
:1032F0001E6A25AE1E6825361E32FF0C268226AEBB
:10330000FF0C1F681E681D681C6825361E32FF0CE6
:10331000268426AEFF0C010E1F6E1E6A1D6A1C6AF3
:1033200025361E32FF0C2686FF0C1E6A1D6A1C6A9B
:103330001B6A1F6A000C25AE1E9E000C9E0E1F6E9F
:10334000256AB2EF19F09E0E1F6E1EC025F01EAE4C
:10335000B2EF19F0E86A1B6C1C1E1D1E1E1E1C22FB
:103360001D221E221E50FF0BD8B417EF1AF0F00BCF
:10337000D8B4F0EF19F0E86A1EBED9EF19F0D89072
:103380001B361C361D361E36E82A1EBED5EF19F038
:103390001B361C361D361E36E82A1EBED5EF19F028
:1033A0001B361C361D361E36E82A1F6488EF19F0BE
:1033B0001F5E26BC1BAE9BEF19F0D880800E1B64ED
:1033C0001C30E86A1C221D221E22D8A09BEF19F097
:1033D0001E321D321C321F4A7EEF19F09BEF19F08E
:1033E0001CC021F01EC023F0D8901E34AB0FF66E27
:1033F000350EF76AF722000EF86AF8220A00F55037
:103400001B02F3CF1BF0F4CF1CF01D02F3CF1DF015
:10341000F4CF1EF02102F3501C26F4501D26F55067
:103420002302F3501E260800F550D5EF19F01D5069
:103430001E6EFF0BD8B460EF1AF01CC01DF01BC04D
:103440001CF01B6A1E50F00BD8B440EF1AF0080EA7
:103450001EBED5EF19F0D8901C361D361E36E82A50
:103460001EBED5EF19F01C361D361E36E82A1EBECC
:10347000D5EF19F01C361D361E36E82AD5EF19F0A7
:103480001DC022F0D8901E34AB0FF66E350EF76AD1
:10349000F722000EF86AF8220A00F5501C02F3CF5A
:1034A0001CF0F4CF1DF01E02F3CF1EF02202F350E9
:1034B0001D26F4501E260800F550080FD5EF19F010
:1034C0001C501E6EFF0BD8B4A0EF1AF01BC01DF0ED
:1034D0001C6A1B6A1E50F00BD8B485EF1AF0100E50
:1034E0001EBED5EF19F0D8901D361E36E82A1EBE36
:1034F000D5EF19F01D361E36E82A1EBED5EF19F09D
:103500001D361E36E82AD5EF19F01EC023F0D890DC
:103510001E34AB0FF66E350EF76AF722000EF86A0E
:10352000F8220A00F5501D02F3CF1DF0F4CF1EF073
:103530002302F3501E260800F550100FD5EF19F0A6
:103540001B501E6EFF0BD8B495EF19F01D6A1C6A54
:103550001B6A1E50F00BD8B4C1EF1AF0180E1EBE35
:10356000D5EF19F0D8901E36E82A1EBED5EF19F017
:103570001E36E82A1EBED5EF19F01E36E82AD5EF12
:1035800019F0D8901E34AB0FF66E350EF76AF7229D
:10359000000EF86AF8220A00F5501E02F3CF1EF062
:1035A0000800F550180FD5EF19F00000078006400D
:1035B00006400520052005200520041004100410F5
:1035C00004100410041004100410276AE86A24642C
:1035D00093EF19F01F6495EF19F01E502318256E14
:1035E0001E8E238E223423342A36D890E8362A368B
:1035F000D80FF66E380EF76E2A50010BF722F86AD4
:10360000000EF8220A00F5CF19F00A00F5CF2AF0D3
:103610000800F5CF29F01950295C196ED890213493
:103620001902F4CFF7FF22341902F3CFE8FFF7268F
:10363000D8B0F42A286AF750285EF450295AE86A6C
:103640002A5A1EC019F01DC0F7FF1CC0F6FF1C50FF
:103650002802F4CF1AF01D502902F4CF1CF0F3CF4A
:103660001BF02802F3501A26F4501B22E86A1C2291
:10367000F6502902F3501A26F4501B22E86A1C2245
:103680001E502802F3501B26F4501C221E50290203
:103690001D6AE86A1D22F3501C26F4501D22F650C4
:1036A0002A02F3501B26F4501C221E6AE86A1D22CF
:1036B0001E22F7502A02F3501C26F4501D22E86AFD
:1036C0001E2219502A02F3501D26F4501E221EBE3F
:1036D0006FEF1BF01B361C361D361E36270623C027
:1036E00019F022C0F7FF21C0F6FF21502802F4CFC5
:1036F0001AF022502902F4CF21F0F3CF20F0280253
:10370000F3501A26F4502022E86A2122F6502902AA
:10371000F3501A26F4502022E86A2122235028026E
:10372000F3502026F450212223502902226AE86A0D
:103730002222F3502126F4502222F6502A02F3507E
:103740002026F4502122236AE86A22222322F750FD
:103750002A02F3502126F4502222E86A232219502B
:103760002A02F3502226F450232223AE23BCBFEFBB
:103770001BF01A362036213622362336272A206CB3
:10378000211E221E231EE86A2122222223221EC07D
:103790002AF01DC029F01CC028F01BC0F6FF1C50E9
:1037A0002102F4CF1AF01D502002F4501A261D50A9
:1037B00021021B6AE86A1B22F3501A26F4501B22CE
:1037C000F6502202F4501A261C6AE86A1B221C22B8
:1037D00028502202F3501A26F4501B22E86A1C22B9
:1037E00029502202F3501B26F4501C221E502102A5
:1037F000F3501B26F4501C221E5022021D6AE86A58
:103800001D22F3501C26F4501D222A502002F35092
:103810001A26F4501B22E86A1C221D222A50230279
:10382000F4CF1EF0F3501D26E86A1E22F650230244
:10383000F3501A26F4501B22E86A1C221D221E2275
:1038400028502302F3501B26F4501C22E86A1D2244
:103850001E2229502302F3501C26F4501D22E86A30
:103860001E221EBE41EF1CF01B361C361D361E36B6
:1038700027061EBE41EF1CF01B361C361D361E36B9
:10388000270624501F5E800ED8A04EEF1CF0272480
:103890001F26D8B07EEF19F053EF1CF027241F2607
:1038A000D8A088EF19F026BC1BAE68EF1CF0D880BA
:1038B000800E1B641C30E86A1C221D221E22D8A028
:1038C00068EF1CF01E321D321C321F4A7EEF19F0C9
:1038D00025AE1E9E000CFFFF01FF04FE09FD10FC3B
:1038E00019FB23FA30F93EF84EF760F674F58AF4C6
:1038F000A1F3BAF2D5F1F1F00FF02FEF50EE73ED26
:1039000098ECBEEBE5EA0FEA39E966E893E7C3E62F
:10391000F3E526E559E48EE3C5E2FCE136E170E02B
:10392000ACDFE9DE28DE68DDA9DCEBDB2FDB74DA57
:10393000BAD902D94AD894D7DFD62CD679D5C7D4EC
:1039400017D468D3BAD20DD261D1B7D00DD064CF1D
:10395000BDCE17CE71CDCDCC29CC87CBE6CA46CA19
:10396000A6C908C96AC8CEC733C798C6FEC566C50A
:10397000CEC437C4A1C30CC378C2E5C152C1C1C013
:1039800030C0A0BF11BF83BEF6BD69BDDDBC52BC57
:10399000C8BB3FBBB6BA2FBAA8B921B99CB817B8F3
:1039A00093B710B78DB60BB68AB50AB58AB40BB407
:1039B0008DB30FB392B216B29BB120B1A6B02CB0AA
:1039C000B3AF3BAFC3AE4CAED6AD60ADEBAC77ACF6
:1039D00003AC8FAB1DABABAA39AAC8A958A9E8A8FC
:1039E00079A80BA89CA72FA7C2A656A6EAA57FA5D3
:1039F00014A5AAA440A4D7A36EA306A39FA238A28D
:103A0000D1A16BA106A1A1A03CA0D89F749F119F3A
:103A1000AF9E4D9EEB9D8A9D299DC99C699C0A9CE9
:103A2000AB9B4C9BEE9A919A349AD7997B991F99AC
:103A3000C49869980E98B4975A970197A89650968B
:103A4000F895A0954995F2949C944694F0939B9395
:103A50004693F1929D924992F691A3915091FE90D6
:103A6000AC905A900990B88F688F178FC88E788E57
:103A7000298EDA8D8C8D3E8DF08CA38C568C098C22
:103A8000BC8B708B248BD98A8E8A438AF889AE8945
:103A900064891B89D28889884088F887AF876887BE
:103AA0002087D98692864C860586BF8579853485A0
:103AB000EF84AA8465842184DD83998356831283ED
:103AC000CF828D824A820882C681858143810281AC
:103AD000C1808180408001801B6AE86A24621F6483
:103AE00095EF19F01E502318256E24501F267E0EC8
:103AF000D8A081EF1DF01F5ED8B07EEF19F085EFE2
:103B00001DF01F5ED8A088EF19F01E8E238E1EC0F8
:103B10002AF01DC029F01CC028F01C502102F4CF4F
:103B20001AF01D502202F4CF1CF0F3CF1BF021023B
:103B3000F3501A26F4501B22E86A1C222850220255
:103B4000F3501A26F4501B22E86A1C221E50210250
:103B5000F3501B26F4501C221E5022021D6AE86AF4
:103B60001D22F3501C26F4501D2228502302F3502E
:103B70001B26F4501C221E6AE86A1D221E222950B0
:103B80002302F3501C26F4501D22E86A1E222A50FC
:103B90002302F3501D26F4501E221EBED8EF1DF046
:103BA0001B361C361D361E361F06D8B488EF19F09A
:103BB00026BC1BAEEDEF1DF0D880800E1B641C30C0
:103BC000E86A1C221D221E22D8A0EDEF1DF01E3235
:103BD0001D321C321F4A7EEF19F025AE1E9E000CCE
:103BE000256AE86A23AEFDEF1DF0206C211E221E1F
:103BF000231E212222222322251E1EAE08EF1EF0A4
:103C00001B6C1C1E1D1E1E1E1C221D221E22251E7C
:103C100085EC28F01EBE1FEF1EF025AE000C1B6CBD
:103C20001C1E1D1E1E1EE86A1C221D221E22176C51
:103C3000181E191E1A1E182219221A22000C25BE3F
:103C40000FEF1EF02688FF0C1EC02AF01DC029F0C1
:103C50001D502202F4CF1CF0F3CF1BF01E502302A4
:103C6000F4CF1EF0F3CF1DF02202F3501C26F450C7
:103C70001D22E86A1E2229502302F3501C26F4500C
:103C80001D22E86A1E2223AE4AEF1EF029501D5E57
:103C90002A501E5A2AAE000C22501D5E23501E5A76
:103CA000000C1DC029F01D502202F4CF1CF0F3CFF0
:103CB0001BF01E502302F4CF1EF0F3CF1DF02202A2
:103CC000F3501C26F4501D22E86A1E2229502302BC
:103CD000F3501C26F4501D22E86A1E22000CE86AEC
:103CE0001F64000C1EC025F01E8E860E1F5CE8AE01
:103CF00075EF19F0E86C1F6E070E1F64A0EF1EF041
:103D00001F5E1EC01DF01E6A1F4EC0EF1EF0030E88
:103D10001F6492EF1EF01F5E1D380F0B1D6E1F4EAD
:103D2000C0EF1EF0D8901D321F4EC0EF1EF0D8908D
:103D30001D321F4EC0EF1EF0D8901D32C0EF1EF096
:103D4000030E1F64B1EF1EF01F5E1D380F0B1D6EBA
:103D50001E38F00B1D261E380F0B1E6E1F4EC0EFB7
:103D60001EF0D8901E321D321F4EC0EF1EF0D890AC
:103D70001E321D321F4EC0EF1EF0D8901E321D3273
:103D800026BC1DAECDEF1EF0D880800E1D641E3007
:103D9000E86A1E221EBE75EF19F025AE000C1E6CDF
:103DA000000CE86A1F64000C1EC025F01E8E8E0EEB
:103DB0001F5CE8AE6AEF19F0E86C1F6E070E1F6417
:103DC00031EF1FF01F5E1DC01CF01EC01DF01E6AEB
:103DD0001F4E5AEF1FF0070E1F640FEF1FF01F5EFC
:103DE0001DC01CF01D6A1F4E5AEF1FF0030E1F640A
:103DF00001EF1FF01F5E1C380F0B1C6E1F4E5AEF99
:103E00001FF0D8901C321F4E5AEF1FF0D8901C3272
:103E10001F4E5AEF1FF0D8901C325AEF1FF0030EBE
:103E20001F6420EF1FF01F5E1C380F0B1C6E1D3827
:103E3000F00B1C261D380F0B1D6E1F4E5AEF1FF086
:103E4000D8901D321C321F4E5AEF1FF0D8901D32F1
:103E50001C321F4E5AEF1FF0D8901D321C325AEF01
:103E60001FF0030E1F6448EF1FF01F5E1C380F0B7E
:103E70001C6E1D38F00B1C261D380F0B1D6E1E38D6
:103E8000F00B1D261E380F0B1E6E1F4E5AEF1FF033
:103E9000D8901E321D321C321F4E5AEF1FF0D890A0
:103EA0001E321D321C321F4E5AEF1FF0D8901E32A8
:103EB0001D321C3226BC1CAE68EF1FF0D880800E6D
:103EC0001C641D30E86A1D221E221EBE6AEF19F016
:0E3ED00025AE000C1D6C1E1EE86A1E22000CA2
:023EDE00D8CF3B
:103EE000E4FFE0CFE4FFE46EDACFE4FFE2CFDAFFF5
:103EF000E9CFE4FFEACFE4FFE652D9CFE6FFE1CF16
:103F0000D9FF020EE126F2A402D0F2945BD09EA06B
:103F100004D09E90F6EC26F055D09EA204D09E923E
:103F2000EFEC26F04FD0F0A202D0F0924BD0F0A4EC
:103F300002D0F09447D0F2A045D08150DF6EF290CD
:103F4000DF5001011319E76E010EE7CFDBFFDFCF72
:103F500013F1DBA810D0120EE66E010EE66E100E05
:103F6000DF1402E0010E01D0000EE66EFBEC26F03D
:103F7000E552E552E552010EDBAA0AD0200EDF140D
:103F800002E0010E01D0000EE66E21EC27F0E552B2
:103F9000010EDBAC0AD0400EDF1402E0010E01D0AE
:103FA000000EE66E2FEC27F0E552010EDBAE0AD0D4
:103FB000800EDF1402E0010E01D0000EE66E45EC2B
:103FC00027F0E552D9CFE1FFE552E7CFD9FFE5521F
:103FD000E5CFEAFFE5CFE9FFE5CFDAFFE550E5CF32
:103FE000E0FFE5CFD8FF1000D9CFE6FFE1CFD9FF42
:103FF000130EE126DF6A0F0EDB6A100EDB6A7F0EFE
:10400000F36E110EF3CFDBFF7F0EF36E120EF3CFC4
:10401000DBFF070EDF5C11E2D950010F2B6EDACF08
:104020002CF0DF50020D2B50F324E96E2C50F420BD
:10403000EA6EEE6AED6ADF2AECD7DF6A070179AD36
:10404000DED1070198A1DAD1780EE66E070EE66E92
:1040500002EC23F0E552E5520101125151E0D95032
:104060000F0FE96EDACFEAFFEE50ED1008E1020E15
:10407000DF6E0F0EDB2A100E01E3DB2A40D00F0E9D
:10408000DBCF2BF0100EDBCF2CF0140E2B5C000ED0
:104090002C5808E2030EDF6E0F0EDB2A100E01E330
:1040A000DB2A2DD00F0EDBCF2BF0100EDBCF2CF048
:1040B000640E2B5C000E2C5808E2040EDF6E0F0E0F
:1040C000DB2A100E01E3DB2A1AD00F0EDBCF2BF018
:1040D000100EDBCF2CF04A0E2B5C010E2C5808E2A0
:1040E000050EDF6E0F0EDB2A100E01E3DB2A07D070
:1040F000060EDF6E0F0EDB2A100E01E3DB2A01D065
:10410000DF6A0F0EDB500F0B0DE1DFCFE6FFE66A33
:10411000910EE66E4C0EE66E4DEC16F0E552E55251
:10412000E552E5520F0EDB500F0B10E10F0EDBCF07
:10413000E6FF100EDBCFE6FF850EE66E4C0EE66E58
:104140004DEC16F0E552E552E552E552DF50060A15
:1041500069E0030A5CE0010A4FE0070A42E0010A55
:1041600033E0030A28E0010A01E065D00F0EDB50BE
:104170000F0B17E1870EE66E58EC25F0E552F3CFF2
:104180002BF0F4CF2CF02BC0E6FF2CC0E6FF7A0E0C
:10419000E66E4C0EE66E4DEC16F0E552E552E55239
:1041A000E5520701AA0E6B6F6BC76AF7B40E696F11
:1041B00069C768F740D00701C80E6B6F6BC76AF715
:1041C000696F69C768F737D0E5EC26F007017F0E05
:1041D0006B6F6BC76AF7696F69C768F78C888D98D2
:1041E0002AD007017F0E6B6F6BC76AF7696F69C7CB
:1041F00068F78C888D981FD007017F0E6B6F6BC797
:104200006AF7696F69C768F78C988D9814D08C9895
:104210008D980701C80E6B6F6BC76AF7696F69C726
:1042200068F709D007017F0E6B6F6BC76AF7696F7C
:1042300069C768F700D007016A51326AD00F316E42
:10424000070E3222110EDB50336E346A3350315C6C
:104250002F6E34503258306E190E1D6E1E6A2FC0EC
:1042600022F030C023F051EC1EF01BC02DF01CC01A
:104270002EF0640E226E236A2DC01DF02EC01EF09B
:10428000C2EC28F01DC02DF01EC02EF0110EDB5028
:1042900000012C6B2D242B6F2E502C23F40E2B5E43
:1042A000010E2C5A2BC06BF72BC06AF7070168511F
:1042B000326AD00F316E070E3222120EDB50336E8F
:1042C000346A3350315C2F6E34503258306E190ED0
:1042D0001D6E1E6A2FC022F030C023F051EC1EF07C
:1042E0001BC02DF01CC02EF0640E226E236A2DC060
:1042F0001DF02EC01EF0C2EC28F01DC02DF01EC017
:104300002EF0120EDB5000012C6B2D242B6F2E5043
:104310002C23F40E2B5E010E2C5A2BC069F72BC0F8
:1043200068F7110E6AC7DBFF120E68C7DBFFDF50AC
:1043300023E0D950010F2B6EDACF2CF0DF50020DA5
:104340002B50F324E96E2C50F420EA6EEE50ED1061
:1043500013E1D950010F2B6EDACF2CF0DF50020D94
:104360002B50F324E96E2C50F420EA6E0F0EDBCFB5
:10437000EEFF100EDBCFEDFF81B403D08C8A8D9A57
:1043800002D08C9A8D9A7F0E0701685D320DF3CFB3
:104390002BF0640E2C6E2CC023F02BC01EF00CEC06
:1043A00029F01E5007016825696F686F7F0E6A5DEE
:1043B000320DF3CF2BF0640E2C6E2CC023F02BC0EB
:1043C0001EF00CEC29F01E5007016A256B6F6A6F16
:1043D0006BC7E6FF6AC7E6FF69C7E6FF68C7E6FF87
:1043E000C1EC25F0E552E552E552E552580EE66E75
:1043F000070EE66E3CEC23F0E552E5521FD6D9CF0E
:0C440000E1FFE552E7CFD9FF12001200E7
:04440C00DACFE4FF20
:10441000E2CFDAFFE9CFE4FFEACFE4FFE652F2A20F
:1044200002D094D802D09EB6C0D8E552E5CFEAFFBC
:10443000E5CFE9FFE5CFDAFF1100E66A010EE66E8F
:10444000050EE66EDAEC27F0E552E552E552120071
:10445000070EB46E000E886E876E866E856E846E53
:10446000836E826E816E806E916E906E8F6E8E6E98
:104470008D6E8C6E8B6E8A6E896E2F0E926E936827
:104480009C0E946E956A966A9768986A0E0E9A6E5C
:104490009968C16AF19EB0989C8EA26A9F6AA06AD0
:1044A0009D6AA36AA56AC9DF9F86D08E9E969D8667
:1044B0009382F06AF288F09EF098F192F09AF16A95
:1044C000F28CF28E1200D9CFE6FFE1CFD9FFE6528F
:1044D000BFDF07019897989907015C0EE86F070EF8
:1044E000E96FDF6A100EDF5C0AE2DF50EA6AE82556
:1044F000E96EE951EA227F0EEF6EDF2AF3D707015A
:10450000756B010E766FC20E776F070198850701F4
:104510007A6B7B6B0701586B5A6B5B6B010ED56E28
:10452000320ED76ECF0ED66ED59E580EE66E070EA3
:10453000E66EA2D8E552E552E552E552E7CFD9FF43
:10454000120082828088949292981200F29207015F
:10455000200EE46F9F86070198A906D00701E00EA0
:10456000E16F000EE26F05D00701C00EE16F000E93
:10457000E26F070198A1987998A706D00701800EED
:10458000DF6F000EE06F05D00701A00EDF6F000E99
:10459000E06FC9CFE5F7DFC7E9FFE0C7EAFFDF2B30
:1045A000000EE023EF50C96E12009E96C9CFE5F7CA
:1045B0000701E451000824E2E1C7E9FFE2C7EAFF8E
:1045C000E12B000EE223E5C7EFFFDFC7E9FFE0C7FD
:1045D000EAFFDF2BE023EFCFE5F7E5C7C9FFE407EC
:1045E000E4510DE1070198810701020E766F070182
:1045F0009893320ED76ECF0ED66EF294D58E01D030
:10460000C96A1200D9CFE6FFE1CFD9FF070198A10F
:104610002FD098A906D00701C00EDD6F000EDE6F07
:1046200005D00701E00EDD6F000EDE6FFD0EDBCF63
:10463000E6F7FE0EDBCFE7F7E36B200EE35D14E257
:10464000E351EA6ADD25E96EDE51EA22EF50E66EBB
:10465000E6C7E9FFE7C7EAFFE62B000EE723E552CE
:10466000E750EF6EE32BE9D79D96070198919D8661
:10467000E552E7CFD9FF1200D9CFE6FFE1CFD9FF4E
:10468000070198B33AD0020E0701765D01E180D8A8
:1046900007016D9F070198A706D00701A00EDD6FE7
:1046A000000EDE6F05D00701800EDD6F000EDE6F9D
:1046B000FD0EDBCFE8F7FE0EDBCFE9F7E36B200E54
:1046C000E35D14E2E8C7E9FFE9C7EAFFE82B000E63
:1046D000E923EF50E66EE351EA6ADD25E96EDE512B
:1046E000EA22E552E750EF6EE32BE9D79D960701EA
:1046F000987798839D860701752BE552E7CFD9FF00
:1047000012009D96070198919D861200D9CFE6FF71
:10471000E1CFD9FF0001166BD950FD0FE96EFF0EF6
:10472000DA20EA6E010EEE1801E1ED5002E1168189
:1047300001D0BA6AD950FB0FE96EFF0EDA20EA6E9B
:10474000010EEE1801E1ED5002E1168301D0B76AC7
:10475000D950F90FE96EFF0EDA20EA6E010EEE185D
:1047600001E1ED5002E1168501D0736AD950F70FCF
:10477000E96EFF0EDA20EA6E010EEE1801E1ED504F
:1047800002E1168701D0706AE552E7CFD9FF120027
:104790000701746B6F6BC6AE04D0C69E010E6F6FBF
:1047A0000ED0F150800B06E0F250080B03E0020E31
:1047B0006F6F05D0F0A603D0909E030E6F6F250E8D
:1047C000C614250805E0010E746FC6CF6FF768D0D8
:1047D000C55005E0020E746FC5CF6FF761D0D0BE33
:1047E00005D0030E746FD0CF6FF75AD09DB605D0A9
:1047F000040E746F9DCF6FF753D09C5005E0050EEB
:10480000746F9CCF6FF74CD0080E9F5C05E0060ECE
:10481000746F9FCF6FF744D0A25005E0070E746FFE
:10482000A2CF6FF73DD0A55005E0080E746FA5CF5D
:104830006FF736D0500EF214500805E0090E746F71
:10484000F2CF6FF72DD0470EF11405E00A0E746F0A
:10485000F1CF6FF725D0C00EF01405E00B0E746F8A
:10486000F0CF6FF71DD092A805D00C0E746F92CFC9
:104870006FF716D093B005D00D0E746F93CF6FF70E
:104880000FD03E0E94141C0805E00E0E746F94CFEA
:104890006FF706D097BE04D00F0E746F97CF6FF7E7
:0248A000120004
:0E48A2009EB802D0FDD7FCD71200D9CFE6FF9A
:1048B000E1CFD9FFFE0EDBCFE6FFAAEC25F0E552F3
:1048C0000D0EAD6EEEDFE552E7CFD9FF1200D9CF66
:1048D000E6FFE1CFD9FF0701D950FD0F506FFF0E62
:1048E000DA20516F010EEA6A5025E96E5151EA2231
:1048F000EF50E66EAAEC25F0E55250C7E9FF51C72C
:10490000EAFFEF50E66EAAEC25F0E5520D0EAD6E13
:10491000C8DFE552E7CFD9FF1200D9CFE6FFE1CFDC
:10492000D9FFFD0EDBCF2BF0FE0EDBCF2CF02D6A76
:104930002BC0E6FF2CC0E6FF2DC0E6FF000EE66EA2
:10494000070EE66E5EEC28F0F56E050EE15EF550A2
:10495000000EE66E070EE66E77EC28F0E552E552A3
:10496000F3CF54F7F4CF55F707015551000AE8AEDD
:1049700002D0553505D0500ED8805455000E5555EF
:1049800003E2500E546F556B566B576B57515519C8
:10499000E8AE02D0553504D05451565D55515759A3
:1049A0000EE2000E5625E96E070E5721EA6EEF5013
:1049B000AD6E77DF0701562B000E5723E7D7E55280
:1049C000E7CFD9FF1200D9CFE6FFE1CFD9FF07012A
:1049D000526B1A0E525D11E2FD0EDBCFE9FFDB2AAE
:1049E000FE0EDBCFEAFF01E3DB2AEF50E66EAAEC16
:1049F00025F0E5520701522BECD70D0EAD6E51DFBD
:104A0000E552E7CFD9FF12000701780E506F070E6D
:104A1000516F0701785101010E6F0F6B10510E1984
:104A200002E111510F1918E0070198A502D09895DD
:104A30000FD010C1E6FFAAEC25F0E5520EC1E6FF4B
:104A4000AAEC25F0E5520D0EAD6E2BDF070198950F
:104A50000EC110F10FC111F10101102B000E112335
:104A60001151000AE8AE02D0113505D0FF0ED880F2
:104A70001055000E115502E2106B116B1200150E4D
:104A8000E66E3C0EE66E07EC28F0E552E552320E7B
:104A9000E66EFCEC28F0E5521200D9CFE6FFE1CF3C
:104AA000D9FFFE0EDBCF53F7E552E7CFD9FF120057
:104AB000D9CFE6FFE1CFD9FF020EE126FE0EDB5093
:104AC0007F0BFE0BFD0BE66E53C7E6FF33EC28F0C1
:104AD000E552E5520A0EE66E1AEC29F0E55228EC92
:104AE00029F007EC04F0000901E0FBD7A9EC28F05D
:104AF00025EC29F0C4502D6E2DC02EF02D6AC35028
:104B000000012D102B6F2EC02CF02BC0DEFF2CC00F
:104B1000DDFFDECF2BF0DDCF2CF02BC0F3FF2CC060
:104B2000F4FF00D0D9CFE1FFE552E7CFD9FF120063
:104B3000000EE96EEA6E0400A5EC25F0EA2A080EE4
:104B4000EA5CD8A49BEF25F01200EF6AE93EA5EFDE
:104B500025F01200FF0EE3CF09F009380F0B060F06
:104B6000D8B2070F2A0FAD6E51EC24F009500F0B8D
:104B7000060FD8B2070F2A0FAD6E51EC24F0000CCF
:104B80001200F2B4120016500F0AD8B41200FF0E31
:104B9000E3CF0AF0FE0EE3CF0BF0FD0EE3CF0CF0F7
:104BA000FC0EE3CF0DF00A2A16A08D8E0B2A16A25A
:104BB0008F800C2A16A48F860D2A16A68F880E6A5F
:104BC0000F6A106A116A14EC26F00A2EEAEF25F03B
:104BD00016A08D9E0B2EEFEF25F016A28F900C2EB7
:104BE000F4EF25F016A48F9600000D2EFAEF25F0B5
:104BF00016A68F9800000E2EFFEF25F012900000F1
:104C00000F2E04EF26F012920000102E09EF26F06E
:104C100012940000112E0EEF26F0129636EC26F0BC
:104C2000133EE5EF25F01200D70E136E00000000D2
:104C3000000000002CEC26F0132E16EF26F0D70E05
:104C4000136E00000000000000002CEC26F0132E74
:104C500021EF26F00000120000002FEF26F00000E8
:104C6000000000000000000000001200030E146E9F
:0A4C70000000142E38EF26F01200A9
:064C7A0044697374203D43
:104C80002025640A00436C6F636B203D2025640A75
:104C9000005461736B203D2025640A00586F3A2050
:104CA000256409596F3A2025640A00446973742009
:104CB00066726F6D2066726F6E743A2025640A000A
:104CC0000A2D2D2D2D2D2D2D2D2D2D2D0A00257349
:104CD0000A0049464920557365722050726F63651A
:104CE00073736F7220496E697469616C697A656467
:104CF000202E2E2E00526967687420506572696FED
:104D0000643A2025640A004C656674205065726917
:104D10006F643A2025640A0077696E63683A20253B
:104D2000640A00503220417578320A00437572726D
:104D3000656E743A20256400503220546F700A006A
:104D4000646967313A20256400696E74333A20251E
:104D5000640A00696E74323A2025640A00696E7430
:104D6000313A2025640A00286E756C6C2900474191
:104D7000414141210A004865616420546F776172A6
:104D8000647320746865204C696768742E2E2E0A3F
:014D90000022
:0E4D92009F909D80CD8ECD98CD8ACD96CD92EE
:104DA000CD809388938A938C938EF190F286D9EF7D
:104DB00026F0CC6ACB68CA96CA98CA9ACA9CCA809E
:104DC000CA829D829F92CA841200CD901200CD901B
:104DD000CA94F2961200CD80CA84F28612000101B4
:104DE000022B000E03230423052312000101002BD4
:104DF000000E01231200D9CFE6FFE1CFD9FF070E45
:104E0000E126FC0EDBCFE9FFFD0EDBCFEAFFEF5022
:104E100011E1760EE66E4D0EE66E4DEC16F0E552A3
:104E2000E552FC0EDBCFE9FFFD0EDBCFEAFF010E02
:104E3000EF6E01D0CADFD9CFE1FFE552E7CFD9FF4E
:104E40001200D9CFE6FFE1CFD9FF81AA04D001013A
:104E5000062B000E0723E552E7CFD9FF1200D9CF6A
:104E6000E6FFE1CFD9FF6E0EE66E4D0EE66E4DEC1D
:104E700016F0E552E55281AC04D00101082B000E7A
:104E80000923E552E7CFD9FF1200D9CFE6FFE1CFE2
:104E9000D9FF81AE04D00101082B000E0923E55291
:064EA000E7CFD9FF12006C
:0A4EA6001E0EF66E080EF76E000EE9
:104EB000F86E07010900F550EF6F0900F550F06F2B
:104EC00003E1EF6701D03DD00900F550EA6F09001A
:104ED000F550EB6F0900F550EC6F09000900F55033
:104EE000E96E0900F550EA6E090009000900F55065
:104EF000ED6F0900F550EE6F09000900F6CFF1F7EC
:104F0000F7CFF2F7F8CFF3F7EAC7F6FFEBC7F7FFF3
:104F1000ECC7F8FF0701ED5302E1EE5307E009008B
:104F2000F550EE6EED07F8E2EE07F9D7F1C7F6FFA0
:104F3000F2C7F7FFF3C7F8FF0701EF07000EF05BBA
:044F4000BFD71200C5
:0C4F44001B502002F3CF17F0F4CF18F040
:104F50002102F3501826000EF420196E1B50220275
:104F6000F3501926000EF4201A6E1B502302F35042
:104F70001A261C502002F3501826F4501922000E55
:104F80001A221C502102F3501926F4501A221C50E8
:104F90002202F3501A261D502002F3501926F45015
:104FA0001A221D502102F3501A261E502002F350DF
:044FB0001A261200AB
:0C4FB400D9CFE6FFE1CFD9FF3F0EC716B2
:104FC000C66AFE0EDB50C612FC0EDB50C712FD0E89
:104FD000DB50030A09E0010A04E0020A06E1C78C7B
:104FE00004D0C78CC68801D0C688FE0EDB50050AE7
:104FF00003E0010A04E1928A9486C79E01D0949648
:0E500000949A9488C68AE552E7CFD9FF120031
:02500E00D9CFF8
:10501000E6FFE1CFD9FFAC6AAB6AFE0EDBB0AC882D
:10502000DBA202D0AC8CAB8CDBB4AC8EDBA602D0A6
:10503000AB8801D0AB8ADBA802D0AC8401D0AC94A1
:10504000DBAC02D09D8A01D09D9ADBAE02D09D8858
:1050500001D09D98FD0EDB50AF6EAC8AAB8EE55251
:06506000E7CFD9FF1200AA
:0A506600D9CFE6FFE1CFD9FFC26AFF
:10507000C16AC06AFD0EDB407F0B3C0BC26EFE0EA8
:10508000DB500F0B2B6EFD0EDB38F00B300B2B10B3
:10509000C16EFE0EDB380F0B070B2B6EFE0EDB50C6
:1050A000800B2B10C06EFD0EDBAE03D09E9C9D8C42
:0C50B000F28CC280E552E7CFD9FF12005D
:0450BC00FB0EE3CF35
:1050C000F6FFFC0EE3CFF7FFFD0EE3CFF8FFFE0E79
:1050D000E3CFE9FFFF0EE3CFEAFFE9CFF3FFEACF2B
:1050E000F4FF0900F5CFEFFFEE66FBD71200FE0ECE
:1050F000E3CFE9FFFF0EE3CFEAFFF36AF46AEE5273
:0A51000003E0F34AF42AFBD7120083
:06510A001A6A196A186A16
:10511000176A200EE76ED8901B361C361D361E36D9
:105120001736183619361A362050175C2150185881
:105130002250195823501A5809E32050175E215065
:10514000185A2250195A23501A5A1B2AE72EE4D70C
:0251500012004B
:0E515200D9CFE6FFE1CFD9FF020EE126C35010
:10516000DF6E010EC4CFDBFFDECF2BF0DDCF2CF0E6
:105170002BC0F3FF2CC0F4FFD9CFE1FFE552E7CFFE
:04518000D9FF120041
:0C5184001A6A196A100EE76ED8901D36EA
:105190001E3619361A362250195C23501A5805E368
:1051A0002250195E23501A5A1D2AE72EF0D71200FA
:1051B00063EC22F010EC0EF007019891070198A122
:1051C00007D085EC0EF0070179AD02D0F4EC1FF0AA
:0851D00005EC22F0F3D71200F8
:0851D80016EE00F026EE00F0D7
:1051E000F86A269CA68EA69C98EC25F053EC27F036
:0851F000D8EC28F0F9D71200F9
:0851F800FF0EE3503B6E480E70
:1052000001D04C0EE76EE72EFED7E76AE72EFED7F9
:085210003B2EF7D7000012004D
:085218001A6A080EE76ED89037
:105220001E361A3623501A5C02E31A6E1E2AE72E27
:04523000F7D712009A
:0C523400FF0EE350E84E1200000000D016
:0A52400000D000D0E82EFAD71200CB
:06524A00C2909D9C1200C1
:04525000C282120004
:0C5254007F7F0000000000000000000050
:1052600000000000000000000000000000007F7F40
:0A5270000000000000000000000034
:02527A00674D7E
:04527C00000000002E
:020000040030CA
:0E000000FFFEFEFCFFFEFBFFFFFFFFFFFFFF0A
:00000001FF
