:020000040000FA
:0608000013EF27F01200C7
:0208060000FFF1
:06080800DFEF20F01200FA
:02080E00C250D6
:08081000020B01E0010E1200D1
:0608180038EF1EF0120093
:02081E000500D3
:10082000B74E0000EF07000004000000B54E0000C6
:10083000BA01000002000000AB4E0000A30100005E
:100840000A000000A24E0000AD01000009000000F7
:0C08500006080000B801000002000000D3
:0C090400D9CFE6FFE1CFD9FFFD0EDB509C
:10091000AD6E2AEC23F0E552E7CFD9FF1200D9CF14
:10092000E6FFE1CFD9FF080EE126DE6ADD6A200E80
:10093000F36E020EF3CFDBFF030EDB6AFB0EDBCFA1
:100940002BF0FC0EDBCF2CF02C50000AE8AE02D0CE
:100950002C3405D0000ED8802B54000E2C545AE2B3
:10096000040EDB6A050EDB6AFD0EDBCF1DF0FE0E0A
:10097000DBCF1EF0060E1DC0DBFF070E1EC0DBFF27
:10098000060EDBCFE9FF070EDBCFEAFFEF500BE0EF
:10099000040EDB2A050E01E3DB2A060EDB2A070E16
:1009A00001E3DB2AEDD7040EDBCF2BF0050EDBCF06
:1009B0002CF0FB0EDBCF2DF0FC0EDBCF2EF02C50FD
:1009C0002E18E8AE02D02E3404D02D502B5C2E50C1
:1009D0002C5805E3FB0EDB6AFC0EDB6A10D0040E1C
:1009E000DBCF2BF0050EDBCF2CF0D950FB0FE96EDF
:1009F000FF0EDA20EA6E2B50EE5E2C50ED5AF90E07
:100A0000DB50020B07E0300EF36E020EF3CFDBFF7C
:100A1000030EDB6AF90EDB50010B25E1FB0EDBCF89
:100A20002BF0FC0EDBCF2CF02C50000AE8AE02D0ED
:100A30002C3405D0000ED8802B54000E2C5413E219
:100A4000020EDBCFE6FF030EDBCFE6FF5BDFE552F6
:100A5000E552DF2A010E01E3DB2AFB0EDB06FC0E6A
:100A600001E2DB06DBD7FD0EDBCFE9FFFE0EDBCFBD
:100A7000EAFFEF501CE0FD0EDBCFE9FFFE0EDBCFFF
:100A8000EAFFEFCF2BF02C6A2BBE2C682BC0E6FFC1
:100A90002CC0E6FF37DFE552E552DF2A010E01E305
:100AA000DB2AFD0EDB2AFE0E01E3DB2ADCD7FB0E80
:100AB000DBCF2BF0FC0EDBCF2CF02C50000AE8AE85
:100AC00002D02C3405D0000ED8802B54000E2C54AC
:100AD00013E2020EDBCFE6FF030EDBCFE6FF12DFF1
:100AE000E552E552DF2A010E01E3DB2AFB0EDB06AD
:100AF000FC0E01E2DB06DBD7DECF2BF0DDCF2CF0E6
:100B00002BC0F3FF2CC0F4FF00D0D9CFE1FFE5529A
:100B1000E7CFD9FF1200D9CFE6FFE1CFD9FF0A0E08
:100B2000E126040EDB6A050EDB6A060EDB6A070EA1
:100B3000DB6AFD0EDBCF1DF0FE0EDBCF1EF0080ED4
:100B40001DC0DBFF090E1EC0DBFF0701BE0ECA6F12
:100B5000EF0EDE6FD950FD0FE96EFF0EDA20EA6E60
:100B6000EE50ED1019E1300ECA6FCB6BF50EDBCFF6
:100B7000E6FFF60EDBCFE6FFF70EDBCFE6FFF80E63
:100B8000DBCFE6FFCA0EE66E070EE66EC8DEF56E38
:100B9000060EE15EF55026D1D950F90FE96EFF0E31
:100BA000DA20EA6EEE50ED102CE0D950FB0FE96E22
:100BB000FF0EDA20EA6E0A0EEE1801E1ED5021E197
:100BC000FD0EDBCF2BF0FE0EDBCF2CF00001800EF4
:100BD0002C1517E0010EF36E040EF3CFDBFF050EAC
:100BE000DB6A1D681E68FD0EDBCF22F0FE0EDBCF38
:100BF00023F03BEC1DF0080E1BC0DBFF090E1CC0F0
:100C0000DBFFDE0E2B6E070E2C6E2B06000E2C5A11
:100C10002BC0DEFF2CC0DDFFDECFE9FFDDCFEAFF1A
:100C2000EF6AD950080FE96EDACFEAFFEE50ED1007
:100C300072E0080EDBCF1DF0090EDBCF1EF0FB0EBD
:100C4000DBCF22F0FC0EDBCF23F0E9EC26F0020E26
:100C500019C0DBFF030E1AC0DBFF020EDBCF2BF047
:100C6000030EDBCF2CF02C50000AE8AE02D0D89057
:100C700004D00A0E2B5C000E2C5817E3F30EDBCFCA
:100C80002BF0F40EDBCF2CF0300E2B5E000E2C5A26
:100C90000A0E2B5E000E2C5AD950020FE96EDACFE5
:100CA000EAFF2B50EE262C50ED22300EE76E020E9E
:100CB000DBCF2BF0030EDBCF2CF0E7502B26000E02
:100CC0002C22D9CFE9FFDACFEAFFEE06ED5AEECFBC
:100CD000F3FFEDCFF4FFF3CFE9FFF4CFEAFF2BC032
:100CE000EFFFFB0EDBCF2BF0FC0EDBCF2CF0D9504F
:100CF000080FE96EDACFEAFF2BC022F02CC023F0F8
:100D0000EECF1DF0EDCF1EF0E9EC26F01DC0EEFF9A
:100D10001EC0EDFF86D7D950040FE96EDACFEAFF87
:100D2000EE50ED102FE0D950F70FE96EFF0EDA20EC
:100D3000EA6EEE50ED1015E0F50EDB50020B11E0FF
:100D40002D0EE66EE66ADEDDE552E552060EDB2A82
:100D5000070E01E3DB2AF70EDB06F80E01E2DB06E5
:100D600011D0D9CFE9FFDACFEAFFEE06000EED5A37
:100D7000EECFF3FFEDCFF4FFF3CFE9FFF4CFEAFFBF
:100D80002D0EEF6E060EDBCF2DF0070EDBCF2EF013
:100D90002DC0E6FF2EC0E6FFF50EDBCFE6FFF60E18
:100DA000DBCFE6FFF70EDBCFE6FFF80EDBCFE6FF8B
:100DB000DECFE6FFDDCFE6FFB2DDF56E060EE15ECB
:100DC000F550E552E7CF2EF0E552E7CF2DF02D504C
:100DD000F3242B6E2E50F4202C6E2BC0F3FF2CC06E
:100DE000F4FF00D0D9CFE1FFE552E7CFD9FF1200E1
:100DF000D9CFE6FFE1CFD9FF2E0EE1262C0EDB6A1C
:100E00002D0EDB6AFD0EDBCFE9FFFE0EDBCFEAFF26
:100E1000EF5001E119D3FD0EDBCFE9FFFE0EDBCF72
:100E2000EAFFEF50250801E0E0D2FD0EDB2AFE0EBE
:100E300001E3DB2A2A0EDB6A2B0EDB6AD950280F6E
:100E4000E96EDACFEAFFEE6AED6AFD0EDBCFE9FF6D
:100E5000FE0EDBCFEAFFEF5001E1F6D2FD0EDBCF55
:100E6000E9FFFE0EDBCFEAFFEF50250801E1BDD21E
:100E7000FD0EDBCFE9FFFE0EDBCFEAFFEF502D08C2
:100E80000CE1FD0EDB2AFE0E01E3DB2A010EF36E00
:100E90002A0EF3CFDBFF2B0EDB6AFD0EDBCFE9FF63
:100EA000FE0EDBCFEAFFEF5030080DE1FD0EDB2A2E
:100EB000FE0E01E3DB2AD9502A0FE96EDACFEAFFF2
:100EC000EE82ED52EAD7FD0EDBCFE9FFFE0EDBCF5F
:100ED000EAFFEFCF2BF0300E2B5C30E3FD0EDBCFC3
:100EE000E9FFFE0EDBCFEAFFEF50390827E3D950C8
:100EF000280FE96EDACFEAFF0A0EEC02F3CFEDFF1E
:100F0000EF02F3CFEEFFF450ED26FD0EDBCFE9FF4D
:100F1000FE0EDBCFEAFFEF50D00F2B6E2C6AD950BC
:100F2000280FE96EDACFEAFF2B50EE262C50ED2287
:100F3000FD0EDB2AFE0E01E3DB2AC5D7FD0EDBCF5B
:100F4000E9FFFE0EDBCFEAFFEF50730861E1D950F5
:100F5000FB0FE96EFF0EDA20EA6EEECFF3FFEDCF66
:100F6000F4FF020EEE5E000EEF5AF3CFE9FFF4CF6E
:100F7000EAFFEECF2BF0EFCF2CF02D6A2BC0E6FF6F
:100F80002CC0E6FF2DC0E6FFD9CFE6FFDACFE6FFA3
:100F900085EC26F0F56E050EE15EF550DF5015E1AB
:100FA000BAC12BF0BBC12CF02D6A2BC0E6FF2CC0C0
:100FB000E6FF2DC0E6FFD9CFE6FFDACFE6FF85ECEE
:100FC00026F0F56E050EE15EF5502A0EDBCFE6FF4A
:100FD0002B0EDBCFE6FF280EDBCFE6FF290EDBCFA3
:100FE000E6FFD9CFE6FFDACFE6FF99DCF56E060E15
:100FF000E15EF550F3CF2BF0F4CF2CF0D9502C0F4D
:10100000E96EDACFEAFF2B50EE262C50ED2216D2F5
:10101000FD0EDBCFE9FFFE0EDBCFEAFFEF506408E9
:101020003EE1610EE66EE66A2A0EDBCFE6FF2B0E8E
:10103000DBCFE6FF280EDBCFE6FF290EDBCFE6FF96
:10104000010EE66EE66A0A0EE66EE66AD950FB0FFE
:10105000E96EFF0EDA20EA6EEECFF3FFEDCFF4FF7C
:10106000020EEE5E000EEF5AF3CFE9FFF4CFEAFF77
:10107000EECFE6FFEFCFE6FF4EDDF56E0C0EE15E44
:10108000F550F3CF2BF0F4CF2CF0D9502C0FE96EA4
:10109000DACFEAFF2B50EE262C50ED22CFD1FD0EF9
:1010A000DBCFE9FFFE0EDBCFEAFFEF5078083EE131
:1010B000610EE66EE66A2A0EDBCFE6FF2B0EDBCF73
:1010C000E6FF280EDBCFE6FF290EDBCFE6FF000EA2
:1010D000E66EE66A100EE66EE66AD950FB0FE96E20
:1010E000FF0EDA20EA6EEECFF3FFEDCFF4FF020E33
:1010F000EE5E000EEF5AF3CFE9FFF4CFEAFFEECF3A
:10110000E6FFEFCFE6FF07DDF56E0C0EE15EF55072
:10111000F3CF2BF0F4CF2CF0D9502C0FE96EDACFAF
:10112000EAFF2B50EE262C50ED2288D1FD0EDBCFAE
:10113000E9FFFE0EDBCFEAFFEF5058083EE1410E1B
:10114000E66EE66A2A0EDBCFE6FF2B0EDBCFE6FF6C
:10115000280EDBCFE6FF290EDBCFE6FF000EE66EA2
:10116000E66A100EE66EE66AD950FB0FE96EFF0ED6
:10117000DA20EA6EEECFF3FFEDCFF4FF020EEE5E63
:10118000000EEF5AF3CFE9FFF4CFEAFFEECFE6FF10
:10119000EFCFE6FFC0DCF56E0C0EE15EF550F3CF4D
:1011A0002BF0F4CF2CF0D9502C0FE96EDACFEAFFF8
:1011B0002B50EE262C50ED2241D1FD0EDBCFE9FF66
:1011C000FE0EDBCFEAFFEF5075083EE1610EE66EE2
:1011D000E66A2A0EDBCFE6FF2B0EDBCFE6FF280EFA
:1011E000DBCFE6FF290EDBCFE6FF000EE66EE66AF8
:1011F0000A0EE66EE66AD950FB0FE96EFF0EDA20A2
:10120000EA6EEECFF3FFEDCFF4FF020EEE5E000EBE
:10121000EF5AF3CFE9FFF4CFEAFFEECFE6FFEFCFCF
:10122000E6FF79DCF56E0C0EE15EF550F3CF2BF0A6
:10123000F4CF2CF0D9502C0FE96EDACFEAFF2B5007
:10124000EE262C50ED22FAD0FD0EDBCFE9FFFE0E8C
:10125000DBCFEAFFEF506C0801E081D0610EE66E53
:10126000E66A2A0EDBCFE6FF2B0EDBCFE6FF280E69
:10127000DBCFE6FF290EDBCFE6FF000EE66EE66A67
:10128000100EE66EE66AD950FB0FE96EFF0EDA200B
:10129000EA6EEECFF3FFEDCFF4FF020EEE5E000E2E
:1012A000EF5AF3CFE9FFF4CFEAFFEECFE6FFEFCF3F
:1012B000E6FF31DCF56E0C0EE15EF550F3CF2BF05E
:1012C000F4CF2CF0D9502C0FE96EDACFEAFF2B5077
:1012D000EE262C50ED22610EE66EE66A2A0EDBCF7A
:1012E000E6FF2B0EDBCFE6FF280EDBCFE6FF290E55
:1012F000DBCFE6FF000EE66EE66A100EE66EE66AEB
:10130000D950FB0FE96EFF0EDA20EA6EEECFF3FF45
:10131000EDCFF4FF020EEE5E000EEF5AF3CFE9FFC1
:10132000F4CFEAFFEECFE6FFEFCFE6FF8BEC05F060
:10133000F56E0C0EE15EF550F3CF2BF0F4CF2CF0F0
:10134000D9502C0FE96EDACFEAFF2B50EE262C5045
:10135000ED22FD0EDB2AFE0E01E3DB2A6FD0FD0E2F
:10136000DBCFE9FFFE0EDBCFEAFFEF5062083CE186
:10137000610EE66EE66A020EE66EE66A280EDBCFC6
:10138000E6FF290EDBCFE6FF000EE66EE66A020EF0
:10139000E66EE66AD950FB0FE96EFF0EDA20EA6EC0
:1013A000EECFF3FFEDCFF4FF020EEE5E000EEF5A2C
:1013B000F3CFE9FFF4CFEAFFEECFE6FFEFCFE6FF92
:1013C0008BEC05F0F56E0C0EE15EF550F3CF2BF0D3
:1013D000F4CF2CF0D9502C0FE96EDACFEAFF2B5066
:1013E000EE262C50ED222AD029D0FD0EDBCFE9FFCE
:1013F000FE0EDBCFEAFFEF500A0808E1FD0EDBCF5F
:10140000E9FFFE0EDBCFEAFF0D0EEF6EFD0EDBCF28
:10141000E9FFFE0EDBCFEAFFEFCF2BF02C6A2BBEED
:101420002C682BC0E6FF2CC0E6FF82EC04F0E552EE
:10143000E5522C0EDB2A2D0E01E3DB2AFD0EDB2A02
:10144000FE0E01E3DB2ADED42C0EDBCF2BF02D0EBB
:10145000DBCF2CF02BC0F3FF2CC0F4FF00D0D9CF92
:10146000E1FFE552E7CFD9FF1200D9CFE6FFE1CF88
:10147000D9FF020EE126D950FD0F2B6EFF0EDA20A8
:101480002C6E2BC0DEFF2CC0DDFFFD0EDBCF2BF062
:10149000FE0EDBCF2CF02D6A2BC0E6FF2CC0E6FF42
:1014A0002DC0E6FF000EE66E010EE66E85EC26F01E
:1014B000F56E050EE15EF550D9CFE9FFDACFEAFF10
:1014C000020EEE5E000EEF5ADECFE6FFDDCFE6FF46
:1014D000000EE66E010EE66E8BDCE552E552E5523B
:1014E000E55200D0D9CFE1FFE552E7CFD9FF120096
:1014F000D9CFE6FFE1CFD9FF610EE66EE66A020EB4
:10150000E66EE66A040EE66EE66A010EE66EE66ACE
:101510000A0EE66EE66AFD0EDBCFE6FFFE0EDBCFBF
:10152000E6FF8BEC05F0F56E0C0EE15EF550D95040
:10153000FB0FE96EFF0EDA20EA6EEE50ED1007E0C9
:101540000D0EE66EE66A82EC04F0E552E552E552D5
:10155000E7CFD9FF1200D9CFE6FFE1CFD9FF610E67
:10156000E66EE66A020EE66EE66A030EE66EE66A6E
:10157000010EE66EE66A0A0EE66EE66AFE0EDBCF46
:10158000E6FFE66A8BEC05F0F56E0C0EE15EF550B9
:10159000D950FC0FE96EFF0EDA20EA6EEE50ED1026
:1015A00007E00D0EE66EE66A82EC04F0E552E552C5
:1015B000E552E7CFD9FF1200D9CFE6FFE1CFD9FF3F
:1015C000610EE66EE66A020EE66EE66A100EE66EE2
:1015D000E66A000EE66EE66A020EE66EE66AFD0E4A
:1015E000DBCFE6FFFE0EDBCFE6FF8BEC05F0F56E02
:1015F0000C0EE15EF550D950FB0FE96EFF0EDA20BC
:10160000EA6EEE50ED1007E00D0EE66EE66A82EC33
:1016100004F0E552E552E552E7CFD9FF1200D9CFE9
:10162000E6FFE1CFD9FF610EE66EE66A020EE66ED6
:10163000E66A080EE66EE66A000EE66EE66A020EDE
:10164000E66EE66AFE0EDBCFE6FFE66A8BEC05F09F
:10165000F56E0C0EE15EF550D950FC0FE96EFF0EF1
:10166000DA20EA6EEE50ED1007E00D0EE66EE66A47
:1016700082EC04F0E552E552E552E7CFD9FF1200C3
:10168000D9CFE6FFE1CFD9FF610EE66EE66A000E24
:10169000E66EE66A020EE66EE66A000EE66EE66A40
:1016A000100EE66EE66AFD0EDBCFE6FFFE0EDBCF28
:1016B000E6FF8BEC05F0F56E0C0EE15EF550D950AF
:1016C000FB0FE96EFF0EDA20EA6EEE50ED1007E038
:1016D0000D0EE66EE66A82EC04F0E552E552E55244
:1016E000E7CFD9FF1200D9CFE6FFE1CFD9FF610ED6
:1016F000E66EE66A020EE66EE66AE66EE66A000EE0
:10170000E66EE66A100EE66EE66AFE0EDBCFE6FFD8
:10171000E66A8BEC05F0F56E0C0EE15EF550D950E3
:10172000FC0FE96EFF0EDA20EA6EEE50ED1007E0D6
:101730000D0EE66EE66A82EC04F0E552E552E552E3
:10174000E7CFD9FF1200D9CFE6FFE1CFD9FFFD0ED9
:10175000DBCF2BF0FE0EDBCF2CF02D6A2BC0E6FF8B
:101760002CC0E6FF2DC0E6FF000EE66E010EE66E11
:1017700085EC26F0F56E050EE15EF5500701E06B95
:10178000E16B000EE66E010EE66E9EEC26F0E55271
:10179000E552F3CF2BF0F4CF2CF007012B50E05D96
:1017A0002C50E15918E2000EE025E96E010EE1210E
:1017B000EA6EEFCF2BF02C6A2BBE2C682BC0E6FF15
:1017C0002CC0E6FF82EC04F0E552E5520701E02B65
:1017D000000EE123D6D7010EE66EE66AFB0EDBCFE4
:1017E000E6FFFC0EDBCFE6FF4BDFE552E552E552AC
:1017F000E552E552E7CFD9FF1200D9CFE6FFE1CF9E
:10180000D9FFFD0EDBCF2BF0FE0EDBCF2CF02D6AC7
:101810002BC0E6FF2CC0E6FF2DC0E6FF000EE66EF3
:10182000010EE66E85EC26F0F56E050EE15EF550D4
:101830000701E06BE16B000EE66E010EE66E9EECBA
:1018400026F0E552E552F3CF2BF0F4CF2CF0070150
:101850002B50E05D2C50E15918E2000EE025E96EB6
:10186000010EE121EA6EEFCF2BF02C6A2BBE2C6823
:101870002BC0E6FF2CC0E6FF82EC04F0E552E552F7
:101880000701E02B000EE123D6D7010EE66EE66AD3
:10189000FB0EDBCFE6FFFC0EDBCFE6FF8DDEE55275
:1018A000E552E552E552E552E7CFD9FF1200D9CF14
:1018B000E6FFE1CFD9FFFD0EDBCF2BF0FE0EDBCF35
:1018C0002CF02D6A2BC0E6FF2CC0E6FF2DC0E6FFF2
:1018D000000EE66E010EE66E85EC26F0F56E050E46
:1018E000E15EF5500701E06BE16B000EE66E010E64
:1018F000E66E9EEC26F0E552E552F3CF2BF0F4CFE6
:101900002CF007012B50E05D2C50E15918E2000E3D
:10191000E025E96E010EE121EA6EEFCF2BF02C6A93
:101920002BBE2C682BC0E6FF2CC0E6FF82EC04F037
:10193000E552E5520701E02B000EE123D6D7E55230
:06194000E7CFD9FF120001
:0A194600D9CFE6FFE1CFD9FFFD0E77
:10195000DBCF2BF0FE0EDBCF2CF02C50070AE8AECD
:1019600002D0D89004D0D00E2B5C070E2C5806E283
:101970000101D00EB66F070EB76F1ED0FD0EDBCF84
:101980002BF0FE0EDBCF2CF02C50080AE8AE02D074
:101990002C3405D0CE0ED8802B54080E2C5406E2E1
:1019A0000101CE0EB66F080EB76F06D0FD0EDBCF6D
:1019B000B6F1FE0EDBCFB7F1B6C12BF0B7C12CF0FC
:1019C000D00E2B5E070E2C5A2B5000D0E552E7CFDD
:1019D000D9FF1200D9CFE6FFE1CFD9FF080EE126EB
:1019E000FD0EDBCFE9FFFE0EDBCFEAFFEF50DE6E30
:1019F000DD6AFB0EDBCFE9FFFC0EDBCFEAFFEF5029
:101A0000E66ED950020FE96EDACFEAFFE552E750F1
:101A1000EE6EED6AF40EF36E040EF3CFDBFF010EF3
:101A2000F36E050EF3CFDBFFDECF2BF0DDCF2CF016
:101A30007F0E2B5E000E2C5A060E2BC0DBFF070E0E
:101A40002CC0DBFFDECF2BF0DDCF2CF07F0E2B5C2C
:101A5000000E2C5839E2DECF2BF0DDCF2CF0FF0E3C
:101A6000D8802B56000E2C567F0E2B5E000E2C5A63
:101A7000060E2BC0DBFF070E2CC0DBFF5A0E1D6EBF
:101A80001E6A060EDBCF22F0070EDBCF23F068ECD8
:101A90001DF01BC02BF01CC02CF0640E226E236ABC
:101AA0002BC01DF02CC01EF0E9EC26F01DC02BF061
:101AB0001EC02CF07F0ED8802B56000E2C562BC04B
:101AC000DEFF2CC0DDFF24D05A0E1D6E1E6A060EEE
:101AD000DBCF22F0070EDBCF23F068EC1DF01BC03C
:101AE0002BF01CC02CF0640E226E236A2BC01DF05C
:101AF0002CC01EF0E9EC26F01DC02BF01EC02CF00F
:101B00007F0E2B26000E2C222BC0DEFF2CC0DDFF0B
:101B1000DECFE6FFDDCFE6FF05D9E552E552F3CF94
:101B2000DEFFF4CFDDFF020EDBCF33F0030EDBCFA1
:101B300034F0D00E3326070E34220101AE51356E3B
:101B4000366A3550335C316E36503458326E190E69
:101B50001D6E1E6A31C022F032C023F068EC1DF009
:101B60001BC02FF01CC030F0640E226E236A2FC001
:101B70001DF030C01EF0E9EC26F01DC02FF01EC095
:101B800030F00101AE5100012E6B2F242D6F30502B
:101B90002E23040EDB502D5C2B6E050EDB502E58D1
:101BA0002C6E020E2BC0DBFF030E2CC0DBFFDECF42
:101BB00033F0DDCF34F0D00E3326070E342201018E
:101BC000AD51356E366A3550335C316E365034580F
:101BD000326E190E1D6E1E6A31C022F032C023F023
:101BE00068EC1DF01BC02FF01CC030F0640E226E9C
:101BF000236A2FC01DF030C01EF0E9EC26F01DC096
:101C00002FF01EC030F00101AD5100012E6B2F24CA
:101C10002D6F30502E23040EDB502D5C2B6E050EE5
:101C2000DB502E582C6E2BC0DEFF2CC0DDFF020EC9
:101C3000DBCFAEF1DFCFADF1D9CFE6FFDACFE6FFF4
:101C400021D8E552E552D950020FE66EDACFE6FF11
:101C500019D8E552E552FD0EDBCFE9FFFE0EDBCFD2
:101C6000EAFFDFCFEFFFFB0EDBCFE9FFFC0EDBCFA0
:101C7000EAFF020EDBCFEFFFD9CFE1FFE552E7CF5E
:101C8000D9FF1200D9CFE6FFE1CFD9FF020EE1263E
:101C9000FD0EDBCFE9FFFE0EDBCFEAFFEECFDEFF6E
:101CA000EDCFDDFFDECF2BF0DDCF2CF0770E2B5C00
:101CB000000E2C580DE2DECF2BF0DDCF2CF0080EFD
:101CC0002B26000E2C222BC0DEFF2CC0DDFF1AD0ED
:101CD000D9CFE9FFDACFEAFF870ED880EE54000EA5
:101CE000ED540DE2DECF2BF0DDCF2CF0080E2B5E95
:101CF000000E2C5A2BC0DEFF2CC0DDFF03D07F0E60
:101D0000DE6EDD6AFD0EDBCFE9FFFE0EDBCFEAFF04
:101D1000DECFEEFFDDCFEDFFD9CFE1FFE552E7CF1C
:101D2000D9FF1200D9CFE6FFE1CFD9FF0E0EE12691
:101D3000FD0EDBCF2BF0FE0EDBCF2CF02D6A2E6AD2
:101D40007F0E2B5E000E2C5A2D5A2E5A2BC0DFFF11
:101D5000010E2CC0DBFF020E2DC0DBFF030E2EC0D8
:101D6000DBFFD9CFE9FFDACFEAFFEECF2BF0EECFE2
:101D70002CF0EECF2DF0EFCF2EF02BC01BF02CC0AF
:101D80001CF02DC01DF02EC01EF0DFCF20F0010E84
:101D9000DBCF21F0020EDBCF22F0030EDBCF23F0EE
:101DA000C9EC25F0040E17C0DBFF050E18C0DBFFE1
:101DB000060E19C0DBFF070E1AC0DBFF040EDBCFD7
:101DC0001BF0050EDBCF1CF0060EDBCF1DF0070E5F
:101DD000DBCF1EF07F0E206E216A226A236A07EC99
:101DE0001DF0080E1BC0DBFF090E1CC0DBFF0A0E36
:101DF0001DC0DBFF0B0E1EC0DBFF7F0E2D6E2E6A9B
:101E00002F6A306AD950080FE96EDACFEAFFEE5038
:101E10002D26EE502E22EE502F22EE5030222DC0D5
:101E20002BF02EC02CF0FF0ED8802B56000E2C5617
:101E30000C0E2BC0DBFF0D0E2CC0DBFFFD0EDBCF2D
:101E40002BF0FE0EDBCF2CF07F0E2B5C000E2C58FF
:101E500011E20C0EDBCF2BF00D0EDBCF2CF0FF0EC2
:101E6000D8802B56000E2C560C0E2BC0DBFF0D0E0F
:101E70002CC0DBFF0C0EDBCF2BF00D0EDBCF2CF0DC
:101E80002BC0F3FF2CC0F4FF00D0D9CFE1FFE55207
:101E9000E7CFD9FF1200D9CFE6FFE1CFD9FFFE0E81
:101EA000DB5000D0E552E7CFD9FF120081B403D058
:101EB0008C8A8D9A02D08C9A8D9A01017AA110D0C9
:101EC000020E0101B05D0BE2B05105E18C868D96EA
:101ED000030EB06F04D08C968D86020EB06F07D0C3
:101EE0000101B051010803E2020EB05DB06F0101C3
:101EF0007AA300D07AA500D07AA700D0865128080E
:101F000005E2320E865D02E20101AF6B01018651EE
:101F10002B6E2C6A2C50000AE8AE02D02C3405D06F
:101F2000FA0ED8802B54000E2C5417E286512D6ED9
:101F30002E6A2E50010AE8AE02D0D89004D0040ECA
:101F40002D5C010E2E5809E20101AF0504E08C82E0
:101F50008D928C848D94010EAF6F010186515A08C9
:101F600010E2640E865D0DE2060E0101AF5D07E032
:101F70008CB203D08C828D9202D08C928D82060E10
:101F8000AF6F010186512B6E2C6A2C50000AE8AE0F
:101F900002D02C3405D0BE0ED8802B54000E2C5409
:101FA0001BE286512D6E2E6A2E50000AE8AE02D03A
:101FB000D89004D0D10E2D5C000E2E580DE2020EEA
:101FC0000101AF5D07E08CB403D08C848D9402D006
:101FD0008C948D94020EAF6F010186512B6E2C6A8A
:101FE0002C50000AE8AE02D02C3405D08C0ED880DC
:101FF0002B54000E2C5418E286512D6E2E6A2E5052
:10200000000AE8AE02D0D89004D0A00E2D5C000EDD
:102010002E580AE2040E0101AF5D04E08C928D821D
:102020008C948D94040EAF6F010186512B6E2C6A37
:102030002C50000AE8AE02D02C3405D0A00ED88077
:102040002B54000E2C5414E286512D6E2E6A2E5005
:10205000000AE8AE02D0D89004D0AA0E2D5C000E83
:102060002E5806E2050E0101AF5D00E0050EAF6FD0
:10207000010186512B6E2C6A2C50000AE8AE02D06A
:102080002C3405D0D20ED8802B54000E2C5414E2E0
:1020900086512D6E2E6A2E50000AE8AE02D0D890DE
:1020A00004D0D70E2D5C000E2E5806E2030E01015F
:1020B000AF5D00E0030EAF6F010183512B6E2C6A00
:1020C0002C50000AE8AE02D02C3405D08C0ED880FB
:1020D0002B54000E2C5403E28C908D9002D08C80F7
:1020E0008D907F512B6E2C6A2C50000AE8AE02D0E6
:1020F0002C3405D08C0ED8802B54000E2C5400E2CA
:1021000087512B6E2C6A2C50000AE8AE02D02C347A
:1021100005D08C0ED8802B54000E2C5403E28C88F2
:102120008D9802D08C988D988B512B6E2C6A2C50E8
:10213000000AE8AE02D02C3405D08C0ED8802B5487
:10214000000E2C5400E27BA100D07BA325D07BB7EE
:102150001FD08C808D9001015C6B0101B55117E09F
:102160008F0EE66E31EC24F0E552F3CF2BF0F4CF76
:102170002CF02BC0E6FF2CC0E6FFA70EE66E4A0E41
:10218000E66E35EC0AF0E552E552E552E55203D031
:1021900001017F0E5C6F05D07BB703D001017F0E7C
:1021A0005C6F01017BA500D07BA726D07BB320D03C
:1021B0008C808D900101FE0E5C6F0101B55117E01E
:1021C0008F0EE66E31EC24F0E552F3CF2BF0F4CF16
:1021D0002CF02BC0E6FF2CC0E6FFA70EE66E4A0EE1
:1021E000E66E35EC0AF0E552E552E552E55203D0D1
:1021F00001017F0E5C6F05D07BB303D001017F0E20
:102200005C6F12008C808D908C928D828C948D945A
:102210008C968D868C988D988C9A8D9A1200D9CF39
:10222000E6FFE1CFD9FF020EE126840EDE6E4A0EF4
:10223000DD6EF00EE66E26EC24F0E552938A93886C
:102240009386938499829980938E938C9A849A82B0
:10225000998699849A8A9A8894809A869A8E9A9C6A
:10226000919C670EE66E070EE66EA2EC18F0E55242
:10227000E552040EE66E070EE66EA2EC18F0E5528B
:10228000E55201017F0E636F63C162F163C161F1C9
:1022900063C160F163C15FF163C15EF163C15DF170
:1022A00063C15CF16B6F6BC16AF16BC169F16BC1AA
:1022B00068F16BC167F16BC166F16BC165F16BC110
:1022C00064F1000EE66EE66AE66EE66AE66EE66ABF
:1022D000E66EE66A5FEC22F0F56E080EE15EF55000
:1022E00091DF18EC24F08AEC13F0580EE66E010E24
:1022F000E66E15EC22F0E552E552DECFE6FFDDCFCB
:10230000E6FF800EE66E4A0EE66E35EC0AF0E55208
:10231000E552E552E5527AEC21F0D9CFE1FFE552E2
:10232000E7CFD9FF1200780EE66E010EE66EDBEC09
:1023300021F0E552E552010179BD02D0A6EC13F07F
:102340000101B12B000EB223B323B423B1C12BF092
:10235000B2C12CF0B3C12DF0B4C12EF00F0E2B166C
:102360002C6A2D6A2E6A2B502C102D102E100BE18A
:10237000010EB56F720EE66E4A0EE66E35EC0AF08F
:10238000E552E55201D0B56B0101B55117E0870E5A
:10239000E66E31EC24F0E552F3CF2BF0F4CF2CF0C5
:1023A0002BC0E6FF2CC0E6FF5D0EE66E4A0EE66E21
:1023B00035EC0AF0E552E552E552E55228D8040E14
:1023C000E66E070EE66E79EC16F0E552E552670E02
:1023D000E66E070EE66E79EC16F0E552E55266DD24
:1023E0006BC1E6FF6AC1E6FF69C1E6FF68C1E6FFAF
:1023F0009AEC24F0E552E552E552E552580EE66EAD
:10240000010EE66E15EC22F0E552E55212007E0E4A
:10241000E66E010EE66E820EE66E010EE66EEAECE8
:102420000CF0E552E552E552E5520101B55111E0DB
:1024300001017E51E66EE66A8251E66EE66A4E0E54
:10244000E66E4A0EE66E35EC0AF0F56E060EE15EBB
:10245000F550010182512E6AD00F2D6E070E2E22EB
:102460007E5100012D242B6F000E2E202C6F7F0E2D
:102470002B5E000E2C5A2BC0E6FF2CC0E6FFA3EC0F
:102480000CF0E552E552E66E06DDE55201016A6F99
:102490006B6F010182512E6AD00F2D6E070E2E2216
:1024A0007E512F6E306A2F502D5C2B6E30502E587F
:1024B0002C6E7F0E2B26000E2C222BC0E6FF2CC08C
:1024C000E6FFA3EC0CF0E552E552E66EE4DCE552E3
:1024D0000101686F696F69512B6E2C6AFF0ED880FD
:1024E0002B56000E2C562BC069F12BC068F1010150
:1024F00079BBBED07E5D07E37E51380804E301015D
:10250000589158833AD07D0E7E5D13E37E512B6E39
:102510002C6A2C50000AE8AE02D02C3405D0810E73
:10252000D8802B54000E2C5404E3010158815883A9
:1025300024D07E512B6E2C6A2C50000AE8AE02D0BB
:10254000D89004D0D80E2B5C000E2C5813E37E518B
:102550002D6E2E6A2E50000AE8AE02D02E3405D021
:10256000FF0ED8802D54000E2E5404E30101588133
:10257000589303D0010158915893000E01017F5DDB
:1025800007E37F51380804E30101589558873AD092
:102590007D0E7F5D13E37F512B6E2C6A2C50000A59
:1025A000E8AE02D02C3405D0810ED8802B54000E1A
:1025B0002C5404E301015885588724D07F512B6E99
:1025C0002C6A2C50000AE8AE02D0D89004D0D80E65
:1025D0002B5C000E2C5813E37F512D6E2E6A2E506B
:1025E000000AE8AE02D02E3405D0FF0ED8802D545C
:1025F000000E2E5404E301015885589703D00101C1
:1026000058955897589B8C50010B01E0588B58995E
:102610008D50010B01E05889589F8C50020B01E04E
:10262000588F589D8D50020B01E0588D8C50080B2F
:1026300001E0010E010BF36EFE0E5915F310596FF8
:102640008C50080B01E0010E010BF36EF346FD0EFA
:102650005915F310596F8C50080B01E0010E010B56
:10266000F36EF346F346FB0E5915F310596F51D034
:102670008FC11EF0C7EC19F01CC033F01DC034F040
:102680001EC035F01FC036F0710E216E3D0E226E59
:102690007A0E236E820E246E33C01CF034C01DF0FF
:1026A00035C01EF036C01FF083EC1CF01CC02FF0AC
:1026B0001DC030F01EC031F01FC032F0216A226A06
:1026C000236A870E246E2FC01CF030C01DF031C06D
:1026D0001EF032C01FF0FCEC19F01CC02BF01DC026
:1026E0002CF01EC02DF01FC02EF0216A226A200E91
:1026F000236E820E246E2BC01CF02CC01DF02DC04A
:102700001EF02EC01FF083EC1CF086EC1DF01EC0E6
:0427100058F112006A
:0C2714009F909D80CD8ECD98CD8ACD96F3
:10272000CD92CD809388938A938C938EF190F2868C
:102730009AEF13F0CC6ACB68CA96CA98CA9ACA9C18
:10274000CA80CA829D829F92CA841200CD901200D4
:10275000CD90CA94F2961200CD80CA84F2861200FF
:102760000101A52B000EA623A723A8231200010117
:10277000A32B000EA4231200D9CFE6FFE1CFD9FF8F
:10278000070EE126FC0EDBCFE9FFFD0EDBCFEAFFF3
:10279000EF5011E1D90EE66E4A0EE66E35EC0AF006
:1027A000E552E552FC0EDBCFE9FFFD0EDBCFEAFF81
:1027B000010EEF6E01D0CADFD9CFE1FFE552E7CFBE
:1027C000D9FF1200D9CFE6FFE1CFD9FF060EE126EF
:1027D000BFDFFD0EDBCFE9FFFE0EDBCFEAFFEECF62
:1027E0002BF0EECF2CF0EECF2DF0EFCF2EF0FD0E34
:1027F000DBCFE9FFFE0EDBCFEAFF040EE926000E79
:10280000EA222BC0EEFF2CC0EEFF2DC0EEFF2EC043
:10281000EEFFFD0EDBCFE9FFFE0EDBCFEAFF0C0E75
:10282000E926000EEA22EF50E66EFD0EDBCFE9FF4F
:10283000FE0EDBCFEAFF0D0EE926000EEA22E5527E
:10284000E750EF6EFD0EDBCFE9FFFE0EDBCFEAFFB8
:102850000F0EE926000EEA22EF50E66EFD0EDBCFEA
:10286000E9FFFE0EDBCFEAFF100EE926000EEA229A
:10287000E552E750EF6EFD0EDBCFE9FFFE0EDBCF3A
:10288000EAFFA5C1EEFFA6C1EEFFA7C1EEFFA8C1FA
:10289000EEFFFD0EDBCFE9FFFE0EDBCFEAFF0C0EF5
:1028A000E926000EEA22CCCFEFFFFD0EDBCFE9FFD9
:1028B000FE0EDBCFEAFF0F0EE926000EEA22FC0E29
:1028C000DBCFEFFFFD0EDBCFE9FFFE0EDBCFEAFF34
:1028D000040EE926000EEA22EECF2BF0EECF2CF00C
:1028E000EECF2DF0EFCF2EF0FD0EDBCFE9FFFE0E89
:1028F000DBCFEAFF2B50EE5C2C50EE582D50EE58FB
:102900002E50EE5837E2FD0EDBCFE9FFFE0EDBCF97
:10291000EAFF040EE926000EEA22EECF2BF0EECFFE
:102920002CF0EECF2DF0EFCF2EF02B1E2C1E2D1EF7
:102930002E1EFD0EDBCFE9FFFE0EDBCFEAFFEE50D1
:102940002B26EE502C22EE502D22EE502E22FD0E84
:10295000DBCFE9FFFE0EDBCFEAFF080EE926000E13
:10296000EA222BC0EEFF2CC0EEFF2DC0EEFF2EC0E2
:10297000EEFF36D0FD0EDBCFE9FFFE0EDBCFEAFF28
:10298000EECF2FF0EECF30F0EECF31F0EFCF32F0D0
:10299000FD0EDBCFE9FFFE0EDBCFEAFF040EE926DA
:1029A000000EEA22EE502F5C2B6EEE5030582C6E4B
:1029B000EE5031582D6EEE5032582E6EFD0EDBCF9C
:1029C000E9FFFE0EDBCFEAFF080EE926000EEA2241
:1029D0002BC0EEFF2CC0EEFF2DC0EEFF2EC0EEFF91
:1029E000FD0EDBCFE9FFFE0EDBCFEAFF0C0EE92682
:1029F000000EEA22EF50DE6EDD6AFD0EDBCFE9FF4E
:102A0000FE0EDBCFEAFF0D0EE926000EEA22EF50A4
:102A1000E66ED950020FE96EDACFEAFFE552E750D1
:102A2000EE6EED6ADECF2BF0DDCF2CF0020EDBCFA9
:102A30002DF0030EDBCF2EF02C502E18E8AE02D076
:102A40002E3404D02D502B5C2E502C581AE2DECFA1
:102A50002BF0DDCF2CF0000E2B26010E2C222BC0EC
:102A6000DEFF2CC0DDFFFD0EDBCFE9FFFE0EDBCF6E
:102A7000EAFF080EE926000EEA22EE06EE5AEE5AAA
:102A8000EE5ADECF2DF0DDCF2EF0020EDB502D5CA6
:102A90002B6E030EDB502E582C6EFD0EDBCFE9FFA4
:102AA000FE0EDBCFEAFF0E0EE926000EEA222BC057
:102AB000EFFFFD0EDBCFE9FFFE0EDBCFEAFF530E8B
:102AC000E926000EEA22EF50020801E1A9D00F0E1C
:102AD000F36E040EF3CFDBFF050EDB6A040EDBCFD3
:102AE0002BF0050EDBCF2CF02C50000AE8AE02D004
:102AF0002C3405D0000ED8802B54000E2C5401E34A
:102B00008FD0FD0EDBCFE9FFFE0EDBCFEAFF130E09
:102B1000E926000EEA22E9CF31F0EACF32F0040EC6
:102B2000DBCF33F0050EDBCF34F03306000E345A22
:102B3000D89033363436D890333634363150332447
:102B4000E96E32503420EA6EEECF2DF0EECF2EF04B
:102B5000EECF2FF0EFCF30F0FD0EDBCFE9FFFE0E12
:102B6000DBCFEAFF130EE926000EEA22E9CF2BF0B5
:102B7000EACF2CF0040E1D6E1E6ADBCF22F0050E8C
:102B8000DBCF23F03BEC1DF02B501B24E96E2C50C7
:102B90001C20EA6E2DC0EEFF2EC0EEFF2FC0EEFF10
:102BA00030C0EEFFFD0EDBCFE9FFFE0EDBCFEAFF0C
:102BB000530EE926000EEA22E9CF2DF0EACF2EF0DF
:102BC000040EDBCF2FF0050EDBCF30F02F06000E0A
:102BD000305A2D502F24E96E2E503020EA6EEF50DF
:102BE000E66EFD0EDBCFE9FFFE0EDBCFEAFF530EF4
:102BF000E926000EEA22E9CF2BF0EACF2CF0040EF2
:102C0000DB502B24E96E050EDB502C20EA6EE552DA
:102C1000E750EF6E040EDB06050E01E2DB065ED721
:102C20002B682C682D682E6AFD0EDBCFE9FFFE0EA7
:102C3000DBCFEAFF080EE926000EEA22EE502B1643
:102C4000EE502C16EE502D16EE502E16080E1F0BC1
:102C500007E0D8902B362C362D362E36E806F9E1D3
:102C6000FD0EDBCFE9FFFE0EDBCFEAFF0E0EE926FD
:102C7000000EEA22EFCF2FF0306A316A326A2F500D
:102C80002B2630502C2231502D2232502E22FD0E78
:102C9000DBCFE9FFFE0EDBCFEAFF130EE926000EC5
:102CA000EA222BC0EEFF2CC0EEFF2DC0EEFF2EC09F
:102CB000EEFFFD0EDBCFE9FFFE0EDBCFEAFF0F0ECE
:102CC000E926000EEA22EF50E66EFD0EDBCFE9FFAB
:102CD000FE0EDBCFEAFF530EE926000EEA22E55294
:102CE000E750EF6E39DDD9CFE1FFE552E7CFD9FFED
:102CF0001200D9CFE6FFE1CFD9FF060EE126FD0E87
:102D0000DBCFE9FFFE0EDBCFEAFFA5C1EEFFA6C1D8
:102D1000EEFFA7C1EEFFA8C1EEFFFD0EDBCFE9FF7E
:102D2000FE0EDBCFEAFF0C0EE926000EEA22CCCF26
:102D3000EFFFFD0EDBCFE9FFFE0EDBCFEAFF040E57
:102D4000E926000EEA22EECF2BF0EECF2CF0EECFEC
:102D50002DF0EFCF2EF0FD0EDBCFE9FFFE0EDBCF27
:102D6000EAFF2B50EE5C2C50EE582D50EE582E50B2
:102D7000EE5837E2FD0EDBCFE9FFFE0EDBCFEAFFB8
:102D8000040EE926000EEA22EECF2BF0EECF2CF057
:102D9000EECF2DF0EFCF2EF02B1E2C1E2D1E2E1E53
:102DA000FD0EDBCFE9FFFE0EDBCFEAFFEE502B2658
:102DB000EE502C22EE502D22EE502E22FD0EDBCFB7
:102DC000E9FFFE0EDBCFEAFF080EE926000EEA223D
:102DD0002BC0EEFF2CC0EEFF2DC0EEFF2EC0EEFF8D
:102DE00036D0FD0EDBCFE9FFFE0EDBCFEAFFEECFE4
:102DF0002FF0EECF30F0EECF31F0EFCF32F0FD0E0E
:102E0000DBCFE9FFFE0EDBCFEAFF040EE926000E62
:102E1000EA22EE502F5C2B6EEE5030582C6EEE50A6
:102E200031582D6EEE5032582E6EFD0EDBCFE9FF7D
:102E3000FE0EDBCFEAFF080EE926000EEA222BC0C9
:102E4000EEFF2CC0EEFF2DC0EEFF2EC0EEFFFD0EFC
:102E5000DBCFE9FFFE0EDBCFEAFF0C0EE926000E0A
:102E6000EA22EF50DE6EDD6AFD0EDBCFE9FFFE0EDB
:102E7000DBCFEAFF0D0EE926000EEA22EF50E66EE8
:102E8000D950020FE96EDACFEAFFE552E750EE6E55
:102E9000ED6ADECF2BF0DDCF2CF0020EDBCF2DF074
:102EA000030EDBCF2EF02C502E18E8AE02D02E34BD
:102EB00004D02D502B5C2E502C581AE2DECF2BF074
:102EC000DDCF2CF0000E2B26010E2C222BC0DEFFB6
:102ED0002CC0DDFFFD0EDBCFE9FFFE0EDBCFEAFFEE
:102EE000080EE926000EEA22EE06EE5AEE5AEE5AD7
:102EF000DECF2DF0DDCF2EF0020EDB502D5C2B6EE1
:102F0000030EDB502E582C6EFD0EDBCFE9FFFE0EBC
:102F1000DBCFEAFF0E0EE926000EEA222BC0EFFF00
:102F2000FD0EDBCFE9FFFE0EDBCFEAFF530EE926F5
:102F3000000EEA22EF50020801E1A9D00F0EF36E55
:102F4000040EF3CFDBFF050EDB6A040EDBCF2BF0A4
:102F5000050EDBCF2CF02C50000AE8AE02D02C344A
:102F600005D0000ED8802B54000E2C5401E38FD0D6
:102F7000FD0EDBCFE9FFFE0EDBCFEAFF130EE926E5
:102F8000000EEA22E9CF31F0EACF32F0040EDBCFB7
:102F900033F0050EDBCF34F03306000E345AD890F0
:102FA00033363436D8903336343631503324E96EE4
:102FB00032503420EA6EEECF2DF0EECF2EF0EECF71
:102FC0002FF0EFCF30F0FD0EDBCFE9FFFE0EDBCFB1
:102FD000EAFF130EE926000EEA22E9CF2BF0EACF32
:102FE0002CF0040E1D6E1E6ADBCF22F0050EDBCF27
:102FF00023F03BEC1DF02B501B24E96E2C501C20C1
:10300000EA6E2DC0EEFF2EC0EEFF2FC0EEFF30C0E7
:10301000EEFFFD0EDBCFE9FFFE0EDBCFEAFF530E26
:10302000E926000EEA22E9CF2DF0EACF2EF0040EB9
:10303000DBCF2FF0050EDBCF30F02F06000E305A1D
:103040002D502F24E96E2E503020EA6EEF50E66EA0
:10305000FD0EDBCFE9FFFE0EDBCFEAFF530EE926C4
:10306000000EEA22E9CF2BF0EACF2CF0040EDB5061
:103070002B24E96E050EDB502C20EA6EE552E7505A
:10308000EF6E040EDB06050E01E2DB065ED72B6851
:103090002C682D682E6AFD0EDBCFE9FFFE0EDBCF1C
:1030A000EAFF080EE926000EEA22EE502B16EE503B
:1030B0002C16EE502D16EE502E16080E1F0B07E0A4
:1030C000D8902B362C362D362E36E806F9E1FD0E3B
:1030D000DBCFE9FFFE0EDBCFEAFF0E0EE926000E86
:1030E000EA22EFCF2FF0306A316A326A2F502B2656
:1030F00030502C2231502D2232502E22FD0EDBCFAB
:10310000E9FFFE0EDBCFEAFF130EE926000EEA22EE
:103110002BC0EEFF2CC0EEFF2DC0EEFF2EC0EEFF49
:10312000FD0EDBCFE9FFFE0EDBCFEAFF530EE926F3
:10313000000EEA22020EEF6ED9CFE1FFE552E7CF93
:10314000D9FF1200D9CFE6FFE1CFD9FF020EE12669
:10315000FD0EDBCFE9FFFE0EDBCFEAFFEE6AEE6A83
:10316000EE6AEE6AFD0EDBCFE9FFFE0EDBCFEAFF73
:10317000040EE926000EEA22EE6AEE6AEE6AEE6AB4
:10318000FD0EDBCFE9FFFE0EDBCFEAFF080EE926DE
:10319000000EEA22EE6AEE6AEE6AEE6AFD0EDBCF00
:1031A000E9FFFE0EDBCFEAFF0C0EE926000EEA2255
:1031B000EF6AFD0EDBCFE9FFFE0EDBCFEAFF0D0E5F
:1031C000E926000EEA22EF6AFD0EDBCFE9FFFE0ED4
:1031D000DBCFEAFF0E0EE926000EEA22EF6AFD0EB3
:1031E000DBCFE9FFFE0EDBCFEAFF0F0EE926000E74
:1031F000EA22EF6AFD0EDBCFE9FFFE0EDBCFEAFF2E
:10320000100EE926000EEA22EF6ADE6ADD6ADECFE2
:103210002BF0DDCF2CF02C50000AE8AE02D0D89075
:1032200004D0100E2B5C000E2C583BE2FD0EDBCFC1
:10323000E9FFFE0EDBCFEAFF130EE926000EEA22BD
:10324000E9CF2BF0EACF2CF0040E1D6E1E6ADECF04
:1032500022F0DDCF23F03BEC1DF02B501B24E96E58
:103260002C501C20EA6EEE6AEE6AEE6AEE6AFD0EE3
:10327000DBCFE9FFFE0EDBCFEAFF530EE926000E9F
:10328000EA22E9CF2BF0EACF2CF0DE502B24E96EB6
:10329000DD502C20EA6EEF6ADF2A010E01E3DB2A03
:1032A000B6D7D9CFE1FFE552E7CFD9FF1200D9CF8A
:1032B000E6FFE1CFD9FF220EE1260101B55149E039
:1032C000FD0EDBCFE9FFFE0EDBCFEAFF0E0EE92697
:1032D000000EEA22EF50E66EE66AFD0EDBCFE9FF54
:1032E000FE0EDBCFEAFF080EE926000EEA22EECF43
:1032F000E6FFEECFE6FFEECFE6FFEFCFE6FFCC0E28
:10330000E66E4A0EE66E35EC0AF0F56E080EE15EEA
:10331000F550FD0EDBCFE9FFFE0EDBCFEAFF130E0B
:10332000E926000EEA22040EE926000EEA22EECF7C
:10333000E6FFEECFE6FFEECFE6FFEFCFE6FFBA0EF9
:10334000E66E4A0EE66E35EC0AF0F56E060EE15EAC
:10335000F550D9CFE1FFE552E7CFD9FF1200D9CF21
:10336000E6FFE1CFD9FFE552E7CFD9FF1200D9CF71
:10337000E6FFE1CFD9FFE552E7CFD9FF1200D9CF61
:0E338000E6FFE1CFD9FFE552E7CFD9FF1200FB
:02338E00860EA9
:103390001F6E256A1D6A1C6A1B6ADBEF19F0860E18
:1033A0001F6E1EC025F01D6A1C6A1B6AE86A1EAEED
:1033B000DBEF19F01E6C2A6AE86A1E642FEF1EF01C
:1033C000F00E1E14E866E7EF19F01E3A2A84D89032
:1033D0001EBEF7EF19F01E362A2A1EBEF7EF19F0AF
:1033E0001E362A2A1EBEF7EF19F01E362A2A2A5048
:1033F0001F5E25AE1E9E000C276AE86A24642DEF2E
:103400001EF01F642FEF1EF01E502318256E1E8E17
:10341000238E223423342A36D890E8362A36060FF3
:10342000F66E370EF76E2A50010BF722F86A000E7F
:10343000F8220A00F5CF19F00A00F5CF2AF00800AB
:10344000F5CF29F01950295C196ED8902134190252
:10345000F4CFF7FF22341902F3CFE8FFF726D8B0F4
:10346000F42A286AF750285EF450295AE86A2A5A42
:103470001EC019F01DC0F7FF1CC0F6FF1C5028022B
:10348000F4CF1AF01D502902F4CF1CF0F3CF1BF03B
:103490002802F3501A26F4501B22E86A1C22F65028
:1034A0002902F3501A26F4501B22E86A1C221E50EF
:1034B0002802F3501B26F4501C221E5029021D6ABC
:1034C000E86A1D22F3501C26F4501D22F6502A02F1
:1034D000F3501B26F4501C221E6AE86A1D221E228D
:1034E000F7502A02F3501C26F4501D22E86A1E22CF
:1034F00019502A02F3501D26F4501E221EBE86EFDC
:103500001AF01B361C361D361E36270623C019F04E
:1035100022C0F7FF21C0F6FF21502802F4CF1AF095
:1035200022502902F4CF21F0F3CF20F02802F350EB
:103530001A26F4502022E86A2122F6502902F3507C
:103540001A26F4502022E86A212223502802F35040
:103550002026F450212223502902226AE86A2222DE
:10356000F3502126F4502222F6502A02F35020264E
:10357000F4502122236AE86A22222322F7502A02E9
:10358000F3502126F4502222E86A232219502A02FD
:10359000F3502226F450232223AE23BCD6EF1AF098
:1035A0001A362036213622362336272A206C211E51
:1035B000221E231EE86A2122222223221EC02AF074
:1035C0001DC029F01CC028F01BC0F6FF1C502102B2
:1035D000F4CF1AF01D502002F4501A261D5021027B
:1035E0001B6AE86A1B22F3501A26F4501B22F6507D
:1035F0002202F4501A261C6AE86A1B221C22285058
:103600002202F3501A26F4501B22E86A1C22295089
:103610002202F3501B26F4501C221E502102F350AC
:103620001B26F4501C221E5022021D6AE86A1D222D
:10363000F3501C26F4501D222A502002F3501A2663
:10364000F4501B22E86A1C221D222A502302F4CFC8
:103650001EF0F3501D26E86A1E22F6502302F35096
:103660001A26F4501B22E86A1C221D221E22285012
:103670002302F3501B26F4501C22E86A1D221E224E
:1036800029502302F3501C26F4501D22E86A1E2202
:103690001EBE58EF1BF01B361C361D361E36270685
:1036A0001EBE58EF1BF01B361C361D361E36270675
:1036B00024501F5E800ED8A065EF1BF027241F2624
:1036C000D8B018EF1EF06AEF1BF027241F26D8A0F1
:1036D00022EF1EF026BC1BAE7FEF1BF0D880800EC1
:1036E0001B641C30E86A1C221D221E22D8A07FEF1A
:1036F0001BF01E321D321C321F4A18EF1EF025AE81
:103700001E9E000CFFFF01FF04FE09FD10FC19FBCB
:1037100023FA30F93EF84EF760F674F58AF4A1F317
:10372000BAF2D5F1F1F00FF02FEF50EE73ED98EC07
:10373000BEEBE5EA0FEA39E966E893E7C3E6F3E5AD
:1037400026E559E48EE3C5E2FCE136E170E0ACDF4A
:10375000E9DE28DE68DDA9DCEBDB2FDB74DABAD921
:1037600002D94AD894D7DFD62CD679D5C7D417D466
:1037700068D3BAD20DD261D1B7D00DD064CFBDCE4F
:1037800017CE71CDCDCC29CC87CBE6CA46CAA6C907
:1037900008C96AC8CEC733C798C6FEC566C5CEC4B9
:1037A00037C4A1C30CC378C2E5C152C1C1C030C087
:1037B000A0BF11BF83BEF6BD69BDDDBC52BCC8BB96
:1037C0003FBBB6BA2FBAA8B921B99CB817B893B7FE
:1037D00010B78DB60BB68AB50AB58AB40BB48DB3E3
:1037E0000FB392B216B29BB120B1A6B02CB0B3AF5A
:1037F0003BAFC3AE4CAED6AD60ADEBAC77AC03AC7B
:103800008FAB1DABABAA39AAC8A958A9E8A879A85B
:103810000BA89CA72FA7C2A656A6EAA57FA514A50C
:10382000AAA440A4D7A36EA306A39FA238A2D1A1A5
:103830006BA106A1A1A03CA0D89F749F119FAF9E31
:103840004D9EEB9D8A9D299DC99C699C0A9CAB9BC2
:103850004C9BEE9A919A349AD7997B991F99C49868
:1038600069980E98B4975A970197A8965096F8952C
:10387000A0954995F2949C944694F0939B9346931B
:10388000F1929D924992F691A3915091FE90AC9045
:103890005A900990B88F688F178FC88E788E298EAE
:1038A000DA8D8C8D3E8DF08CA38C568C098CBC8B64
:1038B000708B248BD98A8E8A438AF889AE89648971
:1038C0001B89D28889884088F887AF8768872087D6
:1038D000D98692864C860586BF8579853485EF84A6
:1038E000AA8465842184DD83998356831283CF82E1
:1038F0008D824A820882C681858143810281C1808E
:103900008180408001801B6AE86A24621F642FEF77
:103910001EF01E502318256E24501F267E0ED8A0A0
:1039200098EF1CF01F5ED8B018EF1EF09CEF1CF053
:103930001F5ED8A022EF1EF01E8E238E1EC02AF01E
:103940001DC029F01CC028F01C502102F4CF1AF031
:103950001D502202F4CF1CF0F3CF1BF02102F350D4
:103960001A26F4501B22E86A1C2228502202F35027
:103970001A26F4501B22E86A1C221E502102F35022
:103980001B26F4501C221E5022021D6AE86A1D22CA
:10399000F3501C26F4501D2228502302F3501B26FE
:1039A000F4501C221E6AE86A1D221E22295023029E
:1039B000F3501C26F4501D22E86A1E222A502302CE
:1039C000F3501D26F4501E221EBEEFEF1CF01B36D6
:1039D0001C361D361E361F06D8B422EF1EF026BC3C
:1039E0001BAE04EF1DF0D880800E1B641C30E86A0B
:1039F0001C221D221E22D8A004EF1DF01E321D32F3
:103A00001C321F4A18EF1EF025AE1E9E000C256AC0
:103A1000E86A23AE14EF1DF0206C211E221E231E27
:103A2000212222222322251E1EAE1FEF1DF01B6C19
:103A30001C1E1D1E1E1E1C221D221E22251EACEC3D
:103A400026F01EBE36EF1DF025AE000C1B6C1C1EB2
:103A50001D1E1E1EE86A1C221D221E22176C181E27
:103A6000191E1A1E182219221A22000C25BE26EF32
:103A70001DF02688FF0C1EC02AF01DC029F01D5025
:103A80002202F4CF1CF0F3CF1BF01E502302F4CF20
:103A90001EF0F3CF1DF02202F3501C26F4501D221D
:103AA000E86A1E2229502302F3501C26F4501D22DE
:103AB000E86A1E2223AE61EF1DF029501D5E2A50D8
:103AC0001E5A2AAE000C22501D5E23501E5A000CB6
:103AD0001DC029F01D502202F4CF1CF0F3CF1BF0C3
:103AE0001E502302F4CF1EF0F3CF1DF02202F3503C
:103AF0001C26F4501D22E86A1E2229502302F3508E
:103B00001C26F4501D22E86A1E22000CE86A1F647D
:103B1000000C1EC025F01E8E860E1F5CE8AE0FEF57
:103B20001EF0E86C1F6E070E1F64B7EF1DF01F5EDE
:103B30001EC01DF01E6A1F4ED7EF1DF0030E1F643E
:103B4000A9EF1DF01F5E1D380F0B1D6E1F4ED7EF26
:103B50001DF0D8901D321F4ED7EF1DF0D8901D32AA
:103B60001F4ED7EF1DF0D8901D32D7EF1DF0030E7A
:103B70001F64C8EF1DF01F5E1D380F0B1D6E1E3831
:103B8000F00B1D261E380F0B1E6E1F4ED7EF1DF0BB
:103B9000D8901E321D321F4ED7EF1DF0D8901E3226
:103BA0001D321F4ED7EF1DF0D8901E321D3226BC9D
:103BB0001DAEE4EF1DF0D880800E1D641E30E86A53
:103BC0001E221EBE0FEF1EF025AE000C1E6C000C58
:103BD000268026AEFF0C1E6A25AE1E681EC01DF094
:103BE0001EC01CF01EC01BF025361E32FF0C2680A6
:103BF00026AEFF0C1E6A25AE1E681EC01DF01EC03C
:103C00001CF025361E32FF0C268026AEFF0C1E6AE5
:103C100025AE1E681EC01DF025361E32FF0C268004
:103C200026AEFF0C1E6A25AE1E6825361E32FF0C1E
:103C3000268226AEFF0C1F681E681D681C6825368C
:103C40001E32FF0C268426AEFF0C010E1F6E1E6A6C
:103C50001D6A1C6A25361E32FF0C2686FF0C1E6A62
:103C60001D6A1C6A1B6A1F6A000C25AE1E9E000C92
:103C7000D8CFE4FFE0CFE4FFE46EDACFE4FFE2CF99
:103C8000DAFFE9CFE4FFEACFE4FFE652D9CFE6FF5F
:103C9000E1CFD9FF020EE126F2A402D0F2945BD06C
:103CA0009EA004D09E90B7EC13F055D09EA204D0F5
:103CB0009E92B0EC13F04FD0F0A202D0F0924BD015
:103CC000F0A402D0F09447D0F2A045D08150DF6E2E
:103CD000F290DF500101B919E76E010EE7CFDBFF6B
:103CE000DFCFB9F1DBA810D0B80EE66E010EE66E9C
:103CF000100EDF1402E0010E01D0000EE66EBCECE7
:103D000013F0E552E552E552010EDBAA0AD0200E6F
:103D1000DF1402E0010E01D0000EE66EAFEC19F0E8
:103D2000E552010EDBAC0AD0400EDF1402E0010EBA
:103D300001D0000EE66EB7EC19F0E552010EDBAED5
:103D40000AD0800EDF1402E0010E01D0000EE66EF4
:103D5000BFEC19F0E552D9CFE1FFE552E7CFD9FF2B
:103D6000E552E5CFEAFFE5CFE9FFE5CFDAFFE55021
:103D7000E5CFE0FFE5CFD8FF1000D9CFE6FFE1CFD8
:103D8000D9FF130EE126DF6A0F0EDB6A100EDB6A25
:103D90007F0EF36E110EF3CFDBFF7F0EF36E120E6C
:103DA000F3CFDBFF070EDF5C11E2D950010F2B6E62
:103DB000DACF2CF0DF50020D2B50F324E96E2C509B
:103DC000F420EA6EEE6AED6ADF2AECD7DF6A0101C1
:103DD00079ADEED1010198A1EAD1780EE66E010E1F
:103DE000E66EDBEC21F0E552E5520101B85151E0FD
:103DF000D9500F0FE96EDACFEAFFEE50ED1008E16F
:103E0000020EDF6E0F0EDB2A100E01E3DB2A40D01C
:103E10000F0EDBCF2BF0100EDBCF2CF0140E2B5C33
:103E2000000E2C5808E2030EDF6E0F0EDB2A100E78
:103E300001E3DB2A2DD00F0EDBCF2BF0100EDBCFF2
:103E40002CF0640E2B5C000E2C5808E2040EDF6E82
:103E50000F0EDB2A100E01E3DB2A1AD00F0EDBCF88
:103E60002BF0100EDBCF2CF04A0E2B5C010E2C58E1
:103E700008E2050EDF6E0F0EDB2A100E01E3DB2ACF
:103E800007D0060EDF6E0F0EDB2A100E01E3DB2AD1
:103E900012D0870EE66E31EC24F0E552F3CF2BF012
:103EA000F4CF2CF0C80E2B5C000E2C5802E2DF6A17
:103EB00002D0010EDF6E0F0EDB500F0B0DE1DFCFD6
:103EC000E6FFE66A430EE66E4A0EE66E35EC0AF051
:103ED000E552E552E552E5520F0EDB500F0B10E1B3
:103EE0000F0EDBCFE6FF100EDBCFE6FF370EE66EE0
:103EF0004A0EE66E35EC0AF0E552E552E552E5521F
:103F0000DF50060A68E0030A5BE0010A4EE0070A98
:103F100041E0010A32E0030A27E0010A01E064D02F
:103F20000F0EDB500F0B17E1870EE66E31EC24F01D
:103F3000E552F3CF2BF0F4CF2CF02BC0E6FF2CC0D2
:103F4000E6FF2C0EE66E4A0EE66E35EC0AF0E55200
:103F5000E552E552E5520101AA0E6B6F6BC16AF1A1
:103F6000696969C168F140D00101C80E6B6F6BC10E
:103F70006AF1696F69C168F137D0A6EC13F00101ED
:103F80007F0E6B6F6BC16AF1696F69C168F18C88D4
:103F90008D982AD001017F0E6B6F6BC16AF1696F3A
:103FA00069C168F18C888D981FD001017F0E6B6FFD
:103FB0006BC16AF1696F69C168F18C988D9814D0F2
:103FC0008C988D980101C80E6B6F6BC16AF1696F97
:103FD00069C168F109D001017F0E6B6F6BC16AF195
:103FE000696F69C168F100D001016A51326AD00F6E
:103FF000316E070E3222110EDB50336E346A3350AD
:10400000315C2F6E34503258306E190E1D6E1E6AA0
:104010002FC022F030C023F068EC1DF01BC02DF043
:104020001CC02EF0640E226E236A2DC01DF02EC01F
:104030001EF0E9EC26F01DC02DF01EC02EF0110E72
:10404000DB5000012C6B2D242B6F2E502C23F40EF3
:104050002B5E010E2C5A2BC06BF12BC06AF10101B3
:104060006851326AD00F316E070E3222120EDB50C9
:10407000336E346A3350315C2F6E34503258306EA8
:10408000190E1D6E1E6A2FC022F030C023F068EC9E
:104090001DF01BC02DF01CC02EF0640E226E236A92
:1040A0002DC01DF02EC01EF0E9EC26F01DC02DF035
:1040B0001EC02EF0120EDB5000012C6B2D242B6F36
:1040C0002E502C23F40E2B5E010E2C5A2BC069F1BE
:1040D0002BC068F1110E6AC1DBFF120E68C1DBFF55
:1040E000DF5023E0D950010F2B6EDACF2CF0DF50D8
:1040F000020D2B50F324E96E2C50F420EA6EEE50A2
:10410000ED1013E1D950010F2B6EDACF2CF0DF50F8
:10411000020D2B50F324E96E2C50F420EA6E0F0EA2
:10412000DBCFEEFF100EDBCFEDFF81B403D08C8A26
:104130008D9A02D08C9A8D9A7F0E0101685D320DA6
:10414000F3CF2BF0640E2C6E2CC023F02BC01EF08E
:1041500033EC27F01E5001016825696F686F7F0EF0
:104160006A5D320DF3CF2BF0640E2C6E2CC023F061
:104170002BC01EF033EC27F01E5001016A256B6F37
:104180006A6F6BC1E6FF6AC1E6FF69C1E6FF68C1FD
:10419000E6FF9AEC24F0E552E552E552E552580E5E
:1041A000E66E010EE66E15EC22F0E552E5520FD6F2
:0E41B000D9CFE1FFE552E7CFD9FF1200120090
:0241BE00DACF56
:1041C000E4FFE2CFDAFFE9CFE4FFEACFE4FFE65213
:1041D000F2A202D094D802D09EB6C0D8E552E5CF64
:1041E000EAFFE5CFE9FFE5CFDAFF1100E66A010E4D
:1041F000E66E050EE66E01EC26F0E552E552E5525C
:104200001200070EB46E000E886E876E866E856E85
:10421000846E836E826E816E806E916E906E8F6EF4
:104220008E6E8D6E8C6E8B6E8A6E896E2F0E926E78
:1042300093689C0E946E956A966A9768986A0E0EBB
:104240009A6E9968C16AF19EB0989C8EA26A9F6A24
:10425000A06A9D6AA36AA56AC9DF9F86D08E9E96D2
:104260009D869382F06AF288F09EF098F192F09A1F
:10427000F16AF28CF28E1200D9CFE6FFE1CFD9FFBE
:10428000E652BFDF01019897989907015C0EED6F28
:10429000010EEE6FDF6A100EDF5C0AE2DF50EA6AA1
:1042A000ED25E96EEE51EA227F0EEF6EDF2AF3D79D
:1042B0000101756B010E766FC20E776F0101988553
:1042C00001017A6B7B6B0101586B5A6B5B6B010EC2
:1042D000D56E320ED76ECF0ED66ED59E580EE66EC8
:1042E000010EE66EA2D8E552E552E552E552E7CF5F
:1042F000D9FF120082828088949292981200F292E2
:104300000701200EE96F9F86010198A906D00701D9
:10431000E00EE66F000EE76F05D00701C00EE66FF6
:10432000000EE76F010198A1987998A706D00701C0
:10433000800EE46F000EE56F05D00701A00EE46F5C
:10434000000EE56FC9CFEAF7E4C7E9FFE5C7EAFF6A
:10435000E42B000EE523EF50C96E12009E96C9CFE4
:10436000EAF70701E951000824E2E6C7E9FFE7C7D9
:10437000EAFFE62B000EE723EAC7EFFFE4C7E9FFF9
:10438000E5C7EAFFE42BE523EFCFEAF7EAC7C9FF69
:10439000E907E9510DE1010198810101020E766FF3
:1043A00001019893320ED76ECF0ED66EF294D58E51
:1043B00001D0C96A1200D9CFE6FFE1CFD9FF0101D0
:1043C00098A12FD098A906D00701C00EE26F000E69
:1043D000E36F05D00701E00EE26F000EE36FFD0E04
:1043E000DBCFEBF7FE0EDBCFECF7E86B200EE85DE2
:1043F00014E2E851EA6AE225E96EE351EA22EF505D
:10440000E66EEBC7E9FFECC7EAFFEB2B000EEC23EF
:10441000E552E750EF6EE82BE9D79D9601019891A0
:104420009D86E552E7CFD9FF1200D9CFE6FFE1CF55
:10443000D9FF010198B33AD0020E0101765D01E186
:1044400080D801016D9F010198A706D00701A00E39
:10445000E26F000EE36F05D00701800EE26F000EE1
:10446000E36FFD0EDBCFEDF7FE0EDBCFEEF7E86B73
:10447000200EE85D14E2EDC7E9FFEEC7EAFFED2B81
:10448000000EEE23EF50E66EE851EA6AE225E96E8F
:10449000E351EA22E552E750EF6EE82BE9D79D960B
:1044A0000101987798839D860101752BE552E7CF2E
:1044B000D9FF12009D96010198919D861200D9CFD7
:1044C000E6FFE1CFD9FF0001166BD950FD0FE96E71
:1044D000FF0EDA20EA6E010EEE1801E1ED5002E166
:1044E000168101D0BA6AD950FB0FE96EFF0EDA20AF
:1044F000EA6E010EEE1801E1ED5002E1168301D0E3
:10450000B76AD950F90FE96EFF0EDA20EA6E010E94
:10451000EE1801E1ED5002E1168501D0736AD95021
:10452000F70FE96EFF0EDA20EA6E010EEE1801E1D8
:10453000ED5002E1168701D0706AE552E7CFD9FF4E
:1045400012000101746B6F6BC6AE04D0C69E010EE3
:104550006F6F0ED0F150800B06E0F250080B03E0B5
:10456000020E6F6F05D0F0A603D0909E030E6F6F02
:10457000250EC614250805E0010E746FC6CF6FF135
:1045800068D0C55005E0020E746FC5CF6FF161D0E1
:10459000D0BE05D0030E746FD0CF6FF15AD09DB648
:1045A00005D0040E746F9DCF6FF153D09C5005E081
:1045B000050E746F9CCF6FF14CD0080E9F5C05E028
:1045C000060E746F9FCF6FF144D0A25005E0070E26
:1045D000746FA2CF6FF13DD0A55005E0080E746F47
:1045E000A5CF6FF136D0500EF214500805E0090E39
:1045F000746FF2CF6FF12DD0470EF11405E00A0E63
:10460000746FF1CF6FF125D0C00EF01405E00B0EE2
:10461000746FF0CF6FF11DD092A805D00C0E746F9F
:1046200092CF6FF116D093B005D00D0E746F93CF6B
:104630006FF10FD03E0E94141C0805E00E0E746F3F
:1046400094CF6FF106D097BE04D00F0E746F97CF42
:044650006FF11200F4
:0C4654009EB802D0FDD7FCD71200D9CFD1
:10466000E6FFE1CFD9FFFE0EDBCFE6FF83EC24F0BF
:10467000E5520D0EAD6EEEDFE552E7CFD9FF120029
:10468000D9CFE6FFE1CFD9FF0101D950FD0F506F1F
:10469000FF0EDA20516F010EEA6A5025E96E515182
:1046A000EA22EF50E66E83EC24F0E55250C1E9FFB8
:1046B00051C1EAFFEF50E66E83EC24F0E5520D0E97
:1046C000AD6EC8DFE552E7CFD9FF1200D9CFE6FFC4
:1046D000E1CFD9FFFD0EDBCF2BF0FE0EDBCF2CF0B0
:1046E0002D6A2BC0E6FF2CC0E6FF2DC0E6FF000EB2
:1046F000E66E010EE66E85EC26F0F56E050EE15EC7
:10470000F550000EE66E010EE66E9EEC26F0E552C8
:10471000E552F3CF54F1F4CF55F101015551000AA0
:10472000E8AE02D0553505D0500ED8805455000E55
:10473000555503E2500E546F556B566B576B5751DE
:104740005519E8AE02D0553504D05451565D555137
:1047500057590EE2000E5625E96E010E5721EA6EFA
:10476000EF50AD6E77DF0101562B000E5723E7D7D0
:10477000E552E7CFD9FF1200D9CFE6FFE1CFD9FF4D
:104780000101526B1A0E525D11E2FD0EDBCFE9FF03
:10479000DB2AFE0EDBCFEAFF01E3DB2AEF50E66EF9
:1047A00083EC24F0E5520101522BECD70D0EAD6ED7
:1047B00051DFE552E7CFD9FF12000101780E506FAB
:1047C000010E516F010178510701EF6FF06BF1514C
:1047D000EF1902E1F251F01918E0010198A502D099
:1047E00098950FD0F1C7E6FF83EC24F0E552EFC7B0
:1047F000E6FF83EC24F0E5520D0EAD6E2BDF0101D8
:104800009895EFC7F1F7F0C7F2F70701F12B000E0B
:10481000F223F251000AE8AE02D0F23505D0FF0EC5
:10482000D880F155000EF25502E2F16BF26B1200E6
:10483000150EE66E3C0EE66E2EEC26F0E552E552C5
:10484000320EE66E23EC27F0E5521200D9CFE6FFD8
:10485000E1CFD9FFFE0EDBCF53F1E552E7CFD9FF11
:104860001200D9CFE6FFE1CFD9FF020EE126FE0EFE
:10487000DB507F0BFE0BFD0BE66E53C1E6FF5AECDF
:1048800026F0E552E5520A0EE66E41EC27F0E552BD
:104890004FEC27F007EC04F0000901E0FBD7D0EC67
:1048A00026F04CEC27F0C4502D6E2DC02EF02D6A52
:1048B000C35000012D102B6F2EC02CF02BC0DEFF3B
:1048C0002CC0DDFFDECF2BF0DDCF2CF02BC0F3FFB3
:1048D0002CC0F4FF00D0D9CFE1FFE552E7CFD9FFDC
:0248E0001200C4
:0E48E200000EE96EEA6E04007EEC24F0EA2A75
:1048F000080EEA5CD8A474EF24F01200EF6AE93ED7
:104900007EEF24F01200FF0EE3CF09F009380F0B01
:10491000060FD8B2070F2A0FAD6E2AEC23F009500C
:104920000F0B060FD8B2070F2A0FAD6E2AEC23F03B
:10493000000C1200F2B4120016500F0AD8B4120084
:10494000FF0EE3CF0AF0FE0EE3CF0BF0FD0EE3CF38
:104950000CF0FC0EE3CF0DF00A2A16A08D8E0B2A68
:1049600016A28F800C2A16A48F860D2A16A68F8871
:104970000E6A0F6A106A116AEDEC24F00A2EC3EF7A
:1049800024F016A08D9E0B2EC8EF24F016A28F9057
:104990000C2ECDEF24F016A48F9600000D2ED3EF31
:1049A00024F016A68F9800000E2ED8EF24F0129057
:1049B00000000F2EDDEF24F012920000102EE2EF27
:1049C00024F012940000112EE7EF24F012960FEC61
:1049D00025F0133EBEEF24F01200D70E136E000038
:1049E00000000000000005EC25F0132EEFEF24F08E
:1049F000D70E136E000000000000000005EC25F04B
:104A0000132EFAEF24F000001200000008EF25F04A
:104A10000000000000000000000000001200030E73
:0C4A2000146E0000142E11EF25F012009F
:044A2C0044697374F2
:104A3000203D2025640A00436C6F636B203D2025D8
:104A4000640A005461736B203D2025640A00586F8E
:104A50003A20256409596F3A2025640A0044697395
:104A6000742066726F6D2066726F6E743A202564D2
:104A70000A000A2D2D2D2D2D2D2D2D2D2D2D0A0029
:104A800025730A0049464920557365722050726F9C
:104A9000636573736F7220496E697469616C697ABA
:104AA0006564202E2E2E0043757272656E743A2056
:104AB000256400286E756C6C2900706572696F64DE
:104AC0005B315D203D3E20256C640A0064656C749A
:104AD00020256C643A25640A004865616420546F9F
:104AE000776172647320746865204C696768742EFE
:044AF0002E2E0A005C
:0C4AF4001E0EF66E080EF76E000EF86E37
:104B000001010900F5509E6F0900F5509F6F03E108
:104B10009E6701D03DD00900F550996F0900F5500E
:104B20009A6F0900F5509B6F09000900F550E96E76
:104B30000900F550EA6E090009000900F5509C6F64
:104B40000900F5509D6F09000900F6CFA0F1F7CFDD
:104B5000A1F1F8CFA2F199C1F6FF9AC1F7FF9BC16D
:104B6000F8FF01019C5302E19D5307E00900F55055
:104B7000EE6E9C07F8E29D07F9D7A0C1F6FFA1C130
:104B8000F7FFA2C1F8FF01019E07000E9F5BBFD790
:024B9000120011
:0E4B92001B502002F3CF17F0F4CF18F02102D1
:104BA000F3501826000EF420196E1B502202F35009
:104BB0001926000EF4201A6E1B502302F3501A26F9
:104BC0001C502002F3501826F4501922000E1A220D
:104BD0001C502102F3501926F4501A221C502202B4
:104BE000F3501A261D502002F3501926F4501A22B1
:104BF0001D502102F3501A261E502002F3501A268F
:024C00001200A0
:0E4C0200D9CFE6FFE1CFD9FF3F0EC716C66A35
:104C1000FE0EDB50C612FC0EDB50C712FD0EDB5041
:104C2000030A09E0010A04E0020A06E1C78C04D085
:104C3000C78CC68801D0C688FE0EDB50050A03E08B
:104C4000010A04E1928A9486C79E01D09496949AB0
:0C4C50009488C68AE552E7CFD9FF120015
:044C5C00D9CFE6FFC7
:104C6000E1CFD9FFAC6AAB6AFE0EDBB0AC88DBA249
:104C700002D0AC8CAB8CDBB4AC8EDBA602D0AB88A4
:104C800001D0AB8ADBA802D0AC8401D0AC94DBAC01
:104C900002D09D8A01D09D9ADBAE02D09D8801D0C2
:104CA0009D98FD0EDB50AF6EAC8AAB8EE552E7CF20
:044CB000D9FF120016
:0C4CB400D9CFE6FFE1CFD9FFC26AC16A88
:104CC000C06AFD0EDB407F0B3C0BC26EFE0EDB505C
:104CD0000F0B2B6EFD0EDB38F00B300B2B10C16E63
:104CE000FE0EDB380F0B070B2B6EFE0EDB50800B1E
:104CF0002B10C06EFD0EDBAE03D09E9C9D8CF28C03
:0A4D0000C280E552E7CFD9FF120090
:064D0A00FB0EE3CFF6FFF3
:104D1000FC0EE3CFF7FFFD0EE3CFF8FFFE0EE3CF6F
:104D2000E9FFFF0EE3CFEAFFE9CFF3FFEACFF4FF9D
:104D30000900F5CFEFFFEE66FBD71200FE0EE3CFC2
:104D4000E9FFFF0EE3CFEAFFF36AF46AEE5203E0F5
:084D5000F34AF42AFBD712001C
:084D58001A6A196A186A176A49
:104D6000200EE76ED8901B361C361D361E361736C1
:104D7000183619361A362050175C21501858225010
:104D8000195823501A5809E32050175E2150185A19
:104D90002250195A23501A5A1B2AE72EE4D7120020
:104DA000D9CFE6FFE1CFD9FF020EE126C350DF6E77
:104DB000010EC4CFDBFFDECF2BF0DDCF2CF02BC0FC
:104DC000F3FF2CC0F4FFD9CFE1FFE552E7CFD9FFC5
:024DD0001200CF
:0E4DD2001A6A196A100EE76ED8901D361E364A
:104DE00019361A362250195C23501A5805E32250FE
:0E4DF000195E23501A5A1D2AE72EF0D7120022
:024DFE003CEC8B
:104E000021F00FEC11F001019891010198A107D058
:104E100093EC11F0010179AD02D0BDEC1EF0DEEC97
:064E200020F0F3D71200A0
:0A4E260016EE00F026EE00F0F86A28
:104E3000269CA68EA69C71EC24F07AEC25F0FFEC63
:064E400026F0F9D7120074
:0A4E4600FF0EE350376E480E01D056
:104E50004C0EE76EE72EFED7E76AE72EFED7372E19
:064E6000F7D7000012006C
:0A4E66001A6A080EE76ED8901E3697
:104E70001A3623501A5C02E31A6E1E2AE72EF7D761
:024E800012001E
:0E4E8200FF0EE350E84E1200000000D000D0FA
:084E900000D0E82EFAD7120051
:064E9800C2909D9C120077
:024E9E00C282CE
:024EA0001200FE
:094EA2007F7F0000000000000009
:054EAB00000000000002
:054EB0000000000000FD
:024EB500B34AFE
:044EB70000000000F7
:020000040030CA
:0E000000FFFEFEFCFFFEFBFFFFFFFFFFFFFF0A
:00000001FF
